{
	"proy/pi-markets/smart-contracts/tokens/packable/PiPNFToken.sol": {
		"PiPNFToken": {
			"abi": [
				{
					"constant": true,
					"inputs": [],
					"name": "name",
					"outputs": [
						{
							"name": "_name",
							"type": "string"
						}
					],
					"payable": false,
					"stateMutability": "view",
					"type": "function"
				},
				{
					"constant": false,
					"inputs": [
						{
							"name": "_new",
							"type": "address"
						}
					],
					"name": "setOwner",
					"outputs": [],
					"payable": false,
					"stateMutability": "nonpayable",
					"type": "function"
				},
				{
					"constant": true,
					"inputs": [],
					"name": "totalSupply",
					"outputs": [
						{
							"name": "",
							"type": "uint256"
						}
					],
					"payable": false,
					"stateMutability": "view",
					"type": "function"
				},
				{
					"constant": true,
					"inputs": [
						{
							"name": "",
							"type": "address"
						},
						{
							"name": "",
							"type": "bytes32"
						}
					],
					"name": "balances",
					"outputs": [
						{
							"name": "",
							"type": "uint256"
						}
					],
					"payable": false,
					"stateMutability": "view",
					"type": "function"
				},
				{
					"constant": true,
					"inputs": [
						{
							"name": "_owner",
							"type": "address"
						},
						{
							"name": "_tokenId",
							"type": "bytes32"
						}
					],
					"name": "balanceById",
					"outputs": [
						{
							"name": "",
							"type": "uint256"
						}
					],
					"payable": false,
					"stateMutability": "view",
					"type": "function"
				},
				{
					"constant": true,
					"inputs": [
						{
							"name": "_owner",
							"type": "address"
						}
					],
					"name": "tokenOfOwner",
					"outputs": [
						{
							"name": "",
							"type": "bytes32[]"
						}
					],
					"payable": false,
					"stateMutability": "view",
					"type": "function"
				},
				{
					"constant": true,
					"inputs": [
						{
							"name": "_owner",
							"type": "address"
						},
						{
							"name": "_index",
							"type": "uint256"
						}
					],
					"name": "tokenOfOwnerByIndex",
					"outputs": [
						{
							"name": "",
							"type": "bytes32"
						}
					],
					"payable": false,
					"stateMutability": "view",
					"type": "function"
				},
				{
					"constant": true,
					"inputs": [],
					"name": "decimals",
					"outputs": [
						{
							"name": "",
							"type": "uint8"
						}
					],
					"payable": false,
					"stateMutability": "view",
					"type": "function"
				},
				{
					"constant": true,
					"inputs": [
						{
							"name": "",
							"type": "uint256"
						}
					],
					"name": "tokens",
					"outputs": [
						{
							"name": "",
							"type": "bytes32"
						}
					],
					"payable": false,
					"stateMutability": "view",
					"type": "function"
				},
				{
					"constant": true,
					"inputs": [
						{
							"name": "_owner",
							"type": "address"
						},
						{
							"name": "_destination",
							"type": "address"
						},
						{
							"name": "_tokenId",
							"type": "bytes32"
						}
					],
					"name": "getApproved",
					"outputs": [
						{
							"name": "",
							"type": "uint256"
						}
					],
					"payable": false,
					"stateMutability": "view",
					"type": "function"
				},
				{
					"constant": false,
					"inputs": [
						{
							"name": "_owner",
							"type": "address"
						},
						{
							"name": "_approved",
							"type": "address"
						},
						{
							"name": "_tokenId",
							"type": "bytes32"
						},
						{
							"name": "_amount",
							"type": "uint256"
						}
					],
					"name": "approve",
					"outputs": [],
					"payable": false,
					"stateMutability": "nonpayable",
					"type": "function"
				},
				{
					"constant": true,
					"inputs": [
						{
							"name": "_tokenId",
							"type": "bytes32"
						}
					],
					"name": "isExpired",
					"outputs": [
						{
							"name": "",
							"type": "bool"
						}
					],
					"payable": false,
					"stateMutability": "view",
					"type": "function"
				},
				{
					"constant": true,
					"inputs": [
						{
							"name": "_owner",
							"type": "address"
						}
					],
					"name": "balanceOf",
					"outputs": [
						{
							"name": "",
							"type": "uint256"
						}
					],
					"payable": false,
					"stateMutability": "view",
					"type": "function"
				},
				{
					"constant": false,
					"inputs": [
						{
							"name": "_to",
							"type": "address"
						},
						{
							"name": "_json",
							"type": "uint256[5]"
						},
						{
							"name": "_amount",
							"type": "uint256"
						}
					],
					"name": "mint",
					"outputs": [],
					"payable": false,
					"stateMutability": "nonpayable",
					"type": "function"
				},
				{
					"constant": false,
					"inputs": [
						{
							"name": "_tokenId",
							"type": "bytes32"
						},
						{
							"name": "_amount",
							"type": "uint256"
						}
					],
					"name": "burn",
					"outputs": [],
					"payable": false,
					"stateMutability": "nonpayable",
					"type": "function"
				},
				{
					"constant": false,
					"inputs": [
						{
							"name": "_from",
							"type": "address"
						},
						{
							"name": "_to",
							"type": "address"
						},
						{
							"name": "_tokenId",
							"type": "bytes32"
						},
						{
							"name": "_amount",
							"type": "uint256"
						}
					],
					"name": "transferFrom",
					"outputs": [],
					"payable": false,
					"stateMutability": "nonpayable",
					"type": "function"
				},
				{
					"constant": true,
					"inputs": [],
					"name": "owner",
					"outputs": [
						{
							"name": "",
							"type": "address"
						}
					],
					"payable": false,
					"stateMutability": "view",
					"type": "function"
				},
				{
					"constant": false,
					"inputs": [
						{
							"name": "_new",
							"type": "string"
						}
					],
					"name": "setJsonReference",
					"outputs": [],
					"payable": false,
					"stateMutability": "nonpayable",
					"type": "function"
				},
				{
					"constant": true,
					"inputs": [],
					"name": "symbol",
					"outputs": [
						{
							"name": "_symbol",
							"type": "string"
						}
					],
					"payable": false,
					"stateMutability": "view",
					"type": "function"
				},
				{
					"constant": false,
					"inputs": [
						{
							"name": "_operator",
							"type": "address"
						},
						{
							"name": "_approved",
							"type": "bool"
						}
					],
					"name": "setApprovalForAll",
					"outputs": [],
					"payable": false,
					"stateMutability": "nonpayable",
					"type": "function"
				},
				{
					"constant": true,
					"inputs": [
						{
							"name": "_tokenId",
							"type": "bytes32"
						}
					],
					"name": "getMetadata",
					"outputs": [
						{
							"name": "",
							"type": "uint256[5]"
						}
					],
					"payable": false,
					"stateMutability": "view",
					"type": "function"
				},
				{
					"constant": true,
					"inputs": [],
					"name": "getTokens",
					"outputs": [
						{
							"name": "",
							"type": "bytes32[]"
						}
					],
					"payable": false,
					"stateMutability": "view",
					"type": "function"
				},
				{
					"constant": false,
					"inputs": [
						{
							"name": "_from",
							"type": "address"
						},
						{
							"name": "_to",
							"type": "address"
						},
						{
							"name": "_tokenId",
							"type": "bytes32"
						},
						{
							"name": "_amount",
							"type": "uint256"
						},
						{
							"name": "_data",
							"type": "bytes"
						}
					],
					"name": "safeTransferFromApproved",
					"outputs": [],
					"payable": false,
					"stateMutability": "nonpayable",
					"type": "function"
				},
				{
					"constant": false,
					"inputs": [
						{
							"name": "_from",
							"type": "address"
						},
						{
							"name": "_to",
							"type": "address"
						},
						{
							"name": "_tokenId",
							"type": "bytes32"
						},
						{
							"name": "_amount",
							"type": "uint256"
						},
						{
							"name": "_data",
							"type": "bytes"
						}
					],
					"name": "safeTransferFrom",
					"outputs": [],
					"payable": false,
					"stateMutability": "nonpayable",
					"type": "function"
				},
				{
					"constant": true,
					"inputs": [
						{
							"name": "_owner",
							"type": "address"
						},
						{
							"name": "_operator",
							"type": "address"
						}
					],
					"name": "isApprovedForAll",
					"outputs": [
						{
							"name": "",
							"type": "bool"
						}
					],
					"payable": false,
					"stateMutability": "view",
					"type": "function"
				},
				{
					"constant": true,
					"inputs": [
						{
							"name": "",
							"type": "bytes32"
						}
					],
					"name": "supplyByCategory",
					"outputs": [
						{
							"name": "",
							"type": "uint256"
						}
					],
					"payable": false,
					"stateMutability": "view",
					"type": "function"
				},
				{
					"constant": true,
					"inputs": [],
					"name": "jsonReference",
					"outputs": [
						{
							"name": "",
							"type": "string"
						}
					],
					"payable": false,
					"stateMutability": "view",
					"type": "function"
				},
				{
					"inputs": [
						{
							"name": "_name",
							"type": "string"
						},
						{
							"name": "_symbol",
							"type": "string"
						},
						{
							"name": "_owner",
							"type": "address"
						},
						{
							"name": "_jsonReference",
							"type": "string"
						}
					],
					"payable": false,
					"stateMutability": "nonpayable",
					"type": "constructor"
				},
				{
					"anonymous": false,
					"inputs": [
						{
							"indexed": true,
							"name": "_from",
							"type": "address"
						},
						{
							"indexed": true,
							"name": "_to",
							"type": "address"
						},
						{
							"indexed": true,
							"name": "_tokenId",
							"type": "bytes32"
						},
						{
							"indexed": false,
							"name": "_amount",
							"type": "uint256"
						}
					],
					"name": "Transfer",
					"type": "event"
				},
				{
					"anonymous": false,
					"inputs": [
						{
							"indexed": true,
							"name": "_owner",
							"type": "address"
						},
						{
							"indexed": true,
							"name": "_approved",
							"type": "address"
						},
						{
							"indexed": true,
							"name": "_tokenId",
							"type": "bytes32"
						},
						{
							"indexed": false,
							"name": "_amount",
							"type": "uint256"
						}
					],
					"name": "Approval",
					"type": "event"
				},
				{
					"anonymous": false,
					"inputs": [
						{
							"indexed": true,
							"name": "_owner",
							"type": "address"
						},
						{
							"indexed": true,
							"name": "_operator",
							"type": "address"
						},
						{
							"indexed": false,
							"name": "_approved",
							"type": "bool"
						}
					],
					"name": "ApprovalForAll",
					"type": "event"
				},
				{
					"anonymous": false,
					"inputs": [
						{
							"indexed": true,
							"name": "tokenId",
							"type": "bytes32"
						},
						{
							"indexed": false,
							"name": "json",
							"type": "uint256[5]"
						}
					],
					"name": "NewJson",
					"type": "event"
				},
				{
					"anonymous": false,
					"inputs": [
						{
							"indexed": false,
							"name": "old",
							"type": "string"
						},
						{
							"indexed": false,
							"name": "current",
							"type": "string"
						}
					],
					"name": "NewJsonReference",
					"type": "event"
				},
				{
					"anonymous": false,
					"inputs": [
						{
							"indexed": true,
							"name": "old",
							"type": "address"
						},
						{
							"indexed": true,
							"name": "current",
							"type": "address"
						}
					],
					"name": "NewOwner",
					"type": "event"
				}
			],
			"devdoc": {
				"methods": {
					"approve(address,address,bytes32,uint256)": {
						"details": "Set or reaffirm the approved address for an NFT. This function can be changed to payable.",
						"params": {
							"_approved": "Address to be approved for the given NFT ID.",
							"_tokenId": "ID of the token to be approved."
						}
					},
					"balanceOf(address)": {
						"details": "Returns the number of NFTs owned by `_owner`. NFTs assigned to the zero address are considered invalid, and this function throws for queries about the zero address.",
						"params": {
							"_owner": "Address for whom to query the balance."
						},
						"return": "Balance of _owner."
					},
					"getApproved(address,address,bytes32)": {
						"details": "Get the approved address for a single NFT.",
						"params": {
							"_tokenId": "ID of the NFT to query the approval of."
						},
						"return": "Address that _tokenId is approved for."
					},
					"isApprovedForAll(address,address)": {
						"details": "Checks if `_operator` is an approved operator for `_owner`.",
						"params": {
							"_operator": "The address that acts on behalf of the owner.",
							"_owner": "The address that owns the NFTs."
						},
						"return": "True if approved for all, false otherwise."
					},
					"name()": {
						"details": "Returns a descriptive name for a collection of NFTokens.",
						"return": "_name Representing name."
					},
					"safeTransferFrom(address,address,bytes32,uint256,bytes)": {
						"details": "Transfers the ownership of an NFT from one address to another address. This function can be changed to payable.",
						"params": {
							"_data": "Additional data with no specified format, sent in call to `_to`.",
							"_from": "The current owner of the NFT.",
							"_to": "The new owner.",
							"_tokenId": "The NFT to transfer."
						}
					},
					"setApprovalForAll(address,bool)": {
						"details": "Enables or disables approval for a third party (\"operator\") to manage all of `msg.sender`'s assets. It also emits the ApprovalForAll event.",
						"params": {
							"_approved": "True if the operators is approved, false to revoke approval.",
							"_operator": "Address to add to the set of authorized operators."
						}
					},
					"symbol()": {
						"details": "Returns an abbreviated name for NFTokens.",
						"return": "_symbol Representing symbol."
					},
					"tokenOfOwner(address)": {
						"details": "returns the n-th NFT ID from a list of owner's tokens.",
						"params": {
							"_owner": "Token owner's address."
						},
						"return": "Token id."
					},
					"tokenOfOwnerByIndex(address,uint256)": {
						"details": "returns the n-th NFT ID from a list of owner's tokens.",
						"params": {
							"_index": "Index number representing n-th token in owner's list of tokens.",
							"_owner": "Token owner's address."
						},
						"return": "Token id."
					},
					"totalSupply()": {
						"details": "Returns the count of all existing NFTokens.",
						"return": "Total supply of NFTs."
					},
					"transferFrom(address,address,bytes32,uint256)": {
						"details": "Throws unless `msg.sender` is the current owner, an authorized operator, or the approved address for this NFT. Throws if `_from` is not the current owner. Throws if `_to` is the zero address. Throws if `_tokenId` is not a valid NFT. This function can be changed to payable.",
						"params": {
							"_from": "The current owner of the NFT.",
							"_to": "The new owner.",
							"_tokenId": "The NFT to transfer."
						}
					}
				}
			},
			"evm": {
				"assembly": "    /* \"proy/pi-markets/smart-contracts/tokens/packable/PiPNFToken.sol\":260:18876  contract PiPNFToken is ... */\n  mstore(0x40, 0x80)\n    /* \"proy/pi-markets/smart-contracts/tokens/utils/Owned.sol\":803:813  msg.sender */\n  caller\n    /* \"proy/pi-markets/smart-contracts/tokens/utils/Owned.sol\":780:813  address public owner = msg.sender */\n  0x0\n  dup1\n  0x100\n  exp\n  dup2\n  sload\n  dup2\n  0xffffffffffffffffffffffffffffffffffffffff\n  mul\n  not\n  and\n  swap1\n  dup4\n  0xffffffffffffffffffffffffffffffffffffffff\n  and\n  mul\n  or\n  swap1\n  sstore\n  pop\n    /* \"proy/pi-markets/smart-contracts/tokens/packable/PiPNFToken.sol\":2500:2810  constructor(... */\n  callvalue\n    /* \"--CODEGEN--\":8:17   */\n  dup1\n    /* \"--CODEGEN--\":5:7   */\n  iszero\n  tag_1\n  jumpi\n    /* \"--CODEGEN--\":30:31   */\n  0x0\n    /* \"--CODEGEN--\":27:28   */\n  dup1\n    /* \"--CODEGEN--\":20:32   */\n  revert\n    /* \"--CODEGEN--\":5:7   */\ntag_1:\n    /* \"proy/pi-markets/smart-contracts/tokens/packable/PiPNFToken.sol\":2500:2810  constructor(... */\n  pop\n  mload(0x40)\n  sub(codesize, bytecodeSize)\n  dup1\n  bytecodeSize\n  dup4\n  codecopy\n  dup2\n  add\n  dup1\n  0x40\n  mstore\n  tag_2\n  swap2\n  swap1\n  dup2\n  add\n  swap1\n  jump(tag_3)\ntag_2:\n    /* \"proy/pi-markets/smart-contracts/tokens/packable/PiPNFToken.sol\":2672:2678  _owner */\n  dup2\n    /* \"proy/pi-markets/smart-contracts/tokens/utils/Owned.sol\":954:960  _owner */\n  dup1\n    /* \"proy/pi-markets/smart-contracts/tokens/utils/Owned.sol\":946:951  owner */\n  0x0\n  dup1\n    /* \"proy/pi-markets/smart-contracts/tokens/utils/Owned.sol\":946:960  owner = _owner */\n  0x100\n  exp\n  dup2\n  sload\n  dup2\n  0xffffffffffffffffffffffffffffffffffffffff\n  mul\n  not\n  and\n  swap1\n  dup4\n  0xffffffffffffffffffffffffffffffffffffffff\n  and\n  mul\n  or\n  swap1\n  sstore\n  pop\n    /* \"proy/pi-markets/smart-contracts/tokens/utils/Owned.sol\":901:967  constructor(address _owner) public {... */\n  pop\n    /* \"proy/pi-markets/smart-contracts/tokens/packable/PiPNFToken.sol\":2705:2710  _name */\n  dup4\n    /* \"proy/pi-markets/smart-contracts/tokens/packable/PiPNFToken.sol\":2695:2702  nftName */\n  0x2\n    /* \"proy/pi-markets/smart-contracts/tokens/packable/PiPNFToken.sol\":2695:2710  nftName = _name */\n  swap1\n  dup1\n  mload\n  swap1\n  0x20\n  add\n  swap1\n  tag_8\n  swap3\n  swap2\n  swap1\n  jump\t// in(tag_9)\ntag_8:\n  pop\n    /* \"proy/pi-markets/smart-contracts/tokens/packable/PiPNFToken.sol\":2732:2739  _symbol */\n  dup3\n    /* \"proy/pi-markets/smart-contracts/tokens/packable/PiPNFToken.sol\":2720:2729  nftSymbol */\n  0x3\n    /* \"proy/pi-markets/smart-contracts/tokens/packable/PiPNFToken.sol\":2720:2739  nftSymbol = _symbol */\n  swap1\n  dup1\n  mload\n  swap1\n  0x20\n  add\n  swap1\n  tag_10\n  swap3\n  swap2\n  swap1\n  jump\t// in(tag_9)\ntag_10:\n  pop\n    /* \"proy/pi-markets/smart-contracts/tokens/packable/PiPNFToken.sol\":2761:2763  18 */\n  0x12\n    /* \"proy/pi-markets/smart-contracts/tokens/packable/PiPNFToken.sol\":2749:2758  _decimals */\n  0x4\n  0x0\n    /* \"proy/pi-markets/smart-contracts/tokens/packable/PiPNFToken.sol\":2749:2763  _decimals = 18 */\n  0x100\n  exp\n  dup2\n  sload\n  dup2\n  0xff\n  mul\n  not\n  and\n  swap1\n  dup4\n  0xff\n  and\n  mul\n  or\n  swap1\n  sstore\n  pop\n    /* \"proy/pi-markets/smart-contracts/tokens/packable/PiPNFToken.sol\":2789:2803  _jsonReference */\n  dup1\n    /* \"proy/pi-markets/smart-contracts/tokens/packable/PiPNFToken.sol\":2773:2786  jsonReference */\n  0x1\n    /* \"proy/pi-markets/smart-contracts/tokens/packable/PiPNFToken.sol\":2773:2803  jsonReference = _jsonReference */\n  swap1\n  dup1\n  mload\n  swap1\n  0x20\n  add\n  swap1\n  tag_11\n  swap3\n  swap2\n  swap1\n  jump\t// in(tag_9)\ntag_11:\n  pop\n    /* \"proy/pi-markets/smart-contracts/tokens/packable/PiPNFToken.sol\":2500:2810  constructor(... */\n  pop\n  pop\n  pop\n  pop\n    /* \"proy/pi-markets/smart-contracts/tokens/packable/PiPNFToken.sol\":260:18876  contract PiPNFToken is ... */\n  jump(tag_12)\ntag_9:\n  dup3\n  dup1\n  sload\n  0x1\n  dup2\n  0x1\n  and\n  iszero\n  0x100\n  mul\n  sub\n  and\n  0x2\n  swap1\n  div\n  swap1\n  0x0\n  mstore\n  keccak256(0x0, 0x20)\n  swap1\n  0x1f\n  add\n  0x20\n  swap1\n  div\n  dup2\n  add\n  swap3\n  dup3\n  0x1f\n  lt\n  tag_14\n  jumpi\n  dup1\n  mload\n  not(0xff)\n  and\n  dup4\n  dup1\n  add\n  or\n  dup6\n  sstore\n  jump(tag_13)\ntag_14:\n  dup3\n  dup1\n  add\n  0x1\n  add\n  dup6\n  sstore\n  dup3\n  iszero\n  tag_13\n  jumpi\n  swap2\n  dup3\n  add\ntag_15:\n  dup3\n  dup2\n  gt\n  iszero\n  tag_16\n  jumpi\n  dup3\n  mload\n  dup3\n  sstore\n  swap2\n  0x20\n  add\n  swap2\n  swap1\n  0x1\n  add\n  swap1\n  jump(tag_15)\ntag_16:\ntag_13:\n  pop\n  swap1\n  pop\n  tag_17\n  swap2\n  swap1\n  jump\t// in(tag_18)\ntag_17:\n  pop\n  swap1\n  jump\t// out\ntag_18:\n  tag_19\n  swap2\n  swap1\ntag_20:\n  dup1\n  dup3\n  gt\n  iszero\n  tag_21\n  jumpi\n  0x0\n  dup2\n  0x0\n  swap1\n  sstore\n  pop\n  0x1\n  add\n  jump(tag_20)\ntag_21:\n  pop\n  swap1\n  jump\ntag_19:\n  swap1\n  jump\t// out\n    /* \"--CODEGEN--\":5:127   */\ntag_23:\n  0x0\n    /* \"--CODEGEN--\":83:122   */\n  tag_24\n    /* \"--CODEGEN--\":114:120   */\n  dup3\n    /* \"--CODEGEN--\":108:121   */\n  mload\n    /* \"--CODEGEN--\":83:122   */\n  jump(tag_25)\ntag_24:\n    /* \"--CODEGEN--\":74:122   */\n  swap1\n  pop\n    /* \"--CODEGEN--\":68:127   */\n  swap3\n  swap2\n  pop\n  pop\n  jump\n    /* \"--CODEGEN--\":135:579   */\ntag_27:\n  0x0\n    /* \"--CODEGEN--\":248:251   */\n  dup3\n    /* \"--CODEGEN--\":241:245   */\n  0x1f\n    /* \"--CODEGEN--\":233:239   */\n  dup4\n    /* \"--CODEGEN--\":229:246   */\n  add\n    /* \"--CODEGEN--\":225:252   */\n  slt\n    /* \"--CODEGEN--\":218:253   */\n  iszero\n    /* \"--CODEGEN--\":215:217   */\n  iszero\n  tag_28\n  jumpi\n    /* \"--CODEGEN--\":266:267   */\n  0x0\n    /* \"--CODEGEN--\":263:264   */\n  dup1\n    /* \"--CODEGEN--\":256:268   */\n  revert\n    /* \"--CODEGEN--\":215:217   */\ntag_28:\n    /* \"--CODEGEN--\":296:302   */\n  dup2\n    /* \"--CODEGEN--\":290:303   */\n  mload\n    /* \"--CODEGEN--\":318:383   */\n  tag_29\n    /* \"--CODEGEN--\":333:382   */\n  tag_30\n    /* \"--CODEGEN--\":375:381   */\n  dup3\n    /* \"--CODEGEN--\":333:382   */\n  jump(tag_31)\ntag_30:\n    /* \"--CODEGEN--\":318:383   */\n  jump(tag_32)\ntag_29:\n    /* \"--CODEGEN--\":309:383   */\n  swap2\n  pop\n    /* \"--CODEGEN--\":403:409   */\n  dup1\n    /* \"--CODEGEN--\":396:401   */\n  dup3\n    /* \"--CODEGEN--\":389:410   */\n  mstore\n    /* \"--CODEGEN--\":439:443   */\n  0x20\n    /* \"--CODEGEN--\":431:437   */\n  dup4\n    /* \"--CODEGEN--\":427:444   */\n  add\n    /* \"--CODEGEN--\":472:476   */\n  0x20\n    /* \"--CODEGEN--\":465:470   */\n  dup4\n    /* \"--CODEGEN--\":461:477   */\n  add\n    /* \"--CODEGEN--\":507:510   */\n  dup6\n    /* \"--CODEGEN--\":498:504   */\n  dup4\n    /* \"--CODEGEN--\":493:496   */\n  dup4\n    /* \"--CODEGEN--\":489:505   */\n  add\n    /* \"--CODEGEN--\":486:511   */\n  gt\n    /* \"--CODEGEN--\":483:485   */\n  iszero\n  tag_33\n  jumpi\n    /* \"--CODEGEN--\":524:525   */\n  0x0\n    /* \"--CODEGEN--\":521:522   */\n  dup1\n    /* \"--CODEGEN--\":514:526   */\n  revert\n    /* \"--CODEGEN--\":483:485   */\ntag_33:\n    /* \"--CODEGEN--\":534:573   */\n  tag_34\n    /* \"--CODEGEN--\":566:572   */\n  dup4\n    /* \"--CODEGEN--\":561:564   */\n  dup3\n    /* \"--CODEGEN--\":556:559   */\n  dup5\n    /* \"--CODEGEN--\":534:573   */\n  jump(tag_35)\ntag_34:\n    /* \"--CODEGEN--\":208:579   */\n  pop\n  pop\n  pop\n  swap3\n  swap2\n  pop\n  pop\n  jump\n    /* \"--CODEGEN--\":587:1556   */\ntag_3:\n  0x0\n  dup1\n  0x0\n  dup1\n    /* \"--CODEGEN--\":783:786   */\n  0x80\n    /* \"--CODEGEN--\":771:780   */\n  dup6\n    /* \"--CODEGEN--\":762:769   */\n  dup8\n    /* \"--CODEGEN--\":758:781   */\n  sub\n    /* \"--CODEGEN--\":754:787   */\n  slt\n    /* \"--CODEGEN--\":751:753   */\n  iszero\n  tag_37\n  jumpi\n    /* \"--CODEGEN--\":800:801   */\n  0x0\n    /* \"--CODEGEN--\":797:798   */\n  dup1\n    /* \"--CODEGEN--\":790:802   */\n  revert\n    /* \"--CODEGEN--\":751:753   */\ntag_37:\n    /* \"--CODEGEN--\":856:857   */\n  0x0\n    /* \"--CODEGEN--\":845:854   */\n  dup6\n    /* \"--CODEGEN--\":841:858   */\n  add\n    /* \"--CODEGEN--\":835:859   */\n  mload\n    /* \"--CODEGEN--\":879:897   */\n  0xffffffffffffffff\n    /* \"--CODEGEN--\":871:877   */\n  dup2\n    /* \"--CODEGEN--\":868:898   */\n  gt\n    /* \"--CODEGEN--\":865:867   */\n  iszero\n  tag_38\n  jumpi\n    /* \"--CODEGEN--\":911:912   */\n  0x0\n    /* \"--CODEGEN--\":908:909   */\n  dup1\n    /* \"--CODEGEN--\":901:913   */\n  revert\n    /* \"--CODEGEN--\":865:867   */\ntag_38:\n    /* \"--CODEGEN--\":931:1005   */\n  tag_39\n    /* \"--CODEGEN--\":997:1004   */\n  dup8\n    /* \"--CODEGEN--\":988:994   */\n  dup3\n    /* \"--CODEGEN--\":977:986   */\n  dup9\n    /* \"--CODEGEN--\":973:995   */\n  add\n    /* \"--CODEGEN--\":931:1005   */\n  jump(tag_27)\ntag_39:\n    /* \"--CODEGEN--\":921:1005   */\n  swap5\n  pop\n    /* \"--CODEGEN--\":814:1011   */\n  pop\n    /* \"--CODEGEN--\":1063:1065   */\n  0x20\n    /* \"--CODEGEN--\":1052:1061   */\n  dup6\n    /* \"--CODEGEN--\":1048:1066   */\n  add\n    /* \"--CODEGEN--\":1042:1067   */\n  mload\n    /* \"--CODEGEN--\":1087:1105   */\n  0xffffffffffffffff\n    /* \"--CODEGEN--\":1079:1085   */\n  dup2\n    /* \"--CODEGEN--\":1076:1106   */\n  gt\n    /* \"--CODEGEN--\":1073:1075   */\n  iszero\n  tag_40\n  jumpi\n    /* \"--CODEGEN--\":1119:1120   */\n  0x0\n    /* \"--CODEGEN--\":1116:1117   */\n  dup1\n    /* \"--CODEGEN--\":1109:1121   */\n  revert\n    /* \"--CODEGEN--\":1073:1075   */\ntag_40:\n    /* \"--CODEGEN--\":1139:1213   */\n  tag_41\n    /* \"--CODEGEN--\":1205:1212   */\n  dup8\n    /* \"--CODEGEN--\":1196:1202   */\n  dup3\n    /* \"--CODEGEN--\":1185:1194   */\n  dup9\n    /* \"--CODEGEN--\":1181:1203   */\n  add\n    /* \"--CODEGEN--\":1139:1213   */\n  jump(tag_27)\ntag_41:\n    /* \"--CODEGEN--\":1129:1213   */\n  swap4\n  pop\n    /* \"--CODEGEN--\":1021:1219   */\n  pop\n    /* \"--CODEGEN--\":1250:1252   */\n  0x40\n    /* \"--CODEGEN--\":1268:1332   */\n  tag_42\n    /* \"--CODEGEN--\":1324:1331   */\n  dup8\n    /* \"--CODEGEN--\":1315:1321   */\n  dup3\n    /* \"--CODEGEN--\":1304:1313   */\n  dup9\n    /* \"--CODEGEN--\":1300:1322   */\n  add\n    /* \"--CODEGEN--\":1268:1332   */\n  jump(tag_23)\ntag_42:\n    /* \"--CODEGEN--\":1258:1332   */\n  swap3\n  pop\n    /* \"--CODEGEN--\":1229:1338   */\n  pop\n    /* \"--CODEGEN--\":1390:1392   */\n  0x60\n    /* \"--CODEGEN--\":1379:1388   */\n  dup6\n    /* \"--CODEGEN--\":1375:1393   */\n  add\n    /* \"--CODEGEN--\":1369:1394   */\n  mload\n    /* \"--CODEGEN--\":1414:1432   */\n  0xffffffffffffffff\n    /* \"--CODEGEN--\":1406:1412   */\n  dup2\n    /* \"--CODEGEN--\":1403:1433   */\n  gt\n    /* \"--CODEGEN--\":1400:1402   */\n  iszero\n  tag_43\n  jumpi\n    /* \"--CODEGEN--\":1446:1447   */\n  0x0\n    /* \"--CODEGEN--\":1443:1444   */\n  dup1\n    /* \"--CODEGEN--\":1436:1448   */\n  revert\n    /* \"--CODEGEN--\":1400:1402   */\ntag_43:\n    /* \"--CODEGEN--\":1466:1540   */\n  tag_44\n    /* \"--CODEGEN--\":1532:1539   */\n  dup8\n    /* \"--CODEGEN--\":1523:1529   */\n  dup3\n    /* \"--CODEGEN--\":1512:1521   */\n  dup9\n    /* \"--CODEGEN--\":1508:1530   */\n  add\n    /* \"--CODEGEN--\":1466:1540   */\n  jump(tag_27)\ntag_44:\n    /* \"--CODEGEN--\":1456:1540   */\n  swap2\n  pop\n    /* \"--CODEGEN--\":1348:1546   */\n  pop\n    /* \"--CODEGEN--\":745:1556   */\n  swap3\n  swap6\n  swap2\n  swap5\n  pop\n  swap3\n  pop\n  jump\n    /* \"--CODEGEN--\":1563:1819   */\ntag_32:\n  0x0\n    /* \"--CODEGEN--\":1625:1627   */\n  0x40\n    /* \"--CODEGEN--\":1619:1628   */\n  mload\n    /* \"--CODEGEN--\":1609:1628   */\n  swap1\n  pop\n    /* \"--CODEGEN--\":1663:1667   */\n  dup2\n    /* \"--CODEGEN--\":1655:1661   */\n  dup2\n    /* \"--CODEGEN--\":1651:1668   */\n  add\n    /* \"--CODEGEN--\":1762:1768   */\n  dup2\n    /* \"--CODEGEN--\":1750:1760   */\n  dup2\n    /* \"--CODEGEN--\":1747:1769   */\n  lt\n    /* \"--CODEGEN--\":1726:1744   */\n  0xffffffffffffffff\n    /* \"--CODEGEN--\":1714:1724   */\n  dup3\n    /* \"--CODEGEN--\":1711:1745   */\n  gt\n    /* \"--CODEGEN--\":1708:1770   */\n  or\n    /* \"--CODEGEN--\":1705:1707   */\n  iszero\n  tag_46\n  jumpi\n    /* \"--CODEGEN--\":1783:1784   */\n  0x0\n    /* \"--CODEGEN--\":1780:1781   */\n  dup1\n    /* \"--CODEGEN--\":1773:1785   */\n  revert\n    /* \"--CODEGEN--\":1705:1707   */\ntag_46:\n    /* \"--CODEGEN--\":1803:1813   */\n  dup1\n    /* \"--CODEGEN--\":1799:1801   */\n  0x40\n    /* \"--CODEGEN--\":1792:1814   */\n  mstore\n    /* \"--CODEGEN--\":1603:1819   */\n  pop\n  swap2\n  swap1\n  pop\n  jump\n    /* \"--CODEGEN--\":1826:2085   */\ntag_31:\n  0x0\n    /* \"--CODEGEN--\":1970:1988   */\n  0xffffffffffffffff\n    /* \"--CODEGEN--\":1962:1968   */\n  dup3\n    /* \"--CODEGEN--\":1959:1989   */\n  gt\n    /* \"--CODEGEN--\":1956:1958   */\n  iszero\n  tag_48\n  jumpi\n    /* \"--CODEGEN--\":2002:2003   */\n  0x0\n    /* \"--CODEGEN--\":1999:2000   */\n  dup1\n    /* \"--CODEGEN--\":1992:2004   */\n  revert\n    /* \"--CODEGEN--\":1956:1958   */\ntag_48:\n    /* \"--CODEGEN--\":2046:2050   */\n  0x1f\n    /* \"--CODEGEN--\":2042:2051   */\n  not\n    /* \"--CODEGEN--\":2035:2039   */\n  0x1f\n    /* \"--CODEGEN--\":2027:2033   */\n  dup4\n    /* \"--CODEGEN--\":2023:2040   */\n  add\n    /* \"--CODEGEN--\":2019:2052   */\n  and\n    /* \"--CODEGEN--\":2011:2052   */\n  swap1\n  pop\n    /* \"--CODEGEN--\":2075:2079   */\n  0x20\n    /* \"--CODEGEN--\":2069:2073   */\n  dup2\n    /* \"--CODEGEN--\":2065:2080   */\n  add\n    /* \"--CODEGEN--\":2057:2080   */\n  swap1\n  pop\n    /* \"--CODEGEN--\":1893:2085   */\n  swap2\n  swap1\n  pop\n  jump\n    /* \"--CODEGEN--\":2092:2220   */\ntag_50:\n  0x0\n    /* \"--CODEGEN--\":2172:2214   */\n  0xffffffffffffffffffffffffffffffffffffffff\n    /* \"--CODEGEN--\":2165:2170   */\n  dup3\n    /* \"--CODEGEN--\":2161:2215   */\n  and\n    /* \"--CODEGEN--\":2150:2215   */\n  swap1\n  pop\n    /* \"--CODEGEN--\":2144:2220   */\n  swap2\n  swap1\n  pop\n  jump\n    /* \"--CODEGEN--\":2227:2332   */\ntag_25:\n  0x0\n    /* \"--CODEGEN--\":2296:2327   */\n  tag_52\n    /* \"--CODEGEN--\":2321:2326   */\n  dup3\n    /* \"--CODEGEN--\":2296:2327   */\n  jump(tag_50)\ntag_52:\n    /* \"--CODEGEN--\":2285:2327   */\n  swap1\n  pop\n    /* \"--CODEGEN--\":2279:2332   */\n  swap2\n  swap1\n  pop\n  jump\n    /* \"--CODEGEN--\":2340:2608   */\ntag_35:\n    /* \"--CODEGEN--\":2405:2406   */\n  0x0\n    /* \"--CODEGEN--\":2412:2513   */\ntag_54:\n    /* \"--CODEGEN--\":2426:2432   */\n  dup4\n    /* \"--CODEGEN--\":2423:2424   */\n  dup2\n    /* \"--CODEGEN--\":2420:2433   */\n  lt\n    /* \"--CODEGEN--\":2412:2513   */\n  iszero\n  tag_55\n  jumpi\n    /* \"--CODEGEN--\":2502:2503   */\n  dup1\n    /* \"--CODEGEN--\":2497:2500   */\n  dup3\n    /* \"--CODEGEN--\":2493:2504   */\n  add\n    /* \"--CODEGEN--\":2487:2505   */\n  mload\n    /* \"--CODEGEN--\":2483:2484   */\n  dup2\n    /* \"--CODEGEN--\":2478:2481   */\n  dup5\n    /* \"--CODEGEN--\":2474:2485   */\n  add\n    /* \"--CODEGEN--\":2467:2506   */\n  mstore\n    /* \"--CODEGEN--\":2448:2450   */\n  0x20\n    /* \"--CODEGEN--\":2445:2446   */\n  dup2\n    /* \"--CODEGEN--\":2441:2451   */\n  add\n    /* \"--CODEGEN--\":2436:2451   */\n  swap1\n  pop\n    /* \"--CODEGEN--\":2412:2513   */\n  jump(tag_54)\ntag_55:\n    /* \"--CODEGEN--\":2528:2534   */\n  dup4\n    /* \"--CODEGEN--\":2525:2526   */\n  dup2\n    /* \"--CODEGEN--\":2522:2535   */\n  gt\n    /* \"--CODEGEN--\":2519:2521   */\n  iszero\n  tag_57\n  jumpi\n    /* \"--CODEGEN--\":2593:2594   */\n  0x0\n    /* \"--CODEGEN--\":2584:2590   */\n  dup5\n    /* \"--CODEGEN--\":2579:2582   */\n  dup5\n    /* \"--CODEGEN--\":2575:2591   */\n  add\n    /* \"--CODEGEN--\":2568:2595   */\n  mstore\n    /* \"--CODEGEN--\":2519:2521   */\ntag_57:\n    /* \"--CODEGEN--\":2389:2608   */\n  pop\n  pop\n  pop\n  pop\n  jump\n    /* \"proy/pi-markets/smart-contracts/tokens/packable/PiPNFToken.sol\":260:18876  contract PiPNFToken is ... */\ntag_12:\n  dataSize(sub_0)\n  dup1\n  dataOffset(sub_0)\n  0x0\n  codecopy\n  0x0\n  return\nstop\n\nsub_0: assembly {\n        /* \"proy/pi-markets/smart-contracts/tokens/packable/PiPNFToken.sol\":260:18876  contract PiPNFToken is ... */\n      mstore(0x40, 0x80)\n      jumpi(tag_1, lt(calldatasize, 0x4))\n      calldataload(0x0)\n      0x100000000000000000000000000000000000000000000000000000000\n      swap1\n      div\n      0xffffffff\n      and\n      dup1\n      0x6fdde03\n      eq\n      tag_2\n      jumpi\n      dup1\n      0x13af4035\n      eq\n      tag_3\n      jumpi\n      dup1\n      0x18160ddd\n      eq\n      tag_4\n      jumpi\n      dup1\n      0x1f14df69\n      eq\n      tag_5\n      jumpi\n      dup1\n      0x27e6186a\n      eq\n      tag_6\n      jumpi\n      dup1\n      0x294cdf0d\n      eq\n      tag_7\n      jumpi\n      dup1\n      0x2f745c59\n      eq\n      tag_8\n      jumpi\n      dup1\n      0x313ce567\n      eq\n      tag_9\n      jumpi\n      dup1\n      0x4f64b2be\n      eq\n      tag_10\n      jumpi\n      dup1\n      0x5944ac08\n      eq\n      tag_11\n      jumpi\n      dup1\n      0x5eddd9c9\n      eq\n      tag_12\n      jumpi\n      dup1\n      0x6db2feb2\n      eq\n      tag_13\n      jumpi\n      dup1\n      0x70a08231\n      eq\n      tag_14\n      jumpi\n      dup1\n      0x72a60c7c\n      eq\n      tag_15\n      jumpi\n      dup1\n      0x7a408454\n      eq\n      tag_16\n      jumpi\n      dup1\n      0x7fe68381\n      eq\n      tag_17\n      jumpi\n      dup1\n      0x8da5cb5b\n      eq\n      tag_18\n      jumpi\n      dup1\n      0x9379e5f5\n      eq\n      tag_19\n      jumpi\n      dup1\n      0x95d89b41\n      eq\n      tag_20\n      jumpi\n      dup1\n      0xa22cb465\n      eq\n      tag_21\n      jumpi\n      dup1\n      0xa5961b4c\n      eq\n      tag_22\n      jumpi\n      dup1\n      0xaa6ca808\n      eq\n      tag_23\n      jumpi\n      dup1\n      0xb8f87d09\n      eq\n      tag_24\n      jumpi\n      dup1\n      0xe6863ac4\n      eq\n      tag_25\n      jumpi\n      dup1\n      0xe985e9c5\n      eq\n      tag_26\n      jumpi\n      dup1\n      0xeea268a4\n      eq\n      tag_27\n      jumpi\n      dup1\n      0xf86c1a78\n      eq\n      tag_28\n      jumpi\n    tag_1:\n      0x0\n      dup1\n      revert\n        /* \"proy/pi-markets/smart-contracts/tokens/packable/PiPNFToken.sol\":3056:3176  function name()... */\n    tag_2:\n      callvalue\n        /* \"--CODEGEN--\":8:17   */\n      dup1\n        /* \"--CODEGEN--\":5:7   */\n      iszero\n      tag_29\n      jumpi\n        /* \"--CODEGEN--\":30:31   */\n      0x0\n        /* \"--CODEGEN--\":27:28   */\n      dup1\n        /* \"--CODEGEN--\":20:32   */\n      revert\n        /* \"--CODEGEN--\":5:7   */\n    tag_29:\n        /* \"proy/pi-markets/smart-contracts/tokens/packable/PiPNFToken.sol\":3056:3176  function name()... */\n      pop\n      tag_30\n      jump(tag_31)\n    tag_30:\n      mload(0x40)\n      tag_32\n      swap2\n      swap1\n      jump(tag_33)\n    tag_32:\n      mload(0x40)\n      dup1\n      swap2\n      sub\n      swap1\n      return\n        /* \"proy/pi-markets/smart-contracts/tokens/utils/Owned.sol\":973:1109  function setOwner(address _new)... */\n    tag_3:\n      callvalue\n        /* \"--CODEGEN--\":8:17   */\n      dup1\n        /* \"--CODEGEN--\":5:7   */\n      iszero\n      tag_34\n      jumpi\n        /* \"--CODEGEN--\":30:31   */\n      0x0\n        /* \"--CODEGEN--\":27:28   */\n      dup1\n        /* \"--CODEGEN--\":20:32   */\n      revert\n        /* \"--CODEGEN--\":5:7   */\n    tag_34:\n        /* \"proy/pi-markets/smart-contracts/tokens/utils/Owned.sol\":973:1109  function setOwner(address _new)... */\n      pop\n      tag_35\n      0x4\n      dup1\n      calldatasize\n      sub\n      tag_36\n      swap2\n      swap1\n      dup2\n      add\n      swap1\n      jump(tag_37)\n    tag_36:\n      jump(tag_38)\n    tag_35:\n      stop\n        /* \"proy/pi-markets/smart-contracts/tokens/packable/PiPNFToken.sol\":3621:3741  function totalSupply()... */\n    tag_4:\n      callvalue\n        /* \"--CODEGEN--\":8:17   */\n      dup1\n        /* \"--CODEGEN--\":5:7   */\n      iszero\n      tag_39\n      jumpi\n        /* \"--CODEGEN--\":30:31   */\n      0x0\n        /* \"--CODEGEN--\":27:28   */\n      dup1\n        /* \"--CODEGEN--\":20:32   */\n      revert\n        /* \"--CODEGEN--\":5:7   */\n    tag_39:\n        /* \"proy/pi-markets/smart-contracts/tokens/packable/PiPNFToken.sol\":3621:3741  function totalSupply()... */\n      pop\n      tag_40\n      jump(tag_41)\n    tag_40:\n      mload(0x40)\n      tag_42\n      swap2\n      swap1\n      jump(tag_43)\n    tag_42:\n      mload(0x40)\n      dup1\n      swap2\n      sub\n      swap1\n      return\n        /* \"proy/pi-markets/smart-contracts/tokens/packable/PiPNFToken.sol\":1478:1541  mapping(address => mapping(bytes32 => uint256)) public balances */\n    tag_5:\n      callvalue\n        /* \"--CODEGEN--\":8:17   */\n      dup1\n        /* \"--CODEGEN--\":5:7   */\n      iszero\n      tag_44\n      jumpi\n        /* \"--CODEGEN--\":30:31   */\n      0x0\n        /* \"--CODEGEN--\":27:28   */\n      dup1\n        /* \"--CODEGEN--\":20:32   */\n      revert\n        /* \"--CODEGEN--\":5:7   */\n    tag_44:\n        /* \"proy/pi-markets/smart-contracts/tokens/packable/PiPNFToken.sol\":1478:1541  mapping(address => mapping(bytes32 => uint256)) public balances */\n      pop\n      tag_45\n      0x4\n      dup1\n      calldatasize\n      sub\n      tag_46\n      swap2\n      swap1\n      dup2\n      add\n      swap1\n      jump(tag_47)\n    tag_46:\n      jump(tag_48)\n    tag_45:\n      mload(0x40)\n      tag_49\n      swap2\n      swap1\n      jump(tag_43)\n    tag_49:\n      mload(0x40)\n      dup1\n      swap2\n      sub\n      swap1\n      return\n        /* \"proy/pi-markets/smart-contracts/tokens/packable/PiPNFToken.sol\":4336:4569  function balanceById(... */\n    tag_6:\n      callvalue\n        /* \"--CODEGEN--\":8:17   */\n      dup1\n        /* \"--CODEGEN--\":5:7   */\n      iszero\n      tag_50\n      jumpi\n        /* \"--CODEGEN--\":30:31   */\n      0x0\n        /* \"--CODEGEN--\":27:28   */\n      dup1\n        /* \"--CODEGEN--\":20:32   */\n      revert\n        /* \"--CODEGEN--\":5:7   */\n    tag_50:\n        /* \"proy/pi-markets/smart-contracts/tokens/packable/PiPNFToken.sol\":4336:4569  function balanceById(... */\n      pop\n      tag_51\n      0x4\n      dup1\n      calldatasize\n      sub\n      tag_52\n      swap2\n      swap1\n      dup2\n      add\n      swap1\n      jump(tag_47)\n    tag_52:\n      jump(tag_53)\n    tag_51:\n      mload(0x40)\n      tag_54\n      swap2\n      swap1\n      jump(tag_43)\n    tag_54:\n      mload(0x40)\n      dup1\n      swap2\n      sub\n      swap1\n      return\n        /* \"proy/pi-markets/smart-contracts/tokens/packable/PiPNFToken.sol\":6160:6323  function tokenOfOwner(... */\n    tag_7:\n      callvalue\n        /* \"--CODEGEN--\":8:17   */\n      dup1\n        /* \"--CODEGEN--\":5:7   */\n      iszero\n      tag_55\n      jumpi\n        /* \"--CODEGEN--\":30:31   */\n      0x0\n        /* \"--CODEGEN--\":27:28   */\n      dup1\n        /* \"--CODEGEN--\":20:32   */\n      revert\n        /* \"--CODEGEN--\":5:7   */\n    tag_55:\n        /* \"proy/pi-markets/smart-contracts/tokens/packable/PiPNFToken.sol\":6160:6323  function tokenOfOwner(... */\n      pop\n      tag_56\n      0x4\n      dup1\n      calldatasize\n      sub\n      tag_57\n      swap2\n      swap1\n      dup2\n      add\n      swap1\n      jump(tag_37)\n    tag_57:\n      jump(tag_58)\n    tag_56:\n      mload(0x40)\n      tag_59\n      swap2\n      swap1\n      jump(tag_60)\n    tag_59:\n      mload(0x40)\n      dup1\n      swap2\n      sub\n      swap1\n      return\n        /* \"proy/pi-markets/smart-contracts/tokens/packable/PiPNFToken.sol\":5753:6006  function tokenOfOwnerByIndex(... */\n    tag_8:\n      callvalue\n        /* \"--CODEGEN--\":8:17   */\n      dup1\n        /* \"--CODEGEN--\":5:7   */\n      iszero\n      tag_61\n      jumpi\n        /* \"--CODEGEN--\":30:31   */\n      0x0\n        /* \"--CODEGEN--\":27:28   */\n      dup1\n        /* \"--CODEGEN--\":20:32   */\n      revert\n        /* \"--CODEGEN--\":5:7   */\n    tag_61:\n        /* \"proy/pi-markets/smart-contracts/tokens/packable/PiPNFToken.sol\":5753:6006  function tokenOfOwnerByIndex(... */\n      pop\n      tag_62\n      0x4\n      dup1\n      calldatasize\n      sub\n      tag_63\n      swap2\n      swap1\n      dup2\n      add\n      swap1\n      jump(tag_64)\n    tag_63:\n      jump(tag_65)\n    tag_62:\n      mload(0x40)\n      tag_66\n      swap2\n      swap1\n      jump(tag_67)\n    tag_66:\n      mload(0x40)\n      dup1\n      swap2\n      sub\n      swap1\n      return\n        /* \"proy/pi-markets/smart-contracts/tokens/packable/PiPNFToken.sol\":3427:3509  function decimals() external view returns (uint8){... */\n    tag_9:\n      callvalue\n        /* \"--CODEGEN--\":8:17   */\n      dup1\n        /* \"--CODEGEN--\":5:7   */\n      iszero\n      tag_68\n      jumpi\n        /* \"--CODEGEN--\":30:31   */\n      0x0\n        /* \"--CODEGEN--\":27:28   */\n      dup1\n        /* \"--CODEGEN--\":20:32   */\n      revert\n        /* \"--CODEGEN--\":5:7   */\n    tag_68:\n        /* \"proy/pi-markets/smart-contracts/tokens/packable/PiPNFToken.sol\":3427:3509  function decimals() external view returns (uint8){... */\n      pop\n      tag_69\n      jump(tag_70)\n    tag_69:\n      mload(0x40)\n      tag_71\n      swap2\n      swap1\n      jump(tag_72)\n    tag_71:\n      mload(0x40)\n      dup1\n      swap2\n      sub\n      swap1\n      return\n        /* \"proy/pi-markets/smart-contracts/tokens/packable/PiPNFToken.sol\":632:655  bytes32[] public tokens */\n    tag_10:\n      callvalue\n        /* \"--CODEGEN--\":8:17   */\n      dup1\n        /* \"--CODEGEN--\":5:7   */\n      iszero\n      tag_73\n      jumpi\n        /* \"--CODEGEN--\":30:31   */\n      0x0\n        /* \"--CODEGEN--\":27:28   */\n      dup1\n        /* \"--CODEGEN--\":20:32   */\n      revert\n        /* \"--CODEGEN--\":5:7   */\n    tag_73:\n        /* \"proy/pi-markets/smart-contracts/tokens/packable/PiPNFToken.sol\":632:655  bytes32[] public tokens */\n      pop\n      tag_74\n      0x4\n      dup1\n      calldatasize\n      sub\n      tag_75\n      swap2\n      swap1\n      dup2\n      add\n      swap1\n      jump(tag_76)\n    tag_75:\n      jump(tag_77)\n    tag_74:\n      mload(0x40)\n      tag_78\n      swap2\n      swap1\n      jump(tag_67)\n    tag_78:\n      mload(0x40)\n      dup1\n      swap2\n      sub\n      swap1\n      return\n        /* \"proy/pi-markets/smart-contracts/tokens/packable/PiPNFToken.sol\":4814:5046  function getApproved(... */\n    tag_11:\n      callvalue\n        /* \"--CODEGEN--\":8:17   */\n      dup1\n        /* \"--CODEGEN--\":5:7   */\n      iszero\n      tag_79\n      jumpi\n        /* \"--CODEGEN--\":30:31   */\n      0x0\n        /* \"--CODEGEN--\":27:28   */\n      dup1\n        /* \"--CODEGEN--\":20:32   */\n      revert\n        /* \"--CODEGEN--\":5:7   */\n    tag_79:\n        /* \"proy/pi-markets/smart-contracts/tokens/packable/PiPNFToken.sol\":4814:5046  function getApproved(... */\n      pop\n      tag_80\n      0x4\n      dup1\n      calldatasize\n      sub\n      tag_81\n      swap2\n      swap1\n      dup2\n      add\n      swap1\n      jump(tag_82)\n    tag_81:\n      jump(tag_83)\n    tag_80:\n      mload(0x40)\n      tag_84\n      swap2\n      swap1\n      jump(tag_43)\n    tag_84:\n      mload(0x40)\n      dup1\n      swap2\n      sub\n      swap1\n      return\n        /* \"proy/pi-markets/smart-contracts/tokens/packable/PiPNFToken.sol\":9997:10390  function approve(... */\n    tag_12:\n      callvalue\n        /* \"--CODEGEN--\":8:17   */\n      dup1\n        /* \"--CODEGEN--\":5:7   */\n      iszero\n      tag_85\n      jumpi\n        /* \"--CODEGEN--\":30:31   */\n      0x0\n        /* \"--CODEGEN--\":27:28   */\n      dup1\n        /* \"--CODEGEN--\":20:32   */\n      revert\n        /* \"--CODEGEN--\":5:7   */\n    tag_85:\n        /* \"proy/pi-markets/smart-contracts/tokens/packable/PiPNFToken.sol\":9997:10390  function approve(... */\n      pop\n      tag_86\n      0x4\n      dup1\n      calldatasize\n      sub\n      tag_87\n      swap2\n      swap1\n      dup2\n      add\n      swap1\n      jump(tag_88)\n    tag_87:\n      jump(tag_89)\n    tag_86:\n      stop\n        /* \"proy/pi-markets/smart-contracts/tokens/packable/PiPNFToken.sol\":6689:6924  function isExpired(bytes32 _tokenId) public view returns (bool) {... */\n    tag_13:\n      callvalue\n        /* \"--CODEGEN--\":8:17   */\n      dup1\n        /* \"--CODEGEN--\":5:7   */\n      iszero\n      tag_90\n      jumpi\n        /* \"--CODEGEN--\":30:31   */\n      0x0\n        /* \"--CODEGEN--\":27:28   */\n      dup1\n        /* \"--CODEGEN--\":20:32   */\n      revert\n        /* \"--CODEGEN--\":5:7   */\n    tag_90:\n        /* \"proy/pi-markets/smart-contracts/tokens/packable/PiPNFToken.sol\":6689:6924  function isExpired(bytes32 _tokenId) public view returns (bool) {... */\n      pop\n      tag_91\n      0x4\n      dup1\n      calldatasize\n      sub\n      tag_92\n      swap2\n      swap1\n      dup2\n      add\n      swap1\n      jump(tag_93)\n    tag_92:\n      jump(tag_94)\n    tag_91:\n      mload(0x40)\n      tag_95\n      swap2\n      swap1\n      jump(tag_96)\n    tag_95:\n      mload(0x40)\n      dup1\n      swap2\n      sub\n      swap1\n      return\n        /* \"proy/pi-markets/smart-contracts/tokens/packable/PiPNFToken.sol\":4133:4330  function balanceOf(... */\n    tag_14:\n      callvalue\n        /* \"--CODEGEN--\":8:17   */\n      dup1\n        /* \"--CODEGEN--\":5:7   */\n      iszero\n      tag_97\n      jumpi\n        /* \"--CODEGEN--\":30:31   */\n      0x0\n        /* \"--CODEGEN--\":27:28   */\n      dup1\n        /* \"--CODEGEN--\":20:32   */\n      revert\n        /* \"--CODEGEN--\":5:7   */\n    tag_97:\n        /* \"proy/pi-markets/smart-contracts/tokens/packable/PiPNFToken.sol\":4133:4330  function balanceOf(... */\n      pop\n      tag_98\n      0x4\n      dup1\n      calldatasize\n      sub\n      tag_99\n      swap2\n      swap1\n      dup2\n      add\n      swap1\n      jump(tag_37)\n    tag_99:\n      jump(tag_100)\n    tag_98:\n      mload(0x40)\n      tag_101\n      swap2\n      swap1\n      jump(tag_43)\n    tag_101:\n      mload(0x40)\n      dup1\n      swap2\n      sub\n      swap1\n      return\n        /* \"proy/pi-markets/smart-contracts/tokens/packable/PiPNFToken.sol\":11162:11797  function mint(... */\n    tag_15:\n      callvalue\n        /* \"--CODEGEN--\":8:17   */\n      dup1\n        /* \"--CODEGEN--\":5:7   */\n      iszero\n      tag_102\n      jumpi\n        /* \"--CODEGEN--\":30:31   */\n      0x0\n        /* \"--CODEGEN--\":27:28   */\n      dup1\n        /* \"--CODEGEN--\":20:32   */\n      revert\n        /* \"--CODEGEN--\":5:7   */\n    tag_102:\n        /* \"proy/pi-markets/smart-contracts/tokens/packable/PiPNFToken.sol\":11162:11797  function mint(... */\n      pop\n      tag_103\n      0x4\n      dup1\n      calldatasize\n      sub\n      tag_104\n      swap2\n      swap1\n      dup2\n      add\n      swap1\n      jump(tag_105)\n    tag_104:\n      jump(tag_106)\n    tag_103:\n      stop\n        /* \"proy/pi-markets/smart-contracts/tokens/packable/PiPNFToken.sol\":11803:12526  function burn(bytes32 _tokenId, uint256 _amount) canOperate(msg.sender, _tokenId, _amount) onlyOwner public {... */\n    tag_16:\n      callvalue\n        /* \"--CODEGEN--\":8:17   */\n      dup1\n        /* \"--CODEGEN--\":5:7   */\n      iszero\n      tag_107\n      jumpi\n        /* \"--CODEGEN--\":30:31   */\n      0x0\n        /* \"--CODEGEN--\":27:28   */\n      dup1\n        /* \"--CODEGEN--\":20:32   */\n      revert\n        /* \"--CODEGEN--\":5:7   */\n    tag_107:\n        /* \"proy/pi-markets/smart-contracts/tokens/packable/PiPNFToken.sol\":11803:12526  function burn(bytes32 _tokenId, uint256 _amount) canOperate(msg.sender, _tokenId, _amount) onlyOwner public {... */\n      pop\n      tag_108\n      0x4\n      dup1\n      calldatasize\n      sub\n      tag_109\n      swap2\n      swap1\n      dup2\n      add\n      swap1\n      jump(tag_110)\n    tag_109:\n      jump(tag_111)\n    tag_108:\n      stop\n        /* \"proy/pi-markets/smart-contracts/tokens/packable/PiPNFToken.sol\":8792:9173  function transferFrom(... */\n    tag_17:\n      callvalue\n        /* \"--CODEGEN--\":8:17   */\n      dup1\n        /* \"--CODEGEN--\":5:7   */\n      iszero\n      tag_112\n      jumpi\n        /* \"--CODEGEN--\":30:31   */\n      0x0\n        /* \"--CODEGEN--\":27:28   */\n      dup1\n        /* \"--CODEGEN--\":20:32   */\n      revert\n        /* \"--CODEGEN--\":5:7   */\n    tag_112:\n        /* \"proy/pi-markets/smart-contracts/tokens/packable/PiPNFToken.sol\":8792:9173  function transferFrom(... */\n      pop\n      tag_113\n      0x4\n      dup1\n      calldatasize\n      sub\n      tag_114\n      swap2\n      swap1\n      dup2\n      add\n      swap1\n      jump(tag_88)\n    tag_114:\n      jump(tag_115)\n    tag_113:\n      stop\n        /* \"proy/pi-markets/smart-contracts/tokens/utils/Owned.sol\":780:813  address public owner = msg.sender */\n    tag_18:\n      callvalue\n        /* \"--CODEGEN--\":8:17   */\n      dup1\n        /* \"--CODEGEN--\":5:7   */\n      iszero\n      tag_116\n      jumpi\n        /* \"--CODEGEN--\":30:31   */\n      0x0\n        /* \"--CODEGEN--\":27:28   */\n      dup1\n        /* \"--CODEGEN--\":20:32   */\n      revert\n        /* \"--CODEGEN--\":5:7   */\n    tag_116:\n        /* \"proy/pi-markets/smart-contracts/tokens/utils/Owned.sol\":780:813  address public owner = msg.sender */\n      pop\n      tag_117\n      jump(tag_118)\n    tag_117:\n      mload(0x40)\n      tag_119\n      swap2\n      swap1\n      jump(tag_120)\n    tag_119:\n      mload(0x40)\n      dup1\n      swap2\n      sub\n      swap1\n      return\n        /* \"proy/pi-markets/smart-contracts/tokens/packable/PiPNFToken.sol\":12532:12684  function setJsonReference(string memory _new) public onlyOwner {... */\n    tag_19:\n      callvalue\n        /* \"--CODEGEN--\":8:17   */\n      dup1\n        /* \"--CODEGEN--\":5:7   */\n      iszero\n      tag_121\n      jumpi\n        /* \"--CODEGEN--\":30:31   */\n      0x0\n        /* \"--CODEGEN--\":27:28   */\n      dup1\n        /* \"--CODEGEN--\":20:32   */\n      revert\n        /* \"--CODEGEN--\":5:7   */\n    tag_121:\n        /* \"proy/pi-markets/smart-contracts/tokens/packable/PiPNFToken.sol\":12532:12684  function setJsonReference(string memory _new) public onlyOwner {... */\n      pop\n      tag_122\n      0x4\n      dup1\n      calldatasize\n      sub\n      tag_123\n      swap2\n      swap1\n      dup2\n      add\n      swap1\n      jump(tag_124)\n    tag_123:\n      jump(tag_125)\n    tag_122:\n      stop\n        /* \"proy/pi-markets/smart-contracts/tokens/packable/PiPNFToken.sol\":3293:3421  function symbol()... */\n    tag_20:\n      callvalue\n        /* \"--CODEGEN--\":8:17   */\n      dup1\n        /* \"--CODEGEN--\":5:7   */\n      iszero\n      tag_126\n      jumpi\n        /* \"--CODEGEN--\":30:31   */\n      0x0\n        /* \"--CODEGEN--\":27:28   */\n      dup1\n        /* \"--CODEGEN--\":20:32   */\n      revert\n        /* \"--CODEGEN--\":5:7   */\n    tag_126:\n        /* \"proy/pi-markets/smart-contracts/tokens/packable/PiPNFToken.sol\":3293:3421  function symbol()... */\n      pop\n      tag_127\n      jump(tag_128)\n    tag_127:\n      mload(0x40)\n      tag_129\n      swap2\n      swap1\n      jump(tag_33)\n    tag_129:\n      mload(0x40)\n      dup1\n      swap2\n      sub\n      swap1\n      return\n        /* \"proy/pi-markets/smart-contracts/tokens/packable/PiPNFToken.sol\":10802:11038  function setApprovalForAll(... */\n    tag_21:\n      callvalue\n        /* \"--CODEGEN--\":8:17   */\n      dup1\n        /* \"--CODEGEN--\":5:7   */\n      iszero\n      tag_130\n      jumpi\n        /* \"--CODEGEN--\":30:31   */\n      0x0\n        /* \"--CODEGEN--\":27:28   */\n      dup1\n        /* \"--CODEGEN--\":20:32   */\n      revert\n        /* \"--CODEGEN--\":5:7   */\n    tag_130:\n        /* \"proy/pi-markets/smart-contracts/tokens/packable/PiPNFToken.sol\":10802:11038  function setApprovalForAll(... */\n      pop\n      tag_131\n      0x4\n      dup1\n      calldatasize\n      sub\n      tag_132\n      swap2\n      swap1\n      dup2\n      add\n      swap1\n      jump(tag_133)\n    tag_132:\n      jump(tag_134)\n    tag_131:\n      stop\n        /* \"proy/pi-markets/smart-contracts/tokens/packable/PiPNFToken.sol\":6329:6683  function getMetadata(bytes32 _tokenId) public view returns(uint[5] memory) {... */\n    tag_22:\n      callvalue\n        /* \"--CODEGEN--\":8:17   */\n      dup1\n        /* \"--CODEGEN--\":5:7   */\n      iszero\n      tag_135\n      jumpi\n        /* \"--CODEGEN--\":30:31   */\n      0x0\n        /* \"--CODEGEN--\":27:28   */\n      dup1\n        /* \"--CODEGEN--\":20:32   */\n      revert\n        /* \"--CODEGEN--\":5:7   */\n    tag_135:\n        /* \"proy/pi-markets/smart-contracts/tokens/packable/PiPNFToken.sol\":6329:6683  function getMetadata(bytes32 _tokenId) public view returns(uint[5] memory) {... */\n      pop\n      tag_136\n      0x4\n      dup1\n      calldatasize\n      sub\n      tag_137\n      swap2\n      swap1\n      dup2\n      add\n      swap1\n      jump(tag_93)\n    tag_137:\n      jump(tag_138)\n    tag_136:\n      mload(0x40)\n      tag_139\n      swap2\n      swap1\n      jump(tag_140)\n    tag_139:\n      mload(0x40)\n      dup1\n      swap2\n      sub\n      swap1\n      return\n        /* \"proy/pi-markets/smart-contracts/tokens/packable/PiPNFToken.sol\":3747:3838  function getTokens() external view returns(bytes32[] memory) {... */\n    tag_23:\n      callvalue\n        /* \"--CODEGEN--\":8:17   */\n      dup1\n        /* \"--CODEGEN--\":5:7   */\n      iszero\n      tag_141\n      jumpi\n        /* \"--CODEGEN--\":30:31   */\n      0x0\n        /* \"--CODEGEN--\":27:28   */\n      dup1\n        /* \"--CODEGEN--\":20:32   */\n      revert\n        /* \"--CODEGEN--\":5:7   */\n    tag_141:\n        /* \"proy/pi-markets/smart-contracts/tokens/packable/PiPNFToken.sol\":3747:3838  function getTokens() external view returns(bytes32[] memory) {... */\n      pop\n      tag_142\n      jump(tag_143)\n    tag_142:\n      mload(0x40)\n      tag_144\n      swap2\n      swap1\n      jump(tag_60)\n    tag_144:\n      mload(0x40)\n      dup1\n      swap2\n      sub\n      swap1\n      return\n        /* \"proy/pi-markets/smart-contracts/tokens/packable/PiPNFToken.sol\":9179:9575  function safeTransferFromApproved(... */\n    tag_24:\n      callvalue\n        /* \"--CODEGEN--\":8:17   */\n      dup1\n        /* \"--CODEGEN--\":5:7   */\n      iszero\n      tag_145\n      jumpi\n        /* \"--CODEGEN--\":30:31   */\n      0x0\n        /* \"--CODEGEN--\":27:28   */\n      dup1\n        /* \"--CODEGEN--\":20:32   */\n      revert\n        /* \"--CODEGEN--\":5:7   */\n    tag_145:\n        /* \"proy/pi-markets/smart-contracts/tokens/packable/PiPNFToken.sol\":9179:9575  function safeTransferFromApproved(... */\n      pop\n      tag_146\n      0x4\n      dup1\n      calldatasize\n      sub\n      tag_147\n      swap2\n      swap1\n      dup2\n      add\n      swap1\n      jump(tag_148)\n    tag_147:\n      jump(tag_149)\n    tag_146:\n      stop\n        /* \"proy/pi-markets/smart-contracts/tokens/packable/PiPNFToken.sol\":7918:8213  function safeTransferFrom(... */\n    tag_25:\n      callvalue\n        /* \"--CODEGEN--\":8:17   */\n      dup1\n        /* \"--CODEGEN--\":5:7   */\n      iszero\n      tag_150\n      jumpi\n        /* \"--CODEGEN--\":30:31   */\n      0x0\n        /* \"--CODEGEN--\":27:28   */\n      dup1\n        /* \"--CODEGEN--\":20:32   */\n      revert\n        /* \"--CODEGEN--\":5:7   */\n    tag_150:\n        /* \"proy/pi-markets/smart-contracts/tokens/packable/PiPNFToken.sol\":7918:8213  function safeTransferFrom(... */\n      pop\n      tag_151\n      0x4\n      dup1\n      calldatasize\n      sub\n      tag_152\n      swap2\n      swap1\n      dup2\n      add\n      swap1\n      jump(tag_148)\n    tag_152:\n      jump(tag_153)\n    tag_151:\n      stop\n        /* \"proy/pi-markets/smart-contracts/tokens/packable/PiPNFToken.sol\":5316:5515  function isApprovedForAll(... */\n    tag_26:\n      callvalue\n        /* \"--CODEGEN--\":8:17   */\n      dup1\n        /* \"--CODEGEN--\":5:7   */\n      iszero\n      tag_154\n      jumpi\n        /* \"--CODEGEN--\":30:31   */\n      0x0\n        /* \"--CODEGEN--\":27:28   */\n      dup1\n        /* \"--CODEGEN--\":20:32   */\n      revert\n        /* \"--CODEGEN--\":5:7   */\n    tag_154:\n        /* \"proy/pi-markets/smart-contracts/tokens/packable/PiPNFToken.sol\":5316:5515  function isApprovedForAll(... */\n      pop\n      tag_155\n      0x4\n      dup1\n      calldatasize\n      sub\n      tag_156\n      swap2\n      swap1\n      dup2\n      add\n      swap1\n      jump(tag_157)\n    tag_156:\n      jump(tag_158)\n    tag_155:\n      mload(0x40)\n      tag_159\n      swap2\n      swap1\n      jump(tag_96)\n    tag_159:\n      mload(0x40)\n      dup1\n      swap2\n      sub\n      swap1\n      return\n        /* \"proy/pi-markets/smart-contracts/tokens/packable/PiPNFToken.sol\":1573:1624  mapping(bytes32 => uint256) public supplyByCategory */\n    tag_27:\n      callvalue\n        /* \"--CODEGEN--\":8:17   */\n      dup1\n        /* \"--CODEGEN--\":5:7   */\n      iszero\n      tag_160\n      jumpi\n        /* \"--CODEGEN--\":30:31   */\n      0x0\n        /* \"--CODEGEN--\":27:28   */\n      dup1\n        /* \"--CODEGEN--\":20:32   */\n      revert\n        /* \"--CODEGEN--\":5:7   */\n    tag_160:\n        /* \"proy/pi-markets/smart-contracts/tokens/packable/PiPNFToken.sol\":1573:1624  mapping(bytes32 => uint256) public supplyByCategory */\n      pop\n      tag_161\n      0x4\n      dup1\n      calldatasize\n      sub\n      tag_162\n      swap2\n      swap1\n      dup2\n      add\n      swap1\n      jump(tag_93)\n    tag_162:\n      jump(tag_163)\n    tag_161:\n      mload(0x40)\n      tag_164\n      swap2\n      swap1\n      jump(tag_43)\n    tag_164:\n      mload(0x40)\n      dup1\n      swap2\n      sub\n      swap1\n      return\n        /* \"proy/pi-markets/smart-contracts/tokens/packable/PiPNFToken.sol\":508:535  string public jsonReference */\n    tag_28:\n      callvalue\n        /* \"--CODEGEN--\":8:17   */\n      dup1\n        /* \"--CODEGEN--\":5:7   */\n      iszero\n      tag_165\n      jumpi\n        /* \"--CODEGEN--\":30:31   */\n      0x0\n        /* \"--CODEGEN--\":27:28   */\n      dup1\n        /* \"--CODEGEN--\":20:32   */\n      revert\n        /* \"--CODEGEN--\":5:7   */\n    tag_165:\n        /* \"proy/pi-markets/smart-contracts/tokens/packable/PiPNFToken.sol\":508:535  string public jsonReference */\n      pop\n      tag_166\n      jump(tag_167)\n    tag_166:\n      mload(0x40)\n      tag_168\n      swap2\n      swap1\n      jump(tag_169)\n    tag_168:\n      mload(0x40)\n      dup1\n      swap2\n      sub\n      swap1\n      return\n        /* \"proy/pi-markets/smart-contracts/tokens/packable/PiPNFToken.sol\":3056:3176  function name()... */\n    tag_31:\n        /* \"proy/pi-markets/smart-contracts/tokens/packable/PiPNFToken.sol\":3119:3138  string memory _name */\n      0x60\n        /* \"proy/pi-markets/smart-contracts/tokens/packable/PiPNFToken.sol\":3162:3169  nftName */\n      0x2\n        /* \"proy/pi-markets/smart-contracts/tokens/packable/PiPNFToken.sol\":3154:3169  _name = nftName */\n      dup1\n      sload\n      0x1\n      dup2\n      0x1\n      and\n      iszero\n      0x100\n      mul\n      sub\n      and\n      0x2\n      swap1\n      div\n      dup1\n      0x1f\n      add\n      0x20\n      dup1\n      swap2\n      div\n      mul\n      0x20\n      add\n      mload(0x40)\n      swap1\n      dup2\n      add\n      0x40\n      mstore\n      dup1\n      swap3\n      swap2\n      swap1\n      dup2\n      dup2\n      mstore\n      0x20\n      add\n      dup3\n      dup1\n      sload\n      0x1\n      dup2\n      0x1\n      and\n      iszero\n      0x100\n      mul\n      sub\n      and\n      0x2\n      swap1\n      div\n      dup1\n      iszero\n      tag_171\n      jumpi\n      dup1\n      0x1f\n      lt\n      tag_172\n      jumpi\n      0x100\n      dup1\n      dup4\n      sload\n      div\n      mul\n      dup4\n      mstore\n      swap2\n      0x20\n      add\n      swap2\n      jump(tag_171)\n    tag_172:\n      dup3\n      add\n      swap2\n      swap1\n      0x0\n      mstore\n      keccak256(0x0, 0x20)\n      swap1\n    tag_173:\n      dup2\n      sload\n      dup2\n      mstore\n      swap1\n      0x1\n      add\n      swap1\n      0x20\n      add\n      dup1\n      dup4\n      gt\n      tag_173\n      jumpi\n      dup3\n      swap1\n      sub\n      0x1f\n      and\n      dup3\n      add\n      swap2\n    tag_171:\n      pop\n      pop\n      pop\n      pop\n      pop\n      swap1\n      pop\n        /* \"proy/pi-markets/smart-contracts/tokens/packable/PiPNFToken.sol\":3056:3176  function name()... */\n      swap1\n      jump\t// out\n        /* \"proy/pi-markets/smart-contracts/tokens/utils/Owned.sol\":973:1109  function setOwner(address _new)... */\n    tag_38:\n        /* \"proy/pi-markets/smart-contracts/tokens/utils/Owned.sol\":871:876  owner */\n      0x0\n      dup1\n      swap1\n      sload\n      swap1\n      0x100\n      exp\n      swap1\n      div\n      0xffffffffffffffffffffffffffffffffffffffff\n      and\n        /* \"proy/pi-markets/smart-contracts/tokens/utils/Owned.sol\":857:876  msg.sender == owner */\n      0xffffffffffffffffffffffffffffffffffffffff\n      and\n        /* \"proy/pi-markets/smart-contracts/tokens/utils/Owned.sol\":857:867  msg.sender */\n      caller\n        /* \"proy/pi-markets/smart-contracts/tokens/utils/Owned.sol\":857:876  msg.sender == owner */\n      0xffffffffffffffffffffffffffffffffffffffff\n      and\n      eq\n        /* \"proy/pi-markets/smart-contracts/tokens/utils/Owned.sol\":849:877  require(msg.sender == owner) */\n      iszero\n      iszero\n      tag_175\n      jumpi\n      0x0\n      dup1\n      revert\n    tag_175:\n        /* \"proy/pi-markets/smart-contracts/tokens/utils/Owned.sol\":1075:1079  _new */\n      dup1\n        /* \"proy/pi-markets/smart-contracts/tokens/utils/Owned.sol\":1059:1080  NewOwner(owner, _new) */\n      0xffffffffffffffffffffffffffffffffffffffff\n      and\n        /* \"proy/pi-markets/smart-contracts/tokens/utils/Owned.sol\":1068:1073  owner */\n      0x0\n      dup1\n      swap1\n      sload\n      swap1\n      0x100\n      exp\n      swap1\n      div\n      0xffffffffffffffffffffffffffffffffffffffff\n      and\n        /* \"proy/pi-markets/smart-contracts/tokens/utils/Owned.sol\":1059:1080  NewOwner(owner, _new) */\n      0xffffffffffffffffffffffffffffffffffffffff\n      and\n      0x70aea8d848e8a90fb7661b227dc522eb6395c3dac71b63cb59edd5c9899b2364\n      mload(0x40)\n      mload(0x40)\n      dup1\n      swap2\n      sub\n      swap1\n      log3\n        /* \"proy/pi-markets/smart-contracts/tokens/utils/Owned.sol\":1098:1102  _new */\n      dup1\n        /* \"proy/pi-markets/smart-contracts/tokens/utils/Owned.sol\":1090:1095  owner */\n      0x0\n      dup1\n        /* \"proy/pi-markets/smart-contracts/tokens/utils/Owned.sol\":1090:1102  owner = _new */\n      0x100\n      exp\n      dup2\n      sload\n      dup2\n      0xffffffffffffffffffffffffffffffffffffffff\n      mul\n      not\n      and\n      swap1\n      dup4\n      0xffffffffffffffffffffffffffffffffffffffff\n      and\n      mul\n      or\n      swap1\n      sstore\n      pop\n        /* \"proy/pi-markets/smart-contracts/tokens/utils/Owned.sol\":973:1109  function setOwner(address _new)... */\n      pop\n      jump\t// out\n        /* \"proy/pi-markets/smart-contracts/tokens/packable/PiPNFToken.sol\":3621:3741  function totalSupply()... */\n    tag_41:\n        /* \"proy/pi-markets/smart-contracts/tokens/packable/PiPNFToken.sol\":3691:3698  uint256 */\n      0x0\n        /* \"proy/pi-markets/smart-contracts/tokens/packable/PiPNFToken.sol\":3721:3727  tokens */\n      0x5\n        /* \"proy/pi-markets/smart-contracts/tokens/packable/PiPNFToken.sol\":3721:3734  tokens.length */\n      dup1\n      sload\n      swap1\n      pop\n        /* \"proy/pi-markets/smart-contracts/tokens/packable/PiPNFToken.sol\":3714:3734  return tokens.length */\n      swap1\n      pop\n        /* \"proy/pi-markets/smart-contracts/tokens/packable/PiPNFToken.sol\":3621:3741  function totalSupply()... */\n      swap1\n      jump\t// out\n        /* \"proy/pi-markets/smart-contracts/tokens/packable/PiPNFToken.sol\":1478:1541  mapping(address => mapping(bytes32 => uint256)) public balances */\n    tag_48:\n      mstore(0x20, 0xc)\n      dup2\n      0x0\n      mstore\n      mstore(0x20, keccak256(0x0, 0x40))\n      dup1\n      0x0\n      mstore\n      keccak256(0x0, 0x40)\n      0x0\n      swap2\n      pop\n      swap2\n      pop\n      pop\n      sload\n      dup2\n      jump\t// out\n        /* \"proy/pi-markets/smart-contracts/tokens/packable/PiPNFToken.sol\":4336:4569  function balanceById(... */\n    tag_53:\n        /* \"proy/pi-markets/smart-contracts/tokens/packable/PiPNFToken.sol\":4460:4467  uint256 */\n      0x0\n        /* \"proy/pi-markets/smart-contracts/tokens/packable/PiPNFToken.sol\":4509:4510  0 */\n      dup1\n        /* \"proy/pi-markets/smart-contracts/tokens/packable/PiPNFToken.sol\":4491:4511  _owner != address(0) */\n      0xffffffffffffffffffffffffffffffffffffffff\n      and\n        /* \"proy/pi-markets/smart-contracts/tokens/packable/PiPNFToken.sol\":4491:4497  _owner */\n      dup4\n        /* \"proy/pi-markets/smart-contracts/tokens/packable/PiPNFToken.sol\":4491:4511  _owner != address(0) */\n      0xffffffffffffffffffffffffffffffffffffffff\n      and\n      eq\n      iszero\n        /* \"proy/pi-markets/smart-contracts/tokens/packable/PiPNFToken.sol\":4483:4519  require(_owner != address(0), \"127\") */\n      iszero\n      iszero\n      tag_179\n      jumpi\n      mload(0x40)\n      0x8c379a000000000000000000000000000000000000000000000000000000000\n      dup2\n      mstore\n      0x4\n      add\n      tag_180\n      swap1\n      jump(tag_181)\n    tag_180:\n      mload(0x40)\n      dup1\n      swap2\n      sub\n      swap1\n      revert\n    tag_179:\n        /* \"proy/pi-markets/smart-contracts/tokens/packable/PiPNFToken.sol\":4536:4544  balances */\n      0xc\n        /* \"proy/pi-markets/smart-contracts/tokens/packable/PiPNFToken.sol\":4536:4552  balances[_owner] */\n      0x0\n        /* \"proy/pi-markets/smart-contracts/tokens/packable/PiPNFToken.sol\":4545:4551  _owner */\n      dup5\n        /* \"proy/pi-markets/smart-contracts/tokens/packable/PiPNFToken.sol\":4536:4552  balances[_owner] */\n      0xffffffffffffffffffffffffffffffffffffffff\n      and\n      0xffffffffffffffffffffffffffffffffffffffff\n      and\n      dup2\n      mstore\n      0x20\n      add\n      swap1\n      dup2\n      mstore\n      0x20\n      add\n      0x0\n      keccak256\n        /* \"proy/pi-markets/smart-contracts/tokens/packable/PiPNFToken.sol\":4536:4562  balances[_owner][_tokenId] */\n      0x0\n        /* \"proy/pi-markets/smart-contracts/tokens/packable/PiPNFToken.sol\":4553:4561  _tokenId */\n      dup4\n        /* \"proy/pi-markets/smart-contracts/tokens/packable/PiPNFToken.sol\":4536:4562  balances[_owner][_tokenId] */\n      dup2\n      mstore\n      0x20\n      add\n      swap1\n      dup2\n      mstore\n      0x20\n      add\n      0x0\n      keccak256\n      sload\n        /* \"proy/pi-markets/smart-contracts/tokens/packable/PiPNFToken.sol\":4529:4562  return balances[_owner][_tokenId] */\n      swap1\n      pop\n        /* \"proy/pi-markets/smart-contracts/tokens/packable/PiPNFToken.sol\":4336:4569  function balanceById(... */\n      swap3\n      swap2\n      pop\n      pop\n      jump\t// out\n        /* \"proy/pi-markets/smart-contracts/tokens/packable/PiPNFToken.sol\":6160:6323  function tokenOfOwner(... */\n    tag_58:\n        /* \"proy/pi-markets/smart-contracts/tokens/packable/PiPNFToken.sol\":6259:6275  bytes32[] memory */\n      0x60\n        /* \"proy/pi-markets/smart-contracts/tokens/packable/PiPNFToken.sol\":6298:6308  ownerToIds */\n      0xa\n        /* \"proy/pi-markets/smart-contracts/tokens/packable/PiPNFToken.sol\":6298:6316  ownerToIds[_owner] */\n      0x0\n        /* \"proy/pi-markets/smart-contracts/tokens/packable/PiPNFToken.sol\":6309:6315  _owner */\n      dup4\n        /* \"proy/pi-markets/smart-contracts/tokens/packable/PiPNFToken.sol\":6298:6316  ownerToIds[_owner] */\n      0xffffffffffffffffffffffffffffffffffffffff\n      and\n      0xffffffffffffffffffffffffffffffffffffffff\n      and\n      dup2\n      mstore\n      0x20\n      add\n      swap1\n      dup2\n      mstore\n      0x20\n      add\n      0x0\n      keccak256\n        /* \"proy/pi-markets/smart-contracts/tokens/packable/PiPNFToken.sol\":6291:6316  return ownerToIds[_owner] */\n      dup1\n      sload\n      dup1\n      0x20\n      mul\n      0x20\n      add\n      mload(0x40)\n      swap1\n      dup2\n      add\n      0x40\n      mstore\n      dup1\n      swap3\n      swap2\n      swap1\n      dup2\n      dup2\n      mstore\n      0x20\n      add\n      dup3\n      dup1\n      sload\n      dup1\n      iszero\n      tag_183\n      jumpi\n      0x20\n      mul\n      dup3\n      add\n      swap2\n      swap1\n      0x0\n      mstore\n      keccak256(0x0, 0x20)\n      swap1\n    tag_184:\n      dup2\n      sload\n      dup2\n      mstore\n      0x20\n      add\n      swap1\n      0x1\n      add\n      swap1\n      dup1\n      dup4\n      gt\n      tag_184\n      jumpi\n    tag_183:\n      pop\n      pop\n      pop\n      pop\n      pop\n      swap1\n      pop\n        /* \"proy/pi-markets/smart-contracts/tokens/packable/PiPNFToken.sol\":6160:6323  function tokenOfOwner(... */\n      swap2\n      swap1\n      pop\n      jump\t// out\n        /* \"proy/pi-markets/smart-contracts/tokens/packable/PiPNFToken.sol\":5753:6006  function tokenOfOwnerByIndex(... */\n    tag_65:\n        /* \"proy/pi-markets/smart-contracts/tokens/packable/PiPNFToken.sol\":5883:5890  bytes32 */\n      0x0\n        /* \"proy/pi-markets/smart-contracts/tokens/packable/PiPNFToken.sol\":5923:5933  ownerToIds */\n      0xa\n        /* \"proy/pi-markets/smart-contracts/tokens/packable/PiPNFToken.sol\":5923:5941  ownerToIds[_owner] */\n      0x0\n        /* \"proy/pi-markets/smart-contracts/tokens/packable/PiPNFToken.sol\":5934:5940  _owner */\n      dup5\n        /* \"proy/pi-markets/smart-contracts/tokens/packable/PiPNFToken.sol\":5923:5941  ownerToIds[_owner] */\n      0xffffffffffffffffffffffffffffffffffffffff\n      and\n      0xffffffffffffffffffffffffffffffffffffffff\n      and\n      dup2\n      mstore\n      0x20\n      add\n      swap1\n      dup2\n      mstore\n      0x20\n      add\n      0x0\n      keccak256\n        /* \"proy/pi-markets/smart-contracts/tokens/packable/PiPNFToken.sol\":5923:5948  ownerToIds[_owner].length */\n      dup1\n      sload\n      swap1\n      pop\n        /* \"proy/pi-markets/smart-contracts/tokens/packable/PiPNFToken.sol\":5914:5920  _index */\n      dup3\n        /* \"proy/pi-markets/smart-contracts/tokens/packable/PiPNFToken.sol\":5914:5948  _index < ownerToIds[_owner].length */\n      lt\n        /* \"proy/pi-markets/smart-contracts/tokens/packable/PiPNFToken.sol\":5906:5956  require(_index < ownerToIds[_owner].length, \"128\") */\n      iszero\n      iszero\n      tag_186\n      jumpi\n      mload(0x40)\n      0x8c379a000000000000000000000000000000000000000000000000000000000\n      dup2\n      mstore\n      0x4\n      add\n      tag_187\n      swap1\n      jump(tag_188)\n    tag_187:\n      mload(0x40)\n      dup1\n      swap2\n      sub\n      swap1\n      revert\n    tag_186:\n        /* \"proy/pi-markets/smart-contracts/tokens/packable/PiPNFToken.sol\":5973:5983  ownerToIds */\n      0xa\n        /* \"proy/pi-markets/smart-contracts/tokens/packable/PiPNFToken.sol\":5973:5991  ownerToIds[_owner] */\n      0x0\n        /* \"proy/pi-markets/smart-contracts/tokens/packable/PiPNFToken.sol\":5984:5990  _owner */\n      dup5\n        /* \"proy/pi-markets/smart-contracts/tokens/packable/PiPNFToken.sol\":5973:5991  ownerToIds[_owner] */\n      0xffffffffffffffffffffffffffffffffffffffff\n      and\n      0xffffffffffffffffffffffffffffffffffffffff\n      and\n      dup2\n      mstore\n      0x20\n      add\n      swap1\n      dup2\n      mstore\n      0x20\n      add\n      0x0\n      keccak256\n        /* \"proy/pi-markets/smart-contracts/tokens/packable/PiPNFToken.sol\":5992:5998  _index */\n      dup3\n        /* \"proy/pi-markets/smart-contracts/tokens/packable/PiPNFToken.sol\":5973:5999  ownerToIds[_owner][_index] */\n      dup2\n      sload\n      dup2\n      lt\n      iszero\n      iszero\n      tag_189\n      jumpi\n      invalid\n    tag_189:\n      swap1\n      0x0\n      mstore\n      keccak256(0x0, 0x20)\n      add\n      sload\n        /* \"proy/pi-markets/smart-contracts/tokens/packable/PiPNFToken.sol\":5966:5999  return ownerToIds[_owner][_index] */\n      swap1\n      pop\n        /* \"proy/pi-markets/smart-contracts/tokens/packable/PiPNFToken.sol\":5753:6006  function tokenOfOwnerByIndex(... */\n      swap3\n      swap2\n      pop\n      pop\n      jump\t// out\n        /* \"proy/pi-markets/smart-contracts/tokens/packable/PiPNFToken.sol\":3427:3509  function decimals() external view returns (uint8){... */\n    tag_70:\n        /* \"proy/pi-markets/smart-contracts/tokens/packable/PiPNFToken.sol\":3470:3475  uint8 */\n      0x0\n        /* \"proy/pi-markets/smart-contracts/tokens/packable/PiPNFToken.sol\":3493:3502  _decimals */\n      0x4\n      0x0\n      swap1\n      sload\n      swap1\n      0x100\n      exp\n      swap1\n      div\n      0xff\n      and\n        /* \"proy/pi-markets/smart-contracts/tokens/packable/PiPNFToken.sol\":3486:3502  return _decimals */\n      swap1\n      pop\n        /* \"proy/pi-markets/smart-contracts/tokens/packable/PiPNFToken.sol\":3427:3509  function decimals() external view returns (uint8){... */\n      swap1\n      jump\t// out\n        /* \"proy/pi-markets/smart-contracts/tokens/packable/PiPNFToken.sol\":632:655  bytes32[] public tokens */\n    tag_77:\n      0x5\n      dup2\n      dup2\n      sload\n      dup2\n      lt\n      iszero\n      iszero\n      tag_192\n      jumpi\n      invalid\n    tag_192:\n      swap1\n      0x0\n      mstore\n      keccak256(0x0, 0x20)\n      add\n      0x0\n      swap2\n      pop\n      swap1\n      pop\n      sload\n      dup2\n      jump\t// out\n        /* \"proy/pi-markets/smart-contracts/tokens/packable/PiPNFToken.sol\":4814:5046  function getApproved(... */\n    tag_83:\n        /* \"proy/pi-markets/smart-contracts/tokens/packable/PiPNFToken.sol\":4968:4975  uint256 */\n      0x0\n        /* \"proy/pi-markets/smart-contracts/tokens/packable/PiPNFToken.sol\":4998:5007  approvals */\n      0x7\n        /* \"proy/pi-markets/smart-contracts/tokens/packable/PiPNFToken.sol\":4998:5015  approvals[_owner] */\n      0x0\n        /* \"proy/pi-markets/smart-contracts/tokens/packable/PiPNFToken.sol\":5008:5014  _owner */\n      dup6\n        /* \"proy/pi-markets/smart-contracts/tokens/packable/PiPNFToken.sol\":4998:5015  approvals[_owner] */\n      0xffffffffffffffffffffffffffffffffffffffff\n      and\n      0xffffffffffffffffffffffffffffffffffffffff\n      and\n      dup2\n      mstore\n      0x20\n      add\n      swap1\n      dup2\n      mstore\n      0x20\n      add\n      0x0\n      keccak256\n        /* \"proy/pi-markets/smart-contracts/tokens/packable/PiPNFToken.sol\":4998:5029  approvals[_owner][_destination] */\n      0x0\n        /* \"proy/pi-markets/smart-contracts/tokens/packable/PiPNFToken.sol\":5016:5028  _destination */\n      dup5\n        /* \"proy/pi-markets/smart-contracts/tokens/packable/PiPNFToken.sol\":4998:5029  approvals[_owner][_destination] */\n      0xffffffffffffffffffffffffffffffffffffffff\n      and\n      0xffffffffffffffffffffffffffffffffffffffff\n      and\n      dup2\n      mstore\n      0x20\n      add\n      swap1\n      dup2\n      mstore\n      0x20\n      add\n      0x0\n      keccak256\n        /* \"proy/pi-markets/smart-contracts/tokens/packable/PiPNFToken.sol\":4998:5039  approvals[_owner][_destination][_tokenId] */\n      0x0\n        /* \"proy/pi-markets/smart-contracts/tokens/packable/PiPNFToken.sol\":5030:5038  _tokenId */\n      dup4\n        /* \"proy/pi-markets/smart-contracts/tokens/packable/PiPNFToken.sol\":4998:5039  approvals[_owner][_destination][_tokenId] */\n      dup2\n      mstore\n      0x20\n      add\n      swap1\n      dup2\n      mstore\n      0x20\n      add\n      0x0\n      keccak256\n      sload\n        /* \"proy/pi-markets/smart-contracts/tokens/packable/PiPNFToken.sol\":4991:5039  return approvals[_owner][_destination][_tokenId] */\n      swap1\n      pop\n        /* \"proy/pi-markets/smart-contracts/tokens/packable/PiPNFToken.sol\":4814:5046  function getApproved(... */\n      swap4\n      swap3\n      pop\n      pop\n      pop\n      jump\t// out\n        /* \"proy/pi-markets/smart-contracts/tokens/packable/PiPNFToken.sol\":9997:10390  function approve(... */\n    tag_89:\n        /* \"proy/pi-markets/smart-contracts/tokens/packable/PiPNFToken.sol\":10156:10162  _owner */\n      dup4\n        /* \"proy/pi-markets/smart-contracts/tokens/packable/PiPNFToken.sol\":10164:10172  _tokenId */\n      dup3\n        /* \"proy/pi-markets/smart-contracts/tokens/packable/PiPNFToken.sol\":10174:10181  _amount */\n      dup3\n        /* \"proy/pi-markets/smart-contracts/tokens/packable/PiPNFToken.sol\":1841:1847  _owner */\n      dup3\n        /* \"proy/pi-markets/smart-contracts/tokens/packable/PiPNFToken.sol\":1827:1847  msg.sender == _owner */\n      0xffffffffffffffffffffffffffffffffffffffff\n      and\n        /* \"proy/pi-markets/smart-contracts/tokens/packable/PiPNFToken.sol\":1827:1837  msg.sender */\n      caller\n        /* \"proy/pi-markets/smart-contracts/tokens/packable/PiPNFToken.sol\":1827:1847  msg.sender == _owner */\n      0xffffffffffffffffffffffffffffffffffffffff\n      and\n      eq\n        /* \"proy/pi-markets/smart-contracts/tokens/packable/PiPNFToken.sol\":1827:1892  msg.sender == _owner && balances[msg.sender][_tokenId] >= _amount */\n      dup1\n      iszero\n      tag_196\n      jumpi\n      pop\n        /* \"proy/pi-markets/smart-contracts/tokens/packable/PiPNFToken.sol\":1885:1892  _amount */\n      dup1\n        /* \"proy/pi-markets/smart-contracts/tokens/packable/PiPNFToken.sol\":1851:1859  balances */\n      0xc\n        /* \"proy/pi-markets/smart-contracts/tokens/packable/PiPNFToken.sol\":1851:1871  balances[msg.sender] */\n      0x0\n        /* \"proy/pi-markets/smart-contracts/tokens/packable/PiPNFToken.sol\":1860:1870  msg.sender */\n      caller\n        /* \"proy/pi-markets/smart-contracts/tokens/packable/PiPNFToken.sol\":1851:1871  balances[msg.sender] */\n      0xffffffffffffffffffffffffffffffffffffffff\n      and\n      0xffffffffffffffffffffffffffffffffffffffff\n      and\n      dup2\n      mstore\n      0x20\n      add\n      swap1\n      dup2\n      mstore\n      0x20\n      add\n      0x0\n      keccak256\n        /* \"proy/pi-markets/smart-contracts/tokens/packable/PiPNFToken.sol\":1851:1881  balances[msg.sender][_tokenId] */\n      0x0\n        /* \"proy/pi-markets/smart-contracts/tokens/packable/PiPNFToken.sol\":1872:1880  _tokenId */\n      dup5\n        /* \"proy/pi-markets/smart-contracts/tokens/packable/PiPNFToken.sol\":1851:1881  balances[msg.sender][_tokenId] */\n      dup2\n      mstore\n      0x20\n      add\n      swap1\n      dup2\n      mstore\n      0x20\n      add\n      0x0\n      keccak256\n      sload\n        /* \"proy/pi-markets/smart-contracts/tokens/packable/PiPNFToken.sol\":1851:1892  balances[msg.sender][_tokenId] >= _amount */\n      lt\n      iszero\n        /* \"proy/pi-markets/smart-contracts/tokens/packable/PiPNFToken.sol\":1827:1892  msg.sender == _owner && balances[msg.sender][_tokenId] >= _amount */\n    tag_196:\n        /* \"proy/pi-markets/smart-contracts/tokens/packable/PiPNFToken.sol\":1826:1985  (msg.sender == _owner && balances[msg.sender][_tokenId] >= _amount) ... */\n      dup1\n      tag_197\n      jumpi\n      pop\n        /* \"proy/pi-markets/smart-contracts/tokens/packable/PiPNFToken.sol\":1907:1923  ownerToOperators */\n      0x9\n        /* \"proy/pi-markets/smart-contracts/tokens/packable/PiPNFToken.sol\":1907:1931  ownerToOperators[_owner] */\n      0x0\n        /* \"proy/pi-markets/smart-contracts/tokens/packable/PiPNFToken.sol\":1924:1930  _owner */\n      dup5\n        /* \"proy/pi-markets/smart-contracts/tokens/packable/PiPNFToken.sol\":1907:1931  ownerToOperators[_owner] */\n      0xffffffffffffffffffffffffffffffffffffffff\n      and\n      0xffffffffffffffffffffffffffffffffffffffff\n      and\n      dup2\n      mstore\n      0x20\n      add\n      swap1\n      dup2\n      mstore\n      0x20\n      add\n      0x0\n      keccak256\n        /* \"proy/pi-markets/smart-contracts/tokens/packable/PiPNFToken.sol\":1907:1943  ownerToOperators[_owner][msg.sender] */\n      0x0\n        /* \"proy/pi-markets/smart-contracts/tokens/packable/PiPNFToken.sol\":1932:1942  msg.sender */\n      caller\n        /* \"proy/pi-markets/smart-contracts/tokens/packable/PiPNFToken.sol\":1907:1943  ownerToOperators[_owner][msg.sender] */\n      0xffffffffffffffffffffffffffffffffffffffff\n      and\n      0xffffffffffffffffffffffffffffffffffffffff\n      and\n      dup2\n      mstore\n      0x20\n      add\n      swap1\n      dup2\n      mstore\n      0x20\n      add\n      0x0\n      keccak256\n      0x0\n      swap1\n      sload\n      swap1\n      0x100\n      exp\n      swap1\n      div\n      0xff\n      and\n        /* \"proy/pi-markets/smart-contracts/tokens/packable/PiPNFToken.sol\":1907:1984  ownerToOperators[_owner][msg.sender] && balances[_owner][_tokenId] >= _amount */\n      dup1\n      iszero\n      tag_198\n      jumpi\n      pop\n        /* \"proy/pi-markets/smart-contracts/tokens/packable/PiPNFToken.sol\":1977:1984  _amount */\n      dup1\n        /* \"proy/pi-markets/smart-contracts/tokens/packable/PiPNFToken.sol\":1947:1955  balances */\n      0xc\n        /* \"proy/pi-markets/smart-contracts/tokens/packable/PiPNFToken.sol\":1947:1963  balances[_owner] */\n      0x0\n        /* \"proy/pi-markets/smart-contracts/tokens/packable/PiPNFToken.sol\":1956:1962  _owner */\n      dup6\n        /* \"proy/pi-markets/smart-contracts/tokens/packable/PiPNFToken.sol\":1947:1963  balances[_owner] */\n      0xffffffffffffffffffffffffffffffffffffffff\n      and\n      0xffffffffffffffffffffffffffffffffffffffff\n      and\n      dup2\n      mstore\n      0x20\n      add\n      swap1\n      dup2\n      mstore\n      0x20\n      add\n      0x0\n      keccak256\n        /* \"proy/pi-markets/smart-contracts/tokens/packable/PiPNFToken.sol\":1947:1973  balances[_owner][_tokenId] */\n      0x0\n        /* \"proy/pi-markets/smart-contracts/tokens/packable/PiPNFToken.sol\":1964:1972  _tokenId */\n      dup5\n        /* \"proy/pi-markets/smart-contracts/tokens/packable/PiPNFToken.sol\":1947:1973  balances[_owner][_tokenId] */\n      dup2\n      mstore\n      0x20\n      add\n      swap1\n      dup2\n      mstore\n      0x20\n      add\n      0x0\n      keccak256\n      sload\n        /* \"proy/pi-markets/smart-contracts/tokens/packable/PiPNFToken.sol\":1947:1984  balances[_owner][_tokenId] >= _amount */\n      lt\n      iszero\n        /* \"proy/pi-markets/smart-contracts/tokens/packable/PiPNFToken.sol\":1907:1984  ownerToOperators[_owner][msg.sender] && balances[_owner][_tokenId] >= _amount */\n    tag_198:\n        /* \"proy/pi-markets/smart-contracts/tokens/packable/PiPNFToken.sol\":1826:1985  (msg.sender == _owner && balances[msg.sender][_tokenId] >= _amount) ... */\n    tag_197:\n        /* \"proy/pi-markets/smart-contracts/tokens/packable/PiPNFToken.sol\":1818:1993  require((msg.sender == _owner && balances[msg.sender][_tokenId] >= _amount) ... */\n      iszero\n      iszero\n      tag_199\n      jumpi\n      mload(0x40)\n      0x8c379a000000000000000000000000000000000000000000000000000000000\n      dup2\n      mstore\n      0x4\n      add\n      tag_200\n      swap1\n      jump(tag_201)\n    tag_200:\n      mload(0x40)\n      dup1\n      swap2\n      sub\n      swap1\n      revert\n    tag_199:\n        /* \"proy/pi-markets/smart-contracts/tokens/packable/PiPNFToken.sol\":10204:10212  _tokenId */\n      dup5\n        /* \"proy/pi-markets/smart-contracts/tokens/packable/PiPNFToken.sol\":2467:2468  0 */\n      0x0\n        /* \"proy/pi-markets/smart-contracts/tokens/packable/PiPNFToken.sol\":2438:2454  supplyByCategory */\n      0xd\n        /* \"proy/pi-markets/smart-contracts/tokens/packable/PiPNFToken.sol\":2438:2464  supplyByCategory[_tokenId] */\n      0x0\n        /* \"proy/pi-markets/smart-contracts/tokens/packable/PiPNFToken.sol\":2455:2463  _tokenId */\n      dup4\n        /* \"proy/pi-markets/smart-contracts/tokens/packable/PiPNFToken.sol\":2438:2464  supplyByCategory[_tokenId] */\n      dup2\n      mstore\n      0x20\n      add\n      swap1\n      dup2\n      mstore\n      0x20\n      add\n      0x0\n      keccak256\n      sload\n        /* \"proy/pi-markets/smart-contracts/tokens/packable/PiPNFToken.sol\":2438:2468  supplyByCategory[_tokenId] > 0 */\n      gt\n        /* \"proy/pi-markets/smart-contracts/tokens/packable/PiPNFToken.sol\":2430:2476  require(supplyByCategory[_tokenId] > 0, \"126\") */\n      iszero\n      iszero\n      tag_203\n      jumpi\n      mload(0x40)\n      0x8c379a000000000000000000000000000000000000000000000000000000000\n      dup2\n      mstore\n      0x4\n      add\n      tag_204\n      swap1\n      jump(tag_205)\n    tag_204:\n      mload(0x40)\n      dup1\n      swap2\n      sub\n      swap1\n      revert\n    tag_203:\n        /* \"proy/pi-markets/smart-contracts/tokens/packable/PiPNFToken.sol\":10249:10255  _owner */\n      dup8\n        /* \"proy/pi-markets/smart-contracts/tokens/packable/PiPNFToken.sol\":10236:10255  _approved != _owner */\n      0xffffffffffffffffffffffffffffffffffffffff\n      and\n        /* \"proy/pi-markets/smart-contracts/tokens/packable/PiPNFToken.sol\":10236:10245  _approved */\n      dup8\n        /* \"proy/pi-markets/smart-contracts/tokens/packable/PiPNFToken.sol\":10236:10255  _approved != _owner */\n      0xffffffffffffffffffffffffffffffffffffffff\n      and\n      eq\n      iszero\n        /* \"proy/pi-markets/smart-contracts/tokens/packable/PiPNFToken.sol\":10228:10263  require(_approved != _owner, \"131\") */\n      iszero\n      iszero\n      tag_207\n      jumpi\n      mload(0x40)\n      0x8c379a000000000000000000000000000000000000000000000000000000000\n      dup2\n      mstore\n      0x4\n      add\n      tag_208\n      swap1\n      jump(tag_209)\n    tag_208:\n      mload(0x40)\n      dup1\n      swap2\n      sub\n      swap1\n      revert\n    tag_207:\n        /* \"proy/pi-markets/smart-contracts/tokens/packable/PiPNFToken.sol\":10315:10322  _amount */\n      dup5\n        /* \"proy/pi-markets/smart-contracts/tokens/packable/PiPNFToken.sol\":10274:10283  approvals */\n      0x7\n        /* \"proy/pi-markets/smart-contracts/tokens/packable/PiPNFToken.sol\":10274:10291  approvals[_owner] */\n      0x0\n        /* \"proy/pi-markets/smart-contracts/tokens/packable/PiPNFToken.sol\":10284:10290  _owner */\n      dup11\n        /* \"proy/pi-markets/smart-contracts/tokens/packable/PiPNFToken.sol\":10274:10291  approvals[_owner] */\n      0xffffffffffffffffffffffffffffffffffffffff\n      and\n      0xffffffffffffffffffffffffffffffffffffffff\n      and\n      dup2\n      mstore\n      0x20\n      add\n      swap1\n      dup2\n      mstore\n      0x20\n      add\n      0x0\n      keccak256\n        /* \"proy/pi-markets/smart-contracts/tokens/packable/PiPNFToken.sol\":10274:10302  approvals[_owner][_approved] */\n      0x0\n        /* \"proy/pi-markets/smart-contracts/tokens/packable/PiPNFToken.sol\":10292:10301  _approved */\n      dup10\n        /* \"proy/pi-markets/smart-contracts/tokens/packable/PiPNFToken.sol\":10274:10302  approvals[_owner][_approved] */\n      0xffffffffffffffffffffffffffffffffffffffff\n      and\n      0xffffffffffffffffffffffffffffffffffffffff\n      and\n      dup2\n      mstore\n      0x20\n      add\n      swap1\n      dup2\n      mstore\n      0x20\n      add\n      0x0\n      keccak256\n        /* \"proy/pi-markets/smart-contracts/tokens/packable/PiPNFToken.sol\":10274:10312  approvals[_owner][_approved][_tokenId] */\n      0x0\n        /* \"proy/pi-markets/smart-contracts/tokens/packable/PiPNFToken.sol\":10303:10311  _tokenId */\n      dup9\n        /* \"proy/pi-markets/smart-contracts/tokens/packable/PiPNFToken.sol\":10274:10312  approvals[_owner][_approved][_tokenId] */\n      dup2\n      mstore\n      0x20\n      add\n      swap1\n      dup2\n      mstore\n      0x20\n      add\n      0x0\n      keccak256\n        /* \"proy/pi-markets/smart-contracts/tokens/packable/PiPNFToken.sol\":10274:10322  approvals[_owner][_approved][_tokenId] = _amount */\n      dup2\n      swap1\n      sstore\n      pop\n        /* \"proy/pi-markets/smart-contracts/tokens/packable/PiPNFToken.sol\":10365:10373  _tokenId */\n      dup6\n        /* \"proy/pi-markets/smart-contracts/tokens/packable/PiPNFToken.sol\":10354:10363  _approved */\n      dup8\n        /* \"proy/pi-markets/smart-contracts/tokens/packable/PiPNFToken.sol\":10337:10383  Approval(_owner, _approved, _tokenId, _amount) */\n      0xffffffffffffffffffffffffffffffffffffffff\n      and\n        /* \"proy/pi-markets/smart-contracts/tokens/packable/PiPNFToken.sol\":10346:10352  _owner */\n      dup10\n        /* \"proy/pi-markets/smart-contracts/tokens/packable/PiPNFToken.sol\":10337:10383  Approval(_owner, _approved, _tokenId, _amount) */\n      0xffffffffffffffffffffffffffffffffffffffff\n      and\n      0xa1376f00ce38a02643af0ff97dce59c2c81b4c8ad34c717ce9a44ed623e0718d\n        /* \"proy/pi-markets/smart-contracts/tokens/packable/PiPNFToken.sol\":10375:10382  _amount */\n      dup9\n        /* \"proy/pi-markets/smart-contracts/tokens/packable/PiPNFToken.sol\":10337:10383  Approval(_owner, _approved, _tokenId, _amount) */\n      mload(0x40)\n      tag_210\n      swap2\n      swap1\n      jump(tag_43)\n    tag_210:\n      mload(0x40)\n      dup1\n      swap2\n      sub\n      swap1\n      log4\n        /* \"proy/pi-markets/smart-contracts/tokens/packable/PiPNFToken.sol\":2003:2004  _ */\n      pop\n        /* \"proy/pi-markets/smart-contracts/tokens/packable/PiPNFToken.sol\":9997:10390  function approve(... */\n      pop\n      pop\n      pop\n      pop\n      pop\n      pop\n      pop\n      jump\t// out\n        /* \"proy/pi-markets/smart-contracts/tokens/packable/PiPNFToken.sol\":6689:6924  function isExpired(bytes32 _tokenId) public view returns (bool) {... */\n    tag_94:\n        /* \"proy/pi-markets/smart-contracts/tokens/packable/PiPNFToken.sol\":6747:6751  bool */\n      0x0\n        /* \"proy/pi-markets/smart-contracts/tokens/packable/PiPNFToken.sol\":6763:6779  uint _expiration */\n      dup1\n        /* \"proy/pi-markets/smart-contracts/tokens/packable/PiPNFToken.sol\":6782:6790  idTojson */\n      0xe\n        /* \"proy/pi-markets/smart-contracts/tokens/packable/PiPNFToken.sol\":6782:6800  idTojson[_tokenId] */\n      0x0\n        /* \"proy/pi-markets/smart-contracts/tokens/packable/PiPNFToken.sol\":6791:6799  _tokenId */\n      dup5\n        /* \"proy/pi-markets/smart-contracts/tokens/packable/PiPNFToken.sol\":6782:6800  idTojson[_tokenId] */\n      dup2\n      mstore\n      0x20\n      add\n      swap1\n      dup2\n      mstore\n      0x20\n      add\n      0x0\n      keccak256\n        /* \"proy/pi-markets/smart-contracts/tokens/packable/PiPNFToken.sol\":6782:6805  idTojson[_tokenId].key0 */\n      0x0\n      add\n      sload\n        /* \"proy/pi-markets/smart-contracts/tokens/packable/PiPNFToken.sol\":6763:6805  uint _expiration = idTojson[_tokenId].key0 */\n      swap1\n      pop\n        /* \"proy/pi-markets/smart-contracts/tokens/packable/PiPNFToken.sol\":6826:6837  _expiration */\n      dup1\n        /* \"proy/pi-markets/smart-contracts/tokens/packable/PiPNFToken.sol\":6820:6823  now */\n      timestamp\n        /* \"proy/pi-markets/smart-contracts/tokens/packable/PiPNFToken.sol\":6820:6837  now < _expiration */\n      lt\n        /* \"proy/pi-markets/smart-contracts/tokens/packable/PiPNFToken.sol\":6816:6918  if (now < _expiration) {... */\n      iszero\n      tag_212\n      jumpi\n        /* \"proy/pi-markets/smart-contracts/tokens/packable/PiPNFToken.sol\":6860:6865  false */\n      0x0\n        /* \"proy/pi-markets/smart-contracts/tokens/packable/PiPNFToken.sol\":6853:6865  return false */\n      swap2\n      pop\n      pop\n      jump(tag_211)\n        /* \"proy/pi-markets/smart-contracts/tokens/packable/PiPNFToken.sol\":6816:6918  if (now < _expiration) {... */\n    tag_212:\n        /* \"proy/pi-markets/smart-contracts/tokens/packable/PiPNFToken.sol\":6903:6907  true */\n      0x1\n        /* \"proy/pi-markets/smart-contracts/tokens/packable/PiPNFToken.sol\":6896:6907  return true */\n      swap2\n      pop\n      pop\n        /* \"proy/pi-markets/smart-contracts/tokens/packable/PiPNFToken.sol\":6689:6924  function isExpired(bytes32 _tokenId) public view returns (bool) {... */\n    tag_211:\n      swap2\n      swap1\n      pop\n      jump\t// out\n        /* \"proy/pi-markets/smart-contracts/tokens/packable/PiPNFToken.sol\":4133:4330  function balanceOf(... */\n    tag_100:\n        /* \"proy/pi-markets/smart-contracts/tokens/packable/PiPNFToken.sol\":4229:4236  uint256 */\n      0x0\n        /* \"proy/pi-markets/smart-contracts/tokens/packable/PiPNFToken.sol\":4278:4279  0 */\n      dup1\n        /* \"proy/pi-markets/smart-contracts/tokens/packable/PiPNFToken.sol\":4260:4280  _owner != address(0) */\n      0xffffffffffffffffffffffffffffffffffffffff\n      and\n        /* \"proy/pi-markets/smart-contracts/tokens/packable/PiPNFToken.sol\":4260:4266  _owner */\n      dup3\n        /* \"proy/pi-markets/smart-contracts/tokens/packable/PiPNFToken.sol\":4260:4280  _owner != address(0) */\n      0xffffffffffffffffffffffffffffffffffffffff\n      and\n      eq\n      iszero\n        /* \"proy/pi-markets/smart-contracts/tokens/packable/PiPNFToken.sol\":4252:4281  require(_owner != address(0)) */\n      iszero\n      iszero\n      tag_215\n      jumpi\n      0x0\n      dup1\n      revert\n    tag_215:\n        /* \"proy/pi-markets/smart-contracts/tokens/packable/PiPNFToken.sol\":4298:4323  _getOwnerNFTCount(_owner) */\n      tag_216\n        /* \"proy/pi-markets/smart-contracts/tokens/packable/PiPNFToken.sol\":4316:4322  _owner */\n      dup3\n        /* \"proy/pi-markets/smart-contracts/tokens/packable/PiPNFToken.sol\":4298:4315  _getOwnerNFTCount */\n      tag_217\n        /* \"proy/pi-markets/smart-contracts/tokens/packable/PiPNFToken.sol\":4298:4323  _getOwnerNFTCount(_owner) */\n      jump\t// in\n    tag_216:\n        /* \"proy/pi-markets/smart-contracts/tokens/packable/PiPNFToken.sol\":4291:4323  return _getOwnerNFTCount(_owner) */\n      swap1\n      pop\n        /* \"proy/pi-markets/smart-contracts/tokens/packable/PiPNFToken.sol\":4133:4330  function balanceOf(... */\n      swap2\n      swap1\n      pop\n      jump\t// out\n        /* \"proy/pi-markets/smart-contracts/tokens/packable/PiPNFToken.sol\":11162:11797  function mint(... */\n    tag_106:\n        /* \"proy/pi-markets/smart-contracts/tokens/utils/Owned.sol\":871:876  owner */\n      0x0\n      dup1\n      swap1\n      sload\n      swap1\n      0x100\n      exp\n      swap1\n      div\n      0xffffffffffffffffffffffffffffffffffffffff\n      and\n        /* \"proy/pi-markets/smart-contracts/tokens/utils/Owned.sol\":857:876  msg.sender == owner */\n      0xffffffffffffffffffffffffffffffffffffffff\n      and\n        /* \"proy/pi-markets/smart-contracts/tokens/utils/Owned.sol\":857:867  msg.sender */\n      caller\n        /* \"proy/pi-markets/smart-contracts/tokens/utils/Owned.sol\":857:876  msg.sender == owner */\n      0xffffffffffffffffffffffffffffffffffffffff\n      and\n      eq\n        /* \"proy/pi-markets/smart-contracts/tokens/utils/Owned.sol\":849:877  require(msg.sender == owner) */\n      iszero\n      iszero\n      tag_219\n      jumpi\n      0x0\n      dup1\n      revert\n    tag_219:\n        /* \"proy/pi-markets/smart-contracts/tokens/packable/PiPNFToken.sol\":11313:11329  bytes32 _tokenId */\n      0x0\n        /* \"proy/pi-markets/smart-contracts/tokens/packable/PiPNFToken.sol\":11372:11377  _json */\n      dup3\n        /* \"proy/pi-markets/smart-contracts/tokens/packable/PiPNFToken.sol\":11378:11379  0 */\n      0x0\n        /* \"proy/pi-markets/smart-contracts/tokens/packable/PiPNFToken.sol\":11372:11380  _json[0] */\n      0x5\n      dup2\n      lt\n      iszero\n      iszero\n      tag_221\n      jumpi\n      invalid\n    tag_221:\n      0x20\n      mul\n      add\n      calldataload\n        /* \"proy/pi-markets/smart-contracts/tokens/packable/PiPNFToken.sol\":11394:11399  _json */\n      dup4\n        /* \"proy/pi-markets/smart-contracts/tokens/packable/PiPNFToken.sol\":11400:11401  1 */\n      0x1\n        /* \"proy/pi-markets/smart-contracts/tokens/packable/PiPNFToken.sol\":11394:11402  _json[1] */\n      0x5\n      dup2\n      lt\n      iszero\n      iszero\n      tag_222\n      jumpi\n      invalid\n    tag_222:\n      0x20\n      mul\n      add\n      calldataload\n        /* \"proy/pi-markets/smart-contracts/tokens/packable/PiPNFToken.sol\":11416:11421  _json */\n      dup5\n        /* \"proy/pi-markets/smart-contracts/tokens/packable/PiPNFToken.sol\":11422:11423  2 */\n      0x2\n        /* \"proy/pi-markets/smart-contracts/tokens/packable/PiPNFToken.sol\":11416:11424  _json[2] */\n      0x5\n      dup2\n      lt\n      iszero\n      iszero\n      tag_223\n      jumpi\n      invalid\n    tag_223:\n      0x20\n      mul\n      add\n      calldataload\n        /* \"proy/pi-markets/smart-contracts/tokens/packable/PiPNFToken.sol\":11438:11443  _json */\n      dup6\n        /* \"proy/pi-markets/smart-contracts/tokens/packable/PiPNFToken.sol\":11444:11445  3 */\n      0x3\n        /* \"proy/pi-markets/smart-contracts/tokens/packable/PiPNFToken.sol\":11438:11446  _json[3] */\n      0x5\n      dup2\n      lt\n      iszero\n      iszero\n      tag_224\n      jumpi\n      invalid\n    tag_224:\n      0x20\n      mul\n      add\n      calldataload\n        /* \"proy/pi-markets/smart-contracts/tokens/packable/PiPNFToken.sol\":11460:11465  _json */\n      dup7\n        /* \"proy/pi-markets/smart-contracts/tokens/packable/PiPNFToken.sol\":11466:11467  4 */\n      0x4\n        /* \"proy/pi-markets/smart-contracts/tokens/packable/PiPNFToken.sol\":11460:11468  _json[4] */\n      0x5\n      dup2\n      lt\n      iszero\n      iszero\n      tag_225\n      jumpi\n      invalid\n    tag_225:\n      0x20\n      mul\n      add\n      calldataload\n        /* \"proy/pi-markets/smart-contracts/tokens/packable/PiPNFToken.sol\":11342:11478  abi.encodePacked(... */\n      add(0x20, mload(0x40))\n      dup1\n      dup7\n      dup2\n      mstore\n      0x20\n      add\n      dup6\n      dup2\n      mstore\n      0x20\n      add\n      dup5\n      dup2\n      mstore\n      0x20\n      add\n      dup4\n      dup2\n      mstore\n      0x20\n      add\n      dup3\n      dup2\n      mstore\n      0x20\n      add\n      swap6\n      pop\n      pop\n      pop\n      pop\n      pop\n      pop\n      mload(0x40)\n        /* \"--CODEGEN--\":49:53   */\n      0x20\n        /* \"--CODEGEN--\":39:46   */\n      dup2\n        /* \"--CODEGEN--\":30:37   */\n      dup4\n        /* \"--CODEGEN--\":26:47   */\n      sub\n        /* \"--CODEGEN--\":22:54   */\n      sub\n        /* \"--CODEGEN--\":13:20   */\n      dup2\n        /* \"--CODEGEN--\":6:55   */\n      mstore\n        /* \"proy/pi-markets/smart-contracts/tokens/packable/PiPNFToken.sol\":11342:11478  abi.encodePacked(... */\n      swap1\n      0x40\n      mstore\n        /* \"proy/pi-markets/smart-contracts/tokens/packable/PiPNFToken.sol\":11332:11479  keccak256(abi.encodePacked(... */\n      dup1\n      mload\n      swap1\n      0x20\n      add\n      keccak256\n        /* \"proy/pi-markets/smart-contracts/tokens/packable/PiPNFToken.sol\":11313:11479  bytes32 _tokenId = keccak256(abi.encodePacked(... */\n      swap1\n      pop\n        /* \"proy/pi-markets/smart-contracts/tokens/packable/PiPNFToken.sol\":11532:11533  0 */\n      0x0\n        /* \"proy/pi-markets/smart-contracts/tokens/packable/PiPNFToken.sol\":11502:11518  supplyByCategory */\n      0xd\n        /* \"proy/pi-markets/smart-contracts/tokens/packable/PiPNFToken.sol\":11502:11528  supplyByCategory[_tokenId] */\n      0x0\n        /* \"proy/pi-markets/smart-contracts/tokens/packable/PiPNFToken.sol\":11519:11527  _tokenId */\n      dup4\n        /* \"proy/pi-markets/smart-contracts/tokens/packable/PiPNFToken.sol\":11502:11528  supplyByCategory[_tokenId] */\n      dup2\n      mstore\n      0x20\n      add\n      swap1\n      dup2\n      mstore\n      0x20\n      add\n      0x0\n      keccak256\n      sload\n        /* \"proy/pi-markets/smart-contracts/tokens/packable/PiPNFToken.sol\":11502:11533  supplyByCategory[_tokenId] == 0 */\n      eq\n        /* \"proy/pi-markets/smart-contracts/tokens/packable/PiPNFToken.sol\":11498:11673  if (supplyByCategory[_tokenId] == 0) {... */\n      iszero\n      tag_226\n      jumpi\n        /* \"proy/pi-markets/smart-contracts/tokens/packable/PiPNFToken.sol\":11549:11555  tokens */\n      0x5\n        /* \"proy/pi-markets/smart-contracts/tokens/packable/PiPNFToken.sol\":11561:11569  _tokenId */\n      dup2\n        /* \"proy/pi-markets/smart-contracts/tokens/packable/PiPNFToken.sol\":11549:11570  tokens.push(_tokenId) */\n      swap1\n      dup1\n        /* \"--CODEGEN--\":39:40   */\n      0x1\n        /* \"--CODEGEN--\":33:36   */\n      dup2\n        /* \"--CODEGEN--\":27:37   */\n      sload\n        /* \"--CODEGEN--\":23:41   */\n      add\n        /* \"--CODEGEN--\":57:67   */\n      dup1\n        /* \"--CODEGEN--\":52:55   */\n      dup3\n        /* \"--CODEGEN--\":45:68   */\n      sstore\n        /* \"--CODEGEN--\":79:89   */\n      dup1\n        /* \"--CODEGEN--\":72:89   */\n      swap2\n      pop\n        /* \"--CODEGEN--\":0:93   */\n      pop\n        /* \"proy/pi-markets/smart-contracts/tokens/packable/PiPNFToken.sol\":11549:11570  tokens.push(_tokenId) */\n      swap1\n      0x1\n      dup3\n      sub\n      swap1\n      0x0\n      mstore\n      keccak256(0x0, 0x20)\n      add\n      0x0\n      swap1\n      swap2\n      swap3\n      swap1\n      swap2\n      swap1\n      swap2\n      pop\n      sstore\n      pop\n        /* \"proy/pi-markets/smart-contracts/tokens/packable/PiPNFToken.sol\":11622:11623  1 */\n      0x1\n        /* \"proy/pi-markets/smart-contracts/tokens/packable/PiPNFToken.sol\":11606:11612  tokens */\n      0x5\n        /* \"proy/pi-markets/smart-contracts/tokens/packable/PiPNFToken.sol\":11606:11619  tokens.length */\n      dup1\n      sload\n      swap1\n      pop\n        /* \"proy/pi-markets/smart-contracts/tokens/packable/PiPNFToken.sol\":11606:11623  tokens.length - 1 */\n      sub\n        /* \"proy/pi-markets/smart-contracts/tokens/packable/PiPNFToken.sol\":11584:11593  idToIndex */\n      0x6\n        /* \"proy/pi-markets/smart-contracts/tokens/packable/PiPNFToken.sol\":11584:11603  idToIndex[_tokenId] */\n      0x0\n        /* \"proy/pi-markets/smart-contracts/tokens/packable/PiPNFToken.sol\":11594:11602  _tokenId */\n      dup4\n        /* \"proy/pi-markets/smart-contracts/tokens/packable/PiPNFToken.sol\":11584:11603  idToIndex[_tokenId] */\n      dup2\n      mstore\n      0x20\n      add\n      swap1\n      dup2\n      mstore\n      0x20\n      add\n      0x0\n      keccak256\n        /* \"proy/pi-markets/smart-contracts/tokens/packable/PiPNFToken.sol\":11584:11623  idToIndex[_tokenId] = tokens.length - 1 */\n      dup2\n      swap1\n      sstore\n      pop\n        /* \"proy/pi-markets/smart-contracts/tokens/packable/PiPNFToken.sol\":11637:11662  _setJson(_json, _tokenId) */\n      tag_228\n        /* \"proy/pi-markets/smart-contracts/tokens/packable/PiPNFToken.sol\":11646:11651  _json */\n      dup4\n        /* \"proy/pi-markets/smart-contracts/tokens/packable/PiPNFToken.sol\":11637:11662  _setJson(_json, _tokenId) */\n      0x5\n      dup1\n      0x20\n      mul\n      mload(0x40)\n      swap1\n      dup2\n      add\n      0x40\n      mstore\n      dup1\n      swap3\n      swap2\n      swap1\n      dup3\n      mul(0x20, 0x5)\n        /* \"--CODEGEN--\":30:33   */\n      dup1\n        /* \"--CODEGEN--\":22:28   */\n      dup3\n        /* \"--CODEGEN--\":14:20   */\n      dup5\n        /* \"--CODEGEN--\":1:34   */\n      calldatacopy\n        /* \"--CODEGEN--\":99:100   */\n      0x0\n        /* \"--CODEGEN--\":93:96   */\n      dup2\n        /* \"--CODEGEN--\":85:91   */\n      dup5\n        /* \"--CODEGEN--\":81:97   */\n      add\n        /* \"--CODEGEN--\":74:101   */\n      mstore\n        /* \"--CODEGEN--\":137:141   */\n      0x1f\n        /* \"--CODEGEN--\":133:142   */\n      not\n        /* \"--CODEGEN--\":126:130   */\n      0x1f\n        /* \"--CODEGEN--\":121:124   */\n      dup3\n        /* \"--CODEGEN--\":117:131   */\n      add\n        /* \"--CODEGEN--\":113:143   */\n      and\n        /* \"--CODEGEN--\":106:143   */\n      swap1\n      pop\n        /* \"--CODEGEN--\":169:172   */\n      dup1\n        /* \"--CODEGEN--\":161:167   */\n      dup4\n        /* \"--CODEGEN--\":157:173   */\n      add\n        /* \"--CODEGEN--\":147:173   */\n      swap3\n      pop\n        /* \"proy/pi-markets/smart-contracts/tokens/packable/PiPNFToken.sol\":11637:11662  _setJson(_json, _tokenId) */\n      pop\n      pop\n      pop\n      pop\n      pop\n        /* \"proy/pi-markets/smart-contracts/tokens/packable/PiPNFToken.sol\":11653:11661  _tokenId */\n      dup3\n        /* \"proy/pi-markets/smart-contracts/tokens/packable/PiPNFToken.sol\":11637:11645  _setJson */\n      tag_229\n        /* \"proy/pi-markets/smart-contracts/tokens/packable/PiPNFToken.sol\":11637:11662  _setJson(_json, _tokenId) */\n      jump\t// in\n    tag_228:\n        /* \"proy/pi-markets/smart-contracts/tokens/packable/PiPNFToken.sol\":11498:11673  if (supplyByCategory[_tokenId] == 0) {... */\n    tag_226:\n        /* \"proy/pi-markets/smart-contracts/tokens/packable/PiPNFToken.sol\":11683:11712  _mint(_to, _tokenId, _amount) */\n      tag_230\n        /* \"proy/pi-markets/smart-contracts/tokens/packable/PiPNFToken.sol\":11689:11692  _to */\n      dup5\n        /* \"proy/pi-markets/smart-contracts/tokens/packable/PiPNFToken.sol\":11694:11702  _tokenId */\n      dup3\n        /* \"proy/pi-markets/smart-contracts/tokens/packable/PiPNFToken.sol\":11704:11711  _amount */\n      dup5\n        /* \"proy/pi-markets/smart-contracts/tokens/packable/PiPNFToken.sol\":11683:11688  _mint */\n      tag_231\n        /* \"proy/pi-markets/smart-contracts/tokens/packable/PiPNFToken.sol\":11683:11712  _mint(_to, _tokenId, _amount) */\n      jump\t// in\n    tag_230:\n        /* \"proy/pi-markets/smart-contracts/tokens/packable/PiPNFToken.sol\":11751:11790  supplyByCategory[_tokenId].add(_amount) */\n      tag_232\n        /* \"proy/pi-markets/smart-contracts/tokens/packable/PiPNFToken.sol\":11782:11789  _amount */\n      dup3\n        /* \"proy/pi-markets/smart-contracts/tokens/packable/PiPNFToken.sol\":11751:11767  supplyByCategory */\n      0xd\n        /* \"proy/pi-markets/smart-contracts/tokens/packable/PiPNFToken.sol\":11751:11777  supplyByCategory[_tokenId] */\n      0x0\n        /* \"proy/pi-markets/smart-contracts/tokens/packable/PiPNFToken.sol\":11768:11776  _tokenId */\n      dup5\n        /* \"proy/pi-markets/smart-contracts/tokens/packable/PiPNFToken.sol\":11751:11777  supplyByCategory[_tokenId] */\n      dup2\n      mstore\n      0x20\n      add\n      swap1\n      dup2\n      mstore\n      0x20\n      add\n      0x0\n      keccak256\n      sload\n        /* \"proy/pi-markets/smart-contracts/tokens/packable/PiPNFToken.sol\":11751:11781  supplyByCategory[_tokenId].add */\n      tag_233\n      swap1\n        /* \"proy/pi-markets/smart-contracts/tokens/packable/PiPNFToken.sol\":11751:11790  supplyByCategory[_tokenId].add(_amount) */\n      swap2\n      swap1\n      0xffffffff\n      and\n      jump\t// in\n    tag_232:\n        /* \"proy/pi-markets/smart-contracts/tokens/packable/PiPNFToken.sol\":11722:11738  supplyByCategory */\n      0xd\n        /* \"proy/pi-markets/smart-contracts/tokens/packable/PiPNFToken.sol\":11722:11748  supplyByCategory[_tokenId] */\n      0x0\n        /* \"proy/pi-markets/smart-contracts/tokens/packable/PiPNFToken.sol\":11739:11747  _tokenId */\n      dup4\n        /* \"proy/pi-markets/smart-contracts/tokens/packable/PiPNFToken.sol\":11722:11748  supplyByCategory[_tokenId] */\n      dup2\n      mstore\n      0x20\n      add\n      swap1\n      dup2\n      mstore\n      0x20\n      add\n      0x0\n      keccak256\n        /* \"proy/pi-markets/smart-contracts/tokens/packable/PiPNFToken.sol\":11722:11790  supplyByCategory[_tokenId] = supplyByCategory[_tokenId].add(_amount) */\n      dup2\n      swap1\n      sstore\n      pop\n        /* \"proy/pi-markets/smart-contracts/tokens/utils/Owned.sol\":887:888  _ */\n      pop\n        /* \"proy/pi-markets/smart-contracts/tokens/packable/PiPNFToken.sol\":11162:11797  function mint(... */\n      pop\n      pop\n      pop\n      jump\t// out\n        /* \"proy/pi-markets/smart-contracts/tokens/packable/PiPNFToken.sol\":11803:12526  function burn(bytes32 _tokenId, uint256 _amount) canOperate(msg.sender, _tokenId, _amount) onlyOwner public {... */\n    tag_111:\n        /* \"proy/pi-markets/smart-contracts/tokens/packable/PiPNFToken.sol\":11863:11873  msg.sender */\n      caller\n        /* \"proy/pi-markets/smart-contracts/tokens/packable/PiPNFToken.sol\":11875:11883  _tokenId */\n      dup3\n        /* \"proy/pi-markets/smart-contracts/tokens/packable/PiPNFToken.sol\":11885:11892  _amount */\n      dup3\n        /* \"proy/pi-markets/smart-contracts/tokens/packable/PiPNFToken.sol\":1841:1847  _owner */\n      dup3\n        /* \"proy/pi-markets/smart-contracts/tokens/packable/PiPNFToken.sol\":1827:1847  msg.sender == _owner */\n      0xffffffffffffffffffffffffffffffffffffffff\n      and\n        /* \"proy/pi-markets/smart-contracts/tokens/packable/PiPNFToken.sol\":1827:1837  msg.sender */\n      caller\n        /* \"proy/pi-markets/smart-contracts/tokens/packable/PiPNFToken.sol\":1827:1847  msg.sender == _owner */\n      0xffffffffffffffffffffffffffffffffffffffff\n      and\n      eq\n        /* \"proy/pi-markets/smart-contracts/tokens/packable/PiPNFToken.sol\":1827:1892  msg.sender == _owner && balances[msg.sender][_tokenId] >= _amount */\n      dup1\n      iszero\n      tag_235\n      jumpi\n      pop\n        /* \"proy/pi-markets/smart-contracts/tokens/packable/PiPNFToken.sol\":1885:1892  _amount */\n      dup1\n        /* \"proy/pi-markets/smart-contracts/tokens/packable/PiPNFToken.sol\":1851:1859  balances */\n      0xc\n        /* \"proy/pi-markets/smart-contracts/tokens/packable/PiPNFToken.sol\":1851:1871  balances[msg.sender] */\n      0x0\n        /* \"proy/pi-markets/smart-contracts/tokens/packable/PiPNFToken.sol\":1860:1870  msg.sender */\n      caller\n        /* \"proy/pi-markets/smart-contracts/tokens/packable/PiPNFToken.sol\":1851:1871  balances[msg.sender] */\n      0xffffffffffffffffffffffffffffffffffffffff\n      and\n      0xffffffffffffffffffffffffffffffffffffffff\n      and\n      dup2\n      mstore\n      0x20\n      add\n      swap1\n      dup2\n      mstore\n      0x20\n      add\n      0x0\n      keccak256\n        /* \"proy/pi-markets/smart-contracts/tokens/packable/PiPNFToken.sol\":1851:1881  balances[msg.sender][_tokenId] */\n      0x0\n        /* \"proy/pi-markets/smart-contracts/tokens/packable/PiPNFToken.sol\":1872:1880  _tokenId */\n      dup5\n        /* \"proy/pi-markets/smart-contracts/tokens/packable/PiPNFToken.sol\":1851:1881  balances[msg.sender][_tokenId] */\n      dup2\n      mstore\n      0x20\n      add\n      swap1\n      dup2\n      mstore\n      0x20\n      add\n      0x0\n      keccak256\n      sload\n        /* \"proy/pi-markets/smart-contracts/tokens/packable/PiPNFToken.sol\":1851:1892  balances[msg.sender][_tokenId] >= _amount */\n      lt\n      iszero\n        /* \"proy/pi-markets/smart-contracts/tokens/packable/PiPNFToken.sol\":1827:1892  msg.sender == _owner && balances[msg.sender][_tokenId] >= _amount */\n    tag_235:\n        /* \"proy/pi-markets/smart-contracts/tokens/packable/PiPNFToken.sol\":1826:1985  (msg.sender == _owner && balances[msg.sender][_tokenId] >= _amount) ... */\n      dup1\n      tag_236\n      jumpi\n      pop\n        /* \"proy/pi-markets/smart-contracts/tokens/packable/PiPNFToken.sol\":1907:1923  ownerToOperators */\n      0x9\n        /* \"proy/pi-markets/smart-contracts/tokens/packable/PiPNFToken.sol\":1907:1931  ownerToOperators[_owner] */\n      0x0\n        /* \"proy/pi-markets/smart-contracts/tokens/packable/PiPNFToken.sol\":1924:1930  _owner */\n      dup5\n        /* \"proy/pi-markets/smart-contracts/tokens/packable/PiPNFToken.sol\":1907:1931  ownerToOperators[_owner] */\n      0xffffffffffffffffffffffffffffffffffffffff\n      and\n      0xffffffffffffffffffffffffffffffffffffffff\n      and\n      dup2\n      mstore\n      0x20\n      add\n      swap1\n      dup2\n      mstore\n      0x20\n      add\n      0x0\n      keccak256\n        /* \"proy/pi-markets/smart-contracts/tokens/packable/PiPNFToken.sol\":1907:1943  ownerToOperators[_owner][msg.sender] */\n      0x0\n        /* \"proy/pi-markets/smart-contracts/tokens/packable/PiPNFToken.sol\":1932:1942  msg.sender */\n      caller\n        /* \"proy/pi-markets/smart-contracts/tokens/packable/PiPNFToken.sol\":1907:1943  ownerToOperators[_owner][msg.sender] */\n      0xffffffffffffffffffffffffffffffffffffffff\n      and\n      0xffffffffffffffffffffffffffffffffffffffff\n      and\n      dup2\n      mstore\n      0x20\n      add\n      swap1\n      dup2\n      mstore\n      0x20\n      add\n      0x0\n      keccak256\n      0x0\n      swap1\n      sload\n      swap1\n      0x100\n      exp\n      swap1\n      div\n      0xff\n      and\n        /* \"proy/pi-markets/smart-contracts/tokens/packable/PiPNFToken.sol\":1907:1984  ownerToOperators[_owner][msg.sender] && balances[_owner][_tokenId] >= _amount */\n      dup1\n      iszero\n      tag_237\n      jumpi\n      pop\n        /* \"proy/pi-markets/smart-contracts/tokens/packable/PiPNFToken.sol\":1977:1984  _amount */\n      dup1\n        /* \"proy/pi-markets/smart-contracts/tokens/packable/PiPNFToken.sol\":1947:1955  balances */\n      0xc\n        /* \"proy/pi-markets/smart-contracts/tokens/packable/PiPNFToken.sol\":1947:1963  balances[_owner] */\n      0x0\n        /* \"proy/pi-markets/smart-contracts/tokens/packable/PiPNFToken.sol\":1956:1962  _owner */\n      dup6\n        /* \"proy/pi-markets/smart-contracts/tokens/packable/PiPNFToken.sol\":1947:1963  balances[_owner] */\n      0xffffffffffffffffffffffffffffffffffffffff\n      and\n      0xffffffffffffffffffffffffffffffffffffffff\n      and\n      dup2\n      mstore\n      0x20\n      add\n      swap1\n      dup2\n      mstore\n      0x20\n      add\n      0x0\n      keccak256\n        /* \"proy/pi-markets/smart-contracts/tokens/packable/PiPNFToken.sol\":1947:1973  balances[_owner][_tokenId] */\n      0x0\n        /* \"proy/pi-markets/smart-contracts/tokens/packable/PiPNFToken.sol\":1964:1972  _tokenId */\n      dup5\n        /* \"proy/pi-markets/smart-contracts/tokens/packable/PiPNFToken.sol\":1947:1973  balances[_owner][_tokenId] */\n      dup2\n      mstore\n      0x20\n      add\n      swap1\n      dup2\n      mstore\n      0x20\n      add\n      0x0\n      keccak256\n      sload\n        /* \"proy/pi-markets/smart-contracts/tokens/packable/PiPNFToken.sol\":1947:1984  balances[_owner][_tokenId] >= _amount */\n      lt\n      iszero\n        /* \"proy/pi-markets/smart-contracts/tokens/packable/PiPNFToken.sol\":1907:1984  ownerToOperators[_owner][msg.sender] && balances[_owner][_tokenId] >= _amount */\n    tag_237:\n        /* \"proy/pi-markets/smart-contracts/tokens/packable/PiPNFToken.sol\":1826:1985  (msg.sender == _owner && balances[msg.sender][_tokenId] >= _amount) ... */\n    tag_236:\n        /* \"proy/pi-markets/smart-contracts/tokens/packable/PiPNFToken.sol\":1818:1993  require((msg.sender == _owner && balances[msg.sender][_tokenId] >= _amount) ... */\n      iszero\n      iszero\n      tag_238\n      jumpi\n      mload(0x40)\n      0x8c379a000000000000000000000000000000000000000000000000000000000\n      dup2\n      mstore\n      0x4\n      add\n      tag_239\n      swap1\n      jump(tag_201)\n    tag_239:\n      mload(0x40)\n      dup1\n      swap2\n      sub\n      swap1\n      revert\n    tag_238:\n        /* \"proy/pi-markets/smart-contracts/tokens/utils/Owned.sol\":871:876  owner */\n      0x0\n      dup1\n      swap1\n      sload\n      swap1\n      0x100\n      exp\n      swap1\n      div\n      0xffffffffffffffffffffffffffffffffffffffff\n      and\n        /* \"proy/pi-markets/smart-contracts/tokens/utils/Owned.sol\":857:876  msg.sender == owner */\n      0xffffffffffffffffffffffffffffffffffffffff\n      and\n        /* \"proy/pi-markets/smart-contracts/tokens/utils/Owned.sol\":857:867  msg.sender */\n      caller\n        /* \"proy/pi-markets/smart-contracts/tokens/utils/Owned.sol\":857:876  msg.sender == owner */\n      0xffffffffffffffffffffffffffffffffffffffff\n      and\n      eq\n        /* \"proy/pi-markets/smart-contracts/tokens/utils/Owned.sol\":849:877  require(msg.sender == owner) */\n      iszero\n      iszero\n      tag_241\n      jumpi\n      0x0\n      dup1\n      revert\n    tag_241:\n        /* \"proy/pi-markets/smart-contracts/tokens/packable/PiPNFToken.sol\":11921:11957  _burn(msg.sender, _tokenId, _amount) */\n      tag_243\n        /* \"proy/pi-markets/smart-contracts/tokens/packable/PiPNFToken.sol\":11927:11937  msg.sender */\n      caller\n        /* \"proy/pi-markets/smart-contracts/tokens/packable/PiPNFToken.sol\":11939:11947  _tokenId */\n      dup7\n        /* \"proy/pi-markets/smart-contracts/tokens/packable/PiPNFToken.sol\":11949:11956  _amount */\n      dup7\n        /* \"proy/pi-markets/smart-contracts/tokens/packable/PiPNFToken.sol\":11921:11926  _burn */\n      tag_244\n        /* \"proy/pi-markets/smart-contracts/tokens/packable/PiPNFToken.sol\":11921:11957  _burn(msg.sender, _tokenId, _amount) */\n      jump\t// in\n    tag_243:\n        /* \"proy/pi-markets/smart-contracts/tokens/packable/PiPNFToken.sol\":11996:12035  supplyByCategory[_tokenId].sub(_amount) */\n      tag_245\n        /* \"proy/pi-markets/smart-contracts/tokens/packable/PiPNFToken.sol\":12027:12034  _amount */\n      dup5\n        /* \"proy/pi-markets/smart-contracts/tokens/packable/PiPNFToken.sol\":11996:12012  supplyByCategory */\n      0xd\n        /* \"proy/pi-markets/smart-contracts/tokens/packable/PiPNFToken.sol\":11996:12022  supplyByCategory[_tokenId] */\n      0x0\n        /* \"proy/pi-markets/smart-contracts/tokens/packable/PiPNFToken.sol\":12013:12021  _tokenId */\n      dup9\n        /* \"proy/pi-markets/smart-contracts/tokens/packable/PiPNFToken.sol\":11996:12022  supplyByCategory[_tokenId] */\n      dup2\n      mstore\n      0x20\n      add\n      swap1\n      dup2\n      mstore\n      0x20\n      add\n      0x0\n      keccak256\n      sload\n        /* \"proy/pi-markets/smart-contracts/tokens/packable/PiPNFToken.sol\":11996:12026  supplyByCategory[_tokenId].sub */\n      tag_246\n      swap1\n        /* \"proy/pi-markets/smart-contracts/tokens/packable/PiPNFToken.sol\":11996:12035  supplyByCategory[_tokenId].sub(_amount) */\n      swap2\n      swap1\n      0xffffffff\n      and\n      jump\t// in\n    tag_245:\n        /* \"proy/pi-markets/smart-contracts/tokens/packable/PiPNFToken.sol\":11967:11983  supplyByCategory */\n      0xd\n        /* \"proy/pi-markets/smart-contracts/tokens/packable/PiPNFToken.sol\":11967:11993  supplyByCategory[_tokenId] */\n      0x0\n        /* \"proy/pi-markets/smart-contracts/tokens/packable/PiPNFToken.sol\":11984:11992  _tokenId */\n      dup8\n        /* \"proy/pi-markets/smart-contracts/tokens/packable/PiPNFToken.sol\":11967:11993  supplyByCategory[_tokenId] */\n      dup2\n      mstore\n      0x20\n      add\n      swap1\n      dup2\n      mstore\n      0x20\n      add\n      0x0\n      keccak256\n        /* \"proy/pi-markets/smart-contracts/tokens/packable/PiPNFToken.sol\":11967:12035  supplyByCategory[_tokenId] = supplyByCategory[_tokenId].sub(_amount) */\n      dup2\n      swap1\n      sstore\n      pop\n        /* \"proy/pi-markets/smart-contracts/tokens/packable/PiPNFToken.sol\":12080:12081  0 */\n      0x0\n        /* \"proy/pi-markets/smart-contracts/tokens/packable/PiPNFToken.sol\":12050:12066  supplyByCategory */\n      0xd\n        /* \"proy/pi-markets/smart-contracts/tokens/packable/PiPNFToken.sol\":12050:12076  supplyByCategory[_tokenId] */\n      0x0\n        /* \"proy/pi-markets/smart-contracts/tokens/packable/PiPNFToken.sol\":12067:12075  _tokenId */\n      dup8\n        /* \"proy/pi-markets/smart-contracts/tokens/packable/PiPNFToken.sol\":12050:12076  supplyByCategory[_tokenId] */\n      dup2\n      mstore\n      0x20\n      add\n      swap1\n      dup2\n      mstore\n      0x20\n      add\n      0x0\n      keccak256\n      sload\n        /* \"proy/pi-markets/smart-contracts/tokens/packable/PiPNFToken.sol\":12050:12081  supplyByCategory[_tokenId] == 0 */\n      eq\n        /* \"proy/pi-markets/smart-contracts/tokens/packable/PiPNFToken.sol\":12046:12520  if (supplyByCategory[_tokenId] == 0) {... */\n      iszero\n      tag_247\n      jumpi\n        /* \"proy/pi-markets/smart-contracts/tokens/packable/PiPNFToken.sol\":12097:12115  uint256 tokenIndex */\n      0x0\n        /* \"proy/pi-markets/smart-contracts/tokens/packable/PiPNFToken.sol\":12118:12127  idToIndex */\n      0x6\n        /* \"proy/pi-markets/smart-contracts/tokens/packable/PiPNFToken.sol\":12118:12137  idToIndex[_tokenId] */\n      0x0\n        /* \"proy/pi-markets/smart-contracts/tokens/packable/PiPNFToken.sol\":12128:12136  _tokenId */\n      dup8\n        /* \"proy/pi-markets/smart-contracts/tokens/packable/PiPNFToken.sol\":12118:12137  idToIndex[_tokenId] */\n      dup2\n      mstore\n      0x20\n      add\n      swap1\n      dup2\n      mstore\n      0x20\n      add\n      0x0\n      keccak256\n      sload\n        /* \"proy/pi-markets/smart-contracts/tokens/packable/PiPNFToken.sol\":12097:12137  uint256 tokenIndex = idToIndex[_tokenId] */\n      swap1\n      pop\n        /* \"proy/pi-markets/smart-contracts/tokens/packable/PiPNFToken.sol\":12151:12173  uint256 lastTokenIndex */\n      0x0\n        /* \"proy/pi-markets/smart-contracts/tokens/packable/PiPNFToken.sol\":12192:12193  1 */\n      0x1\n        /* \"proy/pi-markets/smart-contracts/tokens/packable/PiPNFToken.sol\":12176:12182  tokens */\n      0x5\n        /* \"proy/pi-markets/smart-contracts/tokens/packable/PiPNFToken.sol\":12176:12189  tokens.length */\n      dup1\n      sload\n      swap1\n      pop\n        /* \"proy/pi-markets/smart-contracts/tokens/packable/PiPNFToken.sol\":12176:12193  tokens.length - 1 */\n      sub\n        /* \"proy/pi-markets/smart-contracts/tokens/packable/PiPNFToken.sol\":12151:12193  uint256 lastTokenIndex = tokens.length - 1 */\n      swap1\n      pop\n        /* \"proy/pi-markets/smart-contracts/tokens/packable/PiPNFToken.sol\":12207:12224  bytes32 lastToken */\n      0x0\n        /* \"proy/pi-markets/smart-contracts/tokens/packable/PiPNFToken.sol\":12227:12233  tokens */\n      0x5\n        /* \"proy/pi-markets/smart-contracts/tokens/packable/PiPNFToken.sol\":12234:12248  lastTokenIndex */\n      dup3\n        /* \"proy/pi-markets/smart-contracts/tokens/packable/PiPNFToken.sol\":12227:12249  tokens[lastTokenIndex] */\n      dup2\n      sload\n      dup2\n      lt\n      iszero\n      iszero\n      tag_248\n      jumpi\n      invalid\n    tag_248:\n      swap1\n      0x0\n      mstore\n      keccak256(0x0, 0x20)\n      add\n      sload\n        /* \"proy/pi-markets/smart-contracts/tokens/packable/PiPNFToken.sol\":12207:12249  bytes32 lastToken = tokens[lastTokenIndex] */\n      swap1\n      pop\n        /* \"proy/pi-markets/smart-contracts/tokens/packable/PiPNFToken.sol\":12285:12294  lastToken */\n      dup1\n        /* \"proy/pi-markets/smart-contracts/tokens/packable/PiPNFToken.sol\":12264:12270  tokens */\n      0x5\n        /* \"proy/pi-markets/smart-contracts/tokens/packable/PiPNFToken.sol\":12271:12281  tokenIndex */\n      dup5\n        /* \"proy/pi-markets/smart-contracts/tokens/packable/PiPNFToken.sol\":12264:12282  tokens[tokenIndex] */\n      dup2\n      sload\n      dup2\n      lt\n      iszero\n      iszero\n      tag_250\n      jumpi\n      invalid\n    tag_250:\n      swap1\n      0x0\n      mstore\n      keccak256(0x0, 0x20)\n      add\n        /* \"proy/pi-markets/smart-contracts/tokens/packable/PiPNFToken.sol\":12264:12294  tokens[tokenIndex] = lastToken */\n      dup2\n      swap1\n      sstore\n      pop\n        /* \"proy/pi-markets/smart-contracts/tokens/packable/PiPNFToken.sol\":12309:12315  tokens */\n      0x5\n        /* \"proy/pi-markets/smart-contracts/tokens/packable/PiPNFToken.sol\":12309:12321  tokens.pop() */\n      dup1\n      sload\n      dup1\n      iszero\n      iszero\n      tag_252\n      jumpi\n      invalid\n    tag_252:\n      0x1\n      swap1\n      sub\n      dup2\n      dup2\n      swap1\n      0x0\n      mstore\n      keccak256(0x0, 0x20)\n      add\n      0x0\n      swap1\n      sstore\n      swap1\n      sstore\n        /* \"proy/pi-markets/smart-contracts/tokens/packable/PiPNFToken.sol\":12462:12472  tokenIndex */\n      dup3\n        /* \"proy/pi-markets/smart-contracts/tokens/packable/PiPNFToken.sol\":12439:12448  idToIndex */\n      0x6\n        /* \"proy/pi-markets/smart-contracts/tokens/packable/PiPNFToken.sol\":12439:12459  idToIndex[lastToken] */\n      0x0\n        /* \"proy/pi-markets/smart-contracts/tokens/packable/PiPNFToken.sol\":12449:12458  lastToken */\n      dup4\n        /* \"proy/pi-markets/smart-contracts/tokens/packable/PiPNFToken.sol\":12439:12459  idToIndex[lastToken] */\n      dup2\n      mstore\n      0x20\n      add\n      swap1\n      dup2\n      mstore\n      0x20\n      add\n      0x0\n      keccak256\n        /* \"proy/pi-markets/smart-contracts/tokens/packable/PiPNFToken.sol\":12439:12472  idToIndex[lastToken] = tokenIndex */\n      dup2\n      swap1\n      sstore\n      pop\n        /* \"proy/pi-markets/smart-contracts/tokens/packable/PiPNFToken.sol\":12508:12509  0 */\n      0x0\n        /* \"proy/pi-markets/smart-contracts/tokens/packable/PiPNFToken.sol\":12486:12495  idToIndex */\n      0x6\n        /* \"proy/pi-markets/smart-contracts/tokens/packable/PiPNFToken.sol\":12486:12505  idToIndex[_tokenId] */\n      0x0\n        /* \"proy/pi-markets/smart-contracts/tokens/packable/PiPNFToken.sol\":12496:12504  _tokenId */\n      dup11\n        /* \"proy/pi-markets/smart-contracts/tokens/packable/PiPNFToken.sol\":12486:12505  idToIndex[_tokenId] */\n      dup2\n      mstore\n      0x20\n      add\n      swap1\n      dup2\n      mstore\n      0x20\n      add\n      0x0\n      keccak256\n        /* \"proy/pi-markets/smart-contracts/tokens/packable/PiPNFToken.sol\":12486:12509  idToIndex[_tokenId] = 0 */\n      dup2\n      swap1\n      sstore\n      pop\n        /* \"proy/pi-markets/smart-contracts/tokens/packable/PiPNFToken.sol\":12046:12520  if (supplyByCategory[_tokenId] == 0) {... */\n      pop\n      pop\n      pop\n    tag_247:\n        /* \"proy/pi-markets/smart-contracts/tokens/packable/PiPNFToken.sol\":11803:12526  function burn(bytes32 _tokenId, uint256 _amount) canOperate(msg.sender, _tokenId, _amount) onlyOwner public {... */\n      pop\n      pop\n      pop\n      pop\n      pop\n      jump\t// out\n        /* \"proy/pi-markets/smart-contracts/tokens/packable/PiPNFToken.sol\":8792:9173  function transferFrom(... */\n    tag_115:\n        /* \"proy/pi-markets/smart-contracts/tokens/packable/PiPNFToken.sol\":8949:8954  _from */\n      dup4\n        /* \"proy/pi-markets/smart-contracts/tokens/packable/PiPNFToken.sol\":8956:8964  _tokenId */\n      dup3\n        /* \"proy/pi-markets/smart-contracts/tokens/packable/PiPNFToken.sol\":8966:8973  _amount */\n      dup3\n        /* \"proy/pi-markets/smart-contracts/tokens/packable/PiPNFToken.sol\":1841:1847  _owner */\n      dup3\n        /* \"proy/pi-markets/smart-contracts/tokens/packable/PiPNFToken.sol\":1827:1847  msg.sender == _owner */\n      0xffffffffffffffffffffffffffffffffffffffff\n      and\n        /* \"proy/pi-markets/smart-contracts/tokens/packable/PiPNFToken.sol\":1827:1837  msg.sender */\n      caller\n        /* \"proy/pi-markets/smart-contracts/tokens/packable/PiPNFToken.sol\":1827:1847  msg.sender == _owner */\n      0xffffffffffffffffffffffffffffffffffffffff\n      and\n      eq\n        /* \"proy/pi-markets/smart-contracts/tokens/packable/PiPNFToken.sol\":1827:1892  msg.sender == _owner && balances[msg.sender][_tokenId] >= _amount */\n      dup1\n      iszero\n      tag_255\n      jumpi\n      pop\n        /* \"proy/pi-markets/smart-contracts/tokens/packable/PiPNFToken.sol\":1885:1892  _amount */\n      dup1\n        /* \"proy/pi-markets/smart-contracts/tokens/packable/PiPNFToken.sol\":1851:1859  balances */\n      0xc\n        /* \"proy/pi-markets/smart-contracts/tokens/packable/PiPNFToken.sol\":1851:1871  balances[msg.sender] */\n      0x0\n        /* \"proy/pi-markets/smart-contracts/tokens/packable/PiPNFToken.sol\":1860:1870  msg.sender */\n      caller\n        /* \"proy/pi-markets/smart-contracts/tokens/packable/PiPNFToken.sol\":1851:1871  balances[msg.sender] */\n      0xffffffffffffffffffffffffffffffffffffffff\n      and\n      0xffffffffffffffffffffffffffffffffffffffff\n      and\n      dup2\n      mstore\n      0x20\n      add\n      swap1\n      dup2\n      mstore\n      0x20\n      add\n      0x0\n      keccak256\n        /* \"proy/pi-markets/smart-contracts/tokens/packable/PiPNFToken.sol\":1851:1881  balances[msg.sender][_tokenId] */\n      0x0\n        /* \"proy/pi-markets/smart-contracts/tokens/packable/PiPNFToken.sol\":1872:1880  _tokenId */\n      dup5\n        /* \"proy/pi-markets/smart-contracts/tokens/packable/PiPNFToken.sol\":1851:1881  balances[msg.sender][_tokenId] */\n      dup2\n      mstore\n      0x20\n      add\n      swap1\n      dup2\n      mstore\n      0x20\n      add\n      0x0\n      keccak256\n      sload\n        /* \"proy/pi-markets/smart-contracts/tokens/packable/PiPNFToken.sol\":1851:1892  balances[msg.sender][_tokenId] >= _amount */\n      lt\n      iszero\n        /* \"proy/pi-markets/smart-contracts/tokens/packable/PiPNFToken.sol\":1827:1892  msg.sender == _owner && balances[msg.sender][_tokenId] >= _amount */\n    tag_255:\n        /* \"proy/pi-markets/smart-contracts/tokens/packable/PiPNFToken.sol\":1826:1985  (msg.sender == _owner && balances[msg.sender][_tokenId] >= _amount) ... */\n      dup1\n      tag_256\n      jumpi\n      pop\n        /* \"proy/pi-markets/smart-contracts/tokens/packable/PiPNFToken.sol\":1907:1923  ownerToOperators */\n      0x9\n        /* \"proy/pi-markets/smart-contracts/tokens/packable/PiPNFToken.sol\":1907:1931  ownerToOperators[_owner] */\n      0x0\n        /* \"proy/pi-markets/smart-contracts/tokens/packable/PiPNFToken.sol\":1924:1930  _owner */\n      dup5\n        /* \"proy/pi-markets/smart-contracts/tokens/packable/PiPNFToken.sol\":1907:1931  ownerToOperators[_owner] */\n      0xffffffffffffffffffffffffffffffffffffffff\n      and\n      0xffffffffffffffffffffffffffffffffffffffff\n      and\n      dup2\n      mstore\n      0x20\n      add\n      swap1\n      dup2\n      mstore\n      0x20\n      add\n      0x0\n      keccak256\n        /* \"proy/pi-markets/smart-contracts/tokens/packable/PiPNFToken.sol\":1907:1943  ownerToOperators[_owner][msg.sender] */\n      0x0\n        /* \"proy/pi-markets/smart-contracts/tokens/packable/PiPNFToken.sol\":1932:1942  msg.sender */\n      caller\n        /* \"proy/pi-markets/smart-contracts/tokens/packable/PiPNFToken.sol\":1907:1943  ownerToOperators[_owner][msg.sender] */\n      0xffffffffffffffffffffffffffffffffffffffff\n      and\n      0xffffffffffffffffffffffffffffffffffffffff\n      and\n      dup2\n      mstore\n      0x20\n      add\n      swap1\n      dup2\n      mstore\n      0x20\n      add\n      0x0\n      keccak256\n      0x0\n      swap1\n      sload\n      swap1\n      0x100\n      exp\n      swap1\n      div\n      0xff\n      and\n        /* \"proy/pi-markets/smart-contracts/tokens/packable/PiPNFToken.sol\":1907:1984  ownerToOperators[_owner][msg.sender] && balances[_owner][_tokenId] >= _amount */\n      dup1\n      iszero\n      tag_257\n      jumpi\n      pop\n        /* \"proy/pi-markets/smart-contracts/tokens/packable/PiPNFToken.sol\":1977:1984  _amount */\n      dup1\n        /* \"proy/pi-markets/smart-contracts/tokens/packable/PiPNFToken.sol\":1947:1955  balances */\n      0xc\n        /* \"proy/pi-markets/smart-contracts/tokens/packable/PiPNFToken.sol\":1947:1963  balances[_owner] */\n      0x0\n        /* \"proy/pi-markets/smart-contracts/tokens/packable/PiPNFToken.sol\":1956:1962  _owner */\n      dup6\n        /* \"proy/pi-markets/smart-contracts/tokens/packable/PiPNFToken.sol\":1947:1963  balances[_owner] */\n      0xffffffffffffffffffffffffffffffffffffffff\n      and\n      0xffffffffffffffffffffffffffffffffffffffff\n      and\n      dup2\n      mstore\n      0x20\n      add\n      swap1\n      dup2\n      mstore\n      0x20\n      add\n      0x0\n      keccak256\n        /* \"proy/pi-markets/smart-contracts/tokens/packable/PiPNFToken.sol\":1947:1973  balances[_owner][_tokenId] */\n      0x0\n        /* \"proy/pi-markets/smart-contracts/tokens/packable/PiPNFToken.sol\":1964:1972  _tokenId */\n      dup5\n        /* \"proy/pi-markets/smart-contracts/tokens/packable/PiPNFToken.sol\":1947:1973  balances[_owner][_tokenId] */\n      dup2\n      mstore\n      0x20\n      add\n      swap1\n      dup2\n      mstore\n      0x20\n      add\n      0x0\n      keccak256\n      sload\n        /* \"proy/pi-markets/smart-contracts/tokens/packable/PiPNFToken.sol\":1947:1984  balances[_owner][_tokenId] >= _amount */\n      lt\n      iszero\n        /* \"proy/pi-markets/smart-contracts/tokens/packable/PiPNFToken.sol\":1907:1984  ownerToOperators[_owner][msg.sender] && balances[_owner][_tokenId] >= _amount */\n    tag_257:\n        /* \"proy/pi-markets/smart-contracts/tokens/packable/PiPNFToken.sol\":1826:1985  (msg.sender == _owner && balances[msg.sender][_tokenId] >= _amount) ... */\n    tag_256:\n        /* \"proy/pi-markets/smart-contracts/tokens/packable/PiPNFToken.sol\":1818:1993  require((msg.sender == _owner && balances[msg.sender][_tokenId] >= _amount) ... */\n      iszero\n      iszero\n      tag_258\n      jumpi\n      mload(0x40)\n      0x8c379a000000000000000000000000000000000000000000000000000000000\n      dup2\n      mstore\n      0x4\n      add\n      tag_259\n      swap1\n      jump(tag_201)\n    tag_259:\n      mload(0x40)\n      dup1\n      swap2\n      sub\n      swap1\n      revert\n    tag_258:\n        /* \"proy/pi-markets/smart-contracts/tokens/packable/PiPNFToken.sol\":8996:9004  _tokenId */\n      dup5\n        /* \"proy/pi-markets/smart-contracts/tokens/packable/PiPNFToken.sol\":2467:2468  0 */\n      0x0\n        /* \"proy/pi-markets/smart-contracts/tokens/packable/PiPNFToken.sol\":2438:2454  supplyByCategory */\n      0xd\n        /* \"proy/pi-markets/smart-contracts/tokens/packable/PiPNFToken.sol\":2438:2464  supplyByCategory[_tokenId] */\n      0x0\n        /* \"proy/pi-markets/smart-contracts/tokens/packable/PiPNFToken.sol\":2455:2463  _tokenId */\n      dup4\n        /* \"proy/pi-markets/smart-contracts/tokens/packable/PiPNFToken.sol\":2438:2464  supplyByCategory[_tokenId] */\n      dup2\n      mstore\n      0x20\n      add\n      swap1\n      dup2\n      mstore\n      0x20\n      add\n      0x0\n      keccak256\n      sload\n        /* \"proy/pi-markets/smart-contracts/tokens/packable/PiPNFToken.sol\":2438:2468  supplyByCategory[_tokenId] > 0 */\n      gt\n        /* \"proy/pi-markets/smart-contracts/tokens/packable/PiPNFToken.sol\":2430:2476  require(supplyByCategory[_tokenId] > 0, \"126\") */\n      iszero\n      iszero\n      tag_261\n      jumpi\n      mload(0x40)\n      0x8c379a000000000000000000000000000000000000000000000000000000000\n      dup2\n      mstore\n      0x4\n      add\n      tag_262\n      swap1\n      jump(tag_205)\n    tag_262:\n      mload(0x40)\n      dup1\n      swap2\n      sub\n      swap1\n      revert\n    tag_261:\n        /* \"proy/pi-markets/smart-contracts/tokens/packable/PiPNFToken.sol\":9057:9064  _amount */\n      dup5\n        /* \"proy/pi-markets/smart-contracts/tokens/packable/PiPNFToken.sol\":9028:9036  balances */\n      0xc\n        /* \"proy/pi-markets/smart-contracts/tokens/packable/PiPNFToken.sol\":9028:9043  balances[_from] */\n      0x0\n        /* \"proy/pi-markets/smart-contracts/tokens/packable/PiPNFToken.sol\":9037:9042  _from */\n      dup11\n        /* \"proy/pi-markets/smart-contracts/tokens/packable/PiPNFToken.sol\":9028:9043  balances[_from] */\n      0xffffffffffffffffffffffffffffffffffffffff\n      and\n      0xffffffffffffffffffffffffffffffffffffffff\n      and\n      dup2\n      mstore\n      0x20\n      add\n      swap1\n      dup2\n      mstore\n      0x20\n      add\n      0x0\n      keccak256\n        /* \"proy/pi-markets/smart-contracts/tokens/packable/PiPNFToken.sol\":9028:9053  balances[_from][_tokenId] */\n      0x0\n        /* \"proy/pi-markets/smart-contracts/tokens/packable/PiPNFToken.sol\":9044:9052  _tokenId */\n      dup9\n        /* \"proy/pi-markets/smart-contracts/tokens/packable/PiPNFToken.sol\":9028:9053  balances[_from][_tokenId] */\n      dup2\n      mstore\n      0x20\n      add\n      swap1\n      dup2\n      mstore\n      0x20\n      add\n      0x0\n      keccak256\n      sload\n        /* \"proy/pi-markets/smart-contracts/tokens/packable/PiPNFToken.sol\":9028:9064  balances[_from][_tokenId] >= _amount */\n      lt\n      iszero\n        /* \"proy/pi-markets/smart-contracts/tokens/packable/PiPNFToken.sol\":9020:9072  require(balances[_from][_tokenId] >= _amount, \"129\") */\n      iszero\n      iszero\n      tag_264\n      jumpi\n      mload(0x40)\n      0x8c379a000000000000000000000000000000000000000000000000000000000\n      dup2\n      mstore\n      0x4\n      add\n      tag_265\n      swap1\n      jump(tag_266)\n    tag_265:\n      mload(0x40)\n      dup1\n      swap2\n      sub\n      swap1\n      revert\n    tag_264:\n        /* \"proy/pi-markets/smart-contracts/tokens/packable/PiPNFToken.sol\":9105:9106  0 */\n      0x0\n        /* \"proy/pi-markets/smart-contracts/tokens/packable/PiPNFToken.sol\":9090:9107  _to != address(0) */\n      0xffffffffffffffffffffffffffffffffffffffff\n      and\n        /* \"proy/pi-markets/smart-contracts/tokens/packable/PiPNFToken.sol\":9090:9093  _to */\n      dup8\n        /* \"proy/pi-markets/smart-contracts/tokens/packable/PiPNFToken.sol\":9090:9107  _to != address(0) */\n      0xffffffffffffffffffffffffffffffffffffffff\n      and\n      eq\n      iszero\n        /* \"proy/pi-markets/smart-contracts/tokens/packable/PiPNFToken.sol\":9082:9115  require(_to != address(0), \"130\") */\n      iszero\n      iszero\n      tag_267\n      jumpi\n      mload(0x40)\n      0x8c379a000000000000000000000000000000000000000000000000000000000\n      dup2\n      mstore\n      0x4\n      add\n      tag_268\n      swap1\n      jump(tag_269)\n    tag_268:\n      mload(0x40)\n      dup1\n      swap2\n      sub\n      swap1\n      revert\n    tag_267:\n        /* \"proy/pi-markets/smart-contracts/tokens/packable/PiPNFToken.sol\":9126:9166  _transfer(_from, _to, _tokenId, _amount) */\n      tag_270\n        /* \"proy/pi-markets/smart-contracts/tokens/packable/PiPNFToken.sol\":9136:9141  _from */\n      dup9\n        /* \"proy/pi-markets/smart-contracts/tokens/packable/PiPNFToken.sol\":9143:9146  _to */\n      dup9\n        /* \"proy/pi-markets/smart-contracts/tokens/packable/PiPNFToken.sol\":9148:9156  _tokenId */\n      dup9\n        /* \"proy/pi-markets/smart-contracts/tokens/packable/PiPNFToken.sol\":9158:9165  _amount */\n      dup9\n        /* \"proy/pi-markets/smart-contracts/tokens/packable/PiPNFToken.sol\":9126:9135  _transfer */\n      tag_271\n        /* \"proy/pi-markets/smart-contracts/tokens/packable/PiPNFToken.sol\":9126:9166  _transfer(_from, _to, _tokenId, _amount) */\n      jump\t// in\n    tag_270:\n        /* \"proy/pi-markets/smart-contracts/tokens/packable/PiPNFToken.sol\":2003:2004  _ */\n      pop\n        /* \"proy/pi-markets/smart-contracts/tokens/packable/PiPNFToken.sol\":8792:9173  function transferFrom(... */\n      pop\n      pop\n      pop\n      pop\n      pop\n      pop\n      pop\n      jump\t// out\n        /* \"proy/pi-markets/smart-contracts/tokens/utils/Owned.sol\":780:813  address public owner = msg.sender */\n    tag_118:\n      0x0\n      dup1\n      swap1\n      sload\n      swap1\n      0x100\n      exp\n      swap1\n      div\n      0xffffffffffffffffffffffffffffffffffffffff\n      and\n      dup2\n      jump\t// out\n        /* \"proy/pi-markets/smart-contracts/tokens/packable/PiPNFToken.sol\":12532:12684  function setJsonReference(string memory _new) public onlyOwner {... */\n    tag_125:\n        /* \"proy/pi-markets/smart-contracts/tokens/utils/Owned.sol\":871:876  owner */\n      0x0\n      dup1\n      swap1\n      sload\n      swap1\n      0x100\n      exp\n      swap1\n      div\n      0xffffffffffffffffffffffffffffffffffffffff\n      and\n        /* \"proy/pi-markets/smart-contracts/tokens/utils/Owned.sol\":857:876  msg.sender == owner */\n      0xffffffffffffffffffffffffffffffffffffffff\n      and\n        /* \"proy/pi-markets/smart-contracts/tokens/utils/Owned.sol\":857:867  msg.sender */\n      caller\n        /* \"proy/pi-markets/smart-contracts/tokens/utils/Owned.sol\":857:876  msg.sender == owner */\n      0xffffffffffffffffffffffffffffffffffffffff\n      and\n      eq\n        /* \"proy/pi-markets/smart-contracts/tokens/utils/Owned.sol\":849:877  require(msg.sender == owner) */\n      iszero\n      iszero\n      tag_273\n      jumpi\n      0x0\n      dup1\n      revert\n    tag_273:\n        /* \"proy/pi-markets/smart-contracts/tokens/packable/PiPNFToken.sol\":12610:12647  NewJsonReference(jsonReference, _new) */\n      0xcdafbff2ba80e62ac8cca582598cd4c3654ed2e5ea3a2be59ef42b9c8354e3a8\n        /* \"proy/pi-markets/smart-contracts/tokens/packable/PiPNFToken.sol\":12627:12640  jsonReference */\n      0x1\n        /* \"proy/pi-markets/smart-contracts/tokens/packable/PiPNFToken.sol\":12642:12646  _new */\n      dup3\n        /* \"proy/pi-markets/smart-contracts/tokens/packable/PiPNFToken.sol\":12610:12647  NewJsonReference(jsonReference, _new) */\n      mload(0x40)\n      tag_275\n      swap3\n      swap2\n      swap1\n      jump(tag_276)\n    tag_275:\n      mload(0x40)\n      dup1\n      swap2\n      sub\n      swap1\n      log1\n        /* \"proy/pi-markets/smart-contracts/tokens/packable/PiPNFToken.sol\":12673:12677  _new */\n      dup1\n        /* \"proy/pi-markets/smart-contracts/tokens/packable/PiPNFToken.sol\":12657:12670  jsonReference */\n      0x1\n        /* \"proy/pi-markets/smart-contracts/tokens/packable/PiPNFToken.sol\":12657:12677  jsonReference = _new */\n      swap1\n      dup1\n      mload\n      swap1\n      0x20\n      add\n      swap1\n      tag_277\n      swap3\n      swap2\n      swap1\n      jump\t// in(tag_278)\n    tag_277:\n      pop\n        /* \"proy/pi-markets/smart-contracts/tokens/packable/PiPNFToken.sol\":12532:12684  function setJsonReference(string memory _new) public onlyOwner {... */\n      pop\n      jump\t// out\n        /* \"proy/pi-markets/smart-contracts/tokens/packable/PiPNFToken.sol\":3293:3421  function symbol()... */\n    tag_128:\n        /* \"proy/pi-markets/smart-contracts/tokens/packable/PiPNFToken.sol\":3358:3379  string memory _symbol */\n      0x60\n        /* \"proy/pi-markets/smart-contracts/tokens/packable/PiPNFToken.sol\":3405:3414  nftSymbol */\n      0x3\n        /* \"proy/pi-markets/smart-contracts/tokens/packable/PiPNFToken.sol\":3395:3414  _symbol = nftSymbol */\n      dup1\n      sload\n      0x1\n      dup2\n      0x1\n      and\n      iszero\n      0x100\n      mul\n      sub\n      and\n      0x2\n      swap1\n      div\n      dup1\n      0x1f\n      add\n      0x20\n      dup1\n      swap2\n      div\n      mul\n      0x20\n      add\n      mload(0x40)\n      swap1\n      dup2\n      add\n      0x40\n      mstore\n      dup1\n      swap3\n      swap2\n      swap1\n      dup2\n      dup2\n      mstore\n      0x20\n      add\n      dup3\n      dup1\n      sload\n      0x1\n      dup2\n      0x1\n      and\n      iszero\n      0x100\n      mul\n      sub\n      and\n      0x2\n      swap1\n      div\n      dup1\n      iszero\n      tag_280\n      jumpi\n      dup1\n      0x1f\n      lt\n      tag_281\n      jumpi\n      0x100\n      dup1\n      dup4\n      sload\n      div\n      mul\n      dup4\n      mstore\n      swap2\n      0x20\n      add\n      swap2\n      jump(tag_280)\n    tag_281:\n      dup3\n      add\n      swap2\n      swap1\n      0x0\n      mstore\n      keccak256(0x0, 0x20)\n      swap1\n    tag_282:\n      dup2\n      sload\n      dup2\n      mstore\n      swap1\n      0x1\n      add\n      swap1\n      0x20\n      add\n      dup1\n      dup4\n      gt\n      tag_282\n      jumpi\n      dup3\n      swap1\n      sub\n      0x1f\n      and\n      dup3\n      add\n      swap2\n    tag_280:\n      pop\n      pop\n      pop\n      pop\n      pop\n      swap1\n      pop\n        /* \"proy/pi-markets/smart-contracts/tokens/packable/PiPNFToken.sol\":3293:3421  function symbol()... */\n      swap1\n      jump\t// out\n        /* \"proy/pi-markets/smart-contracts/tokens/packable/PiPNFToken.sol\":10802:11038  function setApprovalForAll(... */\n    tag_134:\n        /* \"proy/pi-markets/smart-contracts/tokens/packable/PiPNFToken.sol\":10959:10968  _approved */\n      dup1\n        /* \"proy/pi-markets/smart-contracts/tokens/packable/PiPNFToken.sol\":10917:10933  ownerToOperators */\n      0x9\n        /* \"proy/pi-markets/smart-contracts/tokens/packable/PiPNFToken.sol\":10917:10945  ownerToOperators[msg.sender] */\n      0x0\n        /* \"proy/pi-markets/smart-contracts/tokens/packable/PiPNFToken.sol\":10934:10944  msg.sender */\n      caller\n        /* \"proy/pi-markets/smart-contracts/tokens/packable/PiPNFToken.sol\":10917:10945  ownerToOperators[msg.sender] */\n      0xffffffffffffffffffffffffffffffffffffffff\n      and\n      0xffffffffffffffffffffffffffffffffffffffff\n      and\n      dup2\n      mstore\n      0x20\n      add\n      swap1\n      dup2\n      mstore\n      0x20\n      add\n      0x0\n      keccak256\n        /* \"proy/pi-markets/smart-contracts/tokens/packable/PiPNFToken.sol\":10917:10956  ownerToOperators[msg.sender][_operator] */\n      0x0\n        /* \"proy/pi-markets/smart-contracts/tokens/packable/PiPNFToken.sol\":10946:10955  _operator */\n      dup5\n        /* \"proy/pi-markets/smart-contracts/tokens/packable/PiPNFToken.sol\":10917:10956  ownerToOperators[msg.sender][_operator] */\n      0xffffffffffffffffffffffffffffffffffffffff\n      and\n      0xffffffffffffffffffffffffffffffffffffffff\n      and\n      dup2\n      mstore\n      0x20\n      add\n      swap1\n      dup2\n      mstore\n      0x20\n      add\n      0x0\n      keccak256\n      0x0\n        /* \"proy/pi-markets/smart-contracts/tokens/packable/PiPNFToken.sol\":10917:10968  ownerToOperators[msg.sender][_operator] = _approved */\n      0x100\n      exp\n      dup2\n      sload\n      dup2\n      0xff\n      mul\n      not\n      and\n      swap1\n      dup4\n      iszero\n      iszero\n      mul\n      or\n      swap1\n      sstore\n      pop\n        /* \"proy/pi-markets/smart-contracts/tokens/packable/PiPNFToken.sol\":11010:11019  _operator */\n      dup2\n        /* \"proy/pi-markets/smart-contracts/tokens/packable/PiPNFToken.sol\":10983:11031  ApprovalForAll(msg.sender, _operator, _approved) */\n      0xffffffffffffffffffffffffffffffffffffffff\n      and\n        /* \"proy/pi-markets/smart-contracts/tokens/packable/PiPNFToken.sol\":10998:11008  msg.sender */\n      caller\n        /* \"proy/pi-markets/smart-contracts/tokens/packable/PiPNFToken.sol\":10983:11031  ApprovalForAll(msg.sender, _operator, _approved) */\n      0xffffffffffffffffffffffffffffffffffffffff\n      and\n      0x17307eab39ab6107e8899845ad3d59bd9653f200f220920489ca2b5937696c31\n        /* \"proy/pi-markets/smart-contracts/tokens/packable/PiPNFToken.sol\":11021:11030  _approved */\n      dup4\n        /* \"proy/pi-markets/smart-contracts/tokens/packable/PiPNFToken.sol\":10983:11031  ApprovalForAll(msg.sender, _operator, _approved) */\n      mload(0x40)\n      tag_284\n      swap2\n      swap1\n      jump(tag_96)\n    tag_284:\n      mload(0x40)\n      dup1\n      swap2\n      sub\n      swap1\n      log3\n        /* \"proy/pi-markets/smart-contracts/tokens/packable/PiPNFToken.sol\":10802:11038  function setApprovalForAll(... */\n      pop\n      pop\n      jump\t// out\n        /* \"proy/pi-markets/smart-contracts/tokens/packable/PiPNFToken.sol\":6329:6683  function getMetadata(bytes32 _tokenId) public view returns(uint[5] memory) {... */\n    tag_138:\n        /* \"proy/pi-markets/smart-contracts/tokens/packable/PiPNFToken.sol\":6388:6402  uint[5] memory */\n      tag_285\n      jump\t// in(tag_286)\n    tag_285:\n        /* \"proy/pi-markets/smart-contracts/tokens/packable/PiPNFToken.sol\":6414:6434  uint[5] memory _json */\n      tag_288\n      jump\t// in(tag_286)\n    tag_288:\n        /* \"proy/pi-markets/smart-contracts/tokens/packable/PiPNFToken.sol\":6455:6463  idTojson */\n      0xe\n        /* \"proy/pi-markets/smart-contracts/tokens/packable/PiPNFToken.sol\":6455:6473  idTojson[_tokenId] */\n      0x0\n        /* \"proy/pi-markets/smart-contracts/tokens/packable/PiPNFToken.sol\":6464:6472  _tokenId */\n      dup5\n        /* \"proy/pi-markets/smart-contracts/tokens/packable/PiPNFToken.sol\":6455:6473  idTojson[_tokenId] */\n      dup2\n      mstore\n      0x20\n      add\n      swap1\n      dup2\n      mstore\n      0x20\n      add\n      0x0\n      keccak256\n        /* \"proy/pi-markets/smart-contracts/tokens/packable/PiPNFToken.sol\":6455:6478  idTojson[_tokenId].key0 */\n      0x0\n      add\n      sload\n        /* \"proy/pi-markets/smart-contracts/tokens/packable/PiPNFToken.sol\":6444:6449  _json */\n      dup2\n        /* \"proy/pi-markets/smart-contracts/tokens/packable/PiPNFToken.sol\":6450:6451  0 */\n      0x0\n        /* \"proy/pi-markets/smart-contracts/tokens/packable/PiPNFToken.sol\":6444:6452  _json[0] */\n      0x5\n      dup2\n      lt\n      iszero\n      iszero\n      tag_289\n      jumpi\n      invalid\n    tag_289:\n      0x20\n      mul\n      add\n        /* \"proy/pi-markets/smart-contracts/tokens/packable/PiPNFToken.sol\":6444:6478  _json[0] = idTojson[_tokenId].key0 */\n      dup2\n      dup2\n      mstore\n      pop\n      pop\n        /* \"proy/pi-markets/smart-contracts/tokens/packable/PiPNFToken.sol\":6499:6507  idTojson */\n      0xe\n        /* \"proy/pi-markets/smart-contracts/tokens/packable/PiPNFToken.sol\":6499:6517  idTojson[_tokenId] */\n      0x0\n        /* \"proy/pi-markets/smart-contracts/tokens/packable/PiPNFToken.sol\":6508:6516  _tokenId */\n      dup5\n        /* \"proy/pi-markets/smart-contracts/tokens/packable/PiPNFToken.sol\":6499:6517  idTojson[_tokenId] */\n      dup2\n      mstore\n      0x20\n      add\n      swap1\n      dup2\n      mstore\n      0x20\n      add\n      0x0\n      keccak256\n        /* \"proy/pi-markets/smart-contracts/tokens/packable/PiPNFToken.sol\":6499:6522  idTojson[_tokenId].key1 */\n      0x1\n      add\n      sload\n        /* \"proy/pi-markets/smart-contracts/tokens/packable/PiPNFToken.sol\":6488:6493  _json */\n      dup2\n        /* \"proy/pi-markets/smart-contracts/tokens/packable/PiPNFToken.sol\":6494:6495  1 */\n      0x1\n        /* \"proy/pi-markets/smart-contracts/tokens/packable/PiPNFToken.sol\":6488:6496  _json[1] */\n      0x5\n      dup2\n      lt\n      iszero\n      iszero\n      tag_290\n      jumpi\n      invalid\n    tag_290:\n      0x20\n      mul\n      add\n        /* \"proy/pi-markets/smart-contracts/tokens/packable/PiPNFToken.sol\":6488:6522  _json[1] = idTojson[_tokenId].key1 */\n      dup2\n      dup2\n      mstore\n      pop\n      pop\n        /* \"proy/pi-markets/smart-contracts/tokens/packable/PiPNFToken.sol\":6543:6551  idTojson */\n      0xe\n        /* \"proy/pi-markets/smart-contracts/tokens/packable/PiPNFToken.sol\":6543:6561  idTojson[_tokenId] */\n      0x0\n        /* \"proy/pi-markets/smart-contracts/tokens/packable/PiPNFToken.sol\":6552:6560  _tokenId */\n      dup5\n        /* \"proy/pi-markets/smart-contracts/tokens/packable/PiPNFToken.sol\":6543:6561  idTojson[_tokenId] */\n      dup2\n      mstore\n      0x20\n      add\n      swap1\n      dup2\n      mstore\n      0x20\n      add\n      0x0\n      keccak256\n        /* \"proy/pi-markets/smart-contracts/tokens/packable/PiPNFToken.sol\":6543:6566  idTojson[_tokenId].key2 */\n      0x2\n      add\n      sload\n        /* \"proy/pi-markets/smart-contracts/tokens/packable/PiPNFToken.sol\":6532:6537  _json */\n      dup2\n        /* \"proy/pi-markets/smart-contracts/tokens/packable/PiPNFToken.sol\":6538:6539  2 */\n      0x2\n        /* \"proy/pi-markets/smart-contracts/tokens/packable/PiPNFToken.sol\":6532:6540  _json[2] */\n      0x5\n      dup2\n      lt\n      iszero\n      iszero\n      tag_291\n      jumpi\n      invalid\n    tag_291:\n      0x20\n      mul\n      add\n        /* \"proy/pi-markets/smart-contracts/tokens/packable/PiPNFToken.sol\":6532:6566  _json[2] = idTojson[_tokenId].key2 */\n      dup2\n      dup2\n      mstore\n      pop\n      pop\n        /* \"proy/pi-markets/smart-contracts/tokens/packable/PiPNFToken.sol\":6587:6595  idTojson */\n      0xe\n        /* \"proy/pi-markets/smart-contracts/tokens/packable/PiPNFToken.sol\":6587:6605  idTojson[_tokenId] */\n      0x0\n        /* \"proy/pi-markets/smart-contracts/tokens/packable/PiPNFToken.sol\":6596:6604  _tokenId */\n      dup5\n        /* \"proy/pi-markets/smart-contracts/tokens/packable/PiPNFToken.sol\":6587:6605  idTojson[_tokenId] */\n      dup2\n      mstore\n      0x20\n      add\n      swap1\n      dup2\n      mstore\n      0x20\n      add\n      0x0\n      keccak256\n        /* \"proy/pi-markets/smart-contracts/tokens/packable/PiPNFToken.sol\":6587:6610  idTojson[_tokenId].key3 */\n      0x3\n      add\n      sload\n        /* \"proy/pi-markets/smart-contracts/tokens/packable/PiPNFToken.sol\":6576:6581  _json */\n      dup2\n        /* \"proy/pi-markets/smart-contracts/tokens/packable/PiPNFToken.sol\":6582:6583  3 */\n      0x3\n        /* \"proy/pi-markets/smart-contracts/tokens/packable/PiPNFToken.sol\":6576:6584  _json[3] */\n      0x5\n      dup2\n      lt\n      iszero\n      iszero\n      tag_292\n      jumpi\n      invalid\n    tag_292:\n      0x20\n      mul\n      add\n        /* \"proy/pi-markets/smart-contracts/tokens/packable/PiPNFToken.sol\":6576:6610  _json[3] = idTojson[_tokenId].key3 */\n      dup2\n      dup2\n      mstore\n      pop\n      pop\n        /* \"proy/pi-markets/smart-contracts/tokens/packable/PiPNFToken.sol\":6631:6639  idTojson */\n      0xe\n        /* \"proy/pi-markets/smart-contracts/tokens/packable/PiPNFToken.sol\":6631:6649  idTojson[_tokenId] */\n      0x0\n        /* \"proy/pi-markets/smart-contracts/tokens/packable/PiPNFToken.sol\":6640:6648  _tokenId */\n      dup5\n        /* \"proy/pi-markets/smart-contracts/tokens/packable/PiPNFToken.sol\":6631:6649  idTojson[_tokenId] */\n      dup2\n      mstore\n      0x20\n      add\n      swap1\n      dup2\n      mstore\n      0x20\n      add\n      0x0\n      keccak256\n        /* \"proy/pi-markets/smart-contracts/tokens/packable/PiPNFToken.sol\":6631:6654  idTojson[_tokenId].key4 */\n      0x4\n      add\n      sload\n        /* \"proy/pi-markets/smart-contracts/tokens/packable/PiPNFToken.sol\":6620:6625  _json */\n      dup2\n        /* \"proy/pi-markets/smart-contracts/tokens/packable/PiPNFToken.sol\":6626:6627  4 */\n      0x4\n        /* \"proy/pi-markets/smart-contracts/tokens/packable/PiPNFToken.sol\":6620:6628  _json[4] */\n      0x5\n      dup2\n      lt\n      iszero\n      iszero\n      tag_293\n      jumpi\n      invalid\n    tag_293:\n      0x20\n      mul\n      add\n        /* \"proy/pi-markets/smart-contracts/tokens/packable/PiPNFToken.sol\":6620:6654  _json[4] = idTojson[_tokenId].key4 */\n      dup2\n      dup2\n      mstore\n      pop\n      pop\n        /* \"proy/pi-markets/smart-contracts/tokens/packable/PiPNFToken.sol\":6671:6676  _json */\n      dup1\n        /* \"proy/pi-markets/smart-contracts/tokens/packable/PiPNFToken.sol\":6664:6676  return _json */\n      swap2\n      pop\n      pop\n        /* \"proy/pi-markets/smart-contracts/tokens/packable/PiPNFToken.sol\":6329:6683  function getMetadata(bytes32 _tokenId) public view returns(uint[5] memory) {... */\n      swap2\n      swap1\n      pop\n      jump\t// out\n        /* \"proy/pi-markets/smart-contracts/tokens/packable/PiPNFToken.sol\":3747:3838  function getTokens() external view returns(bytes32[] memory) {... */\n    tag_143:\n        /* \"proy/pi-markets/smart-contracts/tokens/packable/PiPNFToken.sol\":3790:3806  bytes32[] memory */\n      0x60\n        /* \"proy/pi-markets/smart-contracts/tokens/packable/PiPNFToken.sol\":3825:3831  tokens */\n      0x5\n        /* \"proy/pi-markets/smart-contracts/tokens/packable/PiPNFToken.sol\":3818:3831  return tokens */\n      dup1\n      sload\n      dup1\n      0x20\n      mul\n      0x20\n      add\n      mload(0x40)\n      swap1\n      dup2\n      add\n      0x40\n      mstore\n      dup1\n      swap3\n      swap2\n      swap1\n      dup2\n      dup2\n      mstore\n      0x20\n      add\n      dup3\n      dup1\n      sload\n      dup1\n      iszero\n      tag_295\n      jumpi\n      0x20\n      mul\n      dup3\n      add\n      swap2\n      swap1\n      0x0\n      mstore\n      keccak256(0x0, 0x20)\n      swap1\n    tag_296:\n      dup2\n      sload\n      dup2\n      mstore\n      0x20\n      add\n      swap1\n      0x1\n      add\n      swap1\n      dup1\n      dup4\n      gt\n      tag_296\n      jumpi\n    tag_295:\n      pop\n      pop\n      pop\n      pop\n      pop\n      swap1\n      pop\n        /* \"proy/pi-markets/smart-contracts/tokens/packable/PiPNFToken.sol\":3747:3838  function getTokens() external view returns(bytes32[] memory) {... */\n      swap1\n      jump\t// out\n        /* \"proy/pi-markets/smart-contracts/tokens/packable/PiPNFToken.sol\":9179:9575  function safeTransferFromApproved(... */\n    tag_149:\n        /* \"proy/pi-markets/smart-contracts/tokens/packable/PiPNFToken.sol\":9380:9385  _from */\n      dup6\n        /* \"proy/pi-markets/smart-contracts/tokens/packable/PiPNFToken.sol\":9387:9390  _to */\n      dup6\n        /* \"proy/pi-markets/smart-contracts/tokens/packable/PiPNFToken.sol\":9392:9400  _tokenId */\n      dup6\n        /* \"proy/pi-markets/smart-contracts/tokens/packable/PiPNFToken.sol\":9402:9409  _amount */\n      dup6\n        /* \"proy/pi-markets/smart-contracts/tokens/packable/PiPNFToken.sol\":2153:2176  uint256 _approvedAmount */\n      0x0\n        /* \"proy/pi-markets/smart-contracts/tokens/packable/PiPNFToken.sol\":2179:2188  approvals */\n      0x7\n        /* \"proy/pi-markets/smart-contracts/tokens/packable/PiPNFToken.sol\":2179:2196  approvals[_owner] */\n      0x0\n        /* \"proy/pi-markets/smart-contracts/tokens/packable/PiPNFToken.sol\":2189:2195  _owner */\n      dup7\n        /* \"proy/pi-markets/smart-contracts/tokens/packable/PiPNFToken.sol\":2179:2196  approvals[_owner] */\n      0xffffffffffffffffffffffffffffffffffffffff\n      and\n      0xffffffffffffffffffffffffffffffffffffffff\n      and\n      dup2\n      mstore\n      0x20\n      add\n      swap1\n      dup2\n      mstore\n      0x20\n      add\n      0x0\n      keccak256\n        /* \"proy/pi-markets/smart-contracts/tokens/packable/PiPNFToken.sol\":2179:2201  approvals[_owner][_to] */\n      0x0\n        /* \"proy/pi-markets/smart-contracts/tokens/packable/PiPNFToken.sol\":2197:2200  _to */\n      dup6\n        /* \"proy/pi-markets/smart-contracts/tokens/packable/PiPNFToken.sol\":2179:2201  approvals[_owner][_to] */\n      0xffffffffffffffffffffffffffffffffffffffff\n      and\n      0xffffffffffffffffffffffffffffffffffffffff\n      and\n      dup2\n      mstore\n      0x20\n      add\n      swap1\n      dup2\n      mstore\n      0x20\n      add\n      0x0\n      keccak256\n        /* \"proy/pi-markets/smart-contracts/tokens/packable/PiPNFToken.sol\":2179:2211  approvals[_owner][_to][_tokenId] */\n      0x0\n        /* \"proy/pi-markets/smart-contracts/tokens/packable/PiPNFToken.sol\":2202:2210  _tokenId */\n      dup5\n        /* \"proy/pi-markets/smart-contracts/tokens/packable/PiPNFToken.sol\":2179:2211  approvals[_owner][_to][_tokenId] */\n      dup2\n      mstore\n      0x20\n      add\n      swap1\n      dup2\n      mstore\n      0x20\n      add\n      0x0\n      keccak256\n      sload\n        /* \"proy/pi-markets/smart-contracts/tokens/packable/PiPNFToken.sol\":2153:2211  uint256 _approvedAmount = approvals[_owner][_to][_tokenId] */\n      swap1\n      pop\n        /* \"proy/pi-markets/smart-contracts/tokens/packable/PiPNFToken.sol\":2272:2279  _amount */\n      dup2\n        /* \"proy/pi-markets/smart-contracts/tokens/packable/PiPNFToken.sol\":2242:2250  balances */\n      0xc\n        /* \"proy/pi-markets/smart-contracts/tokens/packable/PiPNFToken.sol\":2242:2258  balances[_owner] */\n      0x0\n        /* \"proy/pi-markets/smart-contracts/tokens/packable/PiPNFToken.sol\":2251:2257  _owner */\n      dup8\n        /* \"proy/pi-markets/smart-contracts/tokens/packable/PiPNFToken.sol\":2242:2258  balances[_owner] */\n      0xffffffffffffffffffffffffffffffffffffffff\n      and\n      0xffffffffffffffffffffffffffffffffffffffff\n      and\n      dup2\n      mstore\n      0x20\n      add\n      swap1\n      dup2\n      mstore\n      0x20\n      add\n      0x0\n      keccak256\n        /* \"proy/pi-markets/smart-contracts/tokens/packable/PiPNFToken.sol\":2242:2268  balances[_owner][_tokenId] */\n      0x0\n        /* \"proy/pi-markets/smart-contracts/tokens/packable/PiPNFToken.sol\":2259:2267  _tokenId */\n      dup6\n        /* \"proy/pi-markets/smart-contracts/tokens/packable/PiPNFToken.sol\":2242:2268  balances[_owner][_tokenId] */\n      dup2\n      mstore\n      0x20\n      add\n      swap1\n      dup2\n      mstore\n      0x20\n      add\n      0x0\n      keccak256\n      sload\n        /* \"proy/pi-markets/smart-contracts/tokens/packable/PiPNFToken.sol\":2242:2279  balances[_owner][_tokenId] >= _amount */\n      lt\n      iszero\n        /* \"proy/pi-markets/smart-contracts/tokens/packable/PiPNFToken.sol\":2242:2321  balances[_owner][_tokenId] >= _amount... */\n      dup1\n      tag_298\n      jumpi\n      pop\n        /* \"proy/pi-markets/smart-contracts/tokens/packable/PiPNFToken.sol\":2314:2321  _amount */\n      dup2\n        /* \"proy/pi-markets/smart-contracts/tokens/packable/PiPNFToken.sol\":2295:2310  _approvedAmount */\n      dup2\n        /* \"proy/pi-markets/smart-contracts/tokens/packable/PiPNFToken.sol\":2295:2321  _approvedAmount >= _amount */\n      lt\n      iszero\n        /* \"proy/pi-markets/smart-contracts/tokens/packable/PiPNFToken.sol\":2242:2321  balances[_owner][_tokenId] >= _amount... */\n    tag_298:\n        /* \"proy/pi-markets/smart-contracts/tokens/packable/PiPNFToken.sol\":2221:2338  require(... */\n      iszero\n      iszero\n      tag_299\n      jumpi\n      mload(0x40)\n      0x8c379a000000000000000000000000000000000000000000000000000000000\n      dup2\n      mstore\n      0x4\n      add\n      tag_300\n      swap1\n      jump(tag_301)\n    tag_300:\n      mload(0x40)\n      dup1\n      swap2\n      sub\n      swap1\n      revert\n    tag_299:\n        /* \"proy/pi-markets/smart-contracts/tokens/packable/PiPNFToken.sol\":9459:9503  approvals[_from][_to][_tokenId].sub(_amount) */\n      tag_303\n        /* \"proy/pi-markets/smart-contracts/tokens/packable/PiPNFToken.sol\":9495:9502  _amount */\n      dup9\n        /* \"proy/pi-markets/smart-contracts/tokens/packable/PiPNFToken.sol\":9459:9468  approvals */\n      0x7\n        /* \"proy/pi-markets/smart-contracts/tokens/packable/PiPNFToken.sol\":9459:9475  approvals[_from] */\n      0x0\n        /* \"proy/pi-markets/smart-contracts/tokens/packable/PiPNFToken.sol\":9469:9474  _from */\n      dup15\n        /* \"proy/pi-markets/smart-contracts/tokens/packable/PiPNFToken.sol\":9459:9475  approvals[_from] */\n      0xffffffffffffffffffffffffffffffffffffffff\n      and\n      0xffffffffffffffffffffffffffffffffffffffff\n      and\n      dup2\n      mstore\n      0x20\n      add\n      swap1\n      dup2\n      mstore\n      0x20\n      add\n      0x0\n      keccak256\n        /* \"proy/pi-markets/smart-contracts/tokens/packable/PiPNFToken.sol\":9459:9480  approvals[_from][_to] */\n      0x0\n        /* \"proy/pi-markets/smart-contracts/tokens/packable/PiPNFToken.sol\":9476:9479  _to */\n      dup14\n        /* \"proy/pi-markets/smart-contracts/tokens/packable/PiPNFToken.sol\":9459:9480  approvals[_from][_to] */\n      0xffffffffffffffffffffffffffffffffffffffff\n      and\n      0xffffffffffffffffffffffffffffffffffffffff\n      and\n      dup2\n      mstore\n      0x20\n      add\n      swap1\n      dup2\n      mstore\n      0x20\n      add\n      0x0\n      keccak256\n        /* \"proy/pi-markets/smart-contracts/tokens/packable/PiPNFToken.sol\":9459:9490  approvals[_from][_to][_tokenId] */\n      0x0\n        /* \"proy/pi-markets/smart-contracts/tokens/packable/PiPNFToken.sol\":9481:9489  _tokenId */\n      dup13\n        /* \"proy/pi-markets/smart-contracts/tokens/packable/PiPNFToken.sol\":9459:9490  approvals[_from][_to][_tokenId] */\n      dup2\n      mstore\n      0x20\n      add\n      swap1\n      dup2\n      mstore\n      0x20\n      add\n      0x0\n      keccak256\n      sload\n        /* \"proy/pi-markets/smart-contracts/tokens/packable/PiPNFToken.sol\":9459:9494  approvals[_from][_to][_tokenId].sub */\n      tag_246\n      swap1\n        /* \"proy/pi-markets/smart-contracts/tokens/packable/PiPNFToken.sol\":9459:9503  approvals[_from][_to][_tokenId].sub(_amount) */\n      swap2\n      swap1\n      0xffffffff\n      and\n      jump\t// in\n    tag_303:\n        /* \"proy/pi-markets/smart-contracts/tokens/packable/PiPNFToken.sol\":9425:9434  approvals */\n      0x7\n        /* \"proy/pi-markets/smart-contracts/tokens/packable/PiPNFToken.sol\":9425:9441  approvals[_from] */\n      0x0\n        /* \"proy/pi-markets/smart-contracts/tokens/packable/PiPNFToken.sol\":9435:9440  _from */\n      dup14\n        /* \"proy/pi-markets/smart-contracts/tokens/packable/PiPNFToken.sol\":9425:9441  approvals[_from] */\n      0xffffffffffffffffffffffffffffffffffffffff\n      and\n      0xffffffffffffffffffffffffffffffffffffffff\n      and\n      dup2\n      mstore\n      0x20\n      add\n      swap1\n      dup2\n      mstore\n      0x20\n      add\n      0x0\n      keccak256\n        /* \"proy/pi-markets/smart-contracts/tokens/packable/PiPNFToken.sol\":9425:9446  approvals[_from][_to] */\n      0x0\n        /* \"proy/pi-markets/smart-contracts/tokens/packable/PiPNFToken.sol\":9442:9445  _to */\n      dup13\n        /* \"proy/pi-markets/smart-contracts/tokens/packable/PiPNFToken.sol\":9425:9446  approvals[_from][_to] */\n      0xffffffffffffffffffffffffffffffffffffffff\n      and\n      0xffffffffffffffffffffffffffffffffffffffff\n      and\n      dup2\n      mstore\n      0x20\n      add\n      swap1\n      dup2\n      mstore\n      0x20\n      add\n      0x0\n      keccak256\n        /* \"proy/pi-markets/smart-contracts/tokens/packable/PiPNFToken.sol\":9425:9456  approvals[_from][_to][_tokenId] */\n      0x0\n        /* \"proy/pi-markets/smart-contracts/tokens/packable/PiPNFToken.sol\":9447:9455  _tokenId */\n      dup12\n        /* \"proy/pi-markets/smart-contracts/tokens/packable/PiPNFToken.sol\":9425:9456  approvals[_from][_to][_tokenId] */\n      dup2\n      mstore\n      0x20\n      add\n      swap1\n      dup2\n      mstore\n      0x20\n      add\n      0x0\n      keccak256\n        /* \"proy/pi-markets/smart-contracts/tokens/packable/PiPNFToken.sol\":9425:9503  approvals[_from][_to][_tokenId] = approvals[_from][_to][_tokenId].sub(_amount) */\n      dup2\n      swap1\n      sstore\n      pop\n        /* \"proy/pi-markets/smart-contracts/tokens/packable/PiPNFToken.sol\":9513:9568  _safeTransferFrom(_from, _to, _tokenId, _amount, _data) */\n      tag_304\n        /* \"proy/pi-markets/smart-contracts/tokens/packable/PiPNFToken.sol\":9531:9536  _from */\n      dup12\n        /* \"proy/pi-markets/smart-contracts/tokens/packable/PiPNFToken.sol\":9538:9541  _to */\n      dup12\n        /* \"proy/pi-markets/smart-contracts/tokens/packable/PiPNFToken.sol\":9543:9551  _tokenId */\n      dup12\n        /* \"proy/pi-markets/smart-contracts/tokens/packable/PiPNFToken.sol\":9553:9560  _amount */\n      dup12\n        /* \"proy/pi-markets/smart-contracts/tokens/packable/PiPNFToken.sol\":9562:9567  _data */\n      dup12\n      dup12\n        /* \"proy/pi-markets/smart-contracts/tokens/packable/PiPNFToken.sol\":9513:9568  _safeTransferFrom(_from, _to, _tokenId, _amount, _data) */\n      dup1\n      dup1\n      0x1f\n      add\n      0x20\n      dup1\n      swap2\n      div\n      mul\n      0x20\n      add\n      mload(0x40)\n      swap1\n      dup2\n      add\n      0x40\n      mstore\n      dup1\n      swap4\n      swap3\n      swap2\n      swap1\n      dup2\n      dup2\n      mstore\n      0x20\n      add\n      dup4\n      dup4\n        /* \"--CODEGEN--\":30:33   */\n      dup1\n        /* \"--CODEGEN--\":22:28   */\n      dup3\n        /* \"--CODEGEN--\":14:20   */\n      dup5\n        /* \"--CODEGEN--\":1:34   */\n      calldatacopy\n        /* \"--CODEGEN--\":99:100   */\n      0x0\n        /* \"--CODEGEN--\":93:96   */\n      dup2\n        /* \"--CODEGEN--\":85:91   */\n      dup5\n        /* \"--CODEGEN--\":81:97   */\n      add\n        /* \"--CODEGEN--\":74:101   */\n      mstore\n        /* \"--CODEGEN--\":137:141   */\n      0x1f\n        /* \"--CODEGEN--\":133:142   */\n      not\n        /* \"--CODEGEN--\":126:130   */\n      0x1f\n        /* \"--CODEGEN--\":121:124   */\n      dup3\n        /* \"--CODEGEN--\":117:131   */\n      add\n        /* \"--CODEGEN--\":113:143   */\n      and\n        /* \"--CODEGEN--\":106:143   */\n      swap1\n      pop\n        /* \"--CODEGEN--\":169:172   */\n      dup1\n        /* \"--CODEGEN--\":161:167   */\n      dup4\n        /* \"--CODEGEN--\":157:173   */\n      add\n        /* \"--CODEGEN--\":147:173   */\n      swap3\n      pop\n        /* \"proy/pi-markets/smart-contracts/tokens/packable/PiPNFToken.sol\":9513:9568  _safeTransferFrom(_from, _to, _tokenId, _amount, _data) */\n      pop\n      pop\n      pop\n      pop\n      pop\n      pop\n        /* \"proy/pi-markets/smart-contracts/tokens/packable/PiPNFToken.sol\":9513:9530  _safeTransferFrom */\n      tag_305\n        /* \"proy/pi-markets/smart-contracts/tokens/packable/PiPNFToken.sol\":9513:9568  _safeTransferFrom(_from, _to, _tokenId, _amount, _data) */\n      jump\t// in\n    tag_304:\n        /* \"proy/pi-markets/smart-contracts/tokens/packable/PiPNFToken.sol\":9179:9575  function safeTransferFromApproved(... */\n      pop\n      pop\n      pop\n      pop\n      pop\n      pop\n      pop\n      pop\n      pop\n      pop\n      pop\n      jump\t// out\n        /* \"proy/pi-markets/smart-contracts/tokens/packable/PiPNFToken.sol\":7918:8213  function safeTransferFrom(... */\n    tag_153:\n        /* \"proy/pi-markets/smart-contracts/tokens/packable/PiPNFToken.sol\":8111:8116  _from */\n      dup6\n        /* \"proy/pi-markets/smart-contracts/tokens/packable/PiPNFToken.sol\":8118:8126  _tokenId */\n      dup5\n        /* \"proy/pi-markets/smart-contracts/tokens/packable/PiPNFToken.sol\":8128:8135  _amount */\n      dup5\n        /* \"proy/pi-markets/smart-contracts/tokens/packable/PiPNFToken.sol\":1841:1847  _owner */\n      dup3\n        /* \"proy/pi-markets/smart-contracts/tokens/packable/PiPNFToken.sol\":1827:1847  msg.sender == _owner */\n      0xffffffffffffffffffffffffffffffffffffffff\n      and\n        /* \"proy/pi-markets/smart-contracts/tokens/packable/PiPNFToken.sol\":1827:1837  msg.sender */\n      caller\n        /* \"proy/pi-markets/smart-contracts/tokens/packable/PiPNFToken.sol\":1827:1847  msg.sender == _owner */\n      0xffffffffffffffffffffffffffffffffffffffff\n      and\n      eq\n        /* \"proy/pi-markets/smart-contracts/tokens/packable/PiPNFToken.sol\":1827:1892  msg.sender == _owner && balances[msg.sender][_tokenId] >= _amount */\n      dup1\n      iszero\n      tag_307\n      jumpi\n      pop\n        /* \"proy/pi-markets/smart-contracts/tokens/packable/PiPNFToken.sol\":1885:1892  _amount */\n      dup1\n        /* \"proy/pi-markets/smart-contracts/tokens/packable/PiPNFToken.sol\":1851:1859  balances */\n      0xc\n        /* \"proy/pi-markets/smart-contracts/tokens/packable/PiPNFToken.sol\":1851:1871  balances[msg.sender] */\n      0x0\n        /* \"proy/pi-markets/smart-contracts/tokens/packable/PiPNFToken.sol\":1860:1870  msg.sender */\n      caller\n        /* \"proy/pi-markets/smart-contracts/tokens/packable/PiPNFToken.sol\":1851:1871  balances[msg.sender] */\n      0xffffffffffffffffffffffffffffffffffffffff\n      and\n      0xffffffffffffffffffffffffffffffffffffffff\n      and\n      dup2\n      mstore\n      0x20\n      add\n      swap1\n      dup2\n      mstore\n      0x20\n      add\n      0x0\n      keccak256\n        /* \"proy/pi-markets/smart-contracts/tokens/packable/PiPNFToken.sol\":1851:1881  balances[msg.sender][_tokenId] */\n      0x0\n        /* \"proy/pi-markets/smart-contracts/tokens/packable/PiPNFToken.sol\":1872:1880  _tokenId */\n      dup5\n        /* \"proy/pi-markets/smart-contracts/tokens/packable/PiPNFToken.sol\":1851:1881  balances[msg.sender][_tokenId] */\n      dup2\n      mstore\n      0x20\n      add\n      swap1\n      dup2\n      mstore\n      0x20\n      add\n      0x0\n      keccak256\n      sload\n        /* \"proy/pi-markets/smart-contracts/tokens/packable/PiPNFToken.sol\":1851:1892  balances[msg.sender][_tokenId] >= _amount */\n      lt\n      iszero\n        /* \"proy/pi-markets/smart-contracts/tokens/packable/PiPNFToken.sol\":1827:1892  msg.sender == _owner && balances[msg.sender][_tokenId] >= _amount */\n    tag_307:\n        /* \"proy/pi-markets/smart-contracts/tokens/packable/PiPNFToken.sol\":1826:1985  (msg.sender == _owner && balances[msg.sender][_tokenId] >= _amount) ... */\n      dup1\n      tag_308\n      jumpi\n      pop\n        /* \"proy/pi-markets/smart-contracts/tokens/packable/PiPNFToken.sol\":1907:1923  ownerToOperators */\n      0x9\n        /* \"proy/pi-markets/smart-contracts/tokens/packable/PiPNFToken.sol\":1907:1931  ownerToOperators[_owner] */\n      0x0\n        /* \"proy/pi-markets/smart-contracts/tokens/packable/PiPNFToken.sol\":1924:1930  _owner */\n      dup5\n        /* \"proy/pi-markets/smart-contracts/tokens/packable/PiPNFToken.sol\":1907:1931  ownerToOperators[_owner] */\n      0xffffffffffffffffffffffffffffffffffffffff\n      and\n      0xffffffffffffffffffffffffffffffffffffffff\n      and\n      dup2\n      mstore\n      0x20\n      add\n      swap1\n      dup2\n      mstore\n      0x20\n      add\n      0x0\n      keccak256\n        /* \"proy/pi-markets/smart-contracts/tokens/packable/PiPNFToken.sol\":1907:1943  ownerToOperators[_owner][msg.sender] */\n      0x0\n        /* \"proy/pi-markets/smart-contracts/tokens/packable/PiPNFToken.sol\":1932:1942  msg.sender */\n      caller\n        /* \"proy/pi-markets/smart-contracts/tokens/packable/PiPNFToken.sol\":1907:1943  ownerToOperators[_owner][msg.sender] */\n      0xffffffffffffffffffffffffffffffffffffffff\n      and\n      0xffffffffffffffffffffffffffffffffffffffff\n      and\n      dup2\n      mstore\n      0x20\n      add\n      swap1\n      dup2\n      mstore\n      0x20\n      add\n      0x0\n      keccak256\n      0x0\n      swap1\n      sload\n      swap1\n      0x100\n      exp\n      swap1\n      div\n      0xff\n      and\n        /* \"proy/pi-markets/smart-contracts/tokens/packable/PiPNFToken.sol\":1907:1984  ownerToOperators[_owner][msg.sender] && balances[_owner][_tokenId] >= _amount */\n      dup1\n      iszero\n      tag_309\n      jumpi\n      pop\n        /* \"proy/pi-markets/smart-contracts/tokens/packable/PiPNFToken.sol\":1977:1984  _amount */\n      dup1\n        /* \"proy/pi-markets/smart-contracts/tokens/packable/PiPNFToken.sol\":1947:1955  balances */\n      0xc\n        /* \"proy/pi-markets/smart-contracts/tokens/packable/PiPNFToken.sol\":1947:1963  balances[_owner] */\n      0x0\n        /* \"proy/pi-markets/smart-contracts/tokens/packable/PiPNFToken.sol\":1956:1962  _owner */\n      dup6\n        /* \"proy/pi-markets/smart-contracts/tokens/packable/PiPNFToken.sol\":1947:1963  balances[_owner] */\n      0xffffffffffffffffffffffffffffffffffffffff\n      and\n      0xffffffffffffffffffffffffffffffffffffffff\n      and\n      dup2\n      mstore\n      0x20\n      add\n      swap1\n      dup2\n      mstore\n      0x20\n      add\n      0x0\n      keccak256\n        /* \"proy/pi-markets/smart-contracts/tokens/packable/PiPNFToken.sol\":1947:1973  balances[_owner][_tokenId] */\n      0x0\n        /* \"proy/pi-markets/smart-contracts/tokens/packable/PiPNFToken.sol\":1964:1972  _tokenId */\n      dup5\n        /* \"proy/pi-markets/smart-contracts/tokens/packable/PiPNFToken.sol\":1947:1973  balances[_owner][_tokenId] */\n      dup2\n      mstore\n      0x20\n      add\n      swap1\n      dup2\n      mstore\n      0x20\n      add\n      0x0\n      keccak256\n      sload\n        /* \"proy/pi-markets/smart-contracts/tokens/packable/PiPNFToken.sol\":1947:1984  balances[_owner][_tokenId] >= _amount */\n      lt\n      iszero\n        /* \"proy/pi-markets/smart-contracts/tokens/packable/PiPNFToken.sol\":1907:1984  ownerToOperators[_owner][msg.sender] && balances[_owner][_tokenId] >= _amount */\n    tag_309:\n        /* \"proy/pi-markets/smart-contracts/tokens/packable/PiPNFToken.sol\":1826:1985  (msg.sender == _owner && balances[msg.sender][_tokenId] >= _amount) ... */\n    tag_308:\n        /* \"proy/pi-markets/smart-contracts/tokens/packable/PiPNFToken.sol\":1818:1993  require((msg.sender == _owner && balances[msg.sender][_tokenId] >= _amount) ... */\n      iszero\n      iszero\n      tag_310\n      jumpi\n      mload(0x40)\n      0x8c379a000000000000000000000000000000000000000000000000000000000\n      dup2\n      mstore\n      0x4\n      add\n      tag_311\n      swap1\n      jump(tag_201)\n    tag_311:\n      mload(0x40)\n      dup1\n      swap2\n      sub\n      swap1\n      revert\n    tag_310:\n        /* \"proy/pi-markets/smart-contracts/tokens/packable/PiPNFToken.sol\":8151:8206  _safeTransferFrom(_from, _to, _tokenId, _amount, _data) */\n      tag_313\n        /* \"proy/pi-markets/smart-contracts/tokens/packable/PiPNFToken.sol\":8169:8174  _from */\n      dup10\n        /* \"proy/pi-markets/smart-contracts/tokens/packable/PiPNFToken.sol\":8176:8179  _to */\n      dup10\n        /* \"proy/pi-markets/smart-contracts/tokens/packable/PiPNFToken.sol\":8181:8189  _tokenId */\n      dup10\n        /* \"proy/pi-markets/smart-contracts/tokens/packable/PiPNFToken.sol\":8191:8198  _amount */\n      dup10\n        /* \"proy/pi-markets/smart-contracts/tokens/packable/PiPNFToken.sol\":8200:8205  _data */\n      dup10\n      dup10\n        /* \"proy/pi-markets/smart-contracts/tokens/packable/PiPNFToken.sol\":8151:8206  _safeTransferFrom(_from, _to, _tokenId, _amount, _data) */\n      dup1\n      dup1\n      0x1f\n      add\n      0x20\n      dup1\n      swap2\n      div\n      mul\n      0x20\n      add\n      mload(0x40)\n      swap1\n      dup2\n      add\n      0x40\n      mstore\n      dup1\n      swap4\n      swap3\n      swap2\n      swap1\n      dup2\n      dup2\n      mstore\n      0x20\n      add\n      dup4\n      dup4\n        /* \"--CODEGEN--\":30:33   */\n      dup1\n        /* \"--CODEGEN--\":22:28   */\n      dup3\n        /* \"--CODEGEN--\":14:20   */\n      dup5\n        /* \"--CODEGEN--\":1:34   */\n      calldatacopy\n        /* \"--CODEGEN--\":99:100   */\n      0x0\n        /* \"--CODEGEN--\":93:96   */\n      dup2\n        /* \"--CODEGEN--\":85:91   */\n      dup5\n        /* \"--CODEGEN--\":81:97   */\n      add\n        /* \"--CODEGEN--\":74:101   */\n      mstore\n        /* \"--CODEGEN--\":137:141   */\n      0x1f\n        /* \"--CODEGEN--\":133:142   */\n      not\n        /* \"--CODEGEN--\":126:130   */\n      0x1f\n        /* \"--CODEGEN--\":121:124   */\n      dup3\n        /* \"--CODEGEN--\":117:131   */\n      add\n        /* \"--CODEGEN--\":113:143   */\n      and\n        /* \"--CODEGEN--\":106:143   */\n      swap1\n      pop\n        /* \"--CODEGEN--\":169:172   */\n      dup1\n        /* \"--CODEGEN--\":161:167   */\n      dup4\n        /* \"--CODEGEN--\":157:173   */\n      add\n        /* \"--CODEGEN--\":147:173   */\n      swap3\n      pop\n        /* \"proy/pi-markets/smart-contracts/tokens/packable/PiPNFToken.sol\":8151:8206  _safeTransferFrom(_from, _to, _tokenId, _amount, _data) */\n      pop\n      pop\n      pop\n      pop\n      pop\n      pop\n        /* \"proy/pi-markets/smart-contracts/tokens/packable/PiPNFToken.sol\":8151:8168  _safeTransferFrom */\n      tag_305\n        /* \"proy/pi-markets/smart-contracts/tokens/packable/PiPNFToken.sol\":8151:8206  _safeTransferFrom(_from, _to, _tokenId, _amount, _data) */\n      jump\t// in\n    tag_313:\n        /* \"proy/pi-markets/smart-contracts/tokens/packable/PiPNFToken.sol\":7918:8213  function safeTransferFrom(... */\n      pop\n      pop\n      pop\n      pop\n      pop\n      pop\n      pop\n      pop\n      pop\n      jump\t// out\n        /* \"proy/pi-markets/smart-contracts/tokens/packable/PiPNFToken.sol\":5316:5515  function isApprovedForAll(... */\n    tag_158:\n        /* \"proy/pi-markets/smart-contracts/tokens/packable/PiPNFToken.sol\":5446:5450  bool */\n      0x0\n        /* \"proy/pi-markets/smart-contracts/tokens/packable/PiPNFToken.sol\":5473:5489  ownerToOperators */\n      0x9\n        /* \"proy/pi-markets/smart-contracts/tokens/packable/PiPNFToken.sol\":5473:5497  ownerToOperators[_owner] */\n      0x0\n        /* \"proy/pi-markets/smart-contracts/tokens/packable/PiPNFToken.sol\":5490:5496  _owner */\n      dup5\n        /* \"proy/pi-markets/smart-contracts/tokens/packable/PiPNFToken.sol\":5473:5497  ownerToOperators[_owner] */\n      0xffffffffffffffffffffffffffffffffffffffff\n      and\n      0xffffffffffffffffffffffffffffffffffffffff\n      and\n      dup2\n      mstore\n      0x20\n      add\n      swap1\n      dup2\n      mstore\n      0x20\n      add\n      0x0\n      keccak256\n        /* \"proy/pi-markets/smart-contracts/tokens/packable/PiPNFToken.sol\":5473:5508  ownerToOperators[_owner][_operator] */\n      0x0\n        /* \"proy/pi-markets/smart-contracts/tokens/packable/PiPNFToken.sol\":5498:5507  _operator */\n      dup4\n        /* \"proy/pi-markets/smart-contracts/tokens/packable/PiPNFToken.sol\":5473:5508  ownerToOperators[_owner][_operator] */\n      0xffffffffffffffffffffffffffffffffffffffff\n      and\n      0xffffffffffffffffffffffffffffffffffffffff\n      and\n      dup2\n      mstore\n      0x20\n      add\n      swap1\n      dup2\n      mstore\n      0x20\n      add\n      0x0\n      keccak256\n      0x0\n      swap1\n      sload\n      swap1\n      0x100\n      exp\n      swap1\n      div\n      0xff\n      and\n        /* \"proy/pi-markets/smart-contracts/tokens/packable/PiPNFToken.sol\":5466:5508  return ownerToOperators[_owner][_operator] */\n      swap1\n      pop\n        /* \"proy/pi-markets/smart-contracts/tokens/packable/PiPNFToken.sol\":5316:5515  function isApprovedForAll(... */\n      swap3\n      swap2\n      pop\n      pop\n      jump\t// out\n        /* \"proy/pi-markets/smart-contracts/tokens/packable/PiPNFToken.sol\":1573:1624  mapping(bytes32 => uint256) public supplyByCategory */\n    tag_163:\n      mstore(0x20, 0xd)\n      dup1\n      0x0\n      mstore\n      keccak256(0x0, 0x40)\n      0x0\n      swap2\n      pop\n      swap1\n      pop\n      sload\n      dup2\n      jump\t// out\n        /* \"proy/pi-markets/smart-contracts/tokens/packable/PiPNFToken.sol\":508:535  string public jsonReference */\n    tag_167:\n      0x1\n      dup1\n      sload\n      0x1\n      dup2\n      0x1\n      and\n      iszero\n      0x100\n      mul\n      sub\n      and\n      0x2\n      swap1\n      div\n      dup1\n      0x1f\n      add\n      0x20\n      dup1\n      swap2\n      div\n      mul\n      0x20\n      add\n      mload(0x40)\n      swap1\n      dup2\n      add\n      0x40\n      mstore\n      dup1\n      swap3\n      swap2\n      swap1\n      dup2\n      dup2\n      mstore\n      0x20\n      add\n      dup3\n      dup1\n      sload\n      0x1\n      dup2\n      0x1\n      and\n      iszero\n      0x100\n      mul\n      sub\n      and\n      0x2\n      swap1\n      div\n      dup1\n      iszero\n      tag_315\n      jumpi\n      dup1\n      0x1f\n      lt\n      tag_316\n      jumpi\n      0x100\n      dup1\n      dup4\n      sload\n      div\n      mul\n      dup4\n      mstore\n      swap2\n      0x20\n      add\n      swap2\n      jump(tag_315)\n    tag_316:\n      dup3\n      add\n      swap2\n      swap1\n      0x0\n      mstore\n      keccak256(0x0, 0x20)\n      swap1\n    tag_317:\n      dup2\n      sload\n      dup2\n      mstore\n      swap1\n      0x1\n      add\n      swap1\n      0x20\n      add\n      dup1\n      dup4\n      gt\n      tag_317\n      jumpi\n      dup3\n      swap1\n      sub\n      0x1f\n      and\n      dup3\n      add\n      swap2\n    tag_315:\n      pop\n      pop\n      pop\n      pop\n      pop\n      dup2\n      jump\t// out\n        /* \"proy/pi-markets/smart-contracts/tokens/packable/PiPNFToken.sol\":18366:18534  function _getOwnerNFTCount(... */\n    tag_217:\n        /* \"proy/pi-markets/smart-contracts/tokens/packable/PiPNFToken.sol\":18470:18477  uint256 */\n      0x0\n        /* \"proy/pi-markets/smart-contracts/tokens/packable/PiPNFToken.sol\":18500:18519  ownerToNFTokenCount */\n      0x8\n        /* \"proy/pi-markets/smart-contracts/tokens/packable/PiPNFToken.sol\":18500:18527  ownerToNFTokenCount[_owner] */\n      0x0\n        /* \"proy/pi-markets/smart-contracts/tokens/packable/PiPNFToken.sol\":18520:18526  _owner */\n      dup4\n        /* \"proy/pi-markets/smart-contracts/tokens/packable/PiPNFToken.sol\":18500:18527  ownerToNFTokenCount[_owner] */\n      0xffffffffffffffffffffffffffffffffffffffff\n      and\n      0xffffffffffffffffffffffffffffffffffffffff\n      and\n      dup2\n      mstore\n      0x20\n      add\n      swap1\n      dup2\n      mstore\n      0x20\n      add\n      0x0\n      keccak256\n      sload\n        /* \"proy/pi-markets/smart-contracts/tokens/packable/PiPNFToken.sol\":18493:18527  return ownerToNFTokenCount[_owner] */\n      swap1\n      pop\n        /* \"proy/pi-markets/smart-contracts/tokens/packable/PiPNFToken.sol\":18366:18534  function _getOwnerNFTCount(... */\n      swap2\n      swap1\n      pop\n      jump\t// out\n        /* \"proy/pi-markets/smart-contracts/tokens/packable/PiPNFToken.sol\":18540:18874  function _setJson(uint[5] memory _json, bytes32 _tokenId) internal {... */\n    tag_229:\n        /* \"proy/pi-markets/smart-contracts/tokens/packable/PiPNFToken.sol\":18643:18648  _json */\n      dup2\n        /* \"proy/pi-markets/smart-contracts/tokens/packable/PiPNFToken.sol\":18649:18650  0 */\n      0x0\n        /* \"proy/pi-markets/smart-contracts/tokens/packable/PiPNFToken.sol\":18643:18651  _json[0] */\n      0x5\n      dup2\n      lt\n      iszero\n      iszero\n      tag_320\n      jumpi\n      invalid\n    tag_320:\n      0x20\n      mul\n      add\n      mload\n        /* \"proy/pi-markets/smart-contracts/tokens/packable/PiPNFToken.sol\":18617:18625  idTojson */\n      0xe\n        /* \"proy/pi-markets/smart-contracts/tokens/packable/PiPNFToken.sol\":18617:18635  idTojson[_tokenId] */\n      0x0\n        /* \"proy/pi-markets/smart-contracts/tokens/packable/PiPNFToken.sol\":18626:18634  _tokenId */\n      dup4\n        /* \"proy/pi-markets/smart-contracts/tokens/packable/PiPNFToken.sol\":18617:18635  idTojson[_tokenId] */\n      dup2\n      mstore\n      0x20\n      add\n      swap1\n      dup2\n      mstore\n      0x20\n      add\n      0x0\n      keccak256\n        /* \"proy/pi-markets/smart-contracts/tokens/packable/PiPNFToken.sol\":18617:18640  idTojson[_tokenId].key0 */\n      0x0\n      add\n        /* \"proy/pi-markets/smart-contracts/tokens/packable/PiPNFToken.sol\":18617:18651  idTojson[_tokenId].key0 = _json[0] */\n      dup2\n      swap1\n      sstore\n      pop\n        /* \"proy/pi-markets/smart-contracts/tokens/packable/PiPNFToken.sol\":18687:18692  _json */\n      dup2\n        /* \"proy/pi-markets/smart-contracts/tokens/packable/PiPNFToken.sol\":18693:18694  1 */\n      0x1\n        /* \"proy/pi-markets/smart-contracts/tokens/packable/PiPNFToken.sol\":18687:18695  _json[1] */\n      0x5\n      dup2\n      lt\n      iszero\n      iszero\n      tag_321\n      jumpi\n      invalid\n    tag_321:\n      0x20\n      mul\n      add\n      mload\n        /* \"proy/pi-markets/smart-contracts/tokens/packable/PiPNFToken.sol\":18661:18669  idTojson */\n      0xe\n        /* \"proy/pi-markets/smart-contracts/tokens/packable/PiPNFToken.sol\":18661:18679  idTojson[_tokenId] */\n      0x0\n        /* \"proy/pi-markets/smart-contracts/tokens/packable/PiPNFToken.sol\":18670:18678  _tokenId */\n      dup4\n        /* \"proy/pi-markets/smart-contracts/tokens/packable/PiPNFToken.sol\":18661:18679  idTojson[_tokenId] */\n      dup2\n      mstore\n      0x20\n      add\n      swap1\n      dup2\n      mstore\n      0x20\n      add\n      0x0\n      keccak256\n        /* \"proy/pi-markets/smart-contracts/tokens/packable/PiPNFToken.sol\":18661:18684  idTojson[_tokenId].key1 */\n      0x1\n      add\n        /* \"proy/pi-markets/smart-contracts/tokens/packable/PiPNFToken.sol\":18661:18695  idTojson[_tokenId].key1 = _json[1] */\n      dup2\n      swap1\n      sstore\n      pop\n        /* \"proy/pi-markets/smart-contracts/tokens/packable/PiPNFToken.sol\":18731:18736  _json */\n      dup2\n        /* \"proy/pi-markets/smart-contracts/tokens/packable/PiPNFToken.sol\":18737:18738  2 */\n      0x2\n        /* \"proy/pi-markets/smart-contracts/tokens/packable/PiPNFToken.sol\":18731:18739  _json[2] */\n      0x5\n      dup2\n      lt\n      iszero\n      iszero\n      tag_322\n      jumpi\n      invalid\n    tag_322:\n      0x20\n      mul\n      add\n      mload\n        /* \"proy/pi-markets/smart-contracts/tokens/packable/PiPNFToken.sol\":18705:18713  idTojson */\n      0xe\n        /* \"proy/pi-markets/smart-contracts/tokens/packable/PiPNFToken.sol\":18705:18723  idTojson[_tokenId] */\n      0x0\n        /* \"proy/pi-markets/smart-contracts/tokens/packable/PiPNFToken.sol\":18714:18722  _tokenId */\n      dup4\n        /* \"proy/pi-markets/smart-contracts/tokens/packable/PiPNFToken.sol\":18705:18723  idTojson[_tokenId] */\n      dup2\n      mstore\n      0x20\n      add\n      swap1\n      dup2\n      mstore\n      0x20\n      add\n      0x0\n      keccak256\n        /* \"proy/pi-markets/smart-contracts/tokens/packable/PiPNFToken.sol\":18705:18728  idTojson[_tokenId].key2 */\n      0x2\n      add\n        /* \"proy/pi-markets/smart-contracts/tokens/packable/PiPNFToken.sol\":18705:18739  idTojson[_tokenId].key2 = _json[2] */\n      dup2\n      swap1\n      sstore\n      pop\n        /* \"proy/pi-markets/smart-contracts/tokens/packable/PiPNFToken.sol\":18775:18780  _json */\n      dup2\n        /* \"proy/pi-markets/smart-contracts/tokens/packable/PiPNFToken.sol\":18781:18782  3 */\n      0x3\n        /* \"proy/pi-markets/smart-contracts/tokens/packable/PiPNFToken.sol\":18775:18783  _json[3] */\n      0x5\n      dup2\n      lt\n      iszero\n      iszero\n      tag_323\n      jumpi\n      invalid\n    tag_323:\n      0x20\n      mul\n      add\n      mload\n        /* \"proy/pi-markets/smart-contracts/tokens/packable/PiPNFToken.sol\":18749:18757  idTojson */\n      0xe\n        /* \"proy/pi-markets/smart-contracts/tokens/packable/PiPNFToken.sol\":18749:18767  idTojson[_tokenId] */\n      0x0\n        /* \"proy/pi-markets/smart-contracts/tokens/packable/PiPNFToken.sol\":18758:18766  _tokenId */\n      dup4\n        /* \"proy/pi-markets/smart-contracts/tokens/packable/PiPNFToken.sol\":18749:18767  idTojson[_tokenId] */\n      dup2\n      mstore\n      0x20\n      add\n      swap1\n      dup2\n      mstore\n      0x20\n      add\n      0x0\n      keccak256\n        /* \"proy/pi-markets/smart-contracts/tokens/packable/PiPNFToken.sol\":18749:18772  idTojson[_tokenId].key3 */\n      0x3\n      add\n        /* \"proy/pi-markets/smart-contracts/tokens/packable/PiPNFToken.sol\":18749:18783  idTojson[_tokenId].key3 = _json[3] */\n      dup2\n      swap1\n      sstore\n      pop\n        /* \"proy/pi-markets/smart-contracts/tokens/packable/PiPNFToken.sol\":18819:18824  _json */\n      dup2\n        /* \"proy/pi-markets/smart-contracts/tokens/packable/PiPNFToken.sol\":18825:18826  4 */\n      0x4\n        /* \"proy/pi-markets/smart-contracts/tokens/packable/PiPNFToken.sol\":18819:18827  _json[4] */\n      0x5\n      dup2\n      lt\n      iszero\n      iszero\n      tag_324\n      jumpi\n      invalid\n    tag_324:\n      0x20\n      mul\n      add\n      mload\n        /* \"proy/pi-markets/smart-contracts/tokens/packable/PiPNFToken.sol\":18793:18801  idTojson */\n      0xe\n        /* \"proy/pi-markets/smart-contracts/tokens/packable/PiPNFToken.sol\":18793:18811  idTojson[_tokenId] */\n      0x0\n        /* \"proy/pi-markets/smart-contracts/tokens/packable/PiPNFToken.sol\":18802:18810  _tokenId */\n      dup4\n        /* \"proy/pi-markets/smart-contracts/tokens/packable/PiPNFToken.sol\":18793:18811  idTojson[_tokenId] */\n      dup2\n      mstore\n      0x20\n      add\n      swap1\n      dup2\n      mstore\n      0x20\n      add\n      0x0\n      keccak256\n        /* \"proy/pi-markets/smart-contracts/tokens/packable/PiPNFToken.sol\":18793:18816  idTojson[_tokenId].key4 */\n      0x4\n      add\n        /* \"proy/pi-markets/smart-contracts/tokens/packable/PiPNFToken.sol\":18793:18827  idTojson[_tokenId].key4 = _json[4] */\n      dup2\n      swap1\n      sstore\n      pop\n        /* \"proy/pi-markets/smart-contracts/tokens/packable/PiPNFToken.sol\":18851:18859  _tokenId */\n      dup1\n        /* \"proy/pi-markets/smart-contracts/tokens/packable/PiPNFToken.sol\":18843:18867  NewJson(_tokenId, _json) */\n      0xd6a9d6c14161d8c56723655977d492ba9fa8d695c08f3981bd1462b81480af53\n        /* \"proy/pi-markets/smart-contracts/tokens/packable/PiPNFToken.sol\":18861:18866  _json */\n      dup4\n        /* \"proy/pi-markets/smart-contracts/tokens/packable/PiPNFToken.sol\":18843:18867  NewJson(_tokenId, _json) */\n      mload(0x40)\n      tag_325\n      swap2\n      swap1\n      jump(tag_140)\n    tag_325:\n      mload(0x40)\n      dup1\n      swap2\n      sub\n      swap1\n      log2\n        /* \"proy/pi-markets/smart-contracts/tokens/packable/PiPNFToken.sol\":18540:18874  function _setJson(uint[5] memory _json, bytes32 _tokenId) internal {... */\n      pop\n      pop\n      jump\t// out\n        /* \"proy/pi-markets/smart-contracts/tokens/packable/PiPNFToken.sol\":14857:15246  function _mint(... */\n    tag_231:\n        /* \"proy/pi-markets/smart-contracts/tokens/packable/PiPNFToken.sol\":15004:15005  0 */\n      0x0\n        /* \"proy/pi-markets/smart-contracts/tokens/packable/PiPNFToken.sol\":14989:15006  _to != address(0) */\n      0xffffffffffffffffffffffffffffffffffffffff\n      and\n        /* \"proy/pi-markets/smart-contracts/tokens/packable/PiPNFToken.sol\":14989:14992  _to */\n      dup4\n        /* \"proy/pi-markets/smart-contracts/tokens/packable/PiPNFToken.sol\":14989:15006  _to != address(0) */\n      0xffffffffffffffffffffffffffffffffffffffff\n      and\n      eq\n      iszero\n        /* \"proy/pi-markets/smart-contracts/tokens/packable/PiPNFToken.sol\":14981:15014  require(_to != address(0), \"136\") */\n      iszero\n      iszero\n      tag_327\n      jumpi\n      mload(0x40)\n      0x8c379a000000000000000000000000000000000000000000000000000000000\n      dup2\n      mstore\n      0x4\n      add\n      tag_328\n      swap1\n      jump(tag_329)\n    tag_328:\n      mload(0x40)\n      dup1\n      swap2\n      sub\n      swap1\n      revert\n    tag_327:\n        /* \"proy/pi-markets/smart-contracts/tokens/packable/PiPNFToken.sol\":15024:15042  uint _entireAmount */\n      0x0\n        /* \"proy/pi-markets/smart-contracts/tokens/packable/PiPNFToken.sol\":15045:15078  _amount.div(1 ether).mul(1 ether) */\n      tag_330\n        /* \"proy/pi-markets/smart-contracts/tokens/packable/PiPNFToken.sol\":15070:15077  1 ether */\n      0xde0b6b3a7640000\n        /* \"proy/pi-markets/smart-contracts/tokens/packable/PiPNFToken.sol\":15045:15065  _amount.div(1 ether) */\n      tag_331\n        /* \"proy/pi-markets/smart-contracts/tokens/packable/PiPNFToken.sol\":15057:15064  1 ether */\n      0xde0b6b3a7640000\n        /* \"proy/pi-markets/smart-contracts/tokens/packable/PiPNFToken.sol\":15045:15052  _amount */\n      dup6\n        /* \"proy/pi-markets/smart-contracts/tokens/packable/PiPNFToken.sol\":15045:15056  _amount.div */\n      tag_332\n      swap1\n        /* \"proy/pi-markets/smart-contracts/tokens/packable/PiPNFToken.sol\":15045:15065  _amount.div(1 ether) */\n      swap2\n      swap1\n      0xffffffff\n      and\n      jump\t// in\n    tag_331:\n        /* \"proy/pi-markets/smart-contracts/tokens/packable/PiPNFToken.sol\":15045:15069  _amount.div(1 ether).mul */\n      tag_333\n      swap1\n        /* \"proy/pi-markets/smart-contracts/tokens/packable/PiPNFToken.sol\":15045:15078  _amount.div(1 ether).mul(1 ether) */\n      swap2\n      swap1\n      0xffffffff\n      and\n      jump\t// in\n    tag_330:\n        /* \"proy/pi-markets/smart-contracts/tokens/packable/PiPNFToken.sol\":15024:15078  uint _entireAmount = _amount.div(1 ether).mul(1 ether) */\n      swap1\n      pop\n        /* \"proy/pi-markets/smart-contracts/tokens/packable/PiPNFToken.sol\":15107:15120  _entireAmount */\n      dup1\n        /* \"proy/pi-markets/smart-contracts/tokens/packable/PiPNFToken.sol\":15096:15103  _amount */\n      dup3\n        /* \"proy/pi-markets/smart-contracts/tokens/packable/PiPNFToken.sol\":15096:15120  _amount == _entireAmount */\n      eq\n        /* \"proy/pi-markets/smart-contracts/tokens/packable/PiPNFToken.sol\":15088:15128  require(_amount == _entireAmount, \"137\") */\n      iszero\n      iszero\n      tag_334\n      jumpi\n      mload(0x40)\n      0x8c379a000000000000000000000000000000000000000000000000000000000\n      dup2\n      mstore\n      0x4\n      add\n      tag_335\n      swap1\n      jump(tag_336)\n    tag_335:\n      mload(0x40)\n      dup1\n      swap2\n      sub\n      swap1\n      revert\n    tag_334:\n        /* \"proy/pi-markets/smart-contracts/tokens/packable/PiPNFToken.sol\":15139:15179  _increaseBalance(_to, _tokenId, _amount) */\n      tag_337\n        /* \"proy/pi-markets/smart-contracts/tokens/packable/PiPNFToken.sol\":15156:15159  _to */\n      dup5\n        /* \"proy/pi-markets/smart-contracts/tokens/packable/PiPNFToken.sol\":15161:15169  _tokenId */\n      dup5\n        /* \"proy/pi-markets/smart-contracts/tokens/packable/PiPNFToken.sol\":15171:15178  _amount */\n      dup5\n        /* \"proy/pi-markets/smart-contracts/tokens/packable/PiPNFToken.sol\":15139:15155  _increaseBalance */\n      tag_338\n        /* \"proy/pi-markets/smart-contracts/tokens/packable/PiPNFToken.sol\":15139:15179  _increaseBalance(_to, _tokenId, _amount) */\n      jump\t// in\n    tag_337:\n        /* \"proy/pi-markets/smart-contracts/tokens/packable/PiPNFToken.sol\":15221:15229  _tokenId */\n      dup3\n        /* \"proy/pi-markets/smart-contracts/tokens/packable/PiPNFToken.sol\":15216:15219  _to */\n      dup5\n        /* \"proy/pi-markets/smart-contracts/tokens/packable/PiPNFToken.sol\":15195:15239  Transfer(address(0), _to, _tokenId, _amount) */\n      0xffffffffffffffffffffffffffffffffffffffff\n      and\n        /* \"proy/pi-markets/smart-contracts/tokens/packable/PiPNFToken.sol\":15212:15213  0 */\n      0x0\n        /* \"proy/pi-markets/smart-contracts/tokens/packable/PiPNFToken.sol\":15195:15239  Transfer(address(0), _to, _tokenId, _amount) */\n      0xffffffffffffffffffffffffffffffffffffffff\n      and\n      0x30b1b5fbdedaf2927859653636cb63ab6abd50b621af19a175f1490cb85118a3\n        /* \"proy/pi-markets/smart-contracts/tokens/packable/PiPNFToken.sol\":15231:15238  _amount */\n      dup6\n        /* \"proy/pi-markets/smart-contracts/tokens/packable/PiPNFToken.sol\":15195:15239  Transfer(address(0), _to, _tokenId, _amount) */\n      mload(0x40)\n      tag_339\n      swap2\n      swap1\n      jump(tag_43)\n    tag_339:\n      mload(0x40)\n      dup1\n      swap2\n      sub\n      swap1\n      log4\n        /* \"proy/pi-markets/smart-contracts/tokens/packable/PiPNFToken.sol\":14857:15246  function _mint(... */\n      pop\n      pop\n      pop\n      pop\n      jump\t// out\n        /* \"proy/pi-markets/smart-contracts/tokens/utils/safeMath.sol\":2421:2544  function add(uint256 a, uint256 b) internal pure returns (uint256 c) {... */\n    tag_233:\n        /* \"proy/pi-markets/smart-contracts/tokens/utils/safeMath.sol\":2479:2488  uint256 c */\n      0x0\n        /* \"proy/pi-markets/smart-contracts/tokens/utils/safeMath.sol\":2504:2505  b */\n      dup2\n        /* \"proy/pi-markets/smart-contracts/tokens/utils/safeMath.sol\":2500:2501  a */\n      dup4\n        /* \"proy/pi-markets/smart-contracts/tokens/utils/safeMath.sol\":2500:2505  a + b */\n      add\n        /* \"proy/pi-markets/smart-contracts/tokens/utils/safeMath.sol\":2496:2505  c = a + b */\n      swap1\n      pop\n        /* \"proy/pi-markets/smart-contracts/tokens/utils/safeMath.sol\":2523:2524  a */\n      dup3\n        /* \"proy/pi-markets/smart-contracts/tokens/utils/safeMath.sol\":2518:2519  c */\n      dup2\n        /* \"proy/pi-markets/smart-contracts/tokens/utils/safeMath.sol\":2518:2524  c >= a */\n      lt\n      iszero\n        /* \"proy/pi-markets/smart-contracts/tokens/utils/safeMath.sol\":2511:2525  assert(c >= a) */\n      iszero\n      iszero\n      tag_341\n      jumpi\n      invalid\n    tag_341:\n        /* \"proy/pi-markets/smart-contracts/tokens/utils/safeMath.sol\":2538:2539  c */\n      dup1\n        /* \"proy/pi-markets/smart-contracts/tokens/utils/safeMath.sol\":2531:2539  return c */\n      swap1\n      pop\n        /* \"proy/pi-markets/smart-contracts/tokens/utils/safeMath.sol\":2421:2544  function add(uint256 a, uint256 b) internal pure returns (uint256 c) {... */\n      swap3\n      swap2\n      pop\n      pop\n      jump\t// out\n        /* \"proy/pi-markets/smart-contracts/tokens/packable/PiPNFToken.sol\":15650:16031  function _burn(... */\n    tag_244:\n        /* \"proy/pi-markets/smart-contracts/tokens/packable/PiPNFToken.sol\":15783:15791  _tokenId */\n      dup2\n        /* \"proy/pi-markets/smart-contracts/tokens/packable/PiPNFToken.sol\":2467:2468  0 */\n      0x0\n        /* \"proy/pi-markets/smart-contracts/tokens/packable/PiPNFToken.sol\":2438:2454  supplyByCategory */\n      0xd\n        /* \"proy/pi-markets/smart-contracts/tokens/packable/PiPNFToken.sol\":2438:2464  supplyByCategory[_tokenId] */\n      0x0\n        /* \"proy/pi-markets/smart-contracts/tokens/packable/PiPNFToken.sol\":2455:2463  _tokenId */\n      dup4\n        /* \"proy/pi-markets/smart-contracts/tokens/packable/PiPNFToken.sol\":2438:2464  supplyByCategory[_tokenId] */\n      dup2\n      mstore\n      0x20\n      add\n      swap1\n      dup2\n      mstore\n      0x20\n      add\n      0x0\n      keccak256\n      sload\n        /* \"proy/pi-markets/smart-contracts/tokens/packable/PiPNFToken.sol\":2438:2468  supplyByCategory[_tokenId] > 0 */\n      gt\n        /* \"proy/pi-markets/smart-contracts/tokens/packable/PiPNFToken.sol\":2430:2476  require(supplyByCategory[_tokenId] > 0, \"126\") */\n      iszero\n      iszero\n      tag_343\n      jumpi\n      mload(0x40)\n      0x8c379a000000000000000000000000000000000000000000000000000000000\n      dup2\n      mstore\n      0x4\n      add\n      tag_344\n      swap1\n      jump(tag_205)\n    tag_344:\n      mload(0x40)\n      dup1\n      swap2\n      sub\n      swap1\n      revert\n    tag_343:\n        /* \"proy/pi-markets/smart-contracts/tokens/packable/PiPNFToken.sol\":15807:15825  uint _entireAmount */\n      0x0\n        /* \"proy/pi-markets/smart-contracts/tokens/packable/PiPNFToken.sol\":15828:15861  _amount.div(1 ether).mul(1 ether) */\n      tag_346\n        /* \"proy/pi-markets/smart-contracts/tokens/packable/PiPNFToken.sol\":15853:15860  1 ether */\n      0xde0b6b3a7640000\n        /* \"proy/pi-markets/smart-contracts/tokens/packable/PiPNFToken.sol\":15828:15848  _amount.div(1 ether) */\n      tag_347\n        /* \"proy/pi-markets/smart-contracts/tokens/packable/PiPNFToken.sol\":15840:15847  1 ether */\n      0xde0b6b3a7640000\n        /* \"proy/pi-markets/smart-contracts/tokens/packable/PiPNFToken.sol\":15828:15835  _amount */\n      dup7\n        /* \"proy/pi-markets/smart-contracts/tokens/packable/PiPNFToken.sol\":15828:15839  _amount.div */\n      tag_332\n      swap1\n        /* \"proy/pi-markets/smart-contracts/tokens/packable/PiPNFToken.sol\":15828:15848  _amount.div(1 ether) */\n      swap2\n      swap1\n      0xffffffff\n      and\n      jump\t// in\n    tag_347:\n        /* \"proy/pi-markets/smart-contracts/tokens/packable/PiPNFToken.sol\":15828:15852  _amount.div(1 ether).mul */\n      tag_333\n      swap1\n        /* \"proy/pi-markets/smart-contracts/tokens/packable/PiPNFToken.sol\":15828:15861  _amount.div(1 ether).mul(1 ether) */\n      swap2\n      swap1\n      0xffffffff\n      and\n      jump\t// in\n    tag_346:\n        /* \"proy/pi-markets/smart-contracts/tokens/packable/PiPNFToken.sol\":15807:15861  uint _entireAmount = _amount.div(1 ether).mul(1 ether) */\n      swap1\n      pop\n        /* \"proy/pi-markets/smart-contracts/tokens/packable/PiPNFToken.sol\":15890:15903  _entireAmount */\n      dup1\n        /* \"proy/pi-markets/smart-contracts/tokens/packable/PiPNFToken.sol\":15879:15886  _amount */\n      dup4\n        /* \"proy/pi-markets/smart-contracts/tokens/packable/PiPNFToken.sol\":15879:15903  _amount == _entireAmount */\n      eq\n        /* \"proy/pi-markets/smart-contracts/tokens/packable/PiPNFToken.sol\":15871:15911  require(_amount == _entireAmount, \"138\") */\n      iszero\n      iszero\n      tag_348\n      jumpi\n      mload(0x40)\n      0x8c379a000000000000000000000000000000000000000000000000000000000\n      dup2\n      mstore\n      0x4\n      add\n      tag_349\n      swap1\n      jump(tag_350)\n    tag_349:\n      mload(0x40)\n      dup1\n      swap2\n      sub\n      swap1\n      revert\n    tag_348:\n        /* \"proy/pi-markets/smart-contracts/tokens/packable/PiPNFToken.sol\":15921:15963  _decreaseBalance(_from, _tokenId, _amount) */\n      tag_351\n        /* \"proy/pi-markets/smart-contracts/tokens/packable/PiPNFToken.sol\":15938:15943  _from */\n      dup6\n        /* \"proy/pi-markets/smart-contracts/tokens/packable/PiPNFToken.sol\":15945:15953  _tokenId */\n      dup6\n        /* \"proy/pi-markets/smart-contracts/tokens/packable/PiPNFToken.sol\":15955:15962  _amount */\n      dup6\n        /* \"proy/pi-markets/smart-contracts/tokens/packable/PiPNFToken.sol\":15921:15937  _decreaseBalance */\n      tag_352\n        /* \"proy/pi-markets/smart-contracts/tokens/packable/PiPNFToken.sol\":15921:15963  _decreaseBalance(_from, _tokenId, _amount) */\n      jump\t// in\n    tag_351:\n        /* \"proy/pi-markets/smart-contracts/tokens/packable/PiPNFToken.sol\":16006:16014  _tokenId */\n      dup4\n        /* \"proy/pi-markets/smart-contracts/tokens/packable/PiPNFToken.sol\":16002:16003  0 */\n      0x0\n        /* \"proy/pi-markets/smart-contracts/tokens/packable/PiPNFToken.sol\":15978:16024  Transfer(_from, address(0), _tokenId, _amount) */\n      0xffffffffffffffffffffffffffffffffffffffff\n      and\n        /* \"proy/pi-markets/smart-contracts/tokens/packable/PiPNFToken.sol\":15987:15992  _from */\n      dup7\n        /* \"proy/pi-markets/smart-contracts/tokens/packable/PiPNFToken.sol\":15978:16024  Transfer(_from, address(0), _tokenId, _amount) */\n      0xffffffffffffffffffffffffffffffffffffffff\n      and\n      0x30b1b5fbdedaf2927859653636cb63ab6abd50b621af19a175f1490cb85118a3\n        /* \"proy/pi-markets/smart-contracts/tokens/packable/PiPNFToken.sol\":16016:16023  _amount */\n      dup7\n        /* \"proy/pi-markets/smart-contracts/tokens/packable/PiPNFToken.sol\":15978:16024  Transfer(_from, address(0), _tokenId, _amount) */\n      mload(0x40)\n      tag_353\n      swap2\n      swap1\n      jump(tag_43)\n    tag_353:\n      mload(0x40)\n      dup1\n      swap2\n      sub\n      swap1\n      log4\n        /* \"proy/pi-markets/smart-contracts/tokens/packable/PiPNFToken.sol\":2486:2487  _ */\n      pop\n        /* \"proy/pi-markets/smart-contracts/tokens/packable/PiPNFToken.sol\":15650:16031  function _burn(... */\n      pop\n      pop\n      pop\n      pop\n      jump\t// out\n        /* \"proy/pi-markets/smart-contracts/tokens/utils/safeMath.sol\":2026:2136  function sub(uint256 a, uint256 b) internal pure returns (uint256) {... */\n    tag_246:\n        /* \"proy/pi-markets/smart-contracts/tokens/utils/safeMath.sol\":2084:2091  uint256 */\n      0x0\n        /* \"proy/pi-markets/smart-contracts/tokens/utils/safeMath.sol\":2111:2112  a */\n      dup3\n        /* \"proy/pi-markets/smart-contracts/tokens/utils/safeMath.sol\":2106:2107  b */\n      dup3\n        /* \"proy/pi-markets/smart-contracts/tokens/utils/safeMath.sol\":2106:2112  b <= a */\n      gt\n      iszero\n        /* \"proy/pi-markets/smart-contracts/tokens/utils/safeMath.sol\":2099:2113  assert(b <= a) */\n      iszero\n      iszero\n      tag_355\n      jumpi\n      invalid\n    tag_355:\n        /* \"proy/pi-markets/smart-contracts/tokens/utils/safeMath.sol\":2130:2131  b */\n      dup2\n        /* \"proy/pi-markets/smart-contracts/tokens/utils/safeMath.sol\":2126:2127  a */\n      dup4\n        /* \"proy/pi-markets/smart-contracts/tokens/utils/safeMath.sol\":2126:2131  a - b */\n      sub\n        /* \"proy/pi-markets/smart-contracts/tokens/utils/safeMath.sol\":2119:2131  return a - b */\n      swap1\n      pop\n        /* \"proy/pi-markets/smart-contracts/tokens/utils/safeMath.sol\":2026:2136  function sub(uint256 a, uint256 b) internal pure returns (uint256) {... */\n      swap3\n      swap2\n      pop\n      pop\n      jump\t// out\n        /* \"proy/pi-markets/smart-contracts/tokens/packable/PiPNFToken.sol\":13949:14465  function _transfer(... */\n    tag_271:\n        /* \"proy/pi-markets/smart-contracts/tokens/packable/PiPNFToken.sol\":14104:14123  isExpired(_tokenId) */\n      tag_357\n        /* \"proy/pi-markets/smart-contracts/tokens/packable/PiPNFToken.sol\":14114:14122  _tokenId */\n      dup3\n        /* \"proy/pi-markets/smart-contracts/tokens/packable/PiPNFToken.sol\":14104:14113  isExpired */\n      tag_94\n        /* \"proy/pi-markets/smart-contracts/tokens/packable/PiPNFToken.sol\":14104:14123  isExpired(_tokenId) */\n      jump\t// in\n    tag_357:\n        /* \"proy/pi-markets/smart-contracts/tokens/packable/PiPNFToken.sol\":14100:14161  if (isExpired(_tokenId)) {... */\n      iszero\n      tag_358\n      jumpi\n        /* \"proy/pi-markets/smart-contracts/tokens/packable/PiPNFToken.sol\":14145:14150  owner */\n      0x0\n      dup1\n      swap1\n      sload\n      swap1\n      0x100\n      exp\n      swap1\n      div\n      0xffffffffffffffffffffffffffffffffffffffff\n      and\n        /* \"proy/pi-markets/smart-contracts/tokens/packable/PiPNFToken.sol\":14139:14150  _to = owner */\n      swap3\n      pop\n        /* \"proy/pi-markets/smart-contracts/tokens/packable/PiPNFToken.sol\":14100:14161  if (isExpired(_tokenId)) {... */\n    tag_358:\n        /* \"proy/pi-markets/smart-contracts/tokens/packable/PiPNFToken.sol\":14179:14197  uint _entireAmount */\n      0x0\n        /* \"proy/pi-markets/smart-contracts/tokens/packable/PiPNFToken.sol\":14200:14233  _amount.div(1 ether).mul(1 ether) */\n      tag_359\n        /* \"proy/pi-markets/smart-contracts/tokens/packable/PiPNFToken.sol\":14225:14232  1 ether */\n      0xde0b6b3a7640000\n        /* \"proy/pi-markets/smart-contracts/tokens/packable/PiPNFToken.sol\":14200:14220  _amount.div(1 ether) */\n      tag_360\n        /* \"proy/pi-markets/smart-contracts/tokens/packable/PiPNFToken.sol\":14212:14219  1 ether */\n      0xde0b6b3a7640000\n        /* \"proy/pi-markets/smart-contracts/tokens/packable/PiPNFToken.sol\":14200:14207  _amount */\n      dup6\n        /* \"proy/pi-markets/smart-contracts/tokens/packable/PiPNFToken.sol\":14200:14211  _amount.div */\n      tag_332\n      swap1\n        /* \"proy/pi-markets/smart-contracts/tokens/packable/PiPNFToken.sol\":14200:14220  _amount.div(1 ether) */\n      swap2\n      swap1\n      0xffffffff\n      and\n      jump\t// in\n    tag_360:\n        /* \"proy/pi-markets/smart-contracts/tokens/packable/PiPNFToken.sol\":14200:14224  _amount.div(1 ether).mul */\n      tag_333\n      swap1\n        /* \"proy/pi-markets/smart-contracts/tokens/packable/PiPNFToken.sol\":14200:14233  _amount.div(1 ether).mul(1 ether) */\n      swap2\n      swap1\n      0xffffffff\n      and\n      jump\t// in\n    tag_359:\n        /* \"proy/pi-markets/smart-contracts/tokens/packable/PiPNFToken.sol\":14179:14233  uint _entireAmount = _amount.div(1 ether).mul(1 ether) */\n      swap1\n      pop\n        /* \"proy/pi-markets/smart-contracts/tokens/packable/PiPNFToken.sol\":14262:14275  _entireAmount */\n      dup1\n        /* \"proy/pi-markets/smart-contracts/tokens/packable/PiPNFToken.sol\":14251:14258  _amount */\n      dup3\n        /* \"proy/pi-markets/smart-contracts/tokens/packable/PiPNFToken.sol\":14251:14275  _amount == _entireAmount */\n      eq\n        /* \"proy/pi-markets/smart-contracts/tokens/packable/PiPNFToken.sol\":14243:14283  require(_amount == _entireAmount, \"135\") */\n      iszero\n      iszero\n      tag_361\n      jumpi\n      mload(0x40)\n      0x8c379a000000000000000000000000000000000000000000000000000000000\n      dup2\n      mstore\n      0x4\n      add\n      tag_362\n      swap1\n      jump(tag_363)\n    tag_362:\n      mload(0x40)\n      dup1\n      swap2\n      sub\n      swap1\n      revert\n    tag_361:\n        /* \"proy/pi-markets/smart-contracts/tokens/packable/PiPNFToken.sol\":14293:14341  _decreaseBalance(_from, _tokenId, _entireAmount) */\n      tag_364\n        /* \"proy/pi-markets/smart-contracts/tokens/packable/PiPNFToken.sol\":14310:14315  _from */\n      dup6\n        /* \"proy/pi-markets/smart-contracts/tokens/packable/PiPNFToken.sol\":14317:14325  _tokenId */\n      dup5\n        /* \"proy/pi-markets/smart-contracts/tokens/packable/PiPNFToken.sol\":14327:14340  _entireAmount */\n      dup4\n        /* \"proy/pi-markets/smart-contracts/tokens/packable/PiPNFToken.sol\":14293:14309  _decreaseBalance */\n      tag_352\n        /* \"proy/pi-markets/smart-contracts/tokens/packable/PiPNFToken.sol\":14293:14341  _decreaseBalance(_from, _tokenId, _entireAmount) */\n      jump\t// in\n    tag_364:\n        /* \"proy/pi-markets/smart-contracts/tokens/packable/PiPNFToken.sol\":14351:14397  _increaseBalance(_to, _tokenId, _entireAmount) */\n      tag_365\n        /* \"proy/pi-markets/smart-contracts/tokens/packable/PiPNFToken.sol\":14368:14371  _to */\n      dup5\n        /* \"proy/pi-markets/smart-contracts/tokens/packable/PiPNFToken.sol\":14373:14381  _tokenId */\n      dup5\n        /* \"proy/pi-markets/smart-contracts/tokens/packable/PiPNFToken.sol\":14383:14396  _entireAmount */\n      dup4\n        /* \"proy/pi-markets/smart-contracts/tokens/packable/PiPNFToken.sol\":14351:14367  _increaseBalance */\n      tag_338\n        /* \"proy/pi-markets/smart-contracts/tokens/packable/PiPNFToken.sol\":14351:14397  _increaseBalance(_to, _tokenId, _entireAmount) */\n      jump\t// in\n    tag_365:\n        /* \"proy/pi-markets/smart-contracts/tokens/packable/PiPNFToken.sol\":14434:14442  _tokenId */\n      dup3\n        /* \"proy/pi-markets/smart-contracts/tokens/packable/PiPNFToken.sol\":14429:14432  _to */\n      dup5\n        /* \"proy/pi-markets/smart-contracts/tokens/packable/PiPNFToken.sol\":14413:14458  Transfer(_from, _to, _tokenId, _entireAmount) */\n      0xffffffffffffffffffffffffffffffffffffffff\n      and\n        /* \"proy/pi-markets/smart-contracts/tokens/packable/PiPNFToken.sol\":14422:14427  _from */\n      dup7\n        /* \"proy/pi-markets/smart-contracts/tokens/packable/PiPNFToken.sol\":14413:14458  Transfer(_from, _to, _tokenId, _entireAmount) */\n      0xffffffffffffffffffffffffffffffffffffffff\n      and\n      0x30b1b5fbdedaf2927859653636cb63ab6abd50b621af19a175f1490cb85118a3\n        /* \"proy/pi-markets/smart-contracts/tokens/packable/PiPNFToken.sol\":14444:14457  _entireAmount */\n      dup5\n        /* \"proy/pi-markets/smart-contracts/tokens/packable/PiPNFToken.sol\":14413:14458  Transfer(_from, _to, _tokenId, _entireAmount) */\n      mload(0x40)\n      tag_366\n      swap2\n      swap1\n      jump(tag_43)\n    tag_366:\n      mload(0x40)\n      dup1\n      swap2\n      sub\n      swap1\n      log4\n        /* \"proy/pi-markets/smart-contracts/tokens/packable/PiPNFToken.sol\":13949:14465  function _transfer(... */\n      pop\n      pop\n      pop\n      pop\n      pop\n      jump\t// out\n        /* \"proy/pi-markets/smart-contracts/tokens/packable/PiPNFToken.sol\":13084:13757  function _safeTransferFrom(... */\n    tag_305:\n        /* \"proy/pi-markets/smart-contracts/tokens/packable/PiPNFToken.sol\":13277:13285  _tokenId */\n      dup3\n        /* \"proy/pi-markets/smart-contracts/tokens/packable/PiPNFToken.sol\":2467:2468  0 */\n      0x0\n        /* \"proy/pi-markets/smart-contracts/tokens/packable/PiPNFToken.sol\":2438:2454  supplyByCategory */\n      0xd\n        /* \"proy/pi-markets/smart-contracts/tokens/packable/PiPNFToken.sol\":2438:2464  supplyByCategory[_tokenId] */\n      0x0\n        /* \"proy/pi-markets/smart-contracts/tokens/packable/PiPNFToken.sol\":2455:2463  _tokenId */\n      dup4\n        /* \"proy/pi-markets/smart-contracts/tokens/packable/PiPNFToken.sol\":2438:2464  supplyByCategory[_tokenId] */\n      dup2\n      mstore\n      0x20\n      add\n      swap1\n      dup2\n      mstore\n      0x20\n      add\n      0x0\n      keccak256\n      sload\n        /* \"proy/pi-markets/smart-contracts/tokens/packable/PiPNFToken.sol\":2438:2468  supplyByCategory[_tokenId] > 0 */\n      gt\n        /* \"proy/pi-markets/smart-contracts/tokens/packable/PiPNFToken.sol\":2430:2476  require(supplyByCategory[_tokenId] > 0, \"126\") */\n      iszero\n      iszero\n      tag_368\n      jumpi\n      mload(0x40)\n      0x8c379a000000000000000000000000000000000000000000000000000000000\n      dup2\n      mstore\n      0x4\n      add\n      tag_369\n      swap1\n      jump(tag_205)\n    tag_369:\n      mload(0x40)\n      dup1\n      swap2\n      sub\n      swap1\n      revert\n    tag_368:\n        /* \"proy/pi-markets/smart-contracts/tokens/packable/PiPNFToken.sol\":13338:13345  _amount */\n      dup3\n        /* \"proy/pi-markets/smart-contracts/tokens/packable/PiPNFToken.sol\":13309:13317  balances */\n      0xc\n        /* \"proy/pi-markets/smart-contracts/tokens/packable/PiPNFToken.sol\":13309:13324  balances[_from] */\n      0x0\n        /* \"proy/pi-markets/smart-contracts/tokens/packable/PiPNFToken.sol\":13318:13323  _from */\n      dup9\n        /* \"proy/pi-markets/smart-contracts/tokens/packable/PiPNFToken.sol\":13309:13324  balances[_from] */\n      0xffffffffffffffffffffffffffffffffffffffff\n      and\n      0xffffffffffffffffffffffffffffffffffffffff\n      and\n      dup2\n      mstore\n      0x20\n      add\n      swap1\n      dup2\n      mstore\n      0x20\n      add\n      0x0\n      keccak256\n        /* \"proy/pi-markets/smart-contracts/tokens/packable/PiPNFToken.sol\":13309:13334  balances[_from][_tokenId] */\n      0x0\n        /* \"proy/pi-markets/smart-contracts/tokens/packable/PiPNFToken.sol\":13325:13333  _tokenId */\n      dup7\n        /* \"proy/pi-markets/smart-contracts/tokens/packable/PiPNFToken.sol\":13309:13334  balances[_from][_tokenId] */\n      dup2\n      mstore\n      0x20\n      add\n      swap1\n      dup2\n      mstore\n      0x20\n      add\n      0x0\n      keccak256\n      sload\n        /* \"proy/pi-markets/smart-contracts/tokens/packable/PiPNFToken.sol\":13309:13345  balances[_from][_tokenId] >= _amount */\n      lt\n      iszero\n        /* \"proy/pi-markets/smart-contracts/tokens/packable/PiPNFToken.sol\":13301:13353  require(balances[_from][_tokenId] >= _amount, \"132\") */\n      iszero\n      iszero\n      tag_371\n      jumpi\n      mload(0x40)\n      0x8c379a000000000000000000000000000000000000000000000000000000000\n      dup2\n      mstore\n      0x4\n      add\n      tag_372\n      swap1\n      jump(tag_373)\n    tag_372:\n      mload(0x40)\n      dup1\n      swap2\n      sub\n      swap1\n      revert\n    tag_371:\n        /* \"proy/pi-markets/smart-contracts/tokens/packable/PiPNFToken.sol\":13386:13387  0 */\n      0x0\n        /* \"proy/pi-markets/smart-contracts/tokens/packable/PiPNFToken.sol\":13371:13388  _to != address(0) */\n      0xffffffffffffffffffffffffffffffffffffffff\n      and\n        /* \"proy/pi-markets/smart-contracts/tokens/packable/PiPNFToken.sol\":13371:13374  _to */\n      dup6\n        /* \"proy/pi-markets/smart-contracts/tokens/packable/PiPNFToken.sol\":13371:13388  _to != address(0) */\n      0xffffffffffffffffffffffffffffffffffffffff\n      and\n      eq\n      iszero\n        /* \"proy/pi-markets/smart-contracts/tokens/packable/PiPNFToken.sol\":13363:13396  require(_to != address(0), \"133\") */\n      iszero\n      iszero\n      tag_374\n      jumpi\n      mload(0x40)\n      0x8c379a000000000000000000000000000000000000000000000000000000000\n      dup2\n      mstore\n      0x4\n      add\n      tag_375\n      swap1\n      jump(tag_376)\n    tag_375:\n      mload(0x40)\n      dup1\n      swap2\n      sub\n      swap1\n      revert\n    tag_374:\n        /* \"proy/pi-markets/smart-contracts/tokens/packable/PiPNFToken.sol\":13419:13438  isExpired(_tokenId) */\n      tag_377\n        /* \"proy/pi-markets/smart-contracts/tokens/packable/PiPNFToken.sol\":13429:13437  _tokenId */\n      dup5\n        /* \"proy/pi-markets/smart-contracts/tokens/packable/PiPNFToken.sol\":13419:13428  isExpired */\n      tag_94\n        /* \"proy/pi-markets/smart-contracts/tokens/packable/PiPNFToken.sol\":13419:13438  isExpired(_tokenId) */\n      jump\t// in\n    tag_377:\n        /* \"proy/pi-markets/smart-contracts/tokens/packable/PiPNFToken.sol\":13415:13476  if (isExpired(_tokenId)) {... */\n      iszero\n      tag_378\n      jumpi\n        /* \"proy/pi-markets/smart-contracts/tokens/packable/PiPNFToken.sol\":13460:13465  owner */\n      0x0\n      dup1\n      swap1\n      sload\n      swap1\n      0x100\n      exp\n      swap1\n      div\n      0xffffffffffffffffffffffffffffffffffffffff\n      and\n        /* \"proy/pi-markets/smart-contracts/tokens/packable/PiPNFToken.sol\":13454:13465  _to = owner */\n      swap5\n      pop\n        /* \"proy/pi-markets/smart-contracts/tokens/packable/PiPNFToken.sol\":13415:13476  if (isExpired(_tokenId)) {... */\n    tag_378:\n        /* \"proy/pi-markets/smart-contracts/tokens/packable/PiPNFToken.sol\":13486:13526  _transfer(_from, _to, _tokenId, _amount) */\n      tag_379\n        /* \"proy/pi-markets/smart-contracts/tokens/packable/PiPNFToken.sol\":13496:13501  _from */\n      dup7\n        /* \"proy/pi-markets/smart-contracts/tokens/packable/PiPNFToken.sol\":13503:13506  _to */\n      dup7\n        /* \"proy/pi-markets/smart-contracts/tokens/packable/PiPNFToken.sol\":13508:13516  _tokenId */\n      dup7\n        /* \"proy/pi-markets/smart-contracts/tokens/packable/PiPNFToken.sol\":13518:13525  _amount */\n      dup7\n        /* \"proy/pi-markets/smart-contracts/tokens/packable/PiPNFToken.sol\":13486:13495  _transfer */\n      tag_271\n        /* \"proy/pi-markets/smart-contracts/tokens/packable/PiPNFToken.sol\":13486:13526  _transfer(_from, _to, _tokenId, _amount) */\n      jump\t// in\n    tag_379:\n        /* \"proy/pi-markets/smart-contracts/tokens/packable/PiPNFToken.sol\":13541:13557  _to.isContract() */\n      tag_380\n        /* \"proy/pi-markets/smart-contracts/tokens/packable/PiPNFToken.sol\":13541:13544  _to */\n      dup6\n        /* \"proy/pi-markets/smart-contracts/tokens/packable/PiPNFToken.sol\":13541:13555  _to.isContract */\n      0xffffffffffffffffffffffffffffffffffffffff\n      and\n      tag_381\n        /* \"proy/pi-markets/smart-contracts/tokens/packable/PiPNFToken.sol\":13541:13557  _to.isContract() */\n      jump\t// in\n    tag_380:\n        /* \"proy/pi-markets/smart-contracts/tokens/packable/PiPNFToken.sol\":13537:13751  if (_to.isContract())... */\n      iszero\n      tag_382\n      jumpi\n        /* \"proy/pi-markets/smart-contracts/tokens/packable/PiPNFToken.sol\":13581:13594  bytes4 retval */\n      0x0\n        /* \"proy/pi-markets/smart-contracts/tokens/packable/PiPNFToken.sol\":13614:13617  _to */\n      dup6\n        /* \"proy/pi-markets/smart-contracts/tokens/packable/PiPNFToken.sol\":13597:13633  PNFTokenReceiver(_to).onPNFTReceived */\n      0xffffffffffffffffffffffffffffffffffffffff\n      and\n      0x82cf5afa\n        /* \"proy/pi-markets/smart-contracts/tokens/packable/PiPNFToken.sol\":13634:13644  msg.sender */\n      caller\n        /* \"proy/pi-markets/smart-contracts/tokens/packable/PiPNFToken.sol\":13646:13651  _from */\n      dup10\n        /* \"proy/pi-markets/smart-contracts/tokens/packable/PiPNFToken.sol\":13653:13661  _tokenId */\n      dup9\n        /* \"proy/pi-markets/smart-contracts/tokens/packable/PiPNFToken.sol\":13663:13670  _amount */\n      dup9\n        /* \"proy/pi-markets/smart-contracts/tokens/packable/PiPNFToken.sol\":13672:13677  _data */\n      dup9\n        /* \"proy/pi-markets/smart-contracts/tokens/packable/PiPNFToken.sol\":13597:13678  PNFTokenReceiver(_to).onPNFTReceived(msg.sender, _from, _tokenId, _amount, _data) */\n      mload(0x40)\n      dup7\n      0xffffffff\n      and\n      0x100000000000000000000000000000000000000000000000000000000\n      mul\n      dup2\n      mstore\n      0x4\n      add\n      tag_383\n      swap6\n      swap5\n      swap4\n      swap3\n      swap2\n      swap1\n      jump(tag_384)\n    tag_383:\n      0x20\n      mload(0x40)\n      dup1\n      dup4\n      sub\n      dup2\n      0x0\n      dup8\n      dup1\n      extcodesize\n      iszero\n        /* \"--CODEGEN--\":8:17   */\n      dup1\n        /* \"--CODEGEN--\":5:7   */\n      iszero\n      tag_385\n      jumpi\n        /* \"--CODEGEN--\":30:31   */\n      0x0\n        /* \"--CODEGEN--\":27:28   */\n      dup1\n        /* \"--CODEGEN--\":20:32   */\n      revert\n        /* \"--CODEGEN--\":5:7   */\n    tag_385:\n        /* \"proy/pi-markets/smart-contracts/tokens/packable/PiPNFToken.sol\":13597:13678  PNFTokenReceiver(_to).onPNFTReceived(msg.sender, _from, _tokenId, _amount, _data) */\n      pop\n      gas\n      call\n      iszero\n        /* \"--CODEGEN--\":8:17   */\n      dup1\n        /* \"--CODEGEN--\":5:7   */\n      iszero\n      tag_386\n      jumpi\n        /* \"--CODEGEN--\":45:61   */\n      returndatasize\n        /* \"--CODEGEN--\":42:43   */\n      0x0\n        /* \"--CODEGEN--\":39:40   */\n      dup1\n        /* \"--CODEGEN--\":24:62   */\n      returndatacopy\n        /* \"--CODEGEN--\":77:93   */\n      returndatasize\n        /* \"--CODEGEN--\":74:75   */\n      0x0\n        /* \"--CODEGEN--\":67:94   */\n      revert\n        /* \"--CODEGEN--\":5:7   */\n    tag_386:\n        /* \"proy/pi-markets/smart-contracts/tokens/packable/PiPNFToken.sol\":13597:13678  PNFTokenReceiver(_to).onPNFTReceived(msg.sender, _from, _tokenId, _amount, _data) */\n      pop\n      pop\n      pop\n      pop\n      mload(0x40)\n      returndatasize\n        /* \"--CODEGEN--\":101:105   */\n      0x1f\n        /* \"--CODEGEN--\":97:106   */\n      not\n        /* \"--CODEGEN--\":90:94   */\n      0x1f\n        /* \"--CODEGEN--\":84:88   */\n      dup3\n        /* \"--CODEGEN--\":80:95   */\n      add\n        /* \"--CODEGEN--\":76:107   */\n      and\n        /* \"--CODEGEN--\":69:74   */\n      dup3\n        /* \"--CODEGEN--\":65:108   */\n      add\n        /* \"--CODEGEN--\":126:132   */\n      dup1\n        /* \"--CODEGEN--\":120:124   */\n      0x40\n        /* \"--CODEGEN--\":113:133   */\n      mstore\n        /* \"--CODEGEN--\":0:138   */\n      pop\n        /* \"proy/pi-markets/smart-contracts/tokens/packable/PiPNFToken.sol\":13597:13678  PNFTokenReceiver(_to).onPNFTReceived(msg.sender, _from, _tokenId, _amount, _data) */\n      tag_387\n      swap2\n      swap1\n      dup2\n      add\n      swap1\n      jump(tag_388)\n    tag_387:\n        /* \"proy/pi-markets/smart-contracts/tokens/packable/PiPNFToken.sol\":13581:13678  bytes4 retval = PNFTokenReceiver(_to).onPNFTReceived(msg.sender, _from, _tokenId, _amount, _data) */\n      swap1\n      pop\n        /* \"proy/pi-markets/smart-contracts/tokens/packable/PiPNFToken.sol\":885:895  0x82cf5afa */\n      0x82cf5afa\n        /* \"proy/pi-markets/smart-contracts/tokens/packable/PiPNFToken.sol\":13710:13732  MAGIC_ON_PNFT_RECEIVED */\n      0x100000000000000000000000000000000000000000000000000000000\n      mul\n        /* \"proy/pi-markets/smart-contracts/tokens/packable/PiPNFToken.sol\":13700:13732  retval == MAGIC_ON_PNFT_RECEIVED */\n      not(0xffffffffffffffffffffffffffffffffffffffffffffffffffffffff)\n      and\n        /* \"proy/pi-markets/smart-contracts/tokens/packable/PiPNFToken.sol\":13700:13706  retval */\n      dup2\n        /* \"proy/pi-markets/smart-contracts/tokens/packable/PiPNFToken.sol\":13700:13732  retval == MAGIC_ON_PNFT_RECEIVED */\n      not(0xffffffffffffffffffffffffffffffffffffffffffffffffffffffff)\n      and\n      eq\n        /* \"proy/pi-markets/smart-contracts/tokens/packable/PiPNFToken.sol\":13692:13740  require(retval == MAGIC_ON_PNFT_RECEIVED, \"134\") */\n      iszero\n      iszero\n      tag_389\n      jumpi\n      mload(0x40)\n      0x8c379a000000000000000000000000000000000000000000000000000000000\n      dup2\n      mstore\n      0x4\n      add\n      tag_390\n      swap1\n      jump(tag_391)\n    tag_390:\n      mload(0x40)\n      dup1\n      swap2\n      sub\n      swap1\n      revert\n    tag_389:\n        /* \"proy/pi-markets/smart-contracts/tokens/packable/PiPNFToken.sol\":13537:13751  if (_to.isContract())... */\n      pop\n    tag_382:\n        /* \"proy/pi-markets/smart-contracts/tokens/packable/PiPNFToken.sol\":13084:13757  function _safeTransferFrom(... */\n      pop\n      pop\n      pop\n      pop\n      pop\n      pop\n      jump\t// out\n        /* \"proy/pi-markets/smart-contracts/tokens/utils/safeMath.sol\":1259:1531  function div(uint256 a, uint256 b) internal pure returns (uint256) {... */\n    tag_332:\n        /* \"proy/pi-markets/smart-contracts/tokens/utils/safeMath.sol\":1317:1324  uint256 */\n      0x0\n        /* \"proy/pi-markets/smart-contracts/tokens/utils/safeMath.sol\":1525:1526  b */\n      dup2\n        /* \"proy/pi-markets/smart-contracts/tokens/utils/safeMath.sol\":1521:1522  a */\n      dup4\n        /* \"proy/pi-markets/smart-contracts/tokens/utils/safeMath.sol\":1521:1526  a / b */\n      dup2\n      iszero\n      iszero\n      tag_393\n      jumpi\n      invalid\n    tag_393:\n      div\n        /* \"proy/pi-markets/smart-contracts/tokens/utils/safeMath.sol\":1514:1526  return a / b */\n      swap1\n      pop\n        /* \"proy/pi-markets/smart-contracts/tokens/utils/safeMath.sol\":1259:1531  function div(uint256 a, uint256 b) internal pure returns (uint256) {... */\n      swap3\n      swap2\n      pop\n      pop\n      jump\t// out\n        /* \"proy/pi-markets/smart-contracts/tokens/utils/safeMath.sol\":331:704  function mul(uint256 a, uint256 b) internal pure returns (uint256 c) {... */\n    tag_333:\n        /* \"proy/pi-markets/smart-contracts/tokens/utils/safeMath.sol\":389:398  uint256 c */\n      0x0\n        /* \"proy/pi-markets/smart-contracts/tokens/utils/safeMath.sol\":620:621  0 */\n      dup1\n        /* \"proy/pi-markets/smart-contracts/tokens/utils/safeMath.sol\":615:616  a */\n      dup4\n        /* \"proy/pi-markets/smart-contracts/tokens/utils/safeMath.sol\":615:621  a == 0 */\n      eq\n        /* \"proy/pi-markets/smart-contracts/tokens/utils/safeMath.sol\":611:646  if (a == 0) {... */\n      iszero\n      tag_395\n      jumpi\n        /* \"proy/pi-markets/smart-contracts/tokens/utils/safeMath.sol\":638:639  0 */\n      0x0\n        /* \"proy/pi-markets/smart-contracts/tokens/utils/safeMath.sol\":631:639  return 0 */\n      swap1\n      pop\n      jump(tag_394)\n        /* \"proy/pi-markets/smart-contracts/tokens/utils/safeMath.sol\":611:646  if (a == 0) {... */\n    tag_395:\n        /* \"proy/pi-markets/smart-contracts/tokens/utils/safeMath.sol\":660:661  b */\n      dup2\n        /* \"proy/pi-markets/smart-contracts/tokens/utils/safeMath.sol\":656:657  a */\n      dup4\n        /* \"proy/pi-markets/smart-contracts/tokens/utils/safeMath.sol\":656:661  a * b */\n      mul\n        /* \"proy/pi-markets/smart-contracts/tokens/utils/safeMath.sol\":652:661  c = a * b */\n      swap1\n      pop\n        /* \"proy/pi-markets/smart-contracts/tokens/utils/safeMath.sol\":683:684  b */\n      dup2\n        /* \"proy/pi-markets/smart-contracts/tokens/utils/safeMath.sol\":678:679  a */\n      dup4\n        /* \"proy/pi-markets/smart-contracts/tokens/utils/safeMath.sol\":674:675  c */\n      dup3\n        /* \"proy/pi-markets/smart-contracts/tokens/utils/safeMath.sol\":674:679  c / a */\n      dup2\n      iszero\n      iszero\n      tag_396\n      jumpi\n      invalid\n    tag_396:\n      div\n        /* \"proy/pi-markets/smart-contracts/tokens/utils/safeMath.sol\":674:684  c / a == b */\n      eq\n        /* \"proy/pi-markets/smart-contracts/tokens/utils/safeMath.sol\":667:685  assert(c / a == b) */\n      iszero\n      iszero\n      tag_397\n      jumpi\n      invalid\n    tag_397:\n        /* \"proy/pi-markets/smart-contracts/tokens/utils/safeMath.sol\":698:699  c */\n      dup1\n        /* \"proy/pi-markets/smart-contracts/tokens/utils/safeMath.sol\":691:699  return c */\n      swap1\n      pop\n        /* \"proy/pi-markets/smart-contracts/tokens/utils/safeMath.sol\":331:704  function mul(uint256 a, uint256 b) internal pure returns (uint256 c) {... */\n    tag_394:\n      swap3\n      swap2\n      pop\n      pop\n      jump\t// out\n        /* \"proy/pi-markets/smart-contracts/tokens/packable/PiPNFToken.sol\":16037:16298  function _increaseBalance(address _who, bytes32 _tokenId, uint256 _amount) private {... */\n    tag_338:\n        /* \"proy/pi-markets/smart-contracts/tokens/packable/PiPNFToken.sol\":16162:16163  0 */\n      0x0\n        /* \"proy/pi-markets/smart-contracts/tokens/packable/PiPNFToken.sol\":16134:16142  balances */\n      0xc\n        /* \"proy/pi-markets/smart-contracts/tokens/packable/PiPNFToken.sol\":16134:16148  balances[_who] */\n      0x0\n        /* \"proy/pi-markets/smart-contracts/tokens/packable/PiPNFToken.sol\":16143:16147  _who */\n      dup6\n        /* \"proy/pi-markets/smart-contracts/tokens/packable/PiPNFToken.sol\":16134:16148  balances[_who] */\n      0xffffffffffffffffffffffffffffffffffffffff\n      and\n      0xffffffffffffffffffffffffffffffffffffffff\n      and\n      dup2\n      mstore\n      0x20\n      add\n      swap1\n      dup2\n      mstore\n      0x20\n      add\n      0x0\n      keccak256\n        /* \"proy/pi-markets/smart-contracts/tokens/packable/PiPNFToken.sol\":16134:16158  balances[_who][_tokenId] */\n      0x0\n        /* \"proy/pi-markets/smart-contracts/tokens/packable/PiPNFToken.sol\":16149:16157  _tokenId */\n      dup5\n        /* \"proy/pi-markets/smart-contracts/tokens/packable/PiPNFToken.sol\":16134:16158  balances[_who][_tokenId] */\n      dup2\n      mstore\n      0x20\n      add\n      swap1\n      dup2\n      mstore\n      0x20\n      add\n      0x0\n      keccak256\n      sload\n        /* \"proy/pi-markets/smart-contracts/tokens/packable/PiPNFToken.sol\":16134:16163  balances[_who][_tokenId] == 0 */\n      eq\n        /* \"proy/pi-markets/smart-contracts/tokens/packable/PiPNFToken.sol\":16130:16217  if (balances[_who][_tokenId] == 0) {... */\n      iszero\n      tag_399\n      jumpi\n        /* \"proy/pi-markets/smart-contracts/tokens/packable/PiPNFToken.sol\":16179:16206  _addNFToken(_who, _tokenId) */\n      tag_400\n        /* \"proy/pi-markets/smart-contracts/tokens/packable/PiPNFToken.sol\":16191:16195  _who */\n      dup4\n        /* \"proy/pi-markets/smart-contracts/tokens/packable/PiPNFToken.sol\":16197:16205  _tokenId */\n      dup4\n        /* \"proy/pi-markets/smart-contracts/tokens/packable/PiPNFToken.sol\":16179:16190  _addNFToken */\n      tag_401\n        /* \"proy/pi-markets/smart-contracts/tokens/packable/PiPNFToken.sol\":16179:16206  _addNFToken(_who, _tokenId) */\n      jump\t// in\n    tag_400:\n        /* \"proy/pi-markets/smart-contracts/tokens/packable/PiPNFToken.sol\":16130:16217  if (balances[_who][_tokenId] == 0) {... */\n    tag_399:\n        /* \"proy/pi-markets/smart-contracts/tokens/packable/PiPNFToken.sol\":16254:16291  balances[_who][_tokenId].add(_amount) */\n      tag_402\n        /* \"proy/pi-markets/smart-contracts/tokens/packable/PiPNFToken.sol\":16283:16290  _amount */\n      dup2\n        /* \"proy/pi-markets/smart-contracts/tokens/packable/PiPNFToken.sol\":16254:16262  balances */\n      0xc\n        /* \"proy/pi-markets/smart-contracts/tokens/packable/PiPNFToken.sol\":16254:16268  balances[_who] */\n      0x0\n        /* \"proy/pi-markets/smart-contracts/tokens/packable/PiPNFToken.sol\":16263:16267  _who */\n      dup7\n        /* \"proy/pi-markets/smart-contracts/tokens/packable/PiPNFToken.sol\":16254:16268  balances[_who] */\n      0xffffffffffffffffffffffffffffffffffffffff\n      and\n      0xffffffffffffffffffffffffffffffffffffffff\n      and\n      dup2\n      mstore\n      0x20\n      add\n      swap1\n      dup2\n      mstore\n      0x20\n      add\n      0x0\n      keccak256\n        /* \"proy/pi-markets/smart-contracts/tokens/packable/PiPNFToken.sol\":16254:16278  balances[_who][_tokenId] */\n      0x0\n        /* \"proy/pi-markets/smart-contracts/tokens/packable/PiPNFToken.sol\":16269:16277  _tokenId */\n      dup6\n        /* \"proy/pi-markets/smart-contracts/tokens/packable/PiPNFToken.sol\":16254:16278  balances[_who][_tokenId] */\n      dup2\n      mstore\n      0x20\n      add\n      swap1\n      dup2\n      mstore\n      0x20\n      add\n      0x0\n      keccak256\n      sload\n        /* \"proy/pi-markets/smart-contracts/tokens/packable/PiPNFToken.sol\":16254:16282  balances[_who][_tokenId].add */\n      tag_233\n      swap1\n        /* \"proy/pi-markets/smart-contracts/tokens/packable/PiPNFToken.sol\":16254:16291  balances[_who][_tokenId].add(_amount) */\n      swap2\n      swap1\n      0xffffffff\n      and\n      jump\t// in\n    tag_402:\n        /* \"proy/pi-markets/smart-contracts/tokens/packable/PiPNFToken.sol\":16227:16235  balances */\n      0xc\n        /* \"proy/pi-markets/smart-contracts/tokens/packable/PiPNFToken.sol\":16227:16241  balances[_who] */\n      0x0\n        /* \"proy/pi-markets/smart-contracts/tokens/packable/PiPNFToken.sol\":16236:16240  _who */\n      dup6\n        /* \"proy/pi-markets/smart-contracts/tokens/packable/PiPNFToken.sol\":16227:16241  balances[_who] */\n      0xffffffffffffffffffffffffffffffffffffffff\n      and\n      0xffffffffffffffffffffffffffffffffffffffff\n      and\n      dup2\n      mstore\n      0x20\n      add\n      swap1\n      dup2\n      mstore\n      0x20\n      add\n      0x0\n      keccak256\n        /* \"proy/pi-markets/smart-contracts/tokens/packable/PiPNFToken.sol\":16227:16251  balances[_who][_tokenId] */\n      0x0\n        /* \"proy/pi-markets/smart-contracts/tokens/packable/PiPNFToken.sol\":16242:16250  _tokenId */\n      dup5\n        /* \"proy/pi-markets/smart-contracts/tokens/packable/PiPNFToken.sol\":16227:16251  balances[_who][_tokenId] */\n      dup2\n      mstore\n      0x20\n      add\n      swap1\n      dup2\n      mstore\n      0x20\n      add\n      0x0\n      keccak256\n        /* \"proy/pi-markets/smart-contracts/tokens/packable/PiPNFToken.sol\":16227:16291  balances[_who][_tokenId] = balances[_who][_tokenId].add(_amount) */\n      dup2\n      swap1\n      sstore\n      pop\n        /* \"proy/pi-markets/smart-contracts/tokens/packable/PiPNFToken.sol\":16037:16298  function _increaseBalance(address _who, bytes32 _tokenId, uint256 _amount) private {... */\n      pop\n      pop\n      pop\n      jump\t// out\n        /* \"proy/pi-markets/smart-contracts/tokens/packable/PiPNFToken.sol\":16304:16630  function _decreaseBalance(address _who, bytes32 _tokenId, uint256 _amount) private {... */\n    tag_352:\n        /* \"proy/pi-markets/smart-contracts/tokens/packable/PiPNFToken.sol\":16433:16440  _amount */\n      dup1\n        /* \"proy/pi-markets/smart-contracts/tokens/packable/PiPNFToken.sol\":16405:16413  balances */\n      0xc\n        /* \"proy/pi-markets/smart-contracts/tokens/packable/PiPNFToken.sol\":16405:16419  balances[_who] */\n      0x0\n        /* \"proy/pi-markets/smart-contracts/tokens/packable/PiPNFToken.sol\":16414:16418  _who */\n      dup6\n        /* \"proy/pi-markets/smart-contracts/tokens/packable/PiPNFToken.sol\":16405:16419  balances[_who] */\n      0xffffffffffffffffffffffffffffffffffffffff\n      and\n      0xffffffffffffffffffffffffffffffffffffffff\n      and\n      dup2\n      mstore\n      0x20\n      add\n      swap1\n      dup2\n      mstore\n      0x20\n      add\n      0x0\n      keccak256\n        /* \"proy/pi-markets/smart-contracts/tokens/packable/PiPNFToken.sol\":16405:16429  balances[_who][_tokenId] */\n      0x0\n        /* \"proy/pi-markets/smart-contracts/tokens/packable/PiPNFToken.sol\":16420:16428  _tokenId */\n      dup5\n        /* \"proy/pi-markets/smart-contracts/tokens/packable/PiPNFToken.sol\":16405:16429  balances[_who][_tokenId] */\n      dup2\n      mstore\n      0x20\n      add\n      swap1\n      dup2\n      mstore\n      0x20\n      add\n      0x0\n      keccak256\n      sload\n        /* \"proy/pi-markets/smart-contracts/tokens/packable/PiPNFToken.sol\":16405:16440  balances[_who][_tokenId] >= _amount */\n      lt\n      iszero\n        /* \"proy/pi-markets/smart-contracts/tokens/packable/PiPNFToken.sol\":16397:16448  require(balances[_who][_tokenId] >= _amount, \"139\") */\n      iszero\n      iszero\n      tag_404\n      jumpi\n      mload(0x40)\n      0x8c379a000000000000000000000000000000000000000000000000000000000\n      dup2\n      mstore\n      0x4\n      add\n      tag_405\n      swap1\n      jump(tag_406)\n    tag_405:\n      mload(0x40)\n      dup1\n      swap2\n      sub\n      swap1\n      revert\n    tag_404:\n        /* \"proy/pi-markets/smart-contracts/tokens/packable/PiPNFToken.sol\":16486:16523  balances[_who][_tokenId].sub(_amount) */\n      tag_407\n        /* \"proy/pi-markets/smart-contracts/tokens/packable/PiPNFToken.sol\":16515:16522  _amount */\n      dup2\n        /* \"proy/pi-markets/smart-contracts/tokens/packable/PiPNFToken.sol\":16486:16494  balances */\n      0xc\n        /* \"proy/pi-markets/smart-contracts/tokens/packable/PiPNFToken.sol\":16486:16500  balances[_who] */\n      0x0\n        /* \"proy/pi-markets/smart-contracts/tokens/packable/PiPNFToken.sol\":16495:16499  _who */\n      dup7\n        /* \"proy/pi-markets/smart-contracts/tokens/packable/PiPNFToken.sol\":16486:16500  balances[_who] */\n      0xffffffffffffffffffffffffffffffffffffffff\n      and\n      0xffffffffffffffffffffffffffffffffffffffff\n      and\n      dup2\n      mstore\n      0x20\n      add\n      swap1\n      dup2\n      mstore\n      0x20\n      add\n      0x0\n      keccak256\n        /* \"proy/pi-markets/smart-contracts/tokens/packable/PiPNFToken.sol\":16486:16510  balances[_who][_tokenId] */\n      0x0\n        /* \"proy/pi-markets/smart-contracts/tokens/packable/PiPNFToken.sol\":16501:16509  _tokenId */\n      dup6\n        /* \"proy/pi-markets/smart-contracts/tokens/packable/PiPNFToken.sol\":16486:16510  balances[_who][_tokenId] */\n      dup2\n      mstore\n      0x20\n      add\n      swap1\n      dup2\n      mstore\n      0x20\n      add\n      0x0\n      keccak256\n      sload\n        /* \"proy/pi-markets/smart-contracts/tokens/packable/PiPNFToken.sol\":16486:16514  balances[_who][_tokenId].sub */\n      tag_246\n      swap1\n        /* \"proy/pi-markets/smart-contracts/tokens/packable/PiPNFToken.sol\":16486:16523  balances[_who][_tokenId].sub(_amount) */\n      swap2\n      swap1\n      0xffffffff\n      and\n      jump\t// in\n    tag_407:\n        /* \"proy/pi-markets/smart-contracts/tokens/packable/PiPNFToken.sol\":16459:16467  balances */\n      0xc\n        /* \"proy/pi-markets/smart-contracts/tokens/packable/PiPNFToken.sol\":16459:16473  balances[_who] */\n      0x0\n        /* \"proy/pi-markets/smart-contracts/tokens/packable/PiPNFToken.sol\":16468:16472  _who */\n      dup6\n        /* \"proy/pi-markets/smart-contracts/tokens/packable/PiPNFToken.sol\":16459:16473  balances[_who] */\n      0xffffffffffffffffffffffffffffffffffffffff\n      and\n      0xffffffffffffffffffffffffffffffffffffffff\n      and\n      dup2\n      mstore\n      0x20\n      add\n      swap1\n      dup2\n      mstore\n      0x20\n      add\n      0x0\n      keccak256\n        /* \"proy/pi-markets/smart-contracts/tokens/packable/PiPNFToken.sol\":16459:16483  balances[_who][_tokenId] */\n      0x0\n        /* \"proy/pi-markets/smart-contracts/tokens/packable/PiPNFToken.sol\":16474:16482  _tokenId */\n      dup5\n        /* \"proy/pi-markets/smart-contracts/tokens/packable/PiPNFToken.sol\":16459:16483  balances[_who][_tokenId] */\n      dup2\n      mstore\n      0x20\n      add\n      swap1\n      dup2\n      mstore\n      0x20\n      add\n      0x0\n      keccak256\n        /* \"proy/pi-markets/smart-contracts/tokens/packable/PiPNFToken.sol\":16459:16523  balances[_who][_tokenId] = balances[_who][_tokenId].sub(_amount) */\n      dup2\n      swap1\n      sstore\n      pop\n        /* \"proy/pi-markets/smart-contracts/tokens/packable/PiPNFToken.sol\":16566:16567  0 */\n      0x0\n        /* \"proy/pi-markets/smart-contracts/tokens/packable/PiPNFToken.sol\":16538:16546  balances */\n      0xc\n        /* \"proy/pi-markets/smart-contracts/tokens/packable/PiPNFToken.sol\":16538:16552  balances[_who] */\n      0x0\n        /* \"proy/pi-markets/smart-contracts/tokens/packable/PiPNFToken.sol\":16547:16551  _who */\n      dup6\n        /* \"proy/pi-markets/smart-contracts/tokens/packable/PiPNFToken.sol\":16538:16552  balances[_who] */\n      0xffffffffffffffffffffffffffffffffffffffff\n      and\n      0xffffffffffffffffffffffffffffffffffffffff\n      and\n      dup2\n      mstore\n      0x20\n      add\n      swap1\n      dup2\n      mstore\n      0x20\n      add\n      0x0\n      keccak256\n        /* \"proy/pi-markets/smart-contracts/tokens/packable/PiPNFToken.sol\":16538:16562  balances[_who][_tokenId] */\n      0x0\n        /* \"proy/pi-markets/smart-contracts/tokens/packable/PiPNFToken.sol\":16553:16561  _tokenId */\n      dup5\n        /* \"proy/pi-markets/smart-contracts/tokens/packable/PiPNFToken.sol\":16538:16562  balances[_who][_tokenId] */\n      dup2\n      mstore\n      0x20\n      add\n      swap1\n      dup2\n      mstore\n      0x20\n      add\n      0x0\n      keccak256\n      sload\n        /* \"proy/pi-markets/smart-contracts/tokens/packable/PiPNFToken.sol\":16538:16567  balances[_who][_tokenId] == 0 */\n      eq\n        /* \"proy/pi-markets/smart-contracts/tokens/packable/PiPNFToken.sol\":16534:16624  if (balances[_who][_tokenId] == 0) {... */\n      iszero\n      tag_408\n      jumpi\n        /* \"proy/pi-markets/smart-contracts/tokens/packable/PiPNFToken.sol\":16583:16613  _removeNFToken(_who, _tokenId) */\n      tag_409\n        /* \"proy/pi-markets/smart-contracts/tokens/packable/PiPNFToken.sol\":16598:16602  _who */\n      dup4\n        /* \"proy/pi-markets/smart-contracts/tokens/packable/PiPNFToken.sol\":16604:16612  _tokenId */\n      dup4\n        /* \"proy/pi-markets/smart-contracts/tokens/packable/PiPNFToken.sol\":16583:16597  _removeNFToken */\n      tag_410\n        /* \"proy/pi-markets/smart-contracts/tokens/packable/PiPNFToken.sol\":16583:16613  _removeNFToken(_who, _tokenId) */\n      jump\t// in\n    tag_409:\n        /* \"proy/pi-markets/smart-contracts/tokens/packable/PiPNFToken.sol\":16534:16624  if (balances[_who][_tokenId] == 0) {... */\n    tag_408:\n        /* \"proy/pi-markets/smart-contracts/tokens/packable/PiPNFToken.sol\":16304:16630  function _decreaseBalance(address _who, bytes32 _tokenId, uint256 _amount) private {... */\n      pop\n      pop\n      pop\n      jump\t// out\n        /* \"proy/pi-markets/smart-contracts/tokens/utils/packable/AddressUtils.sol\":1280:1680  function isContract(... */\n    tag_381:\n        /* \"proy/pi-markets/smart-contracts/tokens/utils/packable/AddressUtils.sol\":1376:1393  bool addressCheck */\n      0x0\n        /* \"proy/pi-markets/smart-contracts/tokens/utils/packable/AddressUtils.sol\":1418:1433  uint codeLength */\n      dup1\n        /* \"proy/pi-markets/smart-contracts/tokens/utils/packable/AddressUtils.sol\":1579:1584  _addr */\n      dup3\n        /* \"proy/pi-markets/smart-contracts/tokens/utils/packable/AddressUtils.sol\":1567:1585  extcodesize(_addr) */\n      extcodesize\n        /* \"proy/pi-markets/smart-contracts/tokens/utils/packable/AddressUtils.sol\":1553:1585  codeLength := extcodesize(_addr) */\n      swap1\n      pop\n        /* \"proy/pi-markets/smart-contracts/tokens/utils/packable/AddressUtils.sol\":1627:1628  0 */\n      0x0\n        /* \"proy/pi-markets/smart-contracts/tokens/utils/packable/AddressUtils.sol\":1616:1626  codeLength */\n      dup2\n        /* \"proy/pi-markets/smart-contracts/tokens/utils/packable/AddressUtils.sol\":1616:1628  codeLength>0 */\n      gt\n        /* \"proy/pi-markets/smart-contracts/tokens/utils/packable/AddressUtils.sol\":1613:1674  if(codeLength>0) {... */\n      iszero\n      tag_412\n      jumpi\n        /* \"proy/pi-markets/smart-contracts/tokens/utils/packable/AddressUtils.sol\":1659:1663  true */\n      0x1\n        /* \"proy/pi-markets/smart-contracts/tokens/utils/packable/AddressUtils.sol\":1644:1663  addressCheck = true */\n      swap2\n      pop\n        /* \"proy/pi-markets/smart-contracts/tokens/utils/packable/AddressUtils.sol\":1613:1674  if(codeLength>0) {... */\n    tag_412:\n        /* \"proy/pi-markets/smart-contracts/tokens/utils/packable/AddressUtils.sol\":1280:1680  function isContract(... */\n      pop\n      swap2\n      swap1\n      pop\n      jump\t// out\n        /* \"proy/pi-markets/smart-contracts/tokens/packable/PiPNFToken.sol\":17791:18069  function _addNFToken(... */\n    tag_401:\n        /* \"proy/pi-markets/smart-contracts/tokens/packable/PiPNFToken.sol\":17923:17954  ownerToNFTokenCount[_to].add(1) */\n      tag_414\n        /* \"proy/pi-markets/smart-contracts/tokens/packable/PiPNFToken.sol\":17952:17953  1 */\n      0x1\n        /* \"proy/pi-markets/smart-contracts/tokens/packable/PiPNFToken.sol\":17923:17942  ownerToNFTokenCount */\n      0x8\n        /* \"proy/pi-markets/smart-contracts/tokens/packable/PiPNFToken.sol\":17923:17947  ownerToNFTokenCount[_to] */\n      0x0\n        /* \"proy/pi-markets/smart-contracts/tokens/packable/PiPNFToken.sol\":17943:17946  _to */\n      dup6\n        /* \"proy/pi-markets/smart-contracts/tokens/packable/PiPNFToken.sol\":17923:17947  ownerToNFTokenCount[_to] */\n      0xffffffffffffffffffffffffffffffffffffffff\n      and\n      0xffffffffffffffffffffffffffffffffffffffff\n      and\n      dup2\n      mstore\n      0x20\n      add\n      swap1\n      dup2\n      mstore\n      0x20\n      add\n      0x0\n      keccak256\n      sload\n        /* \"proy/pi-markets/smart-contracts/tokens/packable/PiPNFToken.sol\":17923:17951  ownerToNFTokenCount[_to].add */\n      tag_233\n      swap1\n        /* \"proy/pi-markets/smart-contracts/tokens/packable/PiPNFToken.sol\":17923:17954  ownerToNFTokenCount[_to].add(1) */\n      swap2\n      swap1\n      0xffffffff\n      and\n      jump\t// in\n    tag_414:\n        /* \"proy/pi-markets/smart-contracts/tokens/packable/PiPNFToken.sol\":17896:17915  ownerToNFTokenCount */\n      0x8\n        /* \"proy/pi-markets/smart-contracts/tokens/packable/PiPNFToken.sol\":17896:17920  ownerToNFTokenCount[_to] */\n      0x0\n        /* \"proy/pi-markets/smart-contracts/tokens/packable/PiPNFToken.sol\":17916:17919  _to */\n      dup5\n        /* \"proy/pi-markets/smart-contracts/tokens/packable/PiPNFToken.sol\":17896:17920  ownerToNFTokenCount[_to] */\n      0xffffffffffffffffffffffffffffffffffffffff\n      and\n      0xffffffffffffffffffffffffffffffffffffffff\n      and\n      dup2\n      mstore\n      0x20\n      add\n      swap1\n      dup2\n      mstore\n      0x20\n      add\n      0x0\n      keccak256\n        /* \"proy/pi-markets/smart-contracts/tokens/packable/PiPNFToken.sol\":17896:17954  ownerToNFTokenCount[_to] = ownerToNFTokenCount[_to].add(1) */\n      dup2\n      swap1\n      sstore\n      pop\n        /* \"proy/pi-markets/smart-contracts/tokens/packable/PiPNFToken.sol\":17964:17974  ownerToIds */\n      0xa\n        /* \"proy/pi-markets/smart-contracts/tokens/packable/PiPNFToken.sol\":17964:17979  ownerToIds[_to] */\n      0x0\n        /* \"proy/pi-markets/smart-contracts/tokens/packable/PiPNFToken.sol\":17975:17978  _to */\n      dup4\n        /* \"proy/pi-markets/smart-contracts/tokens/packable/PiPNFToken.sol\":17964:17979  ownerToIds[_to] */\n      0xffffffffffffffffffffffffffffffffffffffff\n      and\n      0xffffffffffffffffffffffffffffffffffffffff\n      and\n      dup2\n      mstore\n      0x20\n      add\n      swap1\n      dup2\n      mstore\n      0x20\n      add\n      0x0\n      keccak256\n        /* \"proy/pi-markets/smart-contracts/tokens/packable/PiPNFToken.sol\":17985:17993  _tokenId */\n      dup2\n        /* \"proy/pi-markets/smart-contracts/tokens/packable/PiPNFToken.sol\":17964:17994  ownerToIds[_to].push(_tokenId) */\n      swap1\n      dup1\n        /* \"--CODEGEN--\":39:40   */\n      0x1\n        /* \"--CODEGEN--\":33:36   */\n      dup2\n        /* \"--CODEGEN--\":27:37   */\n      sload\n        /* \"--CODEGEN--\":23:41   */\n      add\n        /* \"--CODEGEN--\":57:67   */\n      dup1\n        /* \"--CODEGEN--\":52:55   */\n      dup3\n        /* \"--CODEGEN--\":45:68   */\n      sstore\n        /* \"--CODEGEN--\":79:89   */\n      dup1\n        /* \"--CODEGEN--\":72:89   */\n      swap2\n      pop\n        /* \"--CODEGEN--\":0:93   */\n      pop\n        /* \"proy/pi-markets/smart-contracts/tokens/packable/PiPNFToken.sol\":17964:17994  ownerToIds[_to].push(_tokenId) */\n      swap1\n      0x1\n      dup3\n      sub\n      swap1\n      0x0\n      mstore\n      keccak256(0x0, 0x20)\n      add\n      0x0\n      swap1\n      swap2\n      swap3\n      swap1\n      swap2\n      swap1\n      swap2\n      pop\n      sstore\n      pop\n        /* \"proy/pi-markets/smart-contracts/tokens/packable/PiPNFToken.sol\":18061:18062  1 */\n      0x1\n        /* \"proy/pi-markets/smart-contracts/tokens/packable/PiPNFToken.sol\":18036:18046  ownerToIds */\n      0xa\n        /* \"proy/pi-markets/smart-contracts/tokens/packable/PiPNFToken.sol\":18036:18051  ownerToIds[_to] */\n      0x0\n        /* \"proy/pi-markets/smart-contracts/tokens/packable/PiPNFToken.sol\":18047:18050  _to */\n      dup5\n        /* \"proy/pi-markets/smart-contracts/tokens/packable/PiPNFToken.sol\":18036:18051  ownerToIds[_to] */\n      0xffffffffffffffffffffffffffffffffffffffff\n      and\n      0xffffffffffffffffffffffffffffffffffffffff\n      and\n      dup2\n      mstore\n      0x20\n      add\n      swap1\n      dup2\n      mstore\n      0x20\n      add\n      0x0\n      keccak256\n        /* \"proy/pi-markets/smart-contracts/tokens/packable/PiPNFToken.sol\":18036:18058  ownerToIds[_to].length */\n      dup1\n      sload\n      swap1\n      pop\n        /* \"proy/pi-markets/smart-contracts/tokens/packable/PiPNFToken.sol\":18036:18062  ownerToIds[_to].length - 1 */\n      sub\n        /* \"proy/pi-markets/smart-contracts/tokens/packable/PiPNFToken.sol\":18004:18018  idToOwnerIndex */\n      0xb\n        /* \"proy/pi-markets/smart-contracts/tokens/packable/PiPNFToken.sol\":18004:18023  idToOwnerIndex[_to] */\n      0x0\n        /* \"proy/pi-markets/smart-contracts/tokens/packable/PiPNFToken.sol\":18019:18022  _to */\n      dup5\n        /* \"proy/pi-markets/smart-contracts/tokens/packable/PiPNFToken.sol\":18004:18023  idToOwnerIndex[_to] */\n      0xffffffffffffffffffffffffffffffffffffffff\n      and\n      0xffffffffffffffffffffffffffffffffffffffff\n      and\n      dup2\n      mstore\n      0x20\n      add\n      swap1\n      dup2\n      mstore\n      0x20\n      add\n      0x0\n      keccak256\n        /* \"proy/pi-markets/smart-contracts/tokens/packable/PiPNFToken.sol\":18004:18033  idToOwnerIndex[_to][_tokenId] */\n      0x0\n        /* \"proy/pi-markets/smart-contracts/tokens/packable/PiPNFToken.sol\":18024:18032  _tokenId */\n      dup4\n        /* \"proy/pi-markets/smart-contracts/tokens/packable/PiPNFToken.sol\":18004:18033  idToOwnerIndex[_to][_tokenId] */\n      dup2\n      mstore\n      0x20\n      add\n      swap1\n      dup2\n      mstore\n      0x20\n      add\n      0x0\n      keccak256\n        /* \"proy/pi-markets/smart-contracts/tokens/packable/PiPNFToken.sol\":18004:18062  idToOwnerIndex[_to][_tokenId] = ownerToIds[_to].length - 1 */\n      dup2\n      swap1\n      sstore\n      pop\n        /* \"proy/pi-markets/smart-contracts/tokens/packable/PiPNFToken.sol\":17791:18069  function _addNFToken(... */\n      pop\n      pop\n      jump\t// out\n        /* \"proy/pi-markets/smart-contracts/tokens/packable/PiPNFToken.sol\":16907:17521  function _removeNFToken(... */\n    tag_410:\n        /* \"proy/pi-markets/smart-contracts/tokens/packable/PiPNFToken.sol\":17046:17079  ownerToNFTokenCount[_from].sub(1) */\n      tag_417\n        /* \"proy/pi-markets/smart-contracts/tokens/packable/PiPNFToken.sol\":17077:17078  1 */\n      0x1\n        /* \"proy/pi-markets/smart-contracts/tokens/packable/PiPNFToken.sol\":17046:17065  ownerToNFTokenCount */\n      0x8\n        /* \"proy/pi-markets/smart-contracts/tokens/packable/PiPNFToken.sol\":17046:17072  ownerToNFTokenCount[_from] */\n      0x0\n        /* \"proy/pi-markets/smart-contracts/tokens/packable/PiPNFToken.sol\":17066:17071  _from */\n      dup6\n        /* \"proy/pi-markets/smart-contracts/tokens/packable/PiPNFToken.sol\":17046:17072  ownerToNFTokenCount[_from] */\n      0xffffffffffffffffffffffffffffffffffffffff\n      and\n      0xffffffffffffffffffffffffffffffffffffffff\n      and\n      dup2\n      mstore\n      0x20\n      add\n      swap1\n      dup2\n      mstore\n      0x20\n      add\n      0x0\n      keccak256\n      sload\n        /* \"proy/pi-markets/smart-contracts/tokens/packable/PiPNFToken.sol\":17046:17076  ownerToNFTokenCount[_from].sub */\n      tag_246\n      swap1\n        /* \"proy/pi-markets/smart-contracts/tokens/packable/PiPNFToken.sol\":17046:17079  ownerToNFTokenCount[_from].sub(1) */\n      swap2\n      swap1\n      0xffffffff\n      and\n      jump\t// in\n    tag_417:\n        /* \"proy/pi-markets/smart-contracts/tokens/packable/PiPNFToken.sol\":17017:17036  ownerToNFTokenCount */\n      0x8\n        /* \"proy/pi-markets/smart-contracts/tokens/packable/PiPNFToken.sol\":17017:17043  ownerToNFTokenCount[_from] */\n      0x0\n        /* \"proy/pi-markets/smart-contracts/tokens/packable/PiPNFToken.sol\":17037:17042  _from */\n      dup5\n        /* \"proy/pi-markets/smart-contracts/tokens/packable/PiPNFToken.sol\":17017:17043  ownerToNFTokenCount[_from] */\n      0xffffffffffffffffffffffffffffffffffffffff\n      and\n      0xffffffffffffffffffffffffffffffffffffffff\n      and\n      dup2\n      mstore\n      0x20\n      add\n      swap1\n      dup2\n      mstore\n      0x20\n      add\n      0x0\n      keccak256\n        /* \"proy/pi-markets/smart-contracts/tokens/packable/PiPNFToken.sol\":17017:17079  ownerToNFTokenCount[_from] = ownerToNFTokenCount[_from].sub(1) */\n      dup2\n      swap1\n      sstore\n      pop\n        /* \"proy/pi-markets/smart-contracts/tokens/packable/PiPNFToken.sol\":17090:17116  uint256 tokenToRemoveIndex */\n      0x0\n        /* \"proy/pi-markets/smart-contracts/tokens/packable/PiPNFToken.sol\":17119:17133  idToOwnerIndex */\n      0xb\n        /* \"proy/pi-markets/smart-contracts/tokens/packable/PiPNFToken.sol\":17119:17140  idToOwnerIndex[_from] */\n      0x0\n        /* \"proy/pi-markets/smart-contracts/tokens/packable/PiPNFToken.sol\":17134:17139  _from */\n      dup5\n        /* \"proy/pi-markets/smart-contracts/tokens/packable/PiPNFToken.sol\":17119:17140  idToOwnerIndex[_from] */\n      0xffffffffffffffffffffffffffffffffffffffff\n      and\n      0xffffffffffffffffffffffffffffffffffffffff\n      and\n      dup2\n      mstore\n      0x20\n      add\n      swap1\n      dup2\n      mstore\n      0x20\n      add\n      0x0\n      keccak256\n        /* \"proy/pi-markets/smart-contracts/tokens/packable/PiPNFToken.sol\":17119:17150  idToOwnerIndex[_from][_tokenId] */\n      0x0\n        /* \"proy/pi-markets/smart-contracts/tokens/packable/PiPNFToken.sol\":17141:17149  _tokenId */\n      dup4\n        /* \"proy/pi-markets/smart-contracts/tokens/packable/PiPNFToken.sol\":17119:17150  idToOwnerIndex[_from][_tokenId] */\n      dup2\n      mstore\n      0x20\n      add\n      swap1\n      dup2\n      mstore\n      0x20\n      add\n      0x0\n      keccak256\n      sload\n        /* \"proy/pi-markets/smart-contracts/tokens/packable/PiPNFToken.sol\":17090:17150  uint256 tokenToRemoveIndex = idToOwnerIndex[_from][_tokenId] */\n      swap1\n      pop\n        /* \"proy/pi-markets/smart-contracts/tokens/packable/PiPNFToken.sol\":17160:17182  uint256 lastTokenIndex */\n      0x0\n        /* \"proy/pi-markets/smart-contracts/tokens/packable/PiPNFToken.sol\":17212:17213  1 */\n      0x1\n        /* \"proy/pi-markets/smart-contracts/tokens/packable/PiPNFToken.sol\":17185:17195  ownerToIds */\n      0xa\n        /* \"proy/pi-markets/smart-contracts/tokens/packable/PiPNFToken.sol\":17185:17202  ownerToIds[_from] */\n      0x0\n        /* \"proy/pi-markets/smart-contracts/tokens/packable/PiPNFToken.sol\":17196:17201  _from */\n      dup7\n        /* \"proy/pi-markets/smart-contracts/tokens/packable/PiPNFToken.sol\":17185:17202  ownerToIds[_from] */\n      0xffffffffffffffffffffffffffffffffffffffff\n      and\n      0xffffffffffffffffffffffffffffffffffffffff\n      and\n      dup2\n      mstore\n      0x20\n      add\n      swap1\n      dup2\n      mstore\n      0x20\n      add\n      0x0\n      keccak256\n        /* \"proy/pi-markets/smart-contracts/tokens/packable/PiPNFToken.sol\":17185:17209  ownerToIds[_from].length */\n      dup1\n      sload\n      swap1\n      pop\n        /* \"proy/pi-markets/smart-contracts/tokens/packable/PiPNFToken.sol\":17185:17213  ownerToIds[_from].length - 1 */\n      sub\n        /* \"proy/pi-markets/smart-contracts/tokens/packable/PiPNFToken.sol\":17160:17213  uint256 lastTokenIndex = ownerToIds[_from].length - 1 */\n      swap1\n      pop\n        /* \"proy/pi-markets/smart-contracts/tokens/packable/PiPNFToken.sol\":17246:17264  tokenToRemoveIndex */\n      dup2\n        /* \"proy/pi-markets/smart-contracts/tokens/packable/PiPNFToken.sol\":17228:17242  lastTokenIndex */\n      dup2\n        /* \"proy/pi-markets/smart-contracts/tokens/packable/PiPNFToken.sol\":17228:17264  lastTokenIndex != tokenToRemoveIndex */\n      eq\n      iszero\n        /* \"proy/pi-markets/smart-contracts/tokens/packable/PiPNFToken.sol\":17224:17481  if (lastTokenIndex != tokenToRemoveIndex)... */\n      iszero\n      tag_418\n      jumpi\n        /* \"proy/pi-markets/smart-contracts/tokens/packable/PiPNFToken.sol\":17288:17305  bytes32 lastToken */\n      0x0\n        /* \"proy/pi-markets/smart-contracts/tokens/packable/PiPNFToken.sol\":17308:17318  ownerToIds */\n      0xa\n        /* \"proy/pi-markets/smart-contracts/tokens/packable/PiPNFToken.sol\":17308:17325  ownerToIds[_from] */\n      0x0\n        /* \"proy/pi-markets/smart-contracts/tokens/packable/PiPNFToken.sol\":17319:17324  _from */\n      dup7\n        /* \"proy/pi-markets/smart-contracts/tokens/packable/PiPNFToken.sol\":17308:17325  ownerToIds[_from] */\n      0xffffffffffffffffffffffffffffffffffffffff\n      and\n      0xffffffffffffffffffffffffffffffffffffffff\n      and\n      dup2\n      mstore\n      0x20\n      add\n      swap1\n      dup2\n      mstore\n      0x20\n      add\n      0x0\n      keccak256\n        /* \"proy/pi-markets/smart-contracts/tokens/packable/PiPNFToken.sol\":17326:17340  lastTokenIndex */\n      dup3\n        /* \"proy/pi-markets/smart-contracts/tokens/packable/PiPNFToken.sol\":17308:17341  ownerToIds[_from][lastTokenIndex] */\n      dup2\n      sload\n      dup2\n      lt\n      iszero\n      iszero\n      tag_419\n      jumpi\n      invalid\n    tag_419:\n      swap1\n      0x0\n      mstore\n      keccak256(0x0, 0x20)\n      add\n      sload\n        /* \"proy/pi-markets/smart-contracts/tokens/packable/PiPNFToken.sol\":17288:17341  bytes32 lastToken = ownerToIds[_from][lastTokenIndex] */\n      swap1\n      pop\n        /* \"proy/pi-markets/smart-contracts/tokens/packable/PiPNFToken.sol\":17395:17404  lastToken */\n      dup1\n        /* \"proy/pi-markets/smart-contracts/tokens/packable/PiPNFToken.sol\":17355:17365  ownerToIds */\n      0xa\n        /* \"proy/pi-markets/smart-contracts/tokens/packable/PiPNFToken.sol\":17355:17372  ownerToIds[_from] */\n      0x0\n        /* \"proy/pi-markets/smart-contracts/tokens/packable/PiPNFToken.sol\":17366:17371  _from */\n      dup8\n        /* \"proy/pi-markets/smart-contracts/tokens/packable/PiPNFToken.sol\":17355:17372  ownerToIds[_from] */\n      0xffffffffffffffffffffffffffffffffffffffff\n      and\n      0xffffffffffffffffffffffffffffffffffffffff\n      and\n      dup2\n      mstore\n      0x20\n      add\n      swap1\n      dup2\n      mstore\n      0x20\n      add\n      0x0\n      keccak256\n        /* \"proy/pi-markets/smart-contracts/tokens/packable/PiPNFToken.sol\":17373:17391  tokenToRemoveIndex */\n      dup5\n        /* \"proy/pi-markets/smart-contracts/tokens/packable/PiPNFToken.sol\":17355:17392  ownerToIds[_from][tokenToRemoveIndex] */\n      dup2\n      sload\n      dup2\n      lt\n      iszero\n      iszero\n      tag_421\n      jumpi\n      invalid\n    tag_421:\n      swap1\n      0x0\n      mstore\n      keccak256(0x0, 0x20)\n      add\n        /* \"proy/pi-markets/smart-contracts/tokens/packable/PiPNFToken.sol\":17355:17404  ownerToIds[_from][tokenToRemoveIndex] = lastToken */\n      dup2\n      swap1\n      sstore\n      pop\n        /* \"proy/pi-markets/smart-contracts/tokens/packable/PiPNFToken.sol\":17452:17470  tokenToRemoveIndex */\n      dup3\n        /* \"proy/pi-markets/smart-contracts/tokens/packable/PiPNFToken.sol\":17418:17432  idToOwnerIndex */\n      0xb\n        /* \"proy/pi-markets/smart-contracts/tokens/packable/PiPNFToken.sol\":17418:17439  idToOwnerIndex[_from] */\n      0x0\n        /* \"proy/pi-markets/smart-contracts/tokens/packable/PiPNFToken.sol\":17433:17438  _from */\n      dup8\n        /* \"proy/pi-markets/smart-contracts/tokens/packable/PiPNFToken.sol\":17418:17439  idToOwnerIndex[_from] */\n      0xffffffffffffffffffffffffffffffffffffffff\n      and\n      0xffffffffffffffffffffffffffffffffffffffff\n      and\n      dup2\n      mstore\n      0x20\n      add\n      swap1\n      dup2\n      mstore\n      0x20\n      add\n      0x0\n      keccak256\n        /* \"proy/pi-markets/smart-contracts/tokens/packable/PiPNFToken.sol\":17418:17449  idToOwnerIndex[_from][_tokenId] */\n      0x0\n        /* \"proy/pi-markets/smart-contracts/tokens/packable/PiPNFToken.sol\":17440:17448  _tokenId */\n      dup7\n        /* \"proy/pi-markets/smart-contracts/tokens/packable/PiPNFToken.sol\":17418:17449  idToOwnerIndex[_from][_tokenId] */\n      dup2\n      mstore\n      0x20\n      add\n      swap1\n      dup2\n      mstore\n      0x20\n      add\n      0x0\n      keccak256\n        /* \"proy/pi-markets/smart-contracts/tokens/packable/PiPNFToken.sol\":17418:17470  idToOwnerIndex[_from][_tokenId] = tokenToRemoveIndex */\n      dup2\n      swap1\n      sstore\n      pop\n        /* \"proy/pi-markets/smart-contracts/tokens/packable/PiPNFToken.sol\":17224:17481  if (lastTokenIndex != tokenToRemoveIndex)... */\n      pop\n    tag_418:\n        /* \"proy/pi-markets/smart-contracts/tokens/packable/PiPNFToken.sol\":17491:17501  ownerToIds */\n      0xa\n        /* \"proy/pi-markets/smart-contracts/tokens/packable/PiPNFToken.sol\":17491:17508  ownerToIds[_from] */\n      0x0\n        /* \"proy/pi-markets/smart-contracts/tokens/packable/PiPNFToken.sol\":17502:17507  _from */\n      dup6\n        /* \"proy/pi-markets/smart-contracts/tokens/packable/PiPNFToken.sol\":17491:17508  ownerToIds[_from] */\n      0xffffffffffffffffffffffffffffffffffffffff\n      and\n      0xffffffffffffffffffffffffffffffffffffffff\n      and\n      dup2\n      mstore\n      0x20\n      add\n      swap1\n      dup2\n      mstore\n      0x20\n      add\n      0x0\n      keccak256\n        /* \"proy/pi-markets/smart-contracts/tokens/packable/PiPNFToken.sol\":17491:17514  ownerToIds[_from].pop() */\n      dup1\n      sload\n      dup1\n      iszero\n      iszero\n      tag_423\n      jumpi\n      invalid\n    tag_423:\n      0x1\n      swap1\n      sub\n      dup2\n      dup2\n      swap1\n      0x0\n      mstore\n      keccak256(0x0, 0x20)\n      add\n      0x0\n      swap1\n      sstore\n      swap1\n      sstore\n        /* \"proy/pi-markets/smart-contracts/tokens/packable/PiPNFToken.sol\":16907:17521  function _removeNFToken(... */\n      pop\n      pop\n      pop\n      pop\n      jump\t// out\n        /* \"proy/pi-markets/smart-contracts/tokens/packable/PiPNFToken.sol\":260:18876  contract PiPNFToken is ... */\n    tag_278:\n      dup3\n      dup1\n      sload\n      0x1\n      dup2\n      0x1\n      and\n      iszero\n      0x100\n      mul\n      sub\n      and\n      0x2\n      swap1\n      div\n      swap1\n      0x0\n      mstore\n      keccak256(0x0, 0x20)\n      swap1\n      0x1f\n      add\n      0x20\n      swap1\n      div\n      dup2\n      add\n      swap3\n      dup3\n      0x1f\n      lt\n      tag_426\n      jumpi\n      dup1\n      mload\n      not(0xff)\n      and\n      dup4\n      dup1\n      add\n      or\n      dup6\n      sstore\n      jump(tag_425)\n    tag_426:\n      dup3\n      dup1\n      add\n      0x1\n      add\n      dup6\n      sstore\n      dup3\n      iszero\n      tag_425\n      jumpi\n      swap2\n      dup3\n      add\n    tag_427:\n      dup3\n      dup2\n      gt\n      iszero\n      tag_428\n      jumpi\n      dup3\n      mload\n      dup3\n      sstore\n      swap2\n      0x20\n      add\n      swap2\n      swap1\n      0x1\n      add\n      swap1\n      jump(tag_427)\n    tag_428:\n    tag_425:\n      pop\n      swap1\n      pop\n      tag_429\n      swap2\n      swap1\n      jump\t// in(tag_430)\n    tag_429:\n      pop\n      swap1\n      jump\t// out\n    tag_286:\n      0xa0\n      mload(0x40)\n      swap1\n      dup2\n      add\n      0x40\n      mstore\n      dup1\n      0x5\n      swap1\n        /* \"--CODEGEN--\":29:31   */\n      0x20\n        /* \"--CODEGEN--\":21:27   */\n      dup3\n        /* \"--CODEGEN--\":17:32   */\n      mul\n        /* \"--CODEGEN--\":117:121   */\n      dup1\n        /* \"--CODEGEN--\":105:115   */\n      codesize\n        /* \"--CODEGEN--\":97:103   */\n      dup4\n        /* \"--CODEGEN--\":88:122   */\n      codecopy\n        /* \"--CODEGEN--\":148:152   */\n      dup1\n        /* \"--CODEGEN--\":140:146   */\n      dup3\n        /* \"--CODEGEN--\":136:153   */\n      add\n        /* \"--CODEGEN--\":126:153   */\n      swap2\n      pop\n        /* \"--CODEGEN--\":0:157   */\n      pop\n        /* \"proy/pi-markets/smart-contracts/tokens/packable/PiPNFToken.sol\":260:18876  contract PiPNFToken is ... */\n      swap1\n      pop\n      pop\n      swap1\n      jump\t// out\n    tag_430:\n      tag_431\n      swap2\n      swap1\n    tag_432:\n      dup1\n      dup3\n      gt\n      iszero\n      tag_433\n      jumpi\n      0x0\n      dup2\n      0x0\n      swap1\n      sstore\n      pop\n      0x1\n      add\n      jump(tag_432)\n    tag_433:\n      pop\n      swap1\n      jump\n    tag_431:\n      swap1\n      jump\t// out\n        /* \"--CODEGEN--\":5:123   */\n    tag_435:\n      0x0\n        /* \"--CODEGEN--\":72:118   */\n      tag_436\n        /* \"--CODEGEN--\":110:116   */\n      dup3\n        /* \"--CODEGEN--\":97:117   */\n      calldataload\n        /* \"--CODEGEN--\":72:118   */\n      jump(tag_437)\n    tag_436:\n        /* \"--CODEGEN--\":63:118   */\n      swap1\n      pop\n        /* \"--CODEGEN--\":57:123   */\n      swap3\n      swap2\n      pop\n      pop\n      jump\n        /* \"--CODEGEN--\":149:324   */\n    tag_439:\n      0x0\n        /* \"--CODEGEN--\":248:254   */\n      dup2\n        /* \"--CODEGEN--\":236:254   */\n      swap1\n      pop\n        /* \"--CODEGEN--\":297:300   */\n      dup3\n        /* \"--CODEGEN--\":289:293   */\n      0x20\n        /* \"--CODEGEN--\":284:287   */\n      0x5\n        /* \"--CODEGEN--\":280:294   */\n      mul\n        /* \"--CODEGEN--\":270:278   */\n      dup3\n        /* \"--CODEGEN--\":266:295   */\n      add\n        /* \"--CODEGEN--\":263:301   */\n      gt\n        /* \"--CODEGEN--\":260:262   */\n      iszero\n      tag_440\n      jumpi\n        /* \"--CODEGEN--\":314:315   */\n      0x0\n        /* \"--CODEGEN--\":311:312   */\n      dup1\n        /* \"--CODEGEN--\":304:316   */\n      revert\n        /* \"--CODEGEN--\":260:262   */\n    tag_440:\n        /* \"--CODEGEN--\":229:324   */\n      swap3\n      swap2\n      pop\n      pop\n      jump\n        /* \"--CODEGEN--\":332:444   */\n    tag_442:\n      0x0\n        /* \"--CODEGEN--\":396:439   */\n      tag_443\n        /* \"--CODEGEN--\":431:437   */\n      dup3\n        /* \"--CODEGEN--\":418:438   */\n      calldataload\n        /* \"--CODEGEN--\":396:439   */\n      jump(tag_444)\n    tag_443:\n        /* \"--CODEGEN--\":387:439   */\n      swap1\n      pop\n        /* \"--CODEGEN--\":381:444   */\n      swap3\n      swap2\n      pop\n      pop\n      jump\n        /* \"--CODEGEN--\":451:569   */\n    tag_446:\n      0x0\n        /* \"--CODEGEN--\":518:564   */\n      tag_447\n        /* \"--CODEGEN--\":556:562   */\n      dup3\n        /* \"--CODEGEN--\":543:563   */\n      calldataload\n        /* \"--CODEGEN--\":518:564   */\n      jump(tag_448)\n    tag_447:\n        /* \"--CODEGEN--\":509:564   */\n      swap1\n      pop\n        /* \"--CODEGEN--\":503:569   */\n      swap3\n      swap2\n      pop\n      pop\n      jump\n        /* \"--CODEGEN--\":576:696   */\n    tag_450:\n      0x0\n        /* \"--CODEGEN--\":653:691   */\n      tag_451\n        /* \"--CODEGEN--\":683:689   */\n      dup3\n        /* \"--CODEGEN--\":677:690   */\n      mload\n        /* \"--CODEGEN--\":653:691   */\n      jump(tag_452)\n    tag_451:\n        /* \"--CODEGEN--\":644:691   */\n      swap1\n      pop\n        /* \"--CODEGEN--\":638:696   */\n      swap3\n      swap2\n      pop\n      pop\n      jump\n        /* \"--CODEGEN--\":717:1052   */\n    tag_454:\n      0x0\n      dup1\n        /* \"--CODEGEN--\":831:834   */\n      dup4\n        /* \"--CODEGEN--\":824:828   */\n      0x1f\n        /* \"--CODEGEN--\":816:822   */\n      dup5\n        /* \"--CODEGEN--\":812:829   */\n      add\n        /* \"--CODEGEN--\":808:835   */\n      slt\n        /* \"--CODEGEN--\":801:836   */\n      iszero\n        /* \"--CODEGEN--\":798:800   */\n      iszero\n      tag_455\n      jumpi\n        /* \"--CODEGEN--\":849:850   */\n      0x0\n        /* \"--CODEGEN--\":846:847   */\n      dup1\n        /* \"--CODEGEN--\":839:851   */\n      revert\n        /* \"--CODEGEN--\":798:800   */\n    tag_455:\n        /* \"--CODEGEN--\":882:888   */\n      dup3\n        /* \"--CODEGEN--\":869:889   */\n      calldataload\n        /* \"--CODEGEN--\":859:889   */\n      swap1\n      pop\n        /* \"--CODEGEN--\":909:927   */\n      0xffffffffffffffff\n        /* \"--CODEGEN--\":901:907   */\n      dup2\n        /* \"--CODEGEN--\":898:928   */\n      gt\n        /* \"--CODEGEN--\":895:897   */\n      iszero\n      tag_456\n      jumpi\n        /* \"--CODEGEN--\":941:942   */\n      0x0\n        /* \"--CODEGEN--\":938:939   */\n      dup1\n        /* \"--CODEGEN--\":931:943   */\n      revert\n        /* \"--CODEGEN--\":895:897   */\n    tag_456:\n        /* \"--CODEGEN--\":975:979   */\n      0x20\n        /* \"--CODEGEN--\":967:973   */\n      dup4\n        /* \"--CODEGEN--\":963:980   */\n      add\n        /* \"--CODEGEN--\":951:980   */\n      swap2\n      pop\n        /* \"--CODEGEN--\":1025:1028   */\n      dup4\n        /* \"--CODEGEN--\":1018:1021   */\n      0x1\n        /* \"--CODEGEN--\":1010:1016   */\n      dup3\n        /* \"--CODEGEN--\":1006:1022   */\n      mul\n        /* \"--CODEGEN--\":996:1004   */\n      dup4\n        /* \"--CODEGEN--\":992:1023   */\n      add\n        /* \"--CODEGEN--\":989:1029   */\n      gt\n        /* \"--CODEGEN--\":986:988   */\n      iszero\n      tag_457\n      jumpi\n        /* \"--CODEGEN--\":1042:1043   */\n      0x0\n        /* \"--CODEGEN--\":1039:1040   */\n      dup1\n        /* \"--CODEGEN--\":1032:1044   */\n      revert\n        /* \"--CODEGEN--\":986:988   */\n    tag_457:\n        /* \"--CODEGEN--\":791:1052   */\n      swap3\n      pop\n      swap3\n      swap1\n      pop\n      jump\n        /* \"--CODEGEN--\":1061:1503   */\n    tag_459:\n      0x0\n        /* \"--CODEGEN--\":1163:1166   */\n      dup3\n        /* \"--CODEGEN--\":1156:1160   */\n      0x1f\n        /* \"--CODEGEN--\":1148:1154   */\n      dup4\n        /* \"--CODEGEN--\":1144:1161   */\n      add\n        /* \"--CODEGEN--\":1140:1167   */\n      slt\n        /* \"--CODEGEN--\":1133:1168   */\n      iszero\n        /* \"--CODEGEN--\":1130:1132   */\n      iszero\n      tag_460\n      jumpi\n        /* \"--CODEGEN--\":1181:1182   */\n      0x0\n        /* \"--CODEGEN--\":1178:1179   */\n      dup1\n        /* \"--CODEGEN--\":1171:1183   */\n      revert\n        /* \"--CODEGEN--\":1130:1132   */\n    tag_460:\n        /* \"--CODEGEN--\":1218:1224   */\n      dup2\n        /* \"--CODEGEN--\":1205:1225   */\n      calldataload\n        /* \"--CODEGEN--\":1240:1305   */\n      tag_461\n        /* \"--CODEGEN--\":1255:1304   */\n      tag_462\n        /* \"--CODEGEN--\":1297:1303   */\n      dup3\n        /* \"--CODEGEN--\":1255:1304   */\n      jump(tag_463)\n    tag_462:\n        /* \"--CODEGEN--\":1240:1305   */\n      jump(tag_464)\n    tag_461:\n        /* \"--CODEGEN--\":1231:1305   */\n      swap2\n      pop\n        /* \"--CODEGEN--\":1325:1331   */\n      dup1\n        /* \"--CODEGEN--\":1318:1323   */\n      dup3\n        /* \"--CODEGEN--\":1311:1332   */\n      mstore\n        /* \"--CODEGEN--\":1361:1365   */\n      0x20\n        /* \"--CODEGEN--\":1353:1359   */\n      dup4\n        /* \"--CODEGEN--\":1349:1366   */\n      add\n        /* \"--CODEGEN--\":1394:1398   */\n      0x20\n        /* \"--CODEGEN--\":1387:1392   */\n      dup4\n        /* \"--CODEGEN--\":1383:1399   */\n      add\n        /* \"--CODEGEN--\":1429:1432   */\n      dup6\n        /* \"--CODEGEN--\":1420:1426   */\n      dup4\n        /* \"--CODEGEN--\":1415:1418   */\n      dup4\n        /* \"--CODEGEN--\":1411:1427   */\n      add\n        /* \"--CODEGEN--\":1408:1433   */\n      gt\n        /* \"--CODEGEN--\":1405:1407   */\n      iszero\n      tag_465\n      jumpi\n        /* \"--CODEGEN--\":1446:1447   */\n      0x0\n        /* \"--CODEGEN--\":1443:1444   */\n      dup1\n        /* \"--CODEGEN--\":1436:1448   */\n      revert\n        /* \"--CODEGEN--\":1405:1407   */\n    tag_465:\n        /* \"--CODEGEN--\":1456:1497   */\n      tag_466\n        /* \"--CODEGEN--\":1490:1496   */\n      dup4\n        /* \"--CODEGEN--\":1485:1488   */\n      dup3\n        /* \"--CODEGEN--\":1480:1483   */\n      dup5\n        /* \"--CODEGEN--\":1456:1497   */\n      jump(tag_467)\n    tag_466:\n        /* \"--CODEGEN--\":1123:1503   */\n      pop\n      pop\n      pop\n      swap3\n      swap2\n      pop\n      pop\n      jump\n        /* \"--CODEGEN--\":1511:1629   */\n    tag_469:\n      0x0\n        /* \"--CODEGEN--\":1578:1624   */\n      tag_470\n        /* \"--CODEGEN--\":1616:1622   */\n      dup3\n        /* \"--CODEGEN--\":1603:1623   */\n      calldataload\n        /* \"--CODEGEN--\":1578:1624   */\n      jump(tag_471)\n    tag_470:\n        /* \"--CODEGEN--\":1569:1624   */\n      swap1\n      pop\n        /* \"--CODEGEN--\":1563:1629   */\n      swap3\n      swap2\n      pop\n      pop\n      jump\n        /* \"--CODEGEN--\":1636:1877   */\n    tag_37:\n      0x0\n        /* \"--CODEGEN--\":1740:1742   */\n      0x20\n        /* \"--CODEGEN--\":1728:1737   */\n      dup3\n        /* \"--CODEGEN--\":1719:1726   */\n      dup5\n        /* \"--CODEGEN--\":1715:1738   */\n      sub\n        /* \"--CODEGEN--\":1711:1743   */\n      slt\n        /* \"--CODEGEN--\":1708:1710   */\n      iszero\n      tag_473\n      jumpi\n        /* \"--CODEGEN--\":1756:1757   */\n      0x0\n        /* \"--CODEGEN--\":1753:1754   */\n      dup1\n        /* \"--CODEGEN--\":1746:1758   */\n      revert\n        /* \"--CODEGEN--\":1708:1710   */\n    tag_473:\n        /* \"--CODEGEN--\":1791:1792   */\n      0x0\n        /* \"--CODEGEN--\":1808:1861   */\n      tag_474\n        /* \"--CODEGEN--\":1853:1860   */\n      dup5\n        /* \"--CODEGEN--\":1844:1850   */\n      dup3\n        /* \"--CODEGEN--\":1833:1842   */\n      dup6\n        /* \"--CODEGEN--\":1829:1851   */\n      add\n        /* \"--CODEGEN--\":1808:1861   */\n      jump(tag_435)\n    tag_474:\n        /* \"--CODEGEN--\":1798:1861   */\n      swap2\n      pop\n        /* \"--CODEGEN--\":1770:1867   */\n      pop\n        /* \"--CODEGEN--\":1702:1877   */\n      swap3\n      swap2\n      pop\n      pop\n      jump\n        /* \"--CODEGEN--\":1884:2250   */\n    tag_157:\n      0x0\n      dup1\n        /* \"--CODEGEN--\":2005:2007   */\n      0x40\n        /* \"--CODEGEN--\":1993:2002   */\n      dup4\n        /* \"--CODEGEN--\":1984:1991   */\n      dup6\n        /* \"--CODEGEN--\":1980:2003   */\n      sub\n        /* \"--CODEGEN--\":1976:2008   */\n      slt\n        /* \"--CODEGEN--\":1973:1975   */\n      iszero\n      tag_476\n      jumpi\n        /* \"--CODEGEN--\":2021:2022   */\n      0x0\n        /* \"--CODEGEN--\":2018:2019   */\n      dup1\n        /* \"--CODEGEN--\":2011:2023   */\n      revert\n        /* \"--CODEGEN--\":1973:1975   */\n    tag_476:\n        /* \"--CODEGEN--\":2056:2057   */\n      0x0\n        /* \"--CODEGEN--\":2073:2126   */\n      tag_477\n        /* \"--CODEGEN--\":2118:2125   */\n      dup6\n        /* \"--CODEGEN--\":2109:2115   */\n      dup3\n        /* \"--CODEGEN--\":2098:2107   */\n      dup7\n        /* \"--CODEGEN--\":2094:2116   */\n      add\n        /* \"--CODEGEN--\":2073:2126   */\n      jump(tag_435)\n    tag_477:\n        /* \"--CODEGEN--\":2063:2126   */\n      swap3\n      pop\n        /* \"--CODEGEN--\":2035:2132   */\n      pop\n        /* \"--CODEGEN--\":2163:2165   */\n      0x20\n        /* \"--CODEGEN--\":2181:2234   */\n      tag_478\n        /* \"--CODEGEN--\":2226:2233   */\n      dup6\n        /* \"--CODEGEN--\":2217:2223   */\n      dup3\n        /* \"--CODEGEN--\":2206:2215   */\n      dup7\n        /* \"--CODEGEN--\":2202:2224   */\n      add\n        /* \"--CODEGEN--\":2181:2234   */\n      jump(tag_435)\n    tag_478:\n        /* \"--CODEGEN--\":2171:2234   */\n      swap2\n      pop\n        /* \"--CODEGEN--\":2142:2240   */\n      pop\n        /* \"--CODEGEN--\":1967:2250   */\n      swap3\n      pop\n      swap3\n      swap1\n      pop\n      jump\n        /* \"--CODEGEN--\":2257:2748   */\n    tag_82:\n      0x0\n      dup1\n      0x0\n        /* \"--CODEGEN--\":2395:2397   */\n      0x60\n        /* \"--CODEGEN--\":2383:2392   */\n      dup5\n        /* \"--CODEGEN--\":2374:2381   */\n      dup7\n        /* \"--CODEGEN--\":2370:2393   */\n      sub\n        /* \"--CODEGEN--\":2366:2398   */\n      slt\n        /* \"--CODEGEN--\":2363:2365   */\n      iszero\n      tag_480\n      jumpi\n        /* \"--CODEGEN--\":2411:2412   */\n      0x0\n        /* \"--CODEGEN--\":2408:2409   */\n      dup1\n        /* \"--CODEGEN--\":2401:2413   */\n      revert\n        /* \"--CODEGEN--\":2363:2365   */\n    tag_480:\n        /* \"--CODEGEN--\":2446:2447   */\n      0x0\n        /* \"--CODEGEN--\":2463:2516   */\n      tag_481\n        /* \"--CODEGEN--\":2508:2515   */\n      dup7\n        /* \"--CODEGEN--\":2499:2505   */\n      dup3\n        /* \"--CODEGEN--\":2488:2497   */\n      dup8\n        /* \"--CODEGEN--\":2484:2506   */\n      add\n        /* \"--CODEGEN--\":2463:2516   */\n      jump(tag_435)\n    tag_481:\n        /* \"--CODEGEN--\":2453:2516   */\n      swap4\n      pop\n        /* \"--CODEGEN--\":2425:2522   */\n      pop\n        /* \"--CODEGEN--\":2553:2555   */\n      0x20\n        /* \"--CODEGEN--\":2571:2624   */\n      tag_482\n        /* \"--CODEGEN--\":2616:2623   */\n      dup7\n        /* \"--CODEGEN--\":2607:2613   */\n      dup3\n        /* \"--CODEGEN--\":2596:2605   */\n      dup8\n        /* \"--CODEGEN--\":2592:2614   */\n      add\n        /* \"--CODEGEN--\":2571:2624   */\n      jump(tag_435)\n    tag_482:\n        /* \"--CODEGEN--\":2561:2624   */\n      swap3\n      pop\n        /* \"--CODEGEN--\":2532:2630   */\n      pop\n        /* \"--CODEGEN--\":2661:2663   */\n      0x40\n        /* \"--CODEGEN--\":2679:2732   */\n      tag_483\n        /* \"--CODEGEN--\":2724:2731   */\n      dup7\n        /* \"--CODEGEN--\":2715:2721   */\n      dup3\n        /* \"--CODEGEN--\":2704:2713   */\n      dup8\n        /* \"--CODEGEN--\":2700:2722   */\n      add\n        /* \"--CODEGEN--\":2679:2732   */\n      jump(tag_446)\n    tag_483:\n        /* \"--CODEGEN--\":2669:2732   */\n      swap2\n      pop\n        /* \"--CODEGEN--\":2640:2738   */\n      pop\n        /* \"--CODEGEN--\":2357:2748   */\n      swap3\n      pop\n      swap3\n      pop\n      swap3\n      jump\n        /* \"--CODEGEN--\":2755:3372   */\n    tag_88:\n      0x0\n      dup1\n      0x0\n      dup1\n        /* \"--CODEGEN--\":2910:2913   */\n      0x80\n        /* \"--CODEGEN--\":2898:2907   */\n      dup6\n        /* \"--CODEGEN--\":2889:2896   */\n      dup8\n        /* \"--CODEGEN--\":2885:2908   */\n      sub\n        /* \"--CODEGEN--\":2881:2914   */\n      slt\n        /* \"--CODEGEN--\":2878:2880   */\n      iszero\n      tag_485\n      jumpi\n        /* \"--CODEGEN--\":2927:2928   */\n      0x0\n        /* \"--CODEGEN--\":2924:2925   */\n      dup1\n        /* \"--CODEGEN--\":2917:2929   */\n      revert\n        /* \"--CODEGEN--\":2878:2880   */\n    tag_485:\n        /* \"--CODEGEN--\":2962:2963   */\n      0x0\n        /* \"--CODEGEN--\":2979:3032   */\n      tag_486\n        /* \"--CODEGEN--\":3024:3031   */\n      dup8\n        /* \"--CODEGEN--\":3015:3021   */\n      dup3\n        /* \"--CODEGEN--\":3004:3013   */\n      dup9\n        /* \"--CODEGEN--\":3000:3022   */\n      add\n        /* \"--CODEGEN--\":2979:3032   */\n      jump(tag_435)\n    tag_486:\n        /* \"--CODEGEN--\":2969:3032   */\n      swap5\n      pop\n        /* \"--CODEGEN--\":2941:3038   */\n      pop\n        /* \"--CODEGEN--\":3069:3071   */\n      0x20\n        /* \"--CODEGEN--\":3087:3140   */\n      tag_487\n        /* \"--CODEGEN--\":3132:3139   */\n      dup8\n        /* \"--CODEGEN--\":3123:3129   */\n      dup3\n        /* \"--CODEGEN--\":3112:3121   */\n      dup9\n        /* \"--CODEGEN--\":3108:3130   */\n      add\n        /* \"--CODEGEN--\":3087:3140   */\n      jump(tag_435)\n    tag_487:\n        /* \"--CODEGEN--\":3077:3140   */\n      swap4\n      pop\n        /* \"--CODEGEN--\":3048:3146   */\n      pop\n        /* \"--CODEGEN--\":3177:3179   */\n      0x40\n        /* \"--CODEGEN--\":3195:3248   */\n      tag_488\n        /* \"--CODEGEN--\":3240:3247   */\n      dup8\n        /* \"--CODEGEN--\":3231:3237   */\n      dup3\n        /* \"--CODEGEN--\":3220:3229   */\n      dup9\n        /* \"--CODEGEN--\":3216:3238   */\n      add\n        /* \"--CODEGEN--\":3195:3248   */\n      jump(tag_446)\n    tag_488:\n        /* \"--CODEGEN--\":3185:3248   */\n      swap3\n      pop\n        /* \"--CODEGEN--\":3156:3254   */\n      pop\n        /* \"--CODEGEN--\":3285:3287   */\n      0x60\n        /* \"--CODEGEN--\":3303:3356   */\n      tag_489\n        /* \"--CODEGEN--\":3348:3355   */\n      dup8\n        /* \"--CODEGEN--\":3339:3345   */\n      dup3\n        /* \"--CODEGEN--\":3328:3337   */\n      dup9\n        /* \"--CODEGEN--\":3324:3346   */\n      add\n        /* \"--CODEGEN--\":3303:3356   */\n      jump(tag_469)\n    tag_489:\n        /* \"--CODEGEN--\":3293:3356   */\n      swap2\n      pop\n        /* \"--CODEGEN--\":3264:3362   */\n      pop\n        /* \"--CODEGEN--\":2872:3372   */\n      swap3\n      swap6\n      swap2\n      swap5\n      pop\n      swap3\n      pop\n      jump\n        /* \"--CODEGEN--\":3379:4246   */\n    tag_148:\n      0x0\n      dup1\n      0x0\n      dup1\n      0x0\n      dup1\n        /* \"--CODEGEN--\":3570:3573   */\n      0xa0\n        /* \"--CODEGEN--\":3558:3567   */\n      dup8\n        /* \"--CODEGEN--\":3549:3556   */\n      dup10\n        /* \"--CODEGEN--\":3545:3568   */\n      sub\n        /* \"--CODEGEN--\":3541:3574   */\n      slt\n        /* \"--CODEGEN--\":3538:3540   */\n      iszero\n      tag_491\n      jumpi\n        /* \"--CODEGEN--\":3587:3588   */\n      0x0\n        /* \"--CODEGEN--\":3584:3585   */\n      dup1\n        /* \"--CODEGEN--\":3577:3589   */\n      revert\n        /* \"--CODEGEN--\":3538:3540   */\n    tag_491:\n        /* \"--CODEGEN--\":3622:3623   */\n      0x0\n        /* \"--CODEGEN--\":3639:3692   */\n      tag_492\n        /* \"--CODEGEN--\":3684:3691   */\n      dup10\n        /* \"--CODEGEN--\":3675:3681   */\n      dup3\n        /* \"--CODEGEN--\":3664:3673   */\n      dup11\n        /* \"--CODEGEN--\":3660:3682   */\n      add\n        /* \"--CODEGEN--\":3639:3692   */\n      jump(tag_435)\n    tag_492:\n        /* \"--CODEGEN--\":3629:3692   */\n      swap7\n      pop\n        /* \"--CODEGEN--\":3601:3698   */\n      pop\n        /* \"--CODEGEN--\":3729:3731   */\n      0x20\n        /* \"--CODEGEN--\":3747:3800   */\n      tag_493\n        /* \"--CODEGEN--\":3792:3799   */\n      dup10\n        /* \"--CODEGEN--\":3783:3789   */\n      dup3\n        /* \"--CODEGEN--\":3772:3781   */\n      dup11\n        /* \"--CODEGEN--\":3768:3790   */\n      add\n        /* \"--CODEGEN--\":3747:3800   */\n      jump(tag_435)\n    tag_493:\n        /* \"--CODEGEN--\":3737:3800   */\n      swap6\n      pop\n        /* \"--CODEGEN--\":3708:3806   */\n      pop\n        /* \"--CODEGEN--\":3837:3839   */\n      0x40\n        /* \"--CODEGEN--\":3855:3908   */\n      tag_494\n        /* \"--CODEGEN--\":3900:3907   */\n      dup10\n        /* \"--CODEGEN--\":3891:3897   */\n      dup3\n        /* \"--CODEGEN--\":3880:3889   */\n      dup11\n        /* \"--CODEGEN--\":3876:3898   */\n      add\n        /* \"--CODEGEN--\":3855:3908   */\n      jump(tag_446)\n    tag_494:\n        /* \"--CODEGEN--\":3845:3908   */\n      swap5\n      pop\n        /* \"--CODEGEN--\":3816:3914   */\n      pop\n        /* \"--CODEGEN--\":3945:3947   */\n      0x60\n        /* \"--CODEGEN--\":3963:4016   */\n      tag_495\n        /* \"--CODEGEN--\":4008:4015   */\n      dup10\n        /* \"--CODEGEN--\":3999:4005   */\n      dup3\n        /* \"--CODEGEN--\":3988:3997   */\n      dup11\n        /* \"--CODEGEN--\":3984:4006   */\n      add\n        /* \"--CODEGEN--\":3963:4016   */\n      jump(tag_469)\n    tag_495:\n        /* \"--CODEGEN--\":3953:4016   */\n      swap4\n      pop\n        /* \"--CODEGEN--\":3924:4022   */\n      pop\n        /* \"--CODEGEN--\":4081:4084   */\n      0x80\n        /* \"--CODEGEN--\":4070:4079   */\n      dup8\n        /* \"--CODEGEN--\":4066:4085   */\n      add\n        /* \"--CODEGEN--\":4053:4086   */\n      calldataload\n        /* \"--CODEGEN--\":4106:4124   */\n      0xffffffffffffffff\n        /* \"--CODEGEN--\":4098:4104   */\n      dup2\n        /* \"--CODEGEN--\":4095:4125   */\n      gt\n        /* \"--CODEGEN--\":4092:4094   */\n      iszero\n      tag_496\n      jumpi\n        /* \"--CODEGEN--\":4138:4139   */\n      0x0\n        /* \"--CODEGEN--\":4135:4136   */\n      dup1\n        /* \"--CODEGEN--\":4128:4140   */\n      revert\n        /* \"--CODEGEN--\":4092:4094   */\n    tag_496:\n        /* \"--CODEGEN--\":4166:4230   */\n      tag_497\n        /* \"--CODEGEN--\":4222:4229   */\n      dup10\n        /* \"--CODEGEN--\":4213:4219   */\n      dup3\n        /* \"--CODEGEN--\":4202:4211   */\n      dup11\n        /* \"--CODEGEN--\":4198:4220   */\n      add\n        /* \"--CODEGEN--\":4166:4230   */\n      jump(tag_454)\n    tag_497:\n        /* \"--CODEGEN--\":4148:4230   */\n      swap3\n      pop\n      swap3\n      pop\n        /* \"--CODEGEN--\":4032:4236   */\n      pop\n        /* \"--CODEGEN--\":3532:4246   */\n      swap3\n      swap6\n      pop\n      swap3\n      swap6\n      pop\n      swap3\n      swap6\n      jump\n        /* \"--CODEGEN--\":4253:4796   */\n    tag_105:\n      0x0\n      dup1\n      0x0\n        /* \"--CODEGEN--\":4416:4419   */\n      0xe0\n        /* \"--CODEGEN--\":4404:4413   */\n      dup5\n        /* \"--CODEGEN--\":4395:4402   */\n      dup7\n        /* \"--CODEGEN--\":4391:4414   */\n      sub\n        /* \"--CODEGEN--\":4387:4420   */\n      slt\n        /* \"--CODEGEN--\":4384:4386   */\n      iszero\n      tag_499\n      jumpi\n        /* \"--CODEGEN--\":4433:4434   */\n      0x0\n        /* \"--CODEGEN--\":4430:4431   */\n      dup1\n        /* \"--CODEGEN--\":4423:4435   */\n      revert\n        /* \"--CODEGEN--\":4384:4386   */\n    tag_499:\n        /* \"--CODEGEN--\":4468:4469   */\n      0x0\n        /* \"--CODEGEN--\":4485:4538   */\n      tag_500\n        /* \"--CODEGEN--\":4530:4537   */\n      dup7\n        /* \"--CODEGEN--\":4521:4527   */\n      dup3\n        /* \"--CODEGEN--\":4510:4519   */\n      dup8\n        /* \"--CODEGEN--\":4506:4528   */\n      add\n        /* \"--CODEGEN--\":4485:4538   */\n      jump(tag_435)\n    tag_500:\n        /* \"--CODEGEN--\":4475:4538   */\n      swap4\n      pop\n        /* \"--CODEGEN--\":4447:4544   */\n      pop\n        /* \"--CODEGEN--\":4575:4577   */\n      0x20\n        /* \"--CODEGEN--\":4593:4671   */\n      tag_501\n        /* \"--CODEGEN--\":4663:4670   */\n      dup7\n        /* \"--CODEGEN--\":4654:4660   */\n      dup3\n        /* \"--CODEGEN--\":4643:4652   */\n      dup8\n        /* \"--CODEGEN--\":4639:4661   */\n      add\n        /* \"--CODEGEN--\":4593:4671   */\n      jump(tag_439)\n    tag_501:\n        /* \"--CODEGEN--\":4583:4671   */\n      swap3\n      pop\n        /* \"--CODEGEN--\":4554:4677   */\n      pop\n        /* \"--CODEGEN--\":4708:4711   */\n      0xc0\n        /* \"--CODEGEN--\":4727:4780   */\n      tag_502\n        /* \"--CODEGEN--\":4772:4779   */\n      dup7\n        /* \"--CODEGEN--\":4763:4769   */\n      dup3\n        /* \"--CODEGEN--\":4752:4761   */\n      dup8\n        /* \"--CODEGEN--\":4748:4770   */\n      add\n        /* \"--CODEGEN--\":4727:4780   */\n      jump(tag_469)\n    tag_502:\n        /* \"--CODEGEN--\":4717:4780   */\n      swap2\n      pop\n        /* \"--CODEGEN--\":4687:4786   */\n      pop\n        /* \"--CODEGEN--\":4378:4796   */\n      swap3\n      pop\n      swap3\n      pop\n      swap3\n      jump\n        /* \"--CODEGEN--\":4803:5163   */\n    tag_133:\n      0x0\n      dup1\n        /* \"--CODEGEN--\":4921:4923   */\n      0x40\n        /* \"--CODEGEN--\":4909:4918   */\n      dup4\n        /* \"--CODEGEN--\":4900:4907   */\n      dup6\n        /* \"--CODEGEN--\":4896:4919   */\n      sub\n        /* \"--CODEGEN--\":4892:4924   */\n      slt\n        /* \"--CODEGEN--\":4889:4891   */\n      iszero\n      tag_504\n      jumpi\n        /* \"--CODEGEN--\":4937:4938   */\n      0x0\n        /* \"--CODEGEN--\":4934:4935   */\n      dup1\n        /* \"--CODEGEN--\":4927:4939   */\n      revert\n        /* \"--CODEGEN--\":4889:4891   */\n    tag_504:\n        /* \"--CODEGEN--\":4972:4973   */\n      0x0\n        /* \"--CODEGEN--\":4989:5042   */\n      tag_505\n        /* \"--CODEGEN--\":5034:5041   */\n      dup6\n        /* \"--CODEGEN--\":5025:5031   */\n      dup3\n        /* \"--CODEGEN--\":5014:5023   */\n      dup7\n        /* \"--CODEGEN--\":5010:5032   */\n      add\n        /* \"--CODEGEN--\":4989:5042   */\n      jump(tag_435)\n    tag_505:\n        /* \"--CODEGEN--\":4979:5042   */\n      swap3\n      pop\n        /* \"--CODEGEN--\":4951:5048   */\n      pop\n        /* \"--CODEGEN--\":5079:5081   */\n      0x20\n        /* \"--CODEGEN--\":5097:5147   */\n      tag_506\n        /* \"--CODEGEN--\":5139:5146   */\n      dup6\n        /* \"--CODEGEN--\":5130:5136   */\n      dup3\n        /* \"--CODEGEN--\":5119:5128   */\n      dup7\n        /* \"--CODEGEN--\":5115:5137   */\n      add\n        /* \"--CODEGEN--\":5097:5147   */\n      jump(tag_442)\n    tag_506:\n        /* \"--CODEGEN--\":5087:5147   */\n      swap2\n      pop\n        /* \"--CODEGEN--\":5058:5153   */\n      pop\n        /* \"--CODEGEN--\":4883:5163   */\n      swap3\n      pop\n      swap3\n      swap1\n      pop\n      jump\n        /* \"--CODEGEN--\":5170:5536   */\n    tag_47:\n      0x0\n      dup1\n        /* \"--CODEGEN--\":5291:5293   */\n      0x40\n        /* \"--CODEGEN--\":5279:5288   */\n      dup4\n        /* \"--CODEGEN--\":5270:5277   */\n      dup6\n        /* \"--CODEGEN--\":5266:5289   */\n      sub\n        /* \"--CODEGEN--\":5262:5294   */\n      slt\n        /* \"--CODEGEN--\":5259:5261   */\n      iszero\n      tag_508\n      jumpi\n        /* \"--CODEGEN--\":5307:5308   */\n      0x0\n        /* \"--CODEGEN--\":5304:5305   */\n      dup1\n        /* \"--CODEGEN--\":5297:5309   */\n      revert\n        /* \"--CODEGEN--\":5259:5261   */\n    tag_508:\n        /* \"--CODEGEN--\":5342:5343   */\n      0x0\n        /* \"--CODEGEN--\":5359:5412   */\n      tag_509\n        /* \"--CODEGEN--\":5404:5411   */\n      dup6\n        /* \"--CODEGEN--\":5395:5401   */\n      dup3\n        /* \"--CODEGEN--\":5384:5393   */\n      dup7\n        /* \"--CODEGEN--\":5380:5402   */\n      add\n        /* \"--CODEGEN--\":5359:5412   */\n      jump(tag_435)\n    tag_509:\n        /* \"--CODEGEN--\":5349:5412   */\n      swap3\n      pop\n        /* \"--CODEGEN--\":5321:5418   */\n      pop\n        /* \"--CODEGEN--\":5449:5451   */\n      0x20\n        /* \"--CODEGEN--\":5467:5520   */\n      tag_510\n        /* \"--CODEGEN--\":5512:5519   */\n      dup6\n        /* \"--CODEGEN--\":5503:5509   */\n      dup3\n        /* \"--CODEGEN--\":5492:5501   */\n      dup7\n        /* \"--CODEGEN--\":5488:5510   */\n      add\n        /* \"--CODEGEN--\":5467:5520   */\n      jump(tag_446)\n    tag_510:\n        /* \"--CODEGEN--\":5457:5520   */\n      swap2\n      pop\n        /* \"--CODEGEN--\":5428:5526   */\n      pop\n        /* \"--CODEGEN--\":5253:5536   */\n      swap3\n      pop\n      swap3\n      swap1\n      pop\n      jump\n        /* \"--CODEGEN--\":5543:5909   */\n    tag_64:\n      0x0\n      dup1\n        /* \"--CODEGEN--\":5664:5666   */\n      0x40\n        /* \"--CODEGEN--\":5652:5661   */\n      dup4\n        /* \"--CODEGEN--\":5643:5650   */\n      dup6\n        /* \"--CODEGEN--\":5639:5662   */\n      sub\n        /* \"--CODEGEN--\":5635:5667   */\n      slt\n        /* \"--CODEGEN--\":5632:5634   */\n      iszero\n      tag_512\n      jumpi\n        /* \"--CODEGEN--\":5680:5681   */\n      0x0\n        /* \"--CODEGEN--\":5677:5678   */\n      dup1\n        /* \"--CODEGEN--\":5670:5682   */\n      revert\n        /* \"--CODEGEN--\":5632:5634   */\n    tag_512:\n        /* \"--CODEGEN--\":5715:5716   */\n      0x0\n        /* \"--CODEGEN--\":5732:5785   */\n      tag_513\n        /* \"--CODEGEN--\":5777:5784   */\n      dup6\n        /* \"--CODEGEN--\":5768:5774   */\n      dup3\n        /* \"--CODEGEN--\":5757:5766   */\n      dup7\n        /* \"--CODEGEN--\":5753:5775   */\n      add\n        /* \"--CODEGEN--\":5732:5785   */\n      jump(tag_435)\n    tag_513:\n        /* \"--CODEGEN--\":5722:5785   */\n      swap3\n      pop\n        /* \"--CODEGEN--\":5694:5791   */\n      pop\n        /* \"--CODEGEN--\":5822:5824   */\n      0x20\n        /* \"--CODEGEN--\":5840:5893   */\n      tag_514\n        /* \"--CODEGEN--\":5885:5892   */\n      dup6\n        /* \"--CODEGEN--\":5876:5882   */\n      dup3\n        /* \"--CODEGEN--\":5865:5874   */\n      dup7\n        /* \"--CODEGEN--\":5861:5883   */\n      add\n        /* \"--CODEGEN--\":5840:5893   */\n      jump(tag_469)\n    tag_514:\n        /* \"--CODEGEN--\":5830:5893   */\n      swap2\n      pop\n        /* \"--CODEGEN--\":5801:5899   */\n      pop\n        /* \"--CODEGEN--\":5626:5909   */\n      swap3\n      pop\n      swap3\n      swap1\n      pop\n      jump\n        /* \"--CODEGEN--\":5916:6157   */\n    tag_93:\n      0x0\n        /* \"--CODEGEN--\":6020:6022   */\n      0x20\n        /* \"--CODEGEN--\":6008:6017   */\n      dup3\n        /* \"--CODEGEN--\":5999:6006   */\n      dup5\n        /* \"--CODEGEN--\":5995:6018   */\n      sub\n        /* \"--CODEGEN--\":5991:6023   */\n      slt\n        /* \"--CODEGEN--\":5988:5990   */\n      iszero\n      tag_516\n      jumpi\n        /* \"--CODEGEN--\":6036:6037   */\n      0x0\n        /* \"--CODEGEN--\":6033:6034   */\n      dup1\n        /* \"--CODEGEN--\":6026:6038   */\n      revert\n        /* \"--CODEGEN--\":5988:5990   */\n    tag_516:\n        /* \"--CODEGEN--\":6071:6072   */\n      0x0\n        /* \"--CODEGEN--\":6088:6141   */\n      tag_517\n        /* \"--CODEGEN--\":6133:6140   */\n      dup5\n        /* \"--CODEGEN--\":6124:6130   */\n      dup3\n        /* \"--CODEGEN--\":6113:6122   */\n      dup6\n        /* \"--CODEGEN--\":6109:6131   */\n      add\n        /* \"--CODEGEN--\":6088:6141   */\n      jump(tag_446)\n    tag_517:\n        /* \"--CODEGEN--\":6078:6141   */\n      swap2\n      pop\n        /* \"--CODEGEN--\":6050:6147   */\n      pop\n        /* \"--CODEGEN--\":5982:6157   */\n      swap3\n      swap2\n      pop\n      pop\n      jump\n        /* \"--CODEGEN--\":6164:6530   */\n    tag_110:\n      0x0\n      dup1\n        /* \"--CODEGEN--\":6285:6287   */\n      0x40\n        /* \"--CODEGEN--\":6273:6282   */\n      dup4\n        /* \"--CODEGEN--\":6264:6271   */\n      dup6\n        /* \"--CODEGEN--\":6260:6283   */\n      sub\n        /* \"--CODEGEN--\":6256:6288   */\n      slt\n        /* \"--CODEGEN--\":6253:6255   */\n      iszero\n      tag_519\n      jumpi\n        /* \"--CODEGEN--\":6301:6302   */\n      0x0\n        /* \"--CODEGEN--\":6298:6299   */\n      dup1\n        /* \"--CODEGEN--\":6291:6303   */\n      revert\n        /* \"--CODEGEN--\":6253:6255   */\n    tag_519:\n        /* \"--CODEGEN--\":6336:6337   */\n      0x0\n        /* \"--CODEGEN--\":6353:6406   */\n      tag_520\n        /* \"--CODEGEN--\":6398:6405   */\n      dup6\n        /* \"--CODEGEN--\":6389:6395   */\n      dup3\n        /* \"--CODEGEN--\":6378:6387   */\n      dup7\n        /* \"--CODEGEN--\":6374:6396   */\n      add\n        /* \"--CODEGEN--\":6353:6406   */\n      jump(tag_446)\n    tag_520:\n        /* \"--CODEGEN--\":6343:6406   */\n      swap3\n      pop\n        /* \"--CODEGEN--\":6315:6412   */\n      pop\n        /* \"--CODEGEN--\":6443:6445   */\n      0x20\n        /* \"--CODEGEN--\":6461:6514   */\n      tag_521\n        /* \"--CODEGEN--\":6506:6513   */\n      dup6\n        /* \"--CODEGEN--\":6497:6503   */\n      dup3\n        /* \"--CODEGEN--\":6486:6495   */\n      dup7\n        /* \"--CODEGEN--\":6482:6504   */\n      add\n        /* \"--CODEGEN--\":6461:6514   */\n      jump(tag_469)\n    tag_521:\n        /* \"--CODEGEN--\":6451:6514   */\n      swap2\n      pop\n        /* \"--CODEGEN--\":6422:6520   */\n      pop\n        /* \"--CODEGEN--\":6247:6530   */\n      swap3\n      pop\n      swap3\n      swap1\n      pop\n      jump\n        /* \"--CODEGEN--\":6537:6798   */\n    tag_388:\n      0x0\n        /* \"--CODEGEN--\":6651:6653   */\n      0x20\n        /* \"--CODEGEN--\":6639:6648   */\n      dup3\n        /* \"--CODEGEN--\":6630:6637   */\n      dup5\n        /* \"--CODEGEN--\":6626:6649   */\n      sub\n        /* \"--CODEGEN--\":6622:6654   */\n      slt\n        /* \"--CODEGEN--\":6619:6621   */\n      iszero\n      tag_523\n      jumpi\n        /* \"--CODEGEN--\":6667:6668   */\n      0x0\n        /* \"--CODEGEN--\":6664:6665   */\n      dup1\n        /* \"--CODEGEN--\":6657:6669   */\n      revert\n        /* \"--CODEGEN--\":6619:6621   */\n    tag_523:\n        /* \"--CODEGEN--\":6702:6703   */\n      0x0\n        /* \"--CODEGEN--\":6719:6782   */\n      tag_524\n        /* \"--CODEGEN--\":6774:6781   */\n      dup5\n        /* \"--CODEGEN--\":6765:6771   */\n      dup3\n        /* \"--CODEGEN--\":6754:6763   */\n      dup6\n        /* \"--CODEGEN--\":6750:6772   */\n      add\n        /* \"--CODEGEN--\":6719:6782   */\n      jump(tag_450)\n    tag_524:\n        /* \"--CODEGEN--\":6709:6782   */\n      swap2\n      pop\n        /* \"--CODEGEN--\":6681:6788   */\n      pop\n        /* \"--CODEGEN--\":6613:6798   */\n      swap3\n      swap2\n      pop\n      pop\n      jump\n        /* \"--CODEGEN--\":6805:7152   */\n    tag_124:\n      0x0\n        /* \"--CODEGEN--\":6919:6921   */\n      0x20\n        /* \"--CODEGEN--\":6907:6916   */\n      dup3\n        /* \"--CODEGEN--\":6898:6905   */\n      dup5\n        /* \"--CODEGEN--\":6894:6917   */\n      sub\n        /* \"--CODEGEN--\":6890:6922   */\n      slt\n        /* \"--CODEGEN--\":6887:6889   */\n      iszero\n      tag_526\n      jumpi\n        /* \"--CODEGEN--\":6935:6936   */\n      0x0\n        /* \"--CODEGEN--\":6932:6933   */\n      dup1\n        /* \"--CODEGEN--\":6925:6937   */\n      revert\n        /* \"--CODEGEN--\":6887:6889   */\n    tag_526:\n        /* \"--CODEGEN--\":6998:6999   */\n      0x0\n        /* \"--CODEGEN--\":6987:6996   */\n      dup3\n        /* \"--CODEGEN--\":6983:7000   */\n      add\n        /* \"--CODEGEN--\":6970:7001   */\n      calldataload\n        /* \"--CODEGEN--\":7021:7039   */\n      0xffffffffffffffff\n        /* \"--CODEGEN--\":7013:7019   */\n      dup2\n        /* \"--CODEGEN--\":7010:7040   */\n      gt\n        /* \"--CODEGEN--\":7007:7009   */\n      iszero\n      tag_527\n      jumpi\n        /* \"--CODEGEN--\":7053:7054   */\n      0x0\n        /* \"--CODEGEN--\":7050:7051   */\n      dup1\n        /* \"--CODEGEN--\":7043:7055   */\n      revert\n        /* \"--CODEGEN--\":7007:7009   */\n    tag_527:\n        /* \"--CODEGEN--\":7073:7136   */\n      tag_528\n        /* \"--CODEGEN--\":7128:7135   */\n      dup5\n        /* \"--CODEGEN--\":7119:7125   */\n      dup3\n        /* \"--CODEGEN--\":7108:7117   */\n      dup6\n        /* \"--CODEGEN--\":7104:7126   */\n      add\n        /* \"--CODEGEN--\":7073:7136   */\n      jump(tag_459)\n    tag_528:\n        /* \"--CODEGEN--\":7063:7136   */\n      swap2\n      pop\n        /* \"--CODEGEN--\":6949:7142   */\n      pop\n        /* \"--CODEGEN--\":6881:7152   */\n      swap3\n      swap2\n      pop\n      pop\n      jump\n        /* \"--CODEGEN--\":7159:7400   */\n    tag_76:\n      0x0\n        /* \"--CODEGEN--\":7263:7265   */\n      0x20\n        /* \"--CODEGEN--\":7251:7260   */\n      dup3\n        /* \"--CODEGEN--\":7242:7249   */\n      dup5\n        /* \"--CODEGEN--\":7238:7261   */\n      sub\n        /* \"--CODEGEN--\":7234:7266   */\n      slt\n        /* \"--CODEGEN--\":7231:7233   */\n      iszero\n      tag_530\n      jumpi\n        /* \"--CODEGEN--\":7279:7280   */\n      0x0\n        /* \"--CODEGEN--\":7276:7277   */\n      dup1\n        /* \"--CODEGEN--\":7269:7281   */\n      revert\n        /* \"--CODEGEN--\":7231:7233   */\n    tag_530:\n        /* \"--CODEGEN--\":7314:7315   */\n      0x0\n        /* \"--CODEGEN--\":7331:7384   */\n      tag_531\n        /* \"--CODEGEN--\":7376:7383   */\n      dup5\n        /* \"--CODEGEN--\":7367:7373   */\n      dup3\n        /* \"--CODEGEN--\":7356:7365   */\n      dup6\n        /* \"--CODEGEN--\":7352:7374   */\n      add\n        /* \"--CODEGEN--\":7331:7384   */\n      jump(tag_469)\n    tag_531:\n        /* \"--CODEGEN--\":7321:7384   */\n      swap2\n      pop\n        /* \"--CODEGEN--\":7293:7390   */\n      pop\n        /* \"--CODEGEN--\":7225:7400   */\n      swap3\n      swap2\n      pop\n      pop\n      jump\n        /* \"--CODEGEN--\":7407:7539   */\n    tag_533:\n        /* \"--CODEGEN--\":7488:7533   */\n      tag_534\n        /* \"--CODEGEN--\":7527:7532   */\n      dup2\n        /* \"--CODEGEN--\":7488:7533   */\n      jump(tag_535)\n    tag_534:\n        /* \"--CODEGEN--\":7483:7486   */\n      dup3\n        /* \"--CODEGEN--\":7476:7534   */\n      mstore\n        /* \"--CODEGEN--\":7470:7539   */\n      pop\n      pop\n      jump\n        /* \"--CODEGEN--\":7546:7656   */\n    tag_537:\n        /* \"--CODEGEN--\":7619:7650   */\n      tag_538\n        /* \"--CODEGEN--\":7644:7649   */\n      dup2\n        /* \"--CODEGEN--\":7619:7650   */\n      jump(tag_539)\n    tag_538:\n        /* \"--CODEGEN--\":7614:7617   */\n      dup3\n        /* \"--CODEGEN--\":7607:7651   */\n      mstore\n        /* \"--CODEGEN--\":7601:7656   */\n      pop\n      pop\n      jump\n        /* \"--CODEGEN--\":7694:8284   */\n    tag_541:\n      0x0\n        /* \"--CODEGEN--\":7829:7883   */\n      tag_542\n        /* \"--CODEGEN--\":7877:7882   */\n      dup3\n        /* \"--CODEGEN--\":7829:7883   */\n      jump(tag_543)\n    tag_542:\n        /* \"--CODEGEN--\":7901:7907   */\n      dup1\n        /* \"--CODEGEN--\":7896:7899   */\n      dup5\n        /* \"--CODEGEN--\":7889:7908   */\n      mstore\n        /* \"--CODEGEN--\":7925:7929   */\n      0x20\n        /* \"--CODEGEN--\":7920:7923   */\n      dup5\n        /* \"--CODEGEN--\":7916:7930   */\n      add\n        /* \"--CODEGEN--\":7909:7930   */\n      swap4\n      pop\n        /* \"--CODEGEN--\":7970:8026   */\n      tag_544\n        /* \"--CODEGEN--\":8020:8025   */\n      dup4\n        /* \"--CODEGEN--\":7970:8026   */\n      jump(tag_545)\n    tag_544:\n        /* \"--CODEGEN--\":8047:8048   */\n      0x0\n        /* \"--CODEGEN--\":8032:8262   */\n    tag_546:\n        /* \"--CODEGEN--\":8057:8063   */\n      dup3\n        /* \"--CODEGEN--\":8054:8055   */\n      dup2\n        /* \"--CODEGEN--\":8051:8064   */\n      lt\n        /* \"--CODEGEN--\":8032:8262   */\n      iszero\n      tag_547\n      jumpi\n        /* \"--CODEGEN--\":8097:8150   */\n      tag_549\n        /* \"--CODEGEN--\":8146:8149   */\n      dup7\n        /* \"--CODEGEN--\":8137:8143   */\n      dup4\n        /* \"--CODEGEN--\":8131:8144   */\n      mload\n        /* \"--CODEGEN--\":8097:8150   */\n      jump(tag_550)\n    tag_549:\n        /* \"--CODEGEN--\":8167:8227   */\n      tag_551\n        /* \"--CODEGEN--\":8220:8226   */\n      dup3\n        /* \"--CODEGEN--\":8167:8227   */\n      jump(tag_552)\n    tag_551:\n        /* \"--CODEGEN--\":8157:8227   */\n      swap2\n      pop\n        /* \"--CODEGEN--\":8250:8254   */\n      0x20\n        /* \"--CODEGEN--\":8245:8248   */\n      dup7\n        /* \"--CODEGEN--\":8241:8255   */\n      add\n        /* \"--CODEGEN--\":8234:8255   */\n      swap6\n      pop\n        /* \"--CODEGEN--\":8079:8080   */\n      0x1\n        /* \"--CODEGEN--\":8076:8077   */\n      dup2\n        /* \"--CODEGEN--\":8072:8081   */\n      add\n        /* \"--CODEGEN--\":8067:8081   */\n      swap1\n      pop\n        /* \"--CODEGEN--\":8032:8262   */\n      jump(tag_546)\n    tag_547:\n        /* \"--CODEGEN--\":8036:8050   */\n      pop\n        /* \"--CODEGEN--\":8275:8278   */\n      dup5\n        /* \"--CODEGEN--\":8268:8278   */\n      swap3\n      pop\n        /* \"--CODEGEN--\":7808:8284   */\n      pop\n      pop\n      swap3\n      swap2\n      pop\n      pop\n      jump\n        /* \"--CODEGEN--\":8325:8846   */\n    tag_554:\n        /* \"--CODEGEN--\":8448:8500   */\n      tag_555\n        /* \"--CODEGEN--\":8494:8499   */\n      dup2\n        /* \"--CODEGEN--\":8448:8500   */\n      jump(tag_556)\n    tag_555:\n        /* \"--CODEGEN--\":8546:8600   */\n      tag_557\n        /* \"--CODEGEN--\":8594:8599   */\n      dup3\n        /* \"--CODEGEN--\":8546:8600   */\n      jump(tag_558)\n    tag_557:\n        /* \"--CODEGEN--\":8621:8622   */\n      0x0\n        /* \"--CODEGEN--\":8606:8834   */\n    tag_559:\n        /* \"--CODEGEN--\":8631:8637   */\n      dup3\n        /* \"--CODEGEN--\":8628:8629   */\n      dup2\n        /* \"--CODEGEN--\":8625:8638   */\n      lt\n        /* \"--CODEGEN--\":8606:8834   */\n      iszero\n      tag_560\n      jumpi\n        /* \"--CODEGEN--\":8671:8724   */\n      tag_562\n        /* \"--CODEGEN--\":8720:8723   */\n      dup6\n        /* \"--CODEGEN--\":8711:8717   */\n      dup4\n        /* \"--CODEGEN--\":8705:8718   */\n      mload\n        /* \"--CODEGEN--\":8671:8724   */\n      jump(tag_563)\n    tag_562:\n        /* \"--CODEGEN--\":8741:8799   */\n      tag_564\n        /* \"--CODEGEN--\":8792:8798   */\n      dup3\n        /* \"--CODEGEN--\":8741:8799   */\n      jump(tag_565)\n    tag_564:\n        /* \"--CODEGEN--\":8731:8799   */\n      swap2\n      pop\n        /* \"--CODEGEN--\":8822:8826   */\n      0x20\n        /* \"--CODEGEN--\":8817:8820   */\n      dup6\n        /* \"--CODEGEN--\":8813:8827   */\n      add\n        /* \"--CODEGEN--\":8806:8827   */\n      swap5\n      pop\n        /* \"--CODEGEN--\":8653:8654   */\n      0x1\n        /* \"--CODEGEN--\":8650:8651   */\n      dup2\n        /* \"--CODEGEN--\":8646:8655   */\n      add\n        /* \"--CODEGEN--\":8641:8655   */\n      swap1\n      pop\n        /* \"--CODEGEN--\":8606:8834   */\n      jump(tag_559)\n    tag_560:\n        /* \"--CODEGEN--\":8610:8624   */\n      pop\n        /* \"--CODEGEN--\":8427:8846   */\n      pop\n      pop\n      pop\n      pop\n      jump\n        /* \"--CODEGEN--\":8854:8955   */\n    tag_567:\n        /* \"--CODEGEN--\":8921:8949   */\n      tag_568\n        /* \"--CODEGEN--\":8943:8948   */\n      dup2\n        /* \"--CODEGEN--\":8921:8949   */\n      jump(tag_569)\n    tag_568:\n        /* \"--CODEGEN--\":8916:8919   */\n      dup3\n        /* \"--CODEGEN--\":8909:8950   */\n      mstore\n        /* \"--CODEGEN--\":8903:8955   */\n      pop\n      pop\n      jump\n        /* \"--CODEGEN--\":8962:9072   */\n    tag_550:\n        /* \"--CODEGEN--\":9035:9066   */\n      tag_571\n        /* \"--CODEGEN--\":9060:9065   */\n      dup2\n        /* \"--CODEGEN--\":9035:9066   */\n      jump(tag_572)\n    tag_571:\n        /* \"--CODEGEN--\":9030:9033   */\n      dup3\n        /* \"--CODEGEN--\":9023:9067   */\n      mstore\n        /* \"--CODEGEN--\":9017:9072   */\n      pop\n      pop\n      jump\n        /* \"--CODEGEN--\":9079:9376   */\n    tag_574:\n      0x0\n        /* \"--CODEGEN--\":9179:9217   */\n      tag_575\n        /* \"--CODEGEN--\":9211:9216   */\n      dup3\n        /* \"--CODEGEN--\":9179:9217   */\n      jump(tag_576)\n    tag_575:\n        /* \"--CODEGEN--\":9234:9240   */\n      dup1\n        /* \"--CODEGEN--\":9229:9232   */\n      dup5\n        /* \"--CODEGEN--\":9222:9241   */\n      mstore\n        /* \"--CODEGEN--\":9246:9309   */\n      tag_577\n        /* \"--CODEGEN--\":9302:9308   */\n      dup2\n        /* \"--CODEGEN--\":9295:9299   */\n      0x20\n        /* \"--CODEGEN--\":9290:9293   */\n      dup7\n        /* \"--CODEGEN--\":9286:9300   */\n      add\n        /* \"--CODEGEN--\":9279:9283   */\n      0x20\n        /* \"--CODEGEN--\":9272:9277   */\n      dup7\n        /* \"--CODEGEN--\":9268:9284   */\n      add\n        /* \"--CODEGEN--\":9246:9309   */\n      jump(tag_578)\n    tag_577:\n        /* \"--CODEGEN--\":9341:9370   */\n      tag_579\n        /* \"--CODEGEN--\":9363:9369   */\n      dup2\n        /* \"--CODEGEN--\":9341:9370   */\n      jump(tag_580)\n    tag_579:\n        /* \"--CODEGEN--\":9334:9338   */\n      0x20\n        /* \"--CODEGEN--\":9329:9332   */\n      dup6\n        /* \"--CODEGEN--\":9325:9339   */\n      add\n        /* \"--CODEGEN--\":9321:9371   */\n      add\n        /* \"--CODEGEN--\":9314:9371   */\n      swap2\n      pop\n        /* \"--CODEGEN--\":9159:9376   */\n      pop\n      swap3\n      swap2\n      pop\n      pop\n      jump\n        /* \"--CODEGEN--\":9383:9683   */\n    tag_582:\n      0x0\n        /* \"--CODEGEN--\":9485:9524   */\n      tag_583\n        /* \"--CODEGEN--\":9518:9523   */\n      dup3\n        /* \"--CODEGEN--\":9485:9524   */\n      jump(tag_584)\n    tag_583:\n        /* \"--CODEGEN--\":9541:9547   */\n      dup1\n        /* \"--CODEGEN--\":9536:9539   */\n      dup5\n        /* \"--CODEGEN--\":9529:9548   */\n      mstore\n        /* \"--CODEGEN--\":9553:9616   */\n      tag_585\n        /* \"--CODEGEN--\":9609:9615   */\n      dup2\n        /* \"--CODEGEN--\":9602:9606   */\n      0x20\n        /* \"--CODEGEN--\":9597:9600   */\n      dup7\n        /* \"--CODEGEN--\":9593:9607   */\n      add\n        /* \"--CODEGEN--\":9586:9590   */\n      0x20\n        /* \"--CODEGEN--\":9579:9584   */\n      dup7\n        /* \"--CODEGEN--\":9575:9591   */\n      add\n        /* \"--CODEGEN--\":9553:9616   */\n      jump(tag_578)\n    tag_585:\n        /* \"--CODEGEN--\":9648:9677   */\n      tag_586\n        /* \"--CODEGEN--\":9670:9676   */\n      dup2\n        /* \"--CODEGEN--\":9648:9677   */\n      jump(tag_580)\n    tag_586:\n        /* \"--CODEGEN--\":9641:9645   */\n      0x20\n        /* \"--CODEGEN--\":9636:9639   */\n      dup6\n        /* \"--CODEGEN--\":9632:9646   */\n      add\n        /* \"--CODEGEN--\":9628:9678   */\n      add\n        /* \"--CODEGEN--\":9621:9678   */\n      swap2\n      pop\n        /* \"--CODEGEN--\":9465:9683   */\n      pop\n      swap3\n      swap2\n      pop\n      pop\n      jump\n        /* \"--CODEGEN--\":9690:9982   */\n    tag_588:\n      0x0\n        /* \"--CODEGEN--\":9788:9823   */\n      tag_589\n        /* \"--CODEGEN--\":9817:9822   */\n      dup3\n        /* \"--CODEGEN--\":9788:9823   */\n      jump(tag_590)\n    tag_589:\n        /* \"--CODEGEN--\":9840:9846   */\n      dup1\n        /* \"--CODEGEN--\":9835:9838   */\n      dup5\n        /* \"--CODEGEN--\":9828:9847   */\n      mstore\n        /* \"--CODEGEN--\":9852:9915   */\n      tag_591\n        /* \"--CODEGEN--\":9908:9914   */\n      dup2\n        /* \"--CODEGEN--\":9901:9905   */\n      0x20\n        /* \"--CODEGEN--\":9896:9899   */\n      dup7\n        /* \"--CODEGEN--\":9892:9906   */\n      add\n        /* \"--CODEGEN--\":9885:9889   */\n      0x20\n        /* \"--CODEGEN--\":9878:9883   */\n      dup7\n        /* \"--CODEGEN--\":9874:9890   */\n      add\n        /* \"--CODEGEN--\":9852:9915   */\n      jump(tag_578)\n    tag_591:\n        /* \"--CODEGEN--\":9947:9976   */\n      tag_592\n        /* \"--CODEGEN--\":9969:9975   */\n      dup2\n        /* \"--CODEGEN--\":9947:9976   */\n      jump(tag_580)\n    tag_592:\n        /* \"--CODEGEN--\":9940:9944   */\n      0x20\n        /* \"--CODEGEN--\":9935:9938   */\n      dup6\n        /* \"--CODEGEN--\":9931:9945   */\n      add\n        /* \"--CODEGEN--\":9927:9977   */\n      add\n        /* \"--CODEGEN--\":9920:9977   */\n      swap2\n      pop\n        /* \"--CODEGEN--\":9768:9982   */\n      pop\n      swap3\n      swap2\n      pop\n      pop\n      jump\n        /* \"--CODEGEN--\":10014:10748   */\n    tag_594:\n      0x0\n        /* \"--CODEGEN--\":10123:10128   */\n      dup2\n        /* \"--CODEGEN--\":10117:10129   */\n      sload\n        /* \"--CODEGEN--\":10157:10158   */\n      0x1\n        /* \"--CODEGEN--\":10146:10155   */\n      dup2\n        /* \"--CODEGEN--\":10142:10159   */\n      and\n        /* \"--CODEGEN--\":10170:10171   */\n      0x0\n        /* \"--CODEGEN--\":10165:10365   */\n      dup2\n      eq\n      tag_596\n      jumpi\n        /* \"--CODEGEN--\":10376:10377   */\n      0x1\n        /* \"--CODEGEN--\":10371:10742   */\n      dup2\n      eq\n      tag_597\n      jumpi\n        /* \"--CODEGEN--\":10135:10742   */\n      jump(tag_595)\n        /* \"--CODEGEN--\":10165:10365   */\n    tag_596:\n        /* \"--CODEGEN--\":10243:10247   */\n      0x7f\n        /* \"--CODEGEN--\":10239:10240   */\n      0x2\n        /* \"--CODEGEN--\":10228:10237   */\n      dup4\n        /* \"--CODEGEN--\":10224:10241   */\n      div\n        /* \"--CODEGEN--\":10220:10248   */\n      and\n        /* \"--CODEGEN--\":10267:10273   */\n      dup1\n        /* \"--CODEGEN--\":10262:10265   */\n      dup7\n        /* \"--CODEGEN--\":10255:10274   */\n      mstore\n        /* \"--CODEGEN--\":10323:10327   */\n      0xff\n        /* \"--CODEGEN--\":10319:10328   */\n      not\n        /* \"--CODEGEN--\":10308:10317   */\n      dup4\n        /* \"--CODEGEN--\":10304:10329   */\n      and\n        /* \"--CODEGEN--\":10297:10301   */\n      0x20\n        /* \"--CODEGEN--\":10292:10295   */\n      dup8\n        /* \"--CODEGEN--\":10288:10302   */\n      add\n        /* \"--CODEGEN--\":10281:10330   */\n      mstore\n        /* \"--CODEGEN--\":10353:10357   */\n      0x40\n        /* \"--CODEGEN--\":10348:10351   */\n      dup7\n        /* \"--CODEGEN--\":10344:10358   */\n      add\n        /* \"--CODEGEN--\":10337:10358   */\n      swap4\n      pop\n        /* \"--CODEGEN--\":10172:10365   */\n      pop\n        /* \"--CODEGEN--\":10165:10365   */\n      jump(tag_595)\n        /* \"--CODEGEN--\":10371:10742   */\n    tag_597:\n        /* \"--CODEGEN--\":10440:10441   */\n      0x2\n        /* \"--CODEGEN--\":10429:10438   */\n      dup3\n        /* \"--CODEGEN--\":10425:10442   */\n      div\n        /* \"--CODEGEN--\":10461:10467   */\n      dup1\n        /* \"--CODEGEN--\":10456:10459   */\n      dup7\n        /* \"--CODEGEN--\":10449:10468   */\n      mstore\n        /* \"--CODEGEN--\":10491:10495   */\n      0x20\n        /* \"--CODEGEN--\":10486:10489   */\n      dup7\n        /* \"--CODEGEN--\":10482:10496   */\n      add\n        /* \"--CODEGEN--\":10475:10496   */\n      swap6\n      pop\n        /* \"--CODEGEN--\":10518:10556   */\n      tag_598\n        /* \"--CODEGEN--\":10550:10555   */\n      dup6\n        /* \"--CODEGEN--\":10518:10556   */\n      jump(tag_599)\n    tag_598:\n        /* \"--CODEGEN--\":10572:10573   */\n      0x0\n        /* \"--CODEGEN--\":10580:10710   */\n    tag_600:\n        /* \"--CODEGEN--\":10594:10600   */\n      dup3\n        /* \"--CODEGEN--\":10591:10592   */\n      dup2\n        /* \"--CODEGEN--\":10588:10601   */\n      lt\n        /* \"--CODEGEN--\":10580:10710   */\n      iszero\n      tag_601\n      jumpi\n        /* \"--CODEGEN--\":10659:10666   */\n      dup2\n        /* \"--CODEGEN--\":10653:10667   */\n      sload\n        /* \"--CODEGEN--\":10649:10650   */\n      dup2\n        /* \"--CODEGEN--\":10644:10647   */\n      dup10\n        /* \"--CODEGEN--\":10640:10651   */\n      add\n        /* \"--CODEGEN--\":10633:10668   */\n      mstore\n        /* \"--CODEGEN--\":10700:10701   */\n      0x1\n        /* \"--CODEGEN--\":10691:10698   */\n      dup3\n        /* \"--CODEGEN--\":10687:10702   */\n      add\n        /* \"--CODEGEN--\":10676:10702   */\n      swap2\n      pop\n        /* \"--CODEGEN--\":10616:10620   */\n      0x20\n        /* \"--CODEGEN--\":10613:10614   */\n      dup2\n        /* \"--CODEGEN--\":10609:10621   */\n      add\n        /* \"--CODEGEN--\":10604:10621   */\n      swap1\n      pop\n        /* \"--CODEGEN--\":10580:10710   */\n      jump(tag_600)\n    tag_601:\n        /* \"--CODEGEN--\":10733:10734   */\n      dup1\n        /* \"--CODEGEN--\":10728:10731   */\n      dup9\n        /* \"--CODEGEN--\":10724:10735   */\n      add\n        /* \"--CODEGEN--\":10717:10735   */\n      swap6\n      pop\n        /* \"--CODEGEN--\":10378:10742   */\n      pop\n      pop\n      pop\n        /* \"--CODEGEN--\":10135:10742   */\n    tag_595:\n      pop\n        /* \"--CODEGEN--\":10093:10748   */\n      pop\n      swap3\n      swap2\n      pop\n      pop\n      jump\n        /* \"--CODEGEN--\":10757:11052   */\n    tag_604:\n      0x0\n        /* \"--CODEGEN--\":10912:10913   */\n      0x3\n        /* \"--CODEGEN--\":10907:10910   */\n      dup3\n        /* \"--CODEGEN--\":10900:10914   */\n      mstore\n        /* \"--CODEGEN--\":10948:11014   */\n      0x3132380000000000000000000000000000000000000000000000000000000000\n        /* \"--CODEGEN--\":10943:10945   */\n      0x20\n        /* \"--CODEGEN--\":10938:10941   */\n      dup4\n        /* \"--CODEGEN--\":10934:10946   */\n      add\n        /* \"--CODEGEN--\":10927:11015   */\n      mstore\n        /* \"--CODEGEN--\":11043:11045   */\n      0x40\n        /* \"--CODEGEN--\":11038:11041   */\n      dup3\n        /* \"--CODEGEN--\":11034:11046   */\n      add\n        /* \"--CODEGEN--\":11027:11046   */\n      swap1\n      pop\n        /* \"--CODEGEN--\":10893:11052   */\n      swap2\n      swap1\n      pop\n      jump\n        /* \"--CODEGEN--\":11061:11356   */\n    tag_606:\n      0x0\n        /* \"--CODEGEN--\":11216:11217   */\n      0x3\n        /* \"--CODEGEN--\":11211:11214   */\n      dup3\n        /* \"--CODEGEN--\":11204:11218   */\n      mstore\n        /* \"--CODEGEN--\":11252:11318   */\n      0x3133370000000000000000000000000000000000000000000000000000000000\n        /* \"--CODEGEN--\":11247:11249   */\n      0x20\n        /* \"--CODEGEN--\":11242:11245   */\n      dup4\n        /* \"--CODEGEN--\":11238:11250   */\n      add\n        /* \"--CODEGEN--\":11231:11319   */\n      mstore\n        /* \"--CODEGEN--\":11347:11349   */\n      0x40\n        /* \"--CODEGEN--\":11342:11345   */\n      dup3\n        /* \"--CODEGEN--\":11338:11350   */\n      add\n        /* \"--CODEGEN--\":11331:11350   */\n      swap1\n      pop\n        /* \"--CODEGEN--\":11197:11356   */\n      swap2\n      swap1\n      pop\n      jump\n        /* \"--CODEGEN--\":11365:11660   */\n    tag_608:\n      0x0\n        /* \"--CODEGEN--\":11520:11521   */\n      0x3\n        /* \"--CODEGEN--\":11515:11518   */\n      dup3\n        /* \"--CODEGEN--\":11508:11522   */\n      mstore\n        /* \"--CODEGEN--\":11556:11622   */\n      0x3133330000000000000000000000000000000000000000000000000000000000\n        /* \"--CODEGEN--\":11551:11553   */\n      0x20\n        /* \"--CODEGEN--\":11546:11549   */\n      dup4\n        /* \"--CODEGEN--\":11542:11554   */\n      add\n        /* \"--CODEGEN--\":11535:11623   */\n      mstore\n        /* \"--CODEGEN--\":11651:11653   */\n      0x40\n        /* \"--CODEGEN--\":11646:11649   */\n      dup3\n        /* \"--CODEGEN--\":11642:11654   */\n      add\n        /* \"--CODEGEN--\":11635:11654   */\n      swap1\n      pop\n        /* \"--CODEGEN--\":11501:11660   */\n      swap2\n      swap1\n      pop\n      jump\n        /* \"--CODEGEN--\":11669:11964   */\n    tag_610:\n      0x0\n        /* \"--CODEGEN--\":11824:11825   */\n      0x3\n        /* \"--CODEGEN--\":11819:11822   */\n      dup3\n        /* \"--CODEGEN--\":11812:11826   */\n      mstore\n        /* \"--CODEGEN--\":11860:11926   */\n      0x3133390000000000000000000000000000000000000000000000000000000000\n        /* \"--CODEGEN--\":11855:11857   */\n      0x20\n        /* \"--CODEGEN--\":11850:11853   */\n      dup4\n        /* \"--CODEGEN--\":11846:11858   */\n      add\n        /* \"--CODEGEN--\":11839:11927   */\n      mstore\n        /* \"--CODEGEN--\":11955:11957   */\n      0x40\n        /* \"--CODEGEN--\":11950:11953   */\n      dup3\n        /* \"--CODEGEN--\":11946:11958   */\n      add\n        /* \"--CODEGEN--\":11939:11958   */\n      swap1\n      pop\n        /* \"--CODEGEN--\":11805:11964   */\n      swap2\n      swap1\n      pop\n      jump\n        /* \"--CODEGEN--\":11973:12268   */\n    tag_612:\n      0x0\n        /* \"--CODEGEN--\":12128:12129   */\n      0x3\n        /* \"--CODEGEN--\":12123:12126   */\n      dup3\n        /* \"--CODEGEN--\":12116:12130   */\n      mstore\n        /* \"--CODEGEN--\":12164:12230   */\n      0x3133300000000000000000000000000000000000000000000000000000000000\n        /* \"--CODEGEN--\":12159:12161   */\n      0x20\n        /* \"--CODEGEN--\":12154:12157   */\n      dup4\n        /* \"--CODEGEN--\":12150:12162   */\n      add\n        /* \"--CODEGEN--\":12143:12231   */\n      mstore\n        /* \"--CODEGEN--\":12259:12261   */\n      0x40\n        /* \"--CODEGEN--\":12254:12257   */\n      dup3\n        /* \"--CODEGEN--\":12250:12262   */\n      add\n        /* \"--CODEGEN--\":12243:12262   */\n      swap1\n      pop\n        /* \"--CODEGEN--\":12109:12268   */\n      swap2\n      swap1\n      pop\n      jump\n        /* \"--CODEGEN--\":12277:12572   */\n    tag_614:\n      0x0\n        /* \"--CODEGEN--\":12432:12433   */\n      0x3\n        /* \"--CODEGEN--\":12427:12430   */\n      dup3\n        /* \"--CODEGEN--\":12420:12434   */\n      mstore\n        /* \"--CODEGEN--\":12468:12534   */\n      0x3132390000000000000000000000000000000000000000000000000000000000\n        /* \"--CODEGEN--\":12463:12465   */\n      0x20\n        /* \"--CODEGEN--\":12458:12461   */\n      dup4\n        /* \"--CODEGEN--\":12454:12466   */\n      add\n        /* \"--CODEGEN--\":12447:12535   */\n      mstore\n        /* \"--CODEGEN--\":12563:12565   */\n      0x40\n        /* \"--CODEGEN--\":12558:12561   */\n      dup3\n        /* \"--CODEGEN--\":12554:12566   */\n      add\n        /* \"--CODEGEN--\":12547:12566   */\n      swap1\n      pop\n        /* \"--CODEGEN--\":12413:12572   */\n      swap2\n      swap1\n      pop\n      jump\n        /* \"--CODEGEN--\":12581:12876   */\n    tag_616:\n      0x0\n        /* \"--CODEGEN--\":12736:12737   */\n      0x3\n        /* \"--CODEGEN--\":12731:12734   */\n      dup3\n        /* \"--CODEGEN--\":12724:12738   */\n      mstore\n        /* \"--CODEGEN--\":12772:12838   */\n      0x3132350000000000000000000000000000000000000000000000000000000000\n        /* \"--CODEGEN--\":12767:12769   */\n      0x20\n        /* \"--CODEGEN--\":12762:12765   */\n      dup4\n        /* \"--CODEGEN--\":12758:12770   */\n      add\n        /* \"--CODEGEN--\":12751:12839   */\n      mstore\n        /* \"--CODEGEN--\":12867:12869   */\n      0x40\n        /* \"--CODEGEN--\":12862:12865   */\n      dup3\n        /* \"--CODEGEN--\":12858:12870   */\n      add\n        /* \"--CODEGEN--\":12851:12870   */\n      swap1\n      pop\n        /* \"--CODEGEN--\":12717:12876   */\n      swap2\n      swap1\n      pop\n      jump\n        /* \"--CODEGEN--\":12885:13180   */\n    tag_618:\n      0x0\n        /* \"--CODEGEN--\":13040:13041   */\n      0x3\n        /* \"--CODEGEN--\":13035:13038   */\n      dup3\n        /* \"--CODEGEN--\":13028:13042   */\n      mstore\n        /* \"--CODEGEN--\":13076:13142   */\n      0x3133360000000000000000000000000000000000000000000000000000000000\n        /* \"--CODEGEN--\":13071:13073   */\n      0x20\n        /* \"--CODEGEN--\":13066:13069   */\n      dup4\n        /* \"--CODEGEN--\":13062:13074   */\n      add\n        /* \"--CODEGEN--\":13055:13143   */\n      mstore\n        /* \"--CODEGEN--\":13171:13173   */\n      0x40\n        /* \"--CODEGEN--\":13166:13169   */\n      dup3\n        /* \"--CODEGEN--\":13162:13174   */\n      add\n        /* \"--CODEGEN--\":13155:13174   */\n      swap1\n      pop\n        /* \"--CODEGEN--\":13021:13180   */\n      swap2\n      swap1\n      pop\n      jump\n        /* \"--CODEGEN--\":13189:13484   */\n    tag_620:\n      0x0\n        /* \"--CODEGEN--\":13344:13345   */\n      0x3\n        /* \"--CODEGEN--\":13339:13342   */\n      dup3\n        /* \"--CODEGEN--\":13332:13346   */\n      mstore\n        /* \"--CODEGEN--\":13380:13446   */\n      0x3132360000000000000000000000000000000000000000000000000000000000\n        /* \"--CODEGEN--\":13375:13377   */\n      0x20\n        /* \"--CODEGEN--\":13370:13373   */\n      dup4\n        /* \"--CODEGEN--\":13366:13378   */\n      add\n        /* \"--CODEGEN--\":13359:13447   */\n      mstore\n        /* \"--CODEGEN--\":13475:13477   */\n      0x40\n        /* \"--CODEGEN--\":13470:13473   */\n      dup3\n        /* \"--CODEGEN--\":13466:13478   */\n      add\n        /* \"--CODEGEN--\":13459:13478   */\n      swap1\n      pop\n        /* \"--CODEGEN--\":13325:13484   */\n      swap2\n      swap1\n      pop\n      jump\n        /* \"--CODEGEN--\":13493:13788   */\n    tag_622:\n      0x0\n        /* \"--CODEGEN--\":13648:13649   */\n      0x3\n        /* \"--CODEGEN--\":13643:13646   */\n      dup3\n        /* \"--CODEGEN--\":13636:13650   */\n      mstore\n        /* \"--CODEGEN--\":13684:13750   */\n      0x3133350000000000000000000000000000000000000000000000000000000000\n        /* \"--CODEGEN--\":13679:13681   */\n      0x20\n        /* \"--CODEGEN--\":13674:13677   */\n      dup4\n        /* \"--CODEGEN--\":13670:13682   */\n      add\n        /* \"--CODEGEN--\":13663:13751   */\n      mstore\n        /* \"--CODEGEN--\":13779:13781   */\n      0x40\n        /* \"--CODEGEN--\":13774:13777   */\n      dup3\n        /* \"--CODEGEN--\":13770:13782   */\n      add\n        /* \"--CODEGEN--\":13763:13782   */\n      swap1\n      pop\n        /* \"--CODEGEN--\":13629:13788   */\n      swap2\n      swap1\n      pop\n      jump\n        /* \"--CODEGEN--\":13797:14092   */\n    tag_624:\n      0x0\n        /* \"--CODEGEN--\":13952:13953   */\n      0x3\n        /* \"--CODEGEN--\":13947:13950   */\n      dup3\n        /* \"--CODEGEN--\":13940:13954   */\n      mstore\n        /* \"--CODEGEN--\":13988:14054   */\n      0x3133340000000000000000000000000000000000000000000000000000000000\n        /* \"--CODEGEN--\":13983:13985   */\n      0x20\n        /* \"--CODEGEN--\":13978:13981   */\n      dup4\n        /* \"--CODEGEN--\":13974:13986   */\n      add\n        /* \"--CODEGEN--\":13967:14055   */\n      mstore\n        /* \"--CODEGEN--\":14083:14085   */\n      0x40\n        /* \"--CODEGEN--\":14078:14081   */\n      dup3\n        /* \"--CODEGEN--\":14074:14086   */\n      add\n        /* \"--CODEGEN--\":14067:14086   */\n      swap1\n      pop\n        /* \"--CODEGEN--\":13933:14092   */\n      swap2\n      swap1\n      pop\n      jump\n        /* \"--CODEGEN--\":14101:14396   */\n    tag_626:\n      0x0\n        /* \"--CODEGEN--\":14256:14257   */\n      0x3\n        /* \"--CODEGEN--\":14251:14254   */\n      dup3\n        /* \"--CODEGEN--\":14244:14258   */\n      mstore\n        /* \"--CODEGEN--\":14292:14358   */\n      0x3132340000000000000000000000000000000000000000000000000000000000\n        /* \"--CODEGEN--\":14287:14289   */\n      0x20\n        /* \"--CODEGEN--\":14282:14285   */\n      dup4\n        /* \"--CODEGEN--\":14278:14290   */\n      add\n        /* \"--CODEGEN--\":14271:14359   */\n      mstore\n        /* \"--CODEGEN--\":14387:14389   */\n      0x40\n        /* \"--CODEGEN--\":14382:14385   */\n      dup3\n        /* \"--CODEGEN--\":14378:14390   */\n      add\n        /* \"--CODEGEN--\":14371:14390   */\n      swap1\n      pop\n        /* \"--CODEGEN--\":14237:14396   */\n      swap2\n      swap1\n      pop\n      jump\n        /* \"--CODEGEN--\":14405:14700   */\n    tag_628:\n      0x0\n        /* \"--CODEGEN--\":14560:14561   */\n      0x3\n        /* \"--CODEGEN--\":14555:14558   */\n      dup3\n        /* \"--CODEGEN--\":14548:14562   */\n      mstore\n        /* \"--CODEGEN--\":14596:14662   */\n      0x3133380000000000000000000000000000000000000000000000000000000000\n        /* \"--CODEGEN--\":14591:14593   */\n      0x20\n        /* \"--CODEGEN--\":14586:14589   */\n      dup4\n        /* \"--CODEGEN--\":14582:14594   */\n      add\n        /* \"--CODEGEN--\":14575:14663   */\n      mstore\n        /* \"--CODEGEN--\":14691:14693   */\n      0x40\n        /* \"--CODEGEN--\":14686:14689   */\n      dup3\n        /* \"--CODEGEN--\":14682:14694   */\n      add\n        /* \"--CODEGEN--\":14675:14694   */\n      swap1\n      pop\n        /* \"--CODEGEN--\":14541:14700   */\n      swap2\n      swap1\n      pop\n      jump\n        /* \"--CODEGEN--\":14709:15004   */\n    tag_630:\n      0x0\n        /* \"--CODEGEN--\":14864:14865   */\n      0x3\n        /* \"--CODEGEN--\":14859:14862   */\n      dup3\n        /* \"--CODEGEN--\":14852:14866   */\n      mstore\n        /* \"--CODEGEN--\":14900:14966   */\n      0x3133310000000000000000000000000000000000000000000000000000000000\n        /* \"--CODEGEN--\":14895:14897   */\n      0x20\n        /* \"--CODEGEN--\":14890:14893   */\n      dup4\n        /* \"--CODEGEN--\":14886:14898   */\n      add\n        /* \"--CODEGEN--\":14879:14967   */\n      mstore\n        /* \"--CODEGEN--\":14995:14997   */\n      0x40\n        /* \"--CODEGEN--\":14990:14993   */\n      dup3\n        /* \"--CODEGEN--\":14986:14998   */\n      add\n        /* \"--CODEGEN--\":14979:14998   */\n      swap1\n      pop\n        /* \"--CODEGEN--\":14845:15004   */\n      swap2\n      swap1\n      pop\n      jump\n        /* \"--CODEGEN--\":15013:15308   */\n    tag_632:\n      0x0\n        /* \"--CODEGEN--\":15168:15169   */\n      0x3\n        /* \"--CODEGEN--\":15163:15166   */\n      dup3\n        /* \"--CODEGEN--\":15156:15170   */\n      mstore\n        /* \"--CODEGEN--\":15204:15270   */\n      0x3133320000000000000000000000000000000000000000000000000000000000\n        /* \"--CODEGEN--\":15199:15201   */\n      0x20\n        /* \"--CODEGEN--\":15194:15197   */\n      dup4\n        /* \"--CODEGEN--\":15190:15202   */\n      add\n        /* \"--CODEGEN--\":15183:15271   */\n      mstore\n        /* \"--CODEGEN--\":15299:15301   */\n      0x40\n        /* \"--CODEGEN--\":15294:15297   */\n      dup3\n        /* \"--CODEGEN--\":15290:15302   */\n      add\n        /* \"--CODEGEN--\":15283:15302   */\n      swap1\n      pop\n        /* \"--CODEGEN--\":15149:15308   */\n      swap2\n      swap1\n      pop\n      jump\n        /* \"--CODEGEN--\":15317:15612   */\n    tag_634:\n      0x0\n        /* \"--CODEGEN--\":15472:15473   */\n      0x3\n        /* \"--CODEGEN--\":15467:15470   */\n      dup3\n        /* \"--CODEGEN--\":15460:15474   */\n      mstore\n        /* \"--CODEGEN--\":15508:15574   */\n      0x3132370000000000000000000000000000000000000000000000000000000000\n        /* \"--CODEGEN--\":15503:15505   */\n      0x20\n        /* \"--CODEGEN--\":15498:15501   */\n      dup4\n        /* \"--CODEGEN--\":15494:15506   */\n      add\n        /* \"--CODEGEN--\":15487:15575   */\n      mstore\n        /* \"--CODEGEN--\":15603:15605   */\n      0x40\n        /* \"--CODEGEN--\":15598:15601   */\n      dup3\n        /* \"--CODEGEN--\":15594:15606   */\n      add\n        /* \"--CODEGEN--\":15587:15606   */\n      swap1\n      pop\n        /* \"--CODEGEN--\":15453:15612   */\n      swap2\n      swap1\n      pop\n      jump\n        /* \"--CODEGEN--\":15620:15730   */\n    tag_563:\n        /* \"--CODEGEN--\":15693:15724   */\n      tag_636\n        /* \"--CODEGEN--\":15718:15723   */\n      dup2\n        /* \"--CODEGEN--\":15693:15724   */\n      jump(tag_637)\n    tag_636:\n        /* \"--CODEGEN--\":15688:15691   */\n      dup3\n        /* \"--CODEGEN--\":15681:15725   */\n      mstore\n        /* \"--CODEGEN--\":15675:15730   */\n      pop\n      pop\n      jump\n        /* \"--CODEGEN--\":15737:15841   */\n    tag_639:\n        /* \"--CODEGEN--\":15806:15835   */\n      tag_640\n        /* \"--CODEGEN--\":15829:15834   */\n      dup2\n        /* \"--CODEGEN--\":15806:15835   */\n      jump(tag_641)\n    tag_640:\n        /* \"--CODEGEN--\":15801:15804   */\n      dup3\n        /* \"--CODEGEN--\":15794:15836   */\n      mstore\n        /* \"--CODEGEN--\":15788:15841   */\n      pop\n      pop\n      jump\n        /* \"--CODEGEN--\":15848:16041   */\n    tag_120:\n      0x0\n        /* \"--CODEGEN--\":15956:15958   */\n      0x20\n        /* \"--CODEGEN--\":15945:15954   */\n      dup3\n        /* \"--CODEGEN--\":15941:15959   */\n      add\n        /* \"--CODEGEN--\":15933:15959   */\n      swap1\n      pop\n        /* \"--CODEGEN--\":15970:16031   */\n      tag_643\n        /* \"--CODEGEN--\":16028:16029   */\n      0x0\n        /* \"--CODEGEN--\":16017:16026   */\n      dup4\n        /* \"--CODEGEN--\":16013:16030   */\n      add\n        /* \"--CODEGEN--\":16004:16010   */\n      dup5\n        /* \"--CODEGEN--\":15970:16031   */\n      jump(tag_537)\n    tag_643:\n        /* \"--CODEGEN--\":15927:16041   */\n      swap3\n      swap2\n      pop\n      pop\n      jump\n        /* \"--CODEGEN--\":16048:16747   */\n    tag_384:\n      0x0\n        /* \"--CODEGEN--\":16294:16297   */\n      0xa0\n        /* \"--CODEGEN--\":16283:16292   */\n      dup3\n        /* \"--CODEGEN--\":16279:16298   */\n      add\n        /* \"--CODEGEN--\":16271:16298   */\n      swap1\n      pop\n        /* \"--CODEGEN--\":16309:16378   */\n      tag_645\n        /* \"--CODEGEN--\":16375:16376   */\n      0x0\n        /* \"--CODEGEN--\":16364:16373   */\n      dup4\n        /* \"--CODEGEN--\":16360:16377   */\n      add\n        /* \"--CODEGEN--\":16351:16357   */\n      dup9\n        /* \"--CODEGEN--\":16309:16378   */\n      jump(tag_533)\n    tag_645:\n        /* \"--CODEGEN--\":16389:16451   */\n      tag_646\n        /* \"--CODEGEN--\":16447:16449   */\n      0x20\n        /* \"--CODEGEN--\":16436:16445   */\n      dup4\n        /* \"--CODEGEN--\":16432:16450   */\n      add\n        /* \"--CODEGEN--\":16423:16429   */\n      dup8\n        /* \"--CODEGEN--\":16389:16451   */\n      jump(tag_537)\n    tag_646:\n        /* \"--CODEGEN--\":16462:16524   */\n      tag_647\n        /* \"--CODEGEN--\":16520:16522   */\n      0x40\n        /* \"--CODEGEN--\":16509:16518   */\n      dup4\n        /* \"--CODEGEN--\":16505:16523   */\n      add\n        /* \"--CODEGEN--\":16496:16502   */\n      dup7\n        /* \"--CODEGEN--\":16462:16524   */\n      jump(tag_550)\n    tag_647:\n        /* \"--CODEGEN--\":16535:16597   */\n      tag_648\n        /* \"--CODEGEN--\":16593:16595   */\n      0x60\n        /* \"--CODEGEN--\":16582:16591   */\n      dup4\n        /* \"--CODEGEN--\":16578:16596   */\n      add\n        /* \"--CODEGEN--\":16569:16575   */\n      dup6\n        /* \"--CODEGEN--\":16535:16597   */\n      jump(tag_563)\n    tag_648:\n        /* \"--CODEGEN--\":16646:16655   */\n      dup2\n        /* \"--CODEGEN--\":16640:16644   */\n      dup2\n        /* \"--CODEGEN--\":16636:16656   */\n      sub\n        /* \"--CODEGEN--\":16630:16633   */\n      0x80\n        /* \"--CODEGEN--\":16619:16628   */\n      dup4\n        /* \"--CODEGEN--\":16615:16634   */\n      add\n        /* \"--CODEGEN--\":16608:16657   */\n      mstore\n        /* \"--CODEGEN--\":16671:16737   */\n      tag_649\n        /* \"--CODEGEN--\":16732:16736   */\n      dup2\n        /* \"--CODEGEN--\":16723:16729   */\n      dup5\n        /* \"--CODEGEN--\":16671:16737   */\n      jump(tag_574)\n    tag_649:\n        /* \"--CODEGEN--\":16663:16737   */\n      swap1\n      pop\n        /* \"--CODEGEN--\":16265:16747   */\n      swap7\n      swap6\n      pop\n      pop\n      pop\n      pop\n      pop\n      pop\n      jump\n        /* \"--CODEGEN--\":16754:17095   */\n    tag_60:\n      0x0\n        /* \"--CODEGEN--\":16912:16914   */\n      0x20\n        /* \"--CODEGEN--\":16901:16910   */\n      dup3\n        /* \"--CODEGEN--\":16897:16915   */\n      add\n        /* \"--CODEGEN--\":16889:16915   */\n      swap1\n      pop\n        /* \"--CODEGEN--\":16962:16971   */\n      dup2\n        /* \"--CODEGEN--\":16956:16960   */\n      dup2\n        /* \"--CODEGEN--\":16952:16972   */\n      sub\n        /* \"--CODEGEN--\":16948:16949   */\n      0x0\n        /* \"--CODEGEN--\":16937:16946   */\n      dup4\n        /* \"--CODEGEN--\":16933:16950   */\n      add\n        /* \"--CODEGEN--\":16926:16973   */\n      mstore\n        /* \"--CODEGEN--\":16987:17085   */\n      tag_651\n        /* \"--CODEGEN--\":17080:17084   */\n      dup2\n        /* \"--CODEGEN--\":17071:17077   */\n      dup5\n        /* \"--CODEGEN--\":16987:17085   */\n      jump(tag_541)\n    tag_651:\n        /* \"--CODEGEN--\":16979:17085   */\n      swap1\n      pop\n        /* \"--CODEGEN--\":16883:17095   */\n      swap3\n      swap2\n      pop\n      pop\n      jump\n        /* \"--CODEGEN--\":17102:17388   */\n    tag_140:\n      0x0\n        /* \"--CODEGEN--\":17256:17259   */\n      0xa0\n        /* \"--CODEGEN--\":17245:17254   */\n      dup3\n        /* \"--CODEGEN--\":17241:17260   */\n      add\n        /* \"--CODEGEN--\":17233:17260   */\n      swap1\n      pop\n        /* \"--CODEGEN--\":17271:17378   */\n      tag_653\n        /* \"--CODEGEN--\":17375:17376   */\n      0x0\n        /* \"--CODEGEN--\":17364:17373   */\n      dup4\n        /* \"--CODEGEN--\":17360:17377   */\n      add\n        /* \"--CODEGEN--\":17351:17357   */\n      dup5\n        /* \"--CODEGEN--\":17271:17378   */\n      jump(tag_554)\n    tag_653:\n        /* \"--CODEGEN--\":17227:17388   */\n      swap3\n      swap2\n      pop\n      pop\n      jump\n        /* \"--CODEGEN--\":17395:17576   */\n    tag_96:\n      0x0\n        /* \"--CODEGEN--\":17497:17499   */\n      0x20\n        /* \"--CODEGEN--\":17486:17495   */\n      dup3\n        /* \"--CODEGEN--\":17482:17500   */\n      add\n        /* \"--CODEGEN--\":17474:17500   */\n      swap1\n      pop\n        /* \"--CODEGEN--\":17511:17566   */\n      tag_655\n        /* \"--CODEGEN--\":17563:17564   */\n      0x0\n        /* \"--CODEGEN--\":17552:17561   */\n      dup4\n        /* \"--CODEGEN--\":17548:17565   */\n      add\n        /* \"--CODEGEN--\":17539:17545   */\n      dup5\n        /* \"--CODEGEN--\":17511:17566   */\n      jump(tag_567)\n    tag_655:\n        /* \"--CODEGEN--\":17468:17576   */\n      swap3\n      swap2\n      pop\n      pop\n      jump\n        /* \"--CODEGEN--\":17583:17776   */\n    tag_67:\n      0x0\n        /* \"--CODEGEN--\":17691:17693   */\n      0x20\n        /* \"--CODEGEN--\":17680:17689   */\n      dup3\n        /* \"--CODEGEN--\":17676:17694   */\n      add\n        /* \"--CODEGEN--\":17668:17694   */\n      swap1\n      pop\n        /* \"--CODEGEN--\":17705:17766   */\n      tag_657\n        /* \"--CODEGEN--\":17763:17764   */\n      0x0\n        /* \"--CODEGEN--\":17752:17761   */\n      dup4\n        /* \"--CODEGEN--\":17748:17765   */\n      add\n        /* \"--CODEGEN--\":17739:17745   */\n      dup5\n        /* \"--CODEGEN--\":17705:17766   */\n      jump(tag_550)\n    tag_657:\n        /* \"--CODEGEN--\":17662:17776   */\n      swap3\n      swap2\n      pop\n      pop\n      jump\n        /* \"--CODEGEN--\":17783:18056   */\n    tag_169:\n      0x0\n        /* \"--CODEGEN--\":17907:17909   */\n      0x20\n        /* \"--CODEGEN--\":17896:17905   */\n      dup3\n        /* \"--CODEGEN--\":17892:17910   */\n      add\n        /* \"--CODEGEN--\":17884:17910   */\n      swap1\n      pop\n        /* \"--CODEGEN--\":17957:17966   */\n      dup2\n        /* \"--CODEGEN--\":17951:17955   */\n      dup2\n        /* \"--CODEGEN--\":17947:17967   */\n      sub\n        /* \"--CODEGEN--\":17943:17944   */\n      0x0\n        /* \"--CODEGEN--\":17932:17941   */\n      dup4\n        /* \"--CODEGEN--\":17928:17945   */\n      add\n        /* \"--CODEGEN--\":17921:17968   */\n      mstore\n        /* \"--CODEGEN--\":17982:18046   */\n      tag_659\n        /* \"--CODEGEN--\":18041:18045   */\n      dup2\n        /* \"--CODEGEN--\":18032:18038   */\n      dup5\n        /* \"--CODEGEN--\":17982:18046   */\n      jump(tag_588)\n    tag_659:\n        /* \"--CODEGEN--\":17974:18046   */\n      swap1\n      pop\n        /* \"--CODEGEN--\":17878:18056   */\n      swap3\n      swap2\n      pop\n      pop\n      jump\n        /* \"--CODEGEN--\":18063:18344   */\n    tag_33:\n      0x0\n        /* \"--CODEGEN--\":18191:18193   */\n      0x20\n        /* \"--CODEGEN--\":18180:18189   */\n      dup3\n        /* \"--CODEGEN--\":18176:18194   */\n      add\n        /* \"--CODEGEN--\":18168:18194   */\n      swap1\n      pop\n        /* \"--CODEGEN--\":18241:18250   */\n      dup2\n        /* \"--CODEGEN--\":18235:18239   */\n      dup2\n        /* \"--CODEGEN--\":18231:18251   */\n      sub\n        /* \"--CODEGEN--\":18227:18228   */\n      0x0\n        /* \"--CODEGEN--\":18216:18225   */\n      dup4\n        /* \"--CODEGEN--\":18212:18229   */\n      add\n        /* \"--CODEGEN--\":18205:18252   */\n      mstore\n        /* \"--CODEGEN--\":18266:18334   */\n      tag_661\n        /* \"--CODEGEN--\":18329:18333   */\n      dup2\n        /* \"--CODEGEN--\":18320:18326   */\n      dup5\n        /* \"--CODEGEN--\":18266:18334   */\n      jump(tag_582)\n    tag_661:\n        /* \"--CODEGEN--\":18258:18334   */\n      swap1\n      pop\n        /* \"--CODEGEN--\":18162:18344   */\n      swap3\n      swap2\n      pop\n      pop\n      jump\n        /* \"--CODEGEN--\":18351:18815   */\n    tag_276:\n      0x0\n        /* \"--CODEGEN--\":18524:18526   */\n      0x40\n        /* \"--CODEGEN--\":18513:18522   */\n      dup3\n        /* \"--CODEGEN--\":18509:18527   */\n      add\n        /* \"--CODEGEN--\":18501:18527   */\n      swap1\n      pop\n        /* \"--CODEGEN--\":18574:18583   */\n      dup2\n        /* \"--CODEGEN--\":18568:18572   */\n      dup2\n        /* \"--CODEGEN--\":18564:18584   */\n      sub\n        /* \"--CODEGEN--\":18560:18561   */\n      0x0\n        /* \"--CODEGEN--\":18549:18558   */\n      dup4\n        /* \"--CODEGEN--\":18545:18562   */\n      add\n        /* \"--CODEGEN--\":18538:18585   */\n      mstore\n        /* \"--CODEGEN--\":18599:18664   */\n      tag_663\n        /* \"--CODEGEN--\":18659:18663   */\n      dup2\n        /* \"--CODEGEN--\":18650:18656   */\n      dup6\n        /* \"--CODEGEN--\":18599:18664   */\n      jump(tag_594)\n    tag_663:\n        /* \"--CODEGEN--\":18591:18664   */\n      swap1\n      pop\n        /* \"--CODEGEN--\":18712:18721   */\n      dup2\n        /* \"--CODEGEN--\":18706:18710   */\n      dup2\n        /* \"--CODEGEN--\":18702:18722   */\n      sub\n        /* \"--CODEGEN--\":18697:18699   */\n      0x20\n        /* \"--CODEGEN--\":18686:18695   */\n      dup4\n        /* \"--CODEGEN--\":18682:18700   */\n      add\n        /* \"--CODEGEN--\":18675:18723   */\n      mstore\n        /* \"--CODEGEN--\":18737:18805   */\n      tag_664\n        /* \"--CODEGEN--\":18800:18804   */\n      dup2\n        /* \"--CODEGEN--\":18791:18797   */\n      dup5\n        /* \"--CODEGEN--\":18737:18805   */\n      jump(tag_582)\n    tag_664:\n        /* \"--CODEGEN--\":18729:18805   */\n      swap1\n      pop\n        /* \"--CODEGEN--\":18495:18815   */\n      swap4\n      swap3\n      pop\n      pop\n      pop\n      jump\n        /* \"--CODEGEN--\":18822:19209   */\n    tag_188:\n      0x0\n        /* \"--CODEGEN--\":19003:19005   */\n      0x20\n        /* \"--CODEGEN--\":18992:19001   */\n      dup3\n        /* \"--CODEGEN--\":18988:19006   */\n      add\n        /* \"--CODEGEN--\":18980:19006   */\n      swap1\n      pop\n        /* \"--CODEGEN--\":19053:19062   */\n      dup2\n        /* \"--CODEGEN--\":19047:19051   */\n      dup2\n        /* \"--CODEGEN--\":19043:19063   */\n      sub\n        /* \"--CODEGEN--\":19039:19040   */\n      0x0\n        /* \"--CODEGEN--\":19028:19037   */\n      dup4\n        /* \"--CODEGEN--\":19024:19041   */\n      add\n        /* \"--CODEGEN--\":19017:19064   */\n      mstore\n        /* \"--CODEGEN--\":19078:19199   */\n      tag_666\n        /* \"--CODEGEN--\":19194:19198   */\n      dup2\n        /* \"--CODEGEN--\":19078:19199   */\n      jump(tag_604)\n    tag_666:\n        /* \"--CODEGEN--\":19070:19199   */\n      swap1\n      pop\n        /* \"--CODEGEN--\":18974:19209   */\n      swap2\n      swap1\n      pop\n      jump\n        /* \"--CODEGEN--\":19216:19603   */\n    tag_336:\n      0x0\n        /* \"--CODEGEN--\":19397:19399   */\n      0x20\n        /* \"--CODEGEN--\":19386:19395   */\n      dup3\n        /* \"--CODEGEN--\":19382:19400   */\n      add\n        /* \"--CODEGEN--\":19374:19400   */\n      swap1\n      pop\n        /* \"--CODEGEN--\":19447:19456   */\n      dup2\n        /* \"--CODEGEN--\":19441:19445   */\n      dup2\n        /* \"--CODEGEN--\":19437:19457   */\n      sub\n        /* \"--CODEGEN--\":19433:19434   */\n      0x0\n        /* \"--CODEGEN--\":19422:19431   */\n      dup4\n        /* \"--CODEGEN--\":19418:19435   */\n      add\n        /* \"--CODEGEN--\":19411:19458   */\n      mstore\n        /* \"--CODEGEN--\":19472:19593   */\n      tag_668\n        /* \"--CODEGEN--\":19588:19592   */\n      dup2\n        /* \"--CODEGEN--\":19472:19593   */\n      jump(tag_606)\n    tag_668:\n        /* \"--CODEGEN--\":19464:19593   */\n      swap1\n      pop\n        /* \"--CODEGEN--\":19368:19603   */\n      swap2\n      swap1\n      pop\n      jump\n        /* \"--CODEGEN--\":19610:19997   */\n    tag_376:\n      0x0\n        /* \"--CODEGEN--\":19791:19793   */\n      0x20\n        /* \"--CODEGEN--\":19780:19789   */\n      dup3\n        /* \"--CODEGEN--\":19776:19794   */\n      add\n        /* \"--CODEGEN--\":19768:19794   */\n      swap1\n      pop\n        /* \"--CODEGEN--\":19841:19850   */\n      dup2\n        /* \"--CODEGEN--\":19835:19839   */\n      dup2\n        /* \"--CODEGEN--\":19831:19851   */\n      sub\n        /* \"--CODEGEN--\":19827:19828   */\n      0x0\n        /* \"--CODEGEN--\":19816:19825   */\n      dup4\n        /* \"--CODEGEN--\":19812:19829   */\n      add\n        /* \"--CODEGEN--\":19805:19852   */\n      mstore\n        /* \"--CODEGEN--\":19866:19987   */\n      tag_670\n        /* \"--CODEGEN--\":19982:19986   */\n      dup2\n        /* \"--CODEGEN--\":19866:19987   */\n      jump(tag_608)\n    tag_670:\n        /* \"--CODEGEN--\":19858:19987   */\n      swap1\n      pop\n        /* \"--CODEGEN--\":19762:19997   */\n      swap2\n      swap1\n      pop\n      jump\n        /* \"--CODEGEN--\":20004:20391   */\n    tag_406:\n      0x0\n        /* \"--CODEGEN--\":20185:20187   */\n      0x20\n        /* \"--CODEGEN--\":20174:20183   */\n      dup3\n        /* \"--CODEGEN--\":20170:20188   */\n      add\n        /* \"--CODEGEN--\":20162:20188   */\n      swap1\n      pop\n        /* \"--CODEGEN--\":20235:20244   */\n      dup2\n        /* \"--CODEGEN--\":20229:20233   */\n      dup2\n        /* \"--CODEGEN--\":20225:20245   */\n      sub\n        /* \"--CODEGEN--\":20221:20222   */\n      0x0\n        /* \"--CODEGEN--\":20210:20219   */\n      dup4\n        /* \"--CODEGEN--\":20206:20223   */\n      add\n        /* \"--CODEGEN--\":20199:20246   */\n      mstore\n        /* \"--CODEGEN--\":20260:20381   */\n      tag_672\n        /* \"--CODEGEN--\":20376:20380   */\n      dup2\n        /* \"--CODEGEN--\":20260:20381   */\n      jump(tag_610)\n    tag_672:\n        /* \"--CODEGEN--\":20252:20381   */\n      swap1\n      pop\n        /* \"--CODEGEN--\":20156:20391   */\n      swap2\n      swap1\n      pop\n      jump\n        /* \"--CODEGEN--\":20398:20785   */\n    tag_269:\n      0x0\n        /* \"--CODEGEN--\":20579:20581   */\n      0x20\n        /* \"--CODEGEN--\":20568:20577   */\n      dup3\n        /* \"--CODEGEN--\":20564:20582   */\n      add\n        /* \"--CODEGEN--\":20556:20582   */\n      swap1\n      pop\n        /* \"--CODEGEN--\":20629:20638   */\n      dup2\n        /* \"--CODEGEN--\":20623:20627   */\n      dup2\n        /* \"--CODEGEN--\":20619:20639   */\n      sub\n        /* \"--CODEGEN--\":20615:20616   */\n      0x0\n        /* \"--CODEGEN--\":20604:20613   */\n      dup4\n        /* \"--CODEGEN--\":20600:20617   */\n      add\n        /* \"--CODEGEN--\":20593:20640   */\n      mstore\n        /* \"--CODEGEN--\":20654:20775   */\n      tag_674\n        /* \"--CODEGEN--\":20770:20774   */\n      dup2\n        /* \"--CODEGEN--\":20654:20775   */\n      jump(tag_612)\n    tag_674:\n        /* \"--CODEGEN--\":20646:20775   */\n      swap1\n      pop\n        /* \"--CODEGEN--\":20550:20785   */\n      swap2\n      swap1\n      pop\n      jump\n        /* \"--CODEGEN--\":20792:21179   */\n    tag_266:\n      0x0\n        /* \"--CODEGEN--\":20973:20975   */\n      0x20\n        /* \"--CODEGEN--\":20962:20971   */\n      dup3\n        /* \"--CODEGEN--\":20958:20976   */\n      add\n        /* \"--CODEGEN--\":20950:20976   */\n      swap1\n      pop\n        /* \"--CODEGEN--\":21023:21032   */\n      dup2\n        /* \"--CODEGEN--\":21017:21021   */\n      dup2\n        /* \"--CODEGEN--\":21013:21033   */\n      sub\n        /* \"--CODEGEN--\":21009:21010   */\n      0x0\n        /* \"--CODEGEN--\":20998:21007   */\n      dup4\n        /* \"--CODEGEN--\":20994:21011   */\n      add\n        /* \"--CODEGEN--\":20987:21034   */\n      mstore\n        /* \"--CODEGEN--\":21048:21169   */\n      tag_676\n        /* \"--CODEGEN--\":21164:21168   */\n      dup2\n        /* \"--CODEGEN--\":21048:21169   */\n      jump(tag_614)\n    tag_676:\n        /* \"--CODEGEN--\":21040:21169   */\n      swap1\n      pop\n        /* \"--CODEGEN--\":20944:21179   */\n      swap2\n      swap1\n      pop\n      jump\n        /* \"--CODEGEN--\":21186:21573   */\n    tag_301:\n      0x0\n        /* \"--CODEGEN--\":21367:21369   */\n      0x20\n        /* \"--CODEGEN--\":21356:21365   */\n      dup3\n        /* \"--CODEGEN--\":21352:21370   */\n      add\n        /* \"--CODEGEN--\":21344:21370   */\n      swap1\n      pop\n        /* \"--CODEGEN--\":21417:21426   */\n      dup2\n        /* \"--CODEGEN--\":21411:21415   */\n      dup2\n        /* \"--CODEGEN--\":21407:21427   */\n      sub\n        /* \"--CODEGEN--\":21403:21404   */\n      0x0\n        /* \"--CODEGEN--\":21392:21401   */\n      dup4\n        /* \"--CODEGEN--\":21388:21405   */\n      add\n        /* \"--CODEGEN--\":21381:21428   */\n      mstore\n        /* \"--CODEGEN--\":21442:21563   */\n      tag_678\n        /* \"--CODEGEN--\":21558:21562   */\n      dup2\n        /* \"--CODEGEN--\":21442:21563   */\n      jump(tag_616)\n    tag_678:\n        /* \"--CODEGEN--\":21434:21563   */\n      swap1\n      pop\n        /* \"--CODEGEN--\":21338:21573   */\n      swap2\n      swap1\n      pop\n      jump\n        /* \"--CODEGEN--\":21580:21967   */\n    tag_329:\n      0x0\n        /* \"--CODEGEN--\":21761:21763   */\n      0x20\n        /* \"--CODEGEN--\":21750:21759   */\n      dup3\n        /* \"--CODEGEN--\":21746:21764   */\n      add\n        /* \"--CODEGEN--\":21738:21764   */\n      swap1\n      pop\n        /* \"--CODEGEN--\":21811:21820   */\n      dup2\n        /* \"--CODEGEN--\":21805:21809   */\n      dup2\n        /* \"--CODEGEN--\":21801:21821   */\n      sub\n        /* \"--CODEGEN--\":21797:21798   */\n      0x0\n        /* \"--CODEGEN--\":21786:21795   */\n      dup4\n        /* \"--CODEGEN--\":21782:21799   */\n      add\n        /* \"--CODEGEN--\":21775:21822   */\n      mstore\n        /* \"--CODEGEN--\":21836:21957   */\n      tag_680\n        /* \"--CODEGEN--\":21952:21956   */\n      dup2\n        /* \"--CODEGEN--\":21836:21957   */\n      jump(tag_618)\n    tag_680:\n        /* \"--CODEGEN--\":21828:21957   */\n      swap1\n      pop\n        /* \"--CODEGEN--\":21732:21967   */\n      swap2\n      swap1\n      pop\n      jump\n        /* \"--CODEGEN--\":21974:22361   */\n    tag_205:\n      0x0\n        /* \"--CODEGEN--\":22155:22157   */\n      0x20\n        /* \"--CODEGEN--\":22144:22153   */\n      dup3\n        /* \"--CODEGEN--\":22140:22158   */\n      add\n        /* \"--CODEGEN--\":22132:22158   */\n      swap1\n      pop\n        /* \"--CODEGEN--\":22205:22214   */\n      dup2\n        /* \"--CODEGEN--\":22199:22203   */\n      dup2\n        /* \"--CODEGEN--\":22195:22215   */\n      sub\n        /* \"--CODEGEN--\":22191:22192   */\n      0x0\n        /* \"--CODEGEN--\":22180:22189   */\n      dup4\n        /* \"--CODEGEN--\":22176:22193   */\n      add\n        /* \"--CODEGEN--\":22169:22216   */\n      mstore\n        /* \"--CODEGEN--\":22230:22351   */\n      tag_682\n        /* \"--CODEGEN--\":22346:22350   */\n      dup2\n        /* \"--CODEGEN--\":22230:22351   */\n      jump(tag_620)\n    tag_682:\n        /* \"--CODEGEN--\":22222:22351   */\n      swap1\n      pop\n        /* \"--CODEGEN--\":22126:22361   */\n      swap2\n      swap1\n      pop\n      jump\n        /* \"--CODEGEN--\":22368:22755   */\n    tag_363:\n      0x0\n        /* \"--CODEGEN--\":22549:22551   */\n      0x20\n        /* \"--CODEGEN--\":22538:22547   */\n      dup3\n        /* \"--CODEGEN--\":22534:22552   */\n      add\n        /* \"--CODEGEN--\":22526:22552   */\n      swap1\n      pop\n        /* \"--CODEGEN--\":22599:22608   */\n      dup2\n        /* \"--CODEGEN--\":22593:22597   */\n      dup2\n        /* \"--CODEGEN--\":22589:22609   */\n      sub\n        /* \"--CODEGEN--\":22585:22586   */\n      0x0\n        /* \"--CODEGEN--\":22574:22583   */\n      dup4\n        /* \"--CODEGEN--\":22570:22587   */\n      add\n        /* \"--CODEGEN--\":22563:22610   */\n      mstore\n        /* \"--CODEGEN--\":22624:22745   */\n      tag_684\n        /* \"--CODEGEN--\":22740:22744   */\n      dup2\n        /* \"--CODEGEN--\":22624:22745   */\n      jump(tag_622)\n    tag_684:\n        /* \"--CODEGEN--\":22616:22745   */\n      swap1\n      pop\n        /* \"--CODEGEN--\":22520:22755   */\n      swap2\n      swap1\n      pop\n      jump\n        /* \"--CODEGEN--\":22762:23149   */\n    tag_391:\n      0x0\n        /* \"--CODEGEN--\":22943:22945   */\n      0x20\n        /* \"--CODEGEN--\":22932:22941   */\n      dup3\n        /* \"--CODEGEN--\":22928:22946   */\n      add\n        /* \"--CODEGEN--\":22920:22946   */\n      swap1\n      pop\n        /* \"--CODEGEN--\":22993:23002   */\n      dup2\n        /* \"--CODEGEN--\":22987:22991   */\n      dup2\n        /* \"--CODEGEN--\":22983:23003   */\n      sub\n        /* \"--CODEGEN--\":22979:22980   */\n      0x0\n        /* \"--CODEGEN--\":22968:22977   */\n      dup4\n        /* \"--CODEGEN--\":22964:22981   */\n      add\n        /* \"--CODEGEN--\":22957:23004   */\n      mstore\n        /* \"--CODEGEN--\":23018:23139   */\n      tag_686\n        /* \"--CODEGEN--\":23134:23138   */\n      dup2\n        /* \"--CODEGEN--\":23018:23139   */\n      jump(tag_624)\n    tag_686:\n        /* \"--CODEGEN--\":23010:23139   */\n      swap1\n      pop\n        /* \"--CODEGEN--\":22914:23149   */\n      swap2\n      swap1\n      pop\n      jump\n        /* \"--CODEGEN--\":23156:23543   */\n    tag_201:\n      0x0\n        /* \"--CODEGEN--\":23337:23339   */\n      0x20\n        /* \"--CODEGEN--\":23326:23335   */\n      dup3\n        /* \"--CODEGEN--\":23322:23340   */\n      add\n        /* \"--CODEGEN--\":23314:23340   */\n      swap1\n      pop\n        /* \"--CODEGEN--\":23387:23396   */\n      dup2\n        /* \"--CODEGEN--\":23381:23385   */\n      dup2\n        /* \"--CODEGEN--\":23377:23397   */\n      sub\n        /* \"--CODEGEN--\":23373:23374   */\n      0x0\n        /* \"--CODEGEN--\":23362:23371   */\n      dup4\n        /* \"--CODEGEN--\":23358:23375   */\n      add\n        /* \"--CODEGEN--\":23351:23398   */\n      mstore\n        /* \"--CODEGEN--\":23412:23533   */\n      tag_688\n        /* \"--CODEGEN--\":23528:23532   */\n      dup2\n        /* \"--CODEGEN--\":23412:23533   */\n      jump(tag_626)\n    tag_688:\n        /* \"--CODEGEN--\":23404:23533   */\n      swap1\n      pop\n        /* \"--CODEGEN--\":23308:23543   */\n      swap2\n      swap1\n      pop\n      jump\n        /* \"--CODEGEN--\":23550:23937   */\n    tag_350:\n      0x0\n        /* \"--CODEGEN--\":23731:23733   */\n      0x20\n        /* \"--CODEGEN--\":23720:23729   */\n      dup3\n        /* \"--CODEGEN--\":23716:23734   */\n      add\n        /* \"--CODEGEN--\":23708:23734   */\n      swap1\n      pop\n        /* \"--CODEGEN--\":23781:23790   */\n      dup2\n        /* \"--CODEGEN--\":23775:23779   */\n      dup2\n        /* \"--CODEGEN--\":23771:23791   */\n      sub\n        /* \"--CODEGEN--\":23767:23768   */\n      0x0\n        /* \"--CODEGEN--\":23756:23765   */\n      dup4\n        /* \"--CODEGEN--\":23752:23769   */\n      add\n        /* \"--CODEGEN--\":23745:23792   */\n      mstore\n        /* \"--CODEGEN--\":23806:23927   */\n      tag_690\n        /* \"--CODEGEN--\":23922:23926   */\n      dup2\n        /* \"--CODEGEN--\":23806:23927   */\n      jump(tag_628)\n    tag_690:\n        /* \"--CODEGEN--\":23798:23927   */\n      swap1\n      pop\n        /* \"--CODEGEN--\":23702:23937   */\n      swap2\n      swap1\n      pop\n      jump\n        /* \"--CODEGEN--\":23944:24331   */\n    tag_209:\n      0x0\n        /* \"--CODEGEN--\":24125:24127   */\n      0x20\n        /* \"--CODEGEN--\":24114:24123   */\n      dup3\n        /* \"--CODEGEN--\":24110:24128   */\n      add\n        /* \"--CODEGEN--\":24102:24128   */\n      swap1\n      pop\n        /* \"--CODEGEN--\":24175:24184   */\n      dup2\n        /* \"--CODEGEN--\":24169:24173   */\n      dup2\n        /* \"--CODEGEN--\":24165:24185   */\n      sub\n        /* \"--CODEGEN--\":24161:24162   */\n      0x0\n        /* \"--CODEGEN--\":24150:24159   */\n      dup4\n        /* \"--CODEGEN--\":24146:24163   */\n      add\n        /* \"--CODEGEN--\":24139:24186   */\n      mstore\n        /* \"--CODEGEN--\":24200:24321   */\n      tag_692\n        /* \"--CODEGEN--\":24316:24320   */\n      dup2\n        /* \"--CODEGEN--\":24200:24321   */\n      jump(tag_630)\n    tag_692:\n        /* \"--CODEGEN--\":24192:24321   */\n      swap1\n      pop\n        /* \"--CODEGEN--\":24096:24331   */\n      swap2\n      swap1\n      pop\n      jump\n        /* \"--CODEGEN--\":24338:24725   */\n    tag_373:\n      0x0\n        /* \"--CODEGEN--\":24519:24521   */\n      0x20\n        /* \"--CODEGEN--\":24508:24517   */\n      dup3\n        /* \"--CODEGEN--\":24504:24522   */\n      add\n        /* \"--CODEGEN--\":24496:24522   */\n      swap1\n      pop\n        /* \"--CODEGEN--\":24569:24578   */\n      dup2\n        /* \"--CODEGEN--\":24563:24567   */\n      dup2\n        /* \"--CODEGEN--\":24559:24579   */\n      sub\n        /* \"--CODEGEN--\":24555:24556   */\n      0x0\n        /* \"--CODEGEN--\":24544:24553   */\n      dup4\n        /* \"--CODEGEN--\":24540:24557   */\n      add\n        /* \"--CODEGEN--\":24533:24580   */\n      mstore\n        /* \"--CODEGEN--\":24594:24715   */\n      tag_694\n        /* \"--CODEGEN--\":24710:24714   */\n      dup2\n        /* \"--CODEGEN--\":24594:24715   */\n      jump(tag_632)\n    tag_694:\n        /* \"--CODEGEN--\":24586:24715   */\n      swap1\n      pop\n        /* \"--CODEGEN--\":24490:24725   */\n      swap2\n      swap1\n      pop\n      jump\n        /* \"--CODEGEN--\":24732:25119   */\n    tag_181:\n      0x0\n        /* \"--CODEGEN--\":24913:24915   */\n      0x20\n        /* \"--CODEGEN--\":24902:24911   */\n      dup3\n        /* \"--CODEGEN--\":24898:24916   */\n      add\n        /* \"--CODEGEN--\":24890:24916   */\n      swap1\n      pop\n        /* \"--CODEGEN--\":24963:24972   */\n      dup2\n        /* \"--CODEGEN--\":24957:24961   */\n      dup2\n        /* \"--CODEGEN--\":24953:24973   */\n      sub\n        /* \"--CODEGEN--\":24949:24950   */\n      0x0\n        /* \"--CODEGEN--\":24938:24947   */\n      dup4\n        /* \"--CODEGEN--\":24934:24951   */\n      add\n        /* \"--CODEGEN--\":24927:24974   */\n      mstore\n        /* \"--CODEGEN--\":24988:25109   */\n      tag_696\n        /* \"--CODEGEN--\":25104:25108   */\n      dup2\n        /* \"--CODEGEN--\":24988:25109   */\n      jump(tag_634)\n    tag_696:\n        /* \"--CODEGEN--\":24980:25109   */\n      swap1\n      pop\n        /* \"--CODEGEN--\":24884:25119   */\n      swap2\n      swap1\n      pop\n      jump\n        /* \"--CODEGEN--\":25126:25319   */\n    tag_43:\n      0x0\n        /* \"--CODEGEN--\":25234:25236   */\n      0x20\n        /* \"--CODEGEN--\":25223:25232   */\n      dup3\n        /* \"--CODEGEN--\":25219:25237   */\n      add\n        /* \"--CODEGEN--\":25211:25237   */\n      swap1\n      pop\n        /* \"--CODEGEN--\":25248:25309   */\n      tag_698\n        /* \"--CODEGEN--\":25306:25307   */\n      0x0\n        /* \"--CODEGEN--\":25295:25304   */\n      dup4\n        /* \"--CODEGEN--\":25291:25308   */\n      add\n        /* \"--CODEGEN--\":25282:25288   */\n      dup5\n        /* \"--CODEGEN--\":25248:25309   */\n      jump(tag_563)\n    tag_698:\n        /* \"--CODEGEN--\":25205:25319   */\n      swap3\n      swap2\n      pop\n      pop\n      jump\n        /* \"--CODEGEN--\":25326:25511   */\n    tag_72:\n      0x0\n        /* \"--CODEGEN--\":25430:25432   */\n      0x20\n        /* \"--CODEGEN--\":25419:25428   */\n      dup3\n        /* \"--CODEGEN--\":25415:25433   */\n      add\n        /* \"--CODEGEN--\":25407:25433   */\n      swap1\n      pop\n        /* \"--CODEGEN--\":25444:25501   */\n      tag_700\n        /* \"--CODEGEN--\":25498:25499   */\n      0x0\n        /* \"--CODEGEN--\":25487:25496   */\n      dup4\n        /* \"--CODEGEN--\":25483:25500   */\n      add\n        /* \"--CODEGEN--\":25474:25480   */\n      dup5\n        /* \"--CODEGEN--\":25444:25501   */\n      jump(tag_639)\n    tag_700:\n        /* \"--CODEGEN--\":25401:25511   */\n      swap3\n      swap2\n      pop\n      pop\n      jump\n        /* \"--CODEGEN--\":25518:25774   */\n    tag_464:\n      0x0\n        /* \"--CODEGEN--\":25580:25582   */\n      0x40\n        /* \"--CODEGEN--\":25574:25583   */\n      mload\n        /* \"--CODEGEN--\":25564:25583   */\n      swap1\n      pop\n        /* \"--CODEGEN--\":25618:25622   */\n      dup2\n        /* \"--CODEGEN--\":25610:25616   */\n      dup2\n        /* \"--CODEGEN--\":25606:25623   */\n      add\n        /* \"--CODEGEN--\":25717:25723   */\n      dup2\n        /* \"--CODEGEN--\":25705:25715   */\n      dup2\n        /* \"--CODEGEN--\":25702:25724   */\n      lt\n        /* \"--CODEGEN--\":25681:25699   */\n      0xffffffffffffffff\n        /* \"--CODEGEN--\":25669:25679   */\n      dup3\n        /* \"--CODEGEN--\":25666:25700   */\n      gt\n        /* \"--CODEGEN--\":25663:25725   */\n      or\n        /* \"--CODEGEN--\":25660:25662   */\n      iszero\n      tag_702\n      jumpi\n        /* \"--CODEGEN--\":25738:25739   */\n      0x0\n        /* \"--CODEGEN--\":25735:25736   */\n      dup1\n        /* \"--CODEGEN--\":25728:25740   */\n      revert\n        /* \"--CODEGEN--\":25660:25662   */\n    tag_702:\n        /* \"--CODEGEN--\":25758:25768   */\n      dup1\n        /* \"--CODEGEN--\":25754:25756   */\n      0x40\n        /* \"--CODEGEN--\":25747:25769   */\n      mstore\n        /* \"--CODEGEN--\":25558:25774   */\n      pop\n      swap2\n      swap1\n      pop\n      jump\n        /* \"--CODEGEN--\":25781:26040   */\n    tag_463:\n      0x0\n        /* \"--CODEGEN--\":25925:25943   */\n      0xffffffffffffffff\n        /* \"--CODEGEN--\":25917:25923   */\n      dup3\n        /* \"--CODEGEN--\":25914:25944   */\n      gt\n        /* \"--CODEGEN--\":25911:25913   */\n      iszero\n      tag_704\n      jumpi\n        /* \"--CODEGEN--\":25957:25958   */\n      0x0\n        /* \"--CODEGEN--\":25954:25955   */\n      dup1\n        /* \"--CODEGEN--\":25947:25959   */\n      revert\n        /* \"--CODEGEN--\":25911:25913   */\n    tag_704:\n        /* \"--CODEGEN--\":26001:26005   */\n      0x1f\n        /* \"--CODEGEN--\":25997:26006   */\n      not\n        /* \"--CODEGEN--\":25990:25994   */\n      0x1f\n        /* \"--CODEGEN--\":25982:25988   */\n      dup4\n        /* \"--CODEGEN--\":25978:25995   */\n      add\n        /* \"--CODEGEN--\":25974:26007   */\n      and\n        /* \"--CODEGEN--\":25966:26007   */\n      swap1\n      pop\n        /* \"--CODEGEN--\":26030:26034   */\n      0x20\n        /* \"--CODEGEN--\":26024:26028   */\n      dup2\n        /* \"--CODEGEN--\":26020:26035   */\n      add\n        /* \"--CODEGEN--\":26012:26035   */\n      swap1\n      pop\n        /* \"--CODEGEN--\":25848:26040   */\n      swap2\n      swap1\n      pop\n      jump\n        /* \"--CODEGEN--\":26049:26170   */\n    tag_545:\n      0x0\n        /* \"--CODEGEN--\":26158:26162   */\n      0x20\n        /* \"--CODEGEN--\":26150:26156   */\n      dup3\n        /* \"--CODEGEN--\":26146:26163   */\n      add\n        /* \"--CODEGEN--\":26135:26163   */\n      swap1\n      pop\n        /* \"--CODEGEN--\":26127:26170   */\n      swap2\n      swap1\n      pop\n      jump\n        /* \"--CODEGEN--\":26181:26289   */\n    tag_558:\n      0x0\n        /* \"--CODEGEN--\":26276:26282   */\n      dup2\n        /* \"--CODEGEN--\":26265:26282   */\n      swap1\n      pop\n        /* \"--CODEGEN--\":26257:26289   */\n      swap2\n      swap1\n      pop\n      jump\n        /* \"--CODEGEN--\":26300:26426   */\n    tag_599:\n      0x0\n        /* \"--CODEGEN--\":26377:26381   */\n      dup2\n        /* \"--CODEGEN--\":26374:26375   */\n      0x0\n        /* \"--CODEGEN--\":26367:26382   */\n      mstore\n        /* \"--CODEGEN--\":26414:26418   */\n      0x20\n        /* \"--CODEGEN--\":26411:26412   */\n      0x0\n        /* \"--CODEGEN--\":26401:26419   */\n      keccak256\n        /* \"--CODEGEN--\":26389:26419   */\n      swap1\n      pop\n        /* \"--CODEGEN--\":26359:26426   */\n      swap2\n      swap1\n      pop\n      jump\n        /* \"--CODEGEN--\":26435:26542   */\n    tag_543:\n      0x0\n        /* \"--CODEGEN--\":26531:26536   */\n      dup2\n        /* \"--CODEGEN--\":26525:26537   */\n      mload\n        /* \"--CODEGEN--\":26515:26537   */\n      swap1\n      pop\n        /* \"--CODEGEN--\":26509:26542   */\n      swap2\n      swap1\n      pop\n      jump\n        /* \"--CODEGEN--\":26549:26645   */\n    tag_556:\n      0x0\n        /* \"--CODEGEN--\":26637:26640   */\n      0x5\n        /* \"--CODEGEN--\":26627:26640   */\n      swap1\n      pop\n        /* \"--CODEGEN--\":26621:26645   */\n      swap2\n      swap1\n      pop\n      jump\n        /* \"--CODEGEN--\":26652:26743   */\n    tag_576:\n      0x0\n        /* \"--CODEGEN--\":26732:26737   */\n      dup2\n        /* \"--CODEGEN--\":26726:26738   */\n      mload\n        /* \"--CODEGEN--\":26716:26738   */\n      swap1\n      pop\n        /* \"--CODEGEN--\":26710:26743   */\n      swap2\n      swap1\n      pop\n      jump\n        /* \"--CODEGEN--\":26750:26838   */\n    tag_590:\n      0x0\n        /* \"--CODEGEN--\":26827:26832   */\n      dup2\n        /* \"--CODEGEN--\":26821:26833   */\n      mload\n        /* \"--CODEGEN--\":26811:26833   */\n      swap1\n      pop\n        /* \"--CODEGEN--\":26805:26838   */\n      swap2\n      swap1\n      pop\n      jump\n        /* \"--CODEGEN--\":26845:26937   */\n    tag_584:\n      0x0\n        /* \"--CODEGEN--\":26926:26931   */\n      dup2\n        /* \"--CODEGEN--\":26920:26932   */\n      mload\n        /* \"--CODEGEN--\":26910:26932   */\n      swap1\n      pop\n        /* \"--CODEGEN--\":26904:26937   */\n      swap2\n      swap1\n      pop\n      jump\n        /* \"--CODEGEN--\":26945:27067   */\n    tag_552:\n      0x0\n        /* \"--CODEGEN--\":27056:27060   */\n      0x20\n        /* \"--CODEGEN--\":27048:27054   */\n      dup3\n        /* \"--CODEGEN--\":27044:27061   */\n      add\n        /* \"--CODEGEN--\":27033:27061   */\n      swap1\n      pop\n        /* \"--CODEGEN--\":27026:27067   */\n      swap2\n      swap1\n      pop\n      jump\n        /* \"--CODEGEN--\":27076:27196   */\n    tag_565:\n      0x0\n        /* \"--CODEGEN--\":27185:27189   */\n      0x20\n        /* \"--CODEGEN--\":27177:27183   */\n      dup3\n        /* \"--CODEGEN--\":27173:27190   */\n      add\n        /* \"--CODEGEN--\":27162:27190   */\n      swap1\n      pop\n        /* \"--CODEGEN--\":27155:27196   */\n      swap2\n      swap1\n      pop\n      jump\n        /* \"--CODEGEN--\":27204:27309   */\n    tag_539:\n      0x0\n        /* \"--CODEGEN--\":27273:27304   */\n      tag_716\n        /* \"--CODEGEN--\":27298:27303   */\n      dup3\n        /* \"--CODEGEN--\":27273:27304   */\n      jump(tag_717)\n    tag_716:\n        /* \"--CODEGEN--\":27262:27304   */\n      swap1\n      pop\n        /* \"--CODEGEN--\":27256:27309   */\n      swap2\n      swap1\n      pop\n      jump\n        /* \"--CODEGEN--\":27316:27408   */\n    tag_569:\n      0x0\n        /* \"--CODEGEN--\":27396:27401   */\n      dup2\n        /* \"--CODEGEN--\":27389:27402   */\n      iszero\n        /* \"--CODEGEN--\":27382:27403   */\n      iszero\n        /* \"--CODEGEN--\":27371:27403   */\n      swap1\n      pop\n        /* \"--CODEGEN--\":27365:27408   */\n      swap2\n      swap1\n      pop\n      jump\n        /* \"--CODEGEN--\":27415:27494   */\n    tag_572:\n      0x0\n        /* \"--CODEGEN--\":27484:27489   */\n      dup2\n        /* \"--CODEGEN--\":27473:27489   */\n      swap1\n      pop\n        /* \"--CODEGEN--\":27467:27494   */\n      swap2\n      swap1\n      pop\n      jump\n        /* \"--CODEGEN--\":27501:27629   */\n    tag_717:\n      0x0\n        /* \"--CODEGEN--\":27581:27623   */\n      0xffffffffffffffffffffffffffffffffffffffff\n        /* \"--CODEGEN--\":27574:27579   */\n      dup3\n        /* \"--CODEGEN--\":27570:27624   */\n      and\n        /* \"--CODEGEN--\":27559:27624   */\n      swap1\n      pop\n        /* \"--CODEGEN--\":27553:27629   */\n      swap2\n      swap1\n      pop\n      jump\n        /* \"--CODEGEN--\":27636:27715   */\n    tag_637:\n      0x0\n        /* \"--CODEGEN--\":27705:27710   */\n      dup2\n        /* \"--CODEGEN--\":27694:27710   */\n      swap1\n      pop\n        /* \"--CODEGEN--\":27688:27715   */\n      swap2\n      swap1\n      pop\n      jump\n        /* \"--CODEGEN--\":27722:27810   */\n    tag_641:\n      0x0\n        /* \"--CODEGEN--\":27800:27804   */\n      0xff\n        /* \"--CODEGEN--\":27793:27798   */\n      dup3\n        /* \"--CODEGEN--\":27789:27805   */\n      and\n        /* \"--CODEGEN--\":27778:27805   */\n      swap1\n      pop\n        /* \"--CODEGEN--\":27772:27810   */\n      swap2\n      swap1\n      pop\n      jump\n        /* \"--CODEGEN--\":27817:27922   */\n    tag_437:\n      0x0\n        /* \"--CODEGEN--\":27886:27917   */\n      tag_724\n        /* \"--CODEGEN--\":27911:27916   */\n      dup3\n        /* \"--CODEGEN--\":27886:27917   */\n      jump(tag_717)\n    tag_724:\n        /* \"--CODEGEN--\":27875:27917   */\n      swap1\n      pop\n        /* \"--CODEGEN--\":27869:27922   */\n      swap2\n      swap1\n      pop\n      jump\n        /* \"--CODEGEN--\":27929:28021   */\n    tag_444:\n      0x0\n        /* \"--CODEGEN--\":28009:28014   */\n      dup2\n        /* \"--CODEGEN--\":28002:28015   */\n      iszero\n        /* \"--CODEGEN--\":27995:28016   */\n      iszero\n        /* \"--CODEGEN--\":27984:28016   */\n      swap1\n      pop\n        /* \"--CODEGEN--\":27978:28021   */\n      swap2\n      swap1\n      pop\n      jump\n        /* \"--CODEGEN--\":28028:28107   */\n    tag_448:\n      0x0\n        /* \"--CODEGEN--\":28097:28102   */\n      dup2\n        /* \"--CODEGEN--\":28086:28102   */\n      swap1\n      pop\n        /* \"--CODEGEN--\":28080:28107   */\n      swap2\n      swap1\n      pop\n      jump\n        /* \"--CODEGEN--\":28114:28265   */\n    tag_452:\n      0x0\n        /* \"--CODEGEN--\":28193:28259   */\n      0xffffffff00000000000000000000000000000000000000000000000000000000\n        /* \"--CODEGEN--\":28186:28191   */\n      dup3\n        /* \"--CODEGEN--\":28182:28260   */\n      and\n        /* \"--CODEGEN--\":28171:28260   */\n      swap1\n      pop\n        /* \"--CODEGEN--\":28165:28265   */\n      swap2\n      swap1\n      pop\n      jump\n        /* \"--CODEGEN--\":28272:28351   */\n    tag_471:\n      0x0\n        /* \"--CODEGEN--\":28341:28346   */\n      dup2\n        /* \"--CODEGEN--\":28330:28346   */\n      swap1\n      pop\n        /* \"--CODEGEN--\":28324:28351   */\n      swap2\n      swap1\n      pop\n      jump\n        /* \"--CODEGEN--\":28358:28487   */\n    tag_535:\n      0x0\n        /* \"--CODEGEN--\":28445:28482   */\n      tag_730\n        /* \"--CODEGEN--\":28476:28481   */\n      dup3\n        /* \"--CODEGEN--\":28445:28482   */\n      jump(tag_731)\n    tag_730:\n        /* \"--CODEGEN--\":28432:28482   */\n      swap1\n      pop\n        /* \"--CODEGEN--\":28426:28487   */\n      swap2\n      swap1\n      pop\n      jump\n        /* \"--CODEGEN--\":28494:28615   */\n    tag_731:\n      0x0\n        /* \"--CODEGEN--\":28573:28610   */\n      tag_733\n        /* \"--CODEGEN--\":28604:28609   */\n      dup3\n        /* \"--CODEGEN--\":28573:28610   */\n      jump(tag_734)\n    tag_733:\n        /* \"--CODEGEN--\":28560:28610   */\n      swap1\n      pop\n        /* \"--CODEGEN--\":28554:28615   */\n      swap2\n      swap1\n      pop\n      jump\n        /* \"--CODEGEN--\":28622:28737   */\n    tag_734:\n      0x0\n        /* \"--CODEGEN--\":28701:28732   */\n      tag_736\n        /* \"--CODEGEN--\":28726:28731   */\n      dup3\n        /* \"--CODEGEN--\":28701:28732   */\n      jump(tag_717)\n    tag_736:\n        /* \"--CODEGEN--\":28688:28732   */\n      swap1\n      pop\n        /* \"--CODEGEN--\":28682:28737   */\n      swap2\n      swap1\n      pop\n      jump\n        /* \"--CODEGEN--\":28745:28890   */\n    tag_467:\n        /* \"--CODEGEN--\":28826:28832   */\n      dup3\n        /* \"--CODEGEN--\":28821:28824   */\n      dup2\n        /* \"--CODEGEN--\":28816:28819   */\n      dup4\n        /* \"--CODEGEN--\":28803:28833   */\n      calldatacopy\n        /* \"--CODEGEN--\":28882:28883   */\n      0x0\n        /* \"--CODEGEN--\":28873:28879   */\n      dup4\n        /* \"--CODEGEN--\":28868:28871   */\n      dup4\n        /* \"--CODEGEN--\":28864:28880   */\n      add\n        /* \"--CODEGEN--\":28857:28884   */\n      mstore\n        /* \"--CODEGEN--\":28796:28890   */\n      pop\n      pop\n      pop\n      jump\n        /* \"--CODEGEN--\":28899:29167   */\n    tag_578:\n        /* \"--CODEGEN--\":28964:28965   */\n      0x0\n        /* \"--CODEGEN--\":28971:29072   */\n    tag_739:\n        /* \"--CODEGEN--\":28985:28991   */\n      dup4\n        /* \"--CODEGEN--\":28982:28983   */\n      dup2\n        /* \"--CODEGEN--\":28979:28992   */\n      lt\n        /* \"--CODEGEN--\":28971:29072   */\n      iszero\n      tag_740\n      jumpi\n        /* \"--CODEGEN--\":29061:29062   */\n      dup1\n        /* \"--CODEGEN--\":29056:29059   */\n      dup3\n        /* \"--CODEGEN--\":29052:29063   */\n      add\n        /* \"--CODEGEN--\":29046:29064   */\n      mload\n        /* \"--CODEGEN--\":29042:29043   */\n      dup2\n        /* \"--CODEGEN--\":29037:29040   */\n      dup5\n        /* \"--CODEGEN--\":29033:29044   */\n      add\n        /* \"--CODEGEN--\":29026:29065   */\n      mstore\n        /* \"--CODEGEN--\":29007:29009   */\n      0x20\n        /* \"--CODEGEN--\":29004:29005   */\n      dup2\n        /* \"--CODEGEN--\":29000:29010   */\n      add\n        /* \"--CODEGEN--\":28995:29010   */\n      swap1\n      pop\n        /* \"--CODEGEN--\":28971:29072   */\n      jump(tag_739)\n    tag_740:\n        /* \"--CODEGEN--\":29087:29093   */\n      dup4\n        /* \"--CODEGEN--\":29084:29085   */\n      dup2\n        /* \"--CODEGEN--\":29081:29094   */\n      gt\n        /* \"--CODEGEN--\":29078:29080   */\n      iszero\n      tag_742\n      jumpi\n        /* \"--CODEGEN--\":29152:29153   */\n      0x0\n        /* \"--CODEGEN--\":29143:29149   */\n      dup5\n        /* \"--CODEGEN--\":29138:29141   */\n      dup5\n        /* \"--CODEGEN--\":29134:29150   */\n      add\n        /* \"--CODEGEN--\":29127:29154   */\n      mstore\n        /* \"--CODEGEN--\":29078:29080   */\n    tag_742:\n        /* \"--CODEGEN--\":28948:29167   */\n      pop\n      pop\n      pop\n      pop\n      jump\n        /* \"--CODEGEN--\":29175:29272   */\n    tag_580:\n      0x0\n        /* \"--CODEGEN--\":29263:29265   */\n      0x1f\n        /* \"--CODEGEN--\":29259:29266   */\n      not\n        /* \"--CODEGEN--\":29254:29256   */\n      0x1f\n        /* \"--CODEGEN--\":29247:29252   */\n      dup4\n        /* \"--CODEGEN--\":29243:29257   */\n      add\n        /* \"--CODEGEN--\":29239:29267   */\n      and\n        /* \"--CODEGEN--\":29229:29267   */\n      swap1\n      pop\n        /* \"--CODEGEN--\":29223:29272   */\n      swap2\n      swap1\n      pop\n      jump\n\n    auxdata: 0xa265627a7a7230582014c84e035c389cabc771117e347ad5d19a025f2fa7bf88cc5195c8dbf12cdbaf6c6578706572696d656e74616cf50037\n}\n",
				"bytecode": {
					"linkReferences": {},
					"object": "6080604052336000806101000a81548173ffffffffffffffffffffffffffffffffffffffff021916908373ffffffffffffffffffffffffffffffffffffffff1602179055503480156200005157600080fd5b50604051620047403803806200474083398101806040526200007791908101906200024d565b81806000806101000a81548173ffffffffffffffffffffffffffffffffffffffff021916908373ffffffffffffffffffffffffffffffffffffffff160217905550508360029080519060200190620000d19291906200012a565b508260039080519060200190620000ea9291906200012a565b506012600460006101000a81548160ff021916908360ff16021790555080600190805190602001906200011f9291906200012a565b5050505050620003c9565b828054600181600116156101000203166002900490600052602060002090601f016020900481019282601f106200016d57805160ff19168380011785556200019e565b828001600101855582156200019e579182015b828111156200019d57825182559160200191906001019062000180565b5b509050620001ad9190620001b1565b5090565b620001d691905b80821115620001d2576000816000905550600101620001b8565b5090565b90565b6000620001e782516200037f565b905092915050565b600082601f83011215156200020357600080fd5b81516200021a620002148262000332565b62000304565b915080825260208301602083018583830111156200023757600080fd5b6200024483828462000393565b50505092915050565b600080600080608085870312156200026457600080fd5b600085015167ffffffffffffffff8111156200027f57600080fd5b6200028d87828801620001ef565b945050602085015167ffffffffffffffff811115620002ab57600080fd5b620002b987828801620001ef565b9350506040620002cc87828801620001d9565b925050606085015167ffffffffffffffff811115620002ea57600080fd5b620002f887828801620001ef565b91505092959194509250565b6000604051905081810181811067ffffffffffffffff821117156200032857600080fd5b8060405250919050565b600067ffffffffffffffff8211156200034a57600080fd5b601f19601f8301169050602081019050919050565b600073ffffffffffffffffffffffffffffffffffffffff82169050919050565b60006200038c826200035f565b9050919050565b60005b83811015620003b357808201518184015260208101905062000396565b83811115620003c3576000848401525b50505050565b61436780620003d96000396000f3fe60806040526004361061015f576000357c0100000000000000000000000000000000000000000000000000000000900463ffffffff16806306fdde031461016457806313af40351461018f57806318160ddd146101b85780631f14df69146101e357806327e6186a14610220578063294cdf0d1461025d5780632f745c591461029a578063313ce567146102d75780634f64b2be146103025780635944ac081461033f5780635eddd9c91461037c5780636db2feb2146103a557806370a08231146103e257806372a60c7c1461041f5780637a408454146104485780637fe68381146104715780638da5cb5b1461049a5780639379e5f5146104c557806395d89b41146104ee578063a22cb46514610519578063a5961b4c14610542578063aa6ca8081461057f578063b8f87d09146105aa578063e6863ac4146105d3578063e985e9c5146105fc578063eea268a414610639578063f86c1a7814610676575b600080fd5b34801561017057600080fd5b506101796106a1565b6040516101869190613e85565b60405180910390f35b34801561019b57600080fd5b506101b660048036036101b1919081019061343f565b610743565b005b3480156101c457600080fd5b506101cd61085c565b6040516101da91906140de565b60405180910390f35b3480156101ef57600080fd5b5061020a60048036036102059190810190613673565b610869565b60405161021791906140de565b60405180910390f35b34801561022c57600080fd5b5061024760048036036102429190810190613673565b61088e565b60405161025491906140de565b60405180910390f35b34801561026957600080fd5b50610284600480360361027f919081019061343f565b61095a565b6040516102919190613df0565b60405180910390f35b3480156102a657600080fd5b506102c160048036036102bc91908101906136af565b6109f1565b6040516102ce9190613e48565b60405180910390f35b3480156102e357600080fd5b506102ec610ad8565b6040516102f991906140f9565b60405180910390f35b34801561030e57600080fd5b50610329600480360361032491908101906137ba565b610aef565b6040516103369190613e48565b60405180910390f35b34801561034b57600080fd5b50610366600480360361036191908101906134a4565b610b12565b60405161037391906140de565b60405180910390f35b34801561038857600080fd5b506103a3600480360361039e91908101906134f3565b610bab565b005b3480156103b157600080fd5b506103cc60048036036103c791908101906136eb565b610f33565b6040516103d99190613e2d565b60405180910390f35b3480156103ee57600080fd5b506104096004803603610404919081019061343f565b610f6c565b60405161041691906140de565b60405180910390f35b34801561042b57600080fd5b50610446600480360361044191908101906135e8565b610fb9565b005b34801561045457600080fd5b5061046f600480360361046a9190810190613714565b6111b6565b005b34801561047d57600080fd5b50610498600480360361049391908101906134f3565b6114f1565b005b3480156104a657600080fd5b506104af611823565b6040516104bc9190613d7b565b60405180910390f35b3480156104d157600080fd5b506104ec60048036036104e79190810190613779565b611848565b005b3480156104fa57600080fd5b506105036118f7565b6040516105109190613e85565b60405180910390f35b34801561052557600080fd5b50610540600480360361053b9190810190613637565b611999565b005b34801561054e57600080fd5b50610569600480360361056491908101906136eb565b611a96565b6040516105769190613e12565b60405180910390f35b34801561058b57600080fd5b50610594611b9a565b6040516105a19190613df0565b60405180910390f35b3480156105b657600080fd5b506105d160048036036105cc9190810190613556565b611bf2565b005b3480156105df57600080fd5b506105fa60048036036105f59190810190613556565b611eb7565b005b34801561060857600080fd5b50610623600480360361061e9190810190613468565b6120cf565b6040516106309190613e2d565b60405180910390f35b34801561064557600080fd5b50610660600480360361065b91908101906136eb565b612163565b60405161066d91906140de565b60405180910390f35b34801561068257600080fd5b5061068b61217b565b6040516106989190613e63565b60405180910390f35b606060028054600181600116156101000203166002900480601f0160208091040260200160405190810160405280929190818152602001828054600181600116156101000203166002900480156107395780601f1061070e57610100808354040283529160200191610739565b820191906000526020600020905b81548152906001019060200180831161071c57829003601f168201915b5050505050905090565b6000809054906101000a900473ffffffffffffffffffffffffffffffffffffffff1673ffffffffffffffffffffffffffffffffffffffff163373ffffffffffffffffffffffffffffffffffffffff1614151561079e57600080fd5b8073ffffffffffffffffffffffffffffffffffffffff166000809054906101000a900473ffffffffffffffffffffffffffffffffffffffff1673ffffffffffffffffffffffffffffffffffffffff167f70aea8d848e8a90fb7661b227dc522eb6395c3dac71b63cb59edd5c9899b236460405160405180910390a3806000806101000a81548173ffffffffffffffffffffffffffffffffffffffff021916908373ffffffffffffffffffffffffffffffffffffffff16021790555050565b6000600580549050905090565b600c602052816000526040600020602052806000526040600020600091509150505481565b60008073ffffffffffffffffffffffffffffffffffffffff168373ffffffffffffffffffffffffffffffffffffffff1614151515610901576040517f08c379a00000000000000000000000000000000000000000000000000000000081526004016108f8906140be565b60405180910390fd5b600c60008473ffffffffffffffffffffffffffffffffffffffff1673ffffffffffffffffffffffffffffffffffffffff168152602001908152602001600020600083815260200190815260200160002054905092915050565b6060600a60008373ffffffffffffffffffffffffffffffffffffffff1673ffffffffffffffffffffffffffffffffffffffff1681526020019081526020016000208054806020026020016040519081016040528092919081815260200182805480156109e557602002820191906000526020600020905b8154815260200190600101908083116109d1575b50505050509050919050565b6000600a60008473ffffffffffffffffffffffffffffffffffffffff1673ffffffffffffffffffffffffffffffffffffffff1681526020019081526020016000208054905082101515610a79576040517f08c379a0000000000000000000000000000000000000000000000000000000008152600401610a7090613ede565b60405180910390fd5b600a60008473ffffffffffffffffffffffffffffffffffffffff1673ffffffffffffffffffffffffffffffffffffffff16815260200190815260200160002082815481101515610ac557fe5b9060005260206000200154905092915050565b6000600460009054906101000a900460ff16905090565b600581815481101515610afe57fe5b906000526020600020016000915090505481565b6000600760008573ffffffffffffffffffffffffffffffffffffffff1673ffffffffffffffffffffffffffffffffffffffff16815260200190815260200160002060008473ffffffffffffffffffffffffffffffffffffffff1673ffffffffffffffffffffffffffffffffffffffff16815260200190815260200160002060008381526020019081526020016000205490509392505050565b8382828273ffffffffffffffffffffffffffffffffffffffff163373ffffffffffffffffffffffffffffffffffffffff16148015610c39575080600c60003373ffffffffffffffffffffffffffffffffffffffff1673ffffffffffffffffffffffffffffffffffffffff16815260200190815260200160002060008481526020019081526020016000205410155b80610d265750600960008473ffffffffffffffffffffffffffffffffffffffff1673ffffffffffffffffffffffffffffffffffffffff16815260200190815260200160002060003373ffffffffffffffffffffffffffffffffffffffff1673ffffffffffffffffffffffffffffffffffffffff16815260200190815260200160002060009054906101000a900460ff168015610d25575080600c60008573ffffffffffffffffffffffffffffffffffffffff1673ffffffffffffffffffffffffffffffffffffffff16815260200190815260200160002060008481526020019081526020016000205410155b5b1515610d67576040517f08c379a0000000000000000000000000000000000000000000000000000000008152600401610d5e9061403e565b60405180910390fd5b846000600d600083815260200190815260200160002054111515610dc0576040517f08c379a0000000000000000000000000000000000000000000000000000000008152600401610db790613fde565b60405180910390fd5b8773ffffffffffffffffffffffffffffffffffffffff168773ffffffffffffffffffffffffffffffffffffffff1614151515610e31576040517f08c379a0000000000000000000000000000000000000000000000000000000008152600401610e289061407e565b60405180910390fd5b84600760008a73ffffffffffffffffffffffffffffffffffffffff1673ffffffffffffffffffffffffffffffffffffffff16815260200190815260200160002060008973ffffffffffffffffffffffffffffffffffffffff1673ffffffffffffffffffffffffffffffffffffffff168152602001908152602001600020600088815260200190815260200160002081905550858773ffffffffffffffffffffffffffffffffffffffff168973ffffffffffffffffffffffffffffffffffffffff167fa1376f00ce38a02643af0ff97dce59c2c81b4c8ad34c717ce9a44ed623e0718d88604051610f2191906140de565b60405180910390a45050505050505050565b600080600e600084815260200190815260200160002060000154905080421015610f61576000915050610f67565b60019150505b919050565b60008073ffffffffffffffffffffffffffffffffffffffff168273ffffffffffffffffffffffffffffffffffffffff1614151515610fa957600080fd5b610fb282612219565b9050919050565b6000809054906101000a900473ffffffffffffffffffffffffffffffffffffffff1673ffffffffffffffffffffffffffffffffffffffff163373ffffffffffffffffffffffffffffffffffffffff1614151561101457600080fd5b600082600060058110151561102557fe5b602002013583600160058110151561103957fe5b602002013584600260058110151561104d57fe5b602002013585600360058110151561106157fe5b602002013586600460058110151561107557fe5b602002013560405160200180868152602001858152602001848152602001838152602001828152602001955050505050506040516020818303038152906040528051906020012090506000600d60008381526020019081526020016000205414156111685760058190806001815401808255809150509060018203906000526020600020016000909192909190915055506001600580549050036006600083815260200190815260200160002081905550611167836005806020026040519081016040528092919082600560200280828437600081840152601f19601f82011690508083019250505050505082612262565b5b611173848284612384565b61119982600d6000848152602001908152602001600020546124eb90919063ffffffff16565b600d60008381526020019081526020016000208190555050505050565b3382828273ffffffffffffffffffffffffffffffffffffffff163373ffffffffffffffffffffffffffffffffffffffff16148015611244575080600c60003373ffffffffffffffffffffffffffffffffffffffff1673ffffffffffffffffffffffffffffffffffffffff16815260200190815260200160002060008481526020019081526020016000205410155b806113315750600960008473ffffffffffffffffffffffffffffffffffffffff1673ffffffffffffffffffffffffffffffffffffffff16815260200190815260200160002060003373ffffffffffffffffffffffffffffffffffffffff1673ffffffffffffffffffffffffffffffffffffffff16815260200190815260200160002060009054906101000a900460ff168015611330575080600c60008573ffffffffffffffffffffffffffffffffffffffff1673ffffffffffffffffffffffffffffffffffffffff16815260200190815260200160002060008481526020019081526020016000205410155b5b1515611372576040517f08c379a00000000000000000000000000000000000000000000000000000000081526004016113699061403e565b60405180910390fd5b6000809054906101000a900473ffffffffffffffffffffffffffffffffffffffff1673ffffffffffffffffffffffffffffffffffffffff163373ffffffffffffffffffffffffffffffffffffffff161415156113cd57600080fd5b6113d8338686612507565b6113fe84600d60008881526020019081526020016000205461265690919063ffffffff16565b600d6000878152602001908152602001600020819055506000600d60008781526020019081526020016000205414156114ea5760006006600087815260200190815260200160002054905060006001600580549050039050600060058281548110151561146757fe5b906000526020600020015490508060058481548110151561148457fe5b90600052602060002001819055506005805480151561149f57fe5b600190038181906000526020600020016000905590558260066000838152602001908152602001600020819055506000600660008a8152602001908152602001600020819055505050505b5050505050565b8382828273ffffffffffffffffffffffffffffffffffffffff163373ffffffffffffffffffffffffffffffffffffffff1614801561157f575080600c60003373ffffffffffffffffffffffffffffffffffffffff1673ffffffffffffffffffffffffffffffffffffffff16815260200190815260200160002060008481526020019081526020016000205410155b8061166c5750600960008473ffffffffffffffffffffffffffffffffffffffff1673ffffffffffffffffffffffffffffffffffffffff16815260200190815260200160002060003373ffffffffffffffffffffffffffffffffffffffff1673ffffffffffffffffffffffffffffffffffffffff16815260200190815260200160002060009054906101000a900460ff16801561166b575080600c60008573ffffffffffffffffffffffffffffffffffffffff1673ffffffffffffffffffffffffffffffffffffffff16815260200190815260200160002060008481526020019081526020016000205410155b5b15156116ad576040517f08c379a00000000000000000000000000000000000000000000000000000000081526004016116a49061403e565b60405180910390fd5b846000600d600083815260200190815260200160002054111515611706576040517f08c379a00000000000000000000000000000000000000000000000000000000081526004016116fd90613fde565b60405180910390fd5b84600c60008a73ffffffffffffffffffffffffffffffffffffffff1673ffffffffffffffffffffffffffffffffffffffff1681526020019081526020016000206000888152602001908152602001600020541015151561179b576040517f08c379a000000000000000000000000000000000000000000000000000000000815260040161179290613f7e565b60405180910390fd5b600073ffffffffffffffffffffffffffffffffffffffff168773ffffffffffffffffffffffffffffffffffffffff161415151561180d576040517f08c379a000000000000000000000000000000000000000000000000000000000815260040161180490613f5e565b60405180910390fd5b6118198888888861266f565b5050505050505050565b6000809054906101000a900473ffffffffffffffffffffffffffffffffffffffff1681565b6000809054906101000a900473ffffffffffffffffffffffffffffffffffffffff1673ffffffffffffffffffffffffffffffffffffffff163373ffffffffffffffffffffffffffffffffffffffff161415156118a357600080fd5b7fcdafbff2ba80e62ac8cca582598cd4c3654ed2e5ea3a2be59ef42b9c8354e3a86001826040516118d5929190613ea7565b60405180910390a180600190805190602001906118f3929190613253565b5050565b606060038054600181600116156101000203166002900480601f01602080910402602001604051908101604052809291908181526020018280546001816001161561010002031660029004801561198f5780601f106119645761010080835404028352916020019161198f565b820191906000526020600020905b81548152906001019060200180831161197257829003601f168201915b5050505050905090565b80600960003373ffffffffffffffffffffffffffffffffffffffff1673ffffffffffffffffffffffffffffffffffffffff16815260200190815260200160002060008473ffffffffffffffffffffffffffffffffffffffff1673ffffffffffffffffffffffffffffffffffffffff16815260200190815260200160002060006101000a81548160ff0219169083151502179055508173ffffffffffffffffffffffffffffffffffffffff163373ffffffffffffffffffffffffffffffffffffffff167f17307eab39ab6107e8899845ad3d59bd9653f200f220920489ca2b5937696c3183604051611a8a9190613e2d565b60405180910390a35050565b611a9e6132d3565b611aa66132d3565b600e600084815260200190815260200160002060000154816000600581101515611acc57fe5b602002018181525050600e600084815260200190815260200160002060010154816001600581101515611afb57fe5b602002018181525050600e600084815260200190815260200160002060020154816002600581101515611b2a57fe5b602002018181525050600e600084815260200190815260200160002060030154816003600581101515611b5957fe5b602002018181525050600e600084815260200190815260200160002060040154816004600581101515611b8857fe5b60200201818152505080915050919050565b60606005805480602002602001604051908101604052809291908181526020018280548015611be857602002820191906000526020600020905b815481526020019060010190808311611bd4575b5050505050905090565b858585856000600760008673ffffffffffffffffffffffffffffffffffffffff1673ffffffffffffffffffffffffffffffffffffffff16815260200190815260200160002060008573ffffffffffffffffffffffffffffffffffffffff1673ffffffffffffffffffffffffffffffffffffffff168152602001908152602001600020600084815260200190815260200160002054905081600c60008773ffffffffffffffffffffffffffffffffffffffff1673ffffffffffffffffffffffffffffffffffffffff168152602001908152602001600020600085815260200190815260200160002054101580611ce75750818110155b1515611d28576040517f08c379a0000000000000000000000000000000000000000000000000000000008152600401611d1f90613f9e565b60405180910390fd5b611dc888600760008e73ffffffffffffffffffffffffffffffffffffffff1673ffffffffffffffffffffffffffffffffffffffff16815260200190815260200160002060008d73ffffffffffffffffffffffffffffffffffffffff1673ffffffffffffffffffffffffffffffffffffffff16815260200190815260200160002060008c81526020019081526020016000205461265690919063ffffffff16565b600760008d73ffffffffffffffffffffffffffffffffffffffff1673ffffffffffffffffffffffffffffffffffffffff16815260200190815260200160002060008c73ffffffffffffffffffffffffffffffffffffffff1673ffffffffffffffffffffffffffffffffffffffff16815260200190815260200160002060008b815260200190815260200160002081905550611eaa8b8b8b8b8b8b8080601f016020809104026020016040519081016040528093929190818152602001838380828437600081840152601f19601f820116905080830192505050505050506127a2565b5050505050505050505050565b8584848273ffffffffffffffffffffffffffffffffffffffff163373ffffffffffffffffffffffffffffffffffffffff16148015611f45575080600c60003373ffffffffffffffffffffffffffffffffffffffff1673ffffffffffffffffffffffffffffffffffffffff16815260200190815260200160002060008481526020019081526020016000205410155b806120325750600960008473ffffffffffffffffffffffffffffffffffffffff1673ffffffffffffffffffffffffffffffffffffffff16815260200190815260200160002060003373ffffffffffffffffffffffffffffffffffffffff1673ffffffffffffffffffffffffffffffffffffffff16815260200190815260200160002060009054906101000a900460ff168015612031575080600c60008573ffffffffffffffffffffffffffffffffffffffff1673ffffffffffffffffffffffffffffffffffffffff16815260200190815260200160002060008481526020019081526020016000205410155b5b1515612073576040517f08c379a000000000000000000000000000000000000000000000000000000000815260040161206a9061403e565b60405180910390fd5b6120c48989898989898080601f016020809104026020016040519081016040528093929190818152602001838380828437600081840152601f19601f820116905080830192505050505050506127a2565b505050505050505050565b6000600960008473ffffffffffffffffffffffffffffffffffffffff1673ffffffffffffffffffffffffffffffffffffffff16815260200190815260200160002060008373ffffffffffffffffffffffffffffffffffffffff1673ffffffffffffffffffffffffffffffffffffffff16815260200190815260200160002060009054906101000a900460ff16905092915050565b600d6020528060005260406000206000915090505481565b60018054600181600116156101000203166002900480601f0160208091040260200160405190810160405280929190818152602001828054600181600116156101000203166002900480156122115780601f106121e657610100808354040283529160200191612211565b820191906000526020600020905b8154815290600101906020018083116121f457829003601f168201915b505050505081565b6000600860008373ffffffffffffffffffffffffffffffffffffffff1673ffffffffffffffffffffffffffffffffffffffff168152602001908152602001600020549050919050565b81600060058110151561227157fe5b6020020151600e60008381526020019081526020016000206000018190555081600160058110151561229f57fe5b6020020151600e6000838152602001908152602001600020600101819055508160026005811015156122cd57fe5b6020020151600e6000838152602001908152602001600020600201819055508160036005811015156122fb57fe5b6020020151600e60008381526020019081526020016000206003018190555081600460058110151561232957fe5b6020020151600e600083815260200190815260200160002060040181905550807fd6a9d6c14161d8c56723655977d492ba9fa8d695c08f3981bd1462b81480af53836040516123789190613e12565b60405180910390a25050565b600073ffffffffffffffffffffffffffffffffffffffff168373ffffffffffffffffffffffffffffffffffffffff16141515156123f6576040517f08c379a00000000000000000000000000000000000000000000000000000000081526004016123ed90613fbe565b60405180910390fd5b600061242d670de0b6b3a764000061241f670de0b6b3a764000085612ac790919063ffffffff16565b612add90919063ffffffff16565b90508082141515612473576040517f08c379a000000000000000000000000000000000000000000000000000000000815260040161246a90613efe565b60405180910390fd5b61247e848484612b15565b828473ffffffffffffffffffffffffffffffffffffffff16600073ffffffffffffffffffffffffffffffffffffffff167f30b1b5fbdedaf2927859653636cb63ab6abd50b621af19a175f1490cb85118a3856040516124dd91906140de565b60405180910390a450505050565b600081830190508281101515156124fe57fe5b80905092915050565b816000600d600083815260200190815260200160002054111515612560576040517f08c379a000000000000000000000000000000000000000000000000000000000815260040161255790613fde565b60405180910390fd5b6000612597670de0b6b3a7640000612589670de0b6b3a764000086612ac790919063ffffffff16565b612add90919063ffffffff16565b905080831415156125dd576040517f08c379a00000000000000000000000000000000000000000000000000000000081526004016125d49061405e565b60405180910390fd5b6125e8858585612c35565b83600073ffffffffffffffffffffffffffffffffffffffff168673ffffffffffffffffffffffffffffffffffffffff167f30b1b5fbdedaf2927859653636cb63ab6abd50b621af19a175f1490cb85118a38660405161264791906140de565b60405180910390a45050505050565b600082821115151561266457fe5b818303905092915050565b61267882610f33565b156126a2576000809054906101000a900473ffffffffffffffffffffffffffffffffffffffff1692505b60006126d9670de0b6b3a76400006126cb670de0b6b3a764000085612ac790919063ffffffff16565b612add90919063ffffffff16565b9050808214151561271f576040517f08c379a000000000000000000000000000000000000000000000000000000000815260040161271690613ffe565b60405180910390fd5b61272a858483612c35565b612735848483612b15565b828473ffffffffffffffffffffffffffffffffffffffff168673ffffffffffffffffffffffffffffffffffffffff167f30b1b5fbdedaf2927859653636cb63ab6abd50b621af19a175f1490cb85118a38460405161279391906140de565b60405180910390a45050505050565b826000600d6000838152602001908152602001600020541115156127fb576040517f08c379a00000000000000000000000000000000000000000000000000000000081526004016127f290613fde565b60405180910390fd5b82600c60008873ffffffffffffffffffffffffffffffffffffffff1673ffffffffffffffffffffffffffffffffffffffff16815260200190815260200160002060008681526020019081526020016000205410151515612890576040517f08c379a00000000000000000000000000000000000000000000000000000000081526004016128879061409e565b60405180910390fd5b600073ffffffffffffffffffffffffffffffffffffffff168573ffffffffffffffffffffffffffffffffffffffff1614151515612902576040517f08c379a00000000000000000000000000000000000000000000000000000000081526004016128f990613f1e565b60405180910390fd5b61290b84610f33565b15612935576000809054906101000a900473ffffffffffffffffffffffffffffffffffffffff1694505b6129418686868661266f565b6129608573ffffffffffffffffffffffffffffffffffffffff16612dea565b15612abf5760008573ffffffffffffffffffffffffffffffffffffffff166382cf5afa33898888886040518663ffffffff167c01000000000000000000000000000000000000000000000000000000000281526004016129c4959493929190613d96565b602060405180830381600087803b1580156129de57600080fd5b505af11580156129f2573d6000803e3d6000fd5b505050506040513d601f19601f82011682018060405250612a169190810190613750565b90506382cf5afa7c0100000000000000000000000000000000000000000000000000000000027bffffffffffffffffffffffffffffffffffffffffffffffffffffffff1916817bffffffffffffffffffffffffffffffffffffffffffffffffffffffff1916141515612abd576040517f08c379a0000000000000000000000000000000000000000000000000000000008152600401612ab49061401e565b60405180910390fd5b505b505050505050565b60008183811515612ad457fe5b04905092915050565b600080831415612af05760009050612b0f565b8183029050818382811515612b0157fe5b04141515612b0b57fe5b8090505b92915050565b6000600c60008573ffffffffffffffffffffffffffffffffffffffff1673ffffffffffffffffffffffffffffffffffffffff1681526020019081526020016000206000848152602001908152602001600020541415612b7957612b788383612e05565b5b612bdc81600c60008673ffffffffffffffffffffffffffffffffffffffff1673ffffffffffffffffffffffffffffffffffffffff1681526020019081526020016000206000858152602001908152602001600020546124eb90919063ffffffff16565b600c60008573ffffffffffffffffffffffffffffffffffffffff1673ffffffffffffffffffffffffffffffffffffffff168152602001908152602001600020600084815260200190815260200160002081905550505050565b80600c60008573ffffffffffffffffffffffffffffffffffffffff1673ffffffffffffffffffffffffffffffffffffffff16815260200190815260200160002060008481526020019081526020016000205410151515612cca576040517f08c379a0000000000000000000000000000000000000000000000000000000008152600401612cc190613f3e565b60405180910390fd5b612d2d81600c60008673ffffffffffffffffffffffffffffffffffffffff1673ffffffffffffffffffffffffffffffffffffffff16815260200190815260200160002060008581526020019081526020016000205461265690919063ffffffff16565b600c60008573ffffffffffffffffffffffffffffffffffffffff1673ffffffffffffffffffffffffffffffffffffffff1681526020019081526020016000206000848152602001908152602001600020819055506000600c60008573ffffffffffffffffffffffffffffffffffffffff1673ffffffffffffffffffffffffffffffffffffffff1681526020019081526020016000206000848152602001908152602001600020541415612de557612de48383612fa2565b5b505050565b600080823b90506000811115612dff57600191505b50919050565b612e586001600860008573ffffffffffffffffffffffffffffffffffffffff1673ffffffffffffffffffffffffffffffffffffffff168152602001908152602001600020546124eb90919063ffffffff16565b600860008473ffffffffffffffffffffffffffffffffffffffff1673ffffffffffffffffffffffffffffffffffffffff16815260200190815260200160002081905550600a60008373ffffffffffffffffffffffffffffffffffffffff1673ffffffffffffffffffffffffffffffffffffffff1681526020019081526020016000208190806001815401808255809150509060018203906000526020600020016000909192909190915055506001600a60008473ffffffffffffffffffffffffffffffffffffffff1673ffffffffffffffffffffffffffffffffffffffff1681526020019081526020016000208054905003600b60008473ffffffffffffffffffffffffffffffffffffffff1673ffffffffffffffffffffffffffffffffffffffff1681526020019081526020016000206000838152602001908152602001600020819055505050565b612ff56001600860008573ffffffffffffffffffffffffffffffffffffffff1673ffffffffffffffffffffffffffffffffffffffff1681526020019081526020016000205461265690919063ffffffff16565b600860008473ffffffffffffffffffffffffffffffffffffffff1673ffffffffffffffffffffffffffffffffffffffff168152602001908152602001600020819055506000600b60008473ffffffffffffffffffffffffffffffffffffffff1673ffffffffffffffffffffffffffffffffffffffff168152602001908152602001600020600083815260200190815260200160002054905060006001600a60008673ffffffffffffffffffffffffffffffffffffffff1673ffffffffffffffffffffffffffffffffffffffff1681526020019081526020016000208054905003905081811415156131ed576000600a60008673ffffffffffffffffffffffffffffffffffffffff1673ffffffffffffffffffffffffffffffffffffffff1681526020019081526020016000208281548110151561312e57fe5b9060005260206000200154905080600a60008773ffffffffffffffffffffffffffffffffffffffff1673ffffffffffffffffffffffffffffffffffffffff1681526020019081526020016000208481548110151561318857fe5b906000526020600020018190555082600b60008773ffffffffffffffffffffffffffffffffffffffff1673ffffffffffffffffffffffffffffffffffffffff168152602001908152602001600020600086815260200190815260200160002081905550505b600a60008573ffffffffffffffffffffffffffffffffffffffff1673ffffffffffffffffffffffffffffffffffffffff168152602001908152602001600020805480151561323757fe5b6001900381819060005260206000200160009055905550505050565b828054600181600116156101000203166002900490600052602060002090601f016020900481019282601f1061329457805160ff19168380011785556132c2565b828001600101855582156132c2579182015b828111156132c15782518255916020019190600101906132a6565b5b5090506132cf91906132f6565b5090565b60a060405190810160405280600590602082028038833980820191505090505090565b61331891905b808211156133145760008160009055506001016132fc565b5090565b90565b60006133278235614246565b905092915050565b60008190508260206005028201111561334757600080fd5b92915050565b60006133598235614258565b905092915050565b600061336d8235614264565b905092915050565b6000613381825161426e565b905092915050565b60008083601f840112151561339d57600080fd5b8235905067ffffffffffffffff8111156133b657600080fd5b6020830191508360018202830111156133ce57600080fd5b9250929050565b600082601f83011215156133e857600080fd5b81356133fb6133f682614141565b614114565b9150808252602083016020830185838301111561341757600080fd5b6134228382846142da565b50505092915050565b6000613437823561429a565b905092915050565b60006020828403121561345157600080fd5b600061345f8482850161331b565b91505092915050565b6000806040838503121561347b57600080fd5b60006134898582860161331b565b925050602061349a8582860161331b565b9150509250929050565b6000806000606084860312156134b957600080fd5b60006134c78682870161331b565b93505060206134d88682870161331b565b92505060406134e986828701613361565b9150509250925092565b6000806000806080858703121561350957600080fd5b60006135178782880161331b565b94505060206135288782880161331b565b935050604061353987828801613361565b925050606061354a8782880161342b565b91505092959194509250565b60008060008060008060a0878903121561356f57600080fd5b600061357d89828a0161331b565b965050602061358e89828a0161331b565b955050604061359f89828a01613361565b94505060606135b089828a0161342b565b935050608087013567ffffffffffffffff8111156135cd57600080fd5b6135d989828a01613389565b92509250509295509295509295565b600080600060e084860312156135fd57600080fd5b600061360b8682870161331b565b935050602061361c8682870161332f565b92505060c061362d8682870161342b565b9150509250925092565b6000806040838503121561364a57600080fd5b60006136588582860161331b565b92505060206136698582860161334d565b9150509250929050565b6000806040838503121561368657600080fd5b60006136948582860161331b565b92505060206136a585828601613361565b9150509250929050565b600080604083850312156136c257600080fd5b60006136d08582860161331b565b92505060206136e18582860161342b565b9150509250929050565b6000602082840312156136fd57600080fd5b600061370b84828501613361565b91505092915050565b6000806040838503121561372757600080fd5b600061373585828601613361565b92505060206137468582860161342b565b9150509250929050565b60006020828403121561376257600080fd5b600061377084828501613375565b91505092915050565b60006020828403121561378b57600080fd5b600082013567ffffffffffffffff8111156137a557600080fd5b6137b1848285016133d5565b91505092915050565b6000602082840312156137cc57600080fd5b60006137da8482850161342b565b91505092915050565b6137ec816142a4565b82525050565b6137fb816141e7565b82525050565b600061380c82614196565b80845260208401935061381e8361416d565b60005b82811015613850576138348683516138b6565b61383d826141cd565b9150602086019550600181019050613821565b50849250505092915050565b613865816141a1565b61386e8261417a565b60005b828110156138a057613884858351613d5d565b61388d826141da565b9150602085019450600181019050613871565b5050505050565b6138b0816141f9565b82525050565b6138bf81614205565b82525050565b60006138d0826141ac565b8084526138e48160208601602086016142e9565b6138ed8161431c565b602085010191505092915050565b6000613906826141c2565b80845261391a8160208601602086016142e9565b6139238161431c565b602085010191505092915050565b600061393c826141b7565b8084526139508160208601602086016142e9565b6139598161431c565b602085010191505092915050565b60008154600181166000811461398457600181146139a4576139e5565b607f600283041680865260ff1983166020870152604086019350506139e5565b600282048086526020860195506139ba85614184565b60005b828110156139dc578154818901526001820191506020810190506139bd565b80880195505050505b505092915050565b6000600382527f31323800000000000000000000000000000000000000000000000000000000006020830152604082019050919050565b6000600382527f31333700000000000000000000000000000000000000000000000000000000006020830152604082019050919050565b6000600382527f31333300000000000000000000000000000000000000000000000000000000006020830152604082019050919050565b6000600382527f31333900000000000000000000000000000000000000000000000000000000006020830152604082019050919050565b6000600382527f31333000000000000000000000000000000000000000000000000000000000006020830152604082019050919050565b6000600382527f31323900000000000000000000000000000000000000000000000000000000006020830152604082019050919050565b6000600382527f31323500000000000000000000000000000000000000000000000000000000006020830152604082019050919050565b6000600382527f31333600000000000000000000000000000000000000000000000000000000006020830152604082019050919050565b6000600382527f31323600000000000000000000000000000000000000000000000000000000006020830152604082019050919050565b6000600382527f31333500000000000000000000000000000000000000000000000000000000006020830152604082019050919050565b6000600382527f31333400000000000000000000000000000000000000000000000000000000006020830152604082019050919050565b6000600382527f31323400000000000000000000000000000000000000000000000000000000006020830152604082019050919050565b6000600382527f31333800000000000000000000000000000000000000000000000000000000006020830152604082019050919050565b6000600382527f31333100000000000000000000000000000000000000000000000000000000006020830152604082019050919050565b6000600382527f31333200000000000000000000000000000000000000000000000000000000006020830152604082019050919050565b6000600382527f31323700000000000000000000000000000000000000000000000000000000006020830152604082019050919050565b613d668161422f565b82525050565b613d7581614239565b82525050565b6000602082019050613d9060008301846137f2565b92915050565b600060a082019050613dab60008301886137e3565b613db860208301876137f2565b613dc560408301866138b6565b613dd26060830185613d5d565b8181036080830152613de481846138c5565b90509695505050505050565b60006020820190508181036000830152613e0a8184613801565b905092915050565b600060a082019050613e27600083018461385c565b92915050565b6000602082019050613e4260008301846138a7565b92915050565b6000602082019050613e5d60008301846138b6565b92915050565b60006020820190508181036000830152613e7d8184613931565b905092915050565b60006020820190508181036000830152613e9f81846138fb565b905092915050565b60006040820190508181036000830152613ec18185613967565b90508181036020830152613ed581846138fb565b90509392505050565b60006020820190508181036000830152613ef7816139ed565b9050919050565b60006020820190508181036000830152613f1781613a24565b9050919050565b60006020820190508181036000830152613f3781613a5b565b9050919050565b60006020820190508181036000830152613f5781613a92565b9050919050565b60006020820190508181036000830152613f7781613ac9565b9050919050565b60006020820190508181036000830152613f9781613b00565b9050919050565b60006020820190508181036000830152613fb781613b37565b9050919050565b60006020820190508181036000830152613fd781613b6e565b9050919050565b60006020820190508181036000830152613ff781613ba5565b9050919050565b6000602082019050818103600083015261401781613bdc565b9050919050565b6000602082019050818103600083015261403781613c13565b9050919050565b6000602082019050818103600083015261405781613c4a565b9050919050565b6000602082019050818103600083015261407781613c81565b9050919050565b6000602082019050818103600083015261409781613cb8565b9050919050565b600060208201905081810360008301526140b781613cef565b9050919050565b600060208201905081810360008301526140d781613d26565b9050919050565b60006020820190506140f36000830184613d5d565b92915050565b600060208201905061410e6000830184613d6c565b92915050565b6000604051905081810181811067ffffffffffffffff8211171561413757600080fd5b8060405250919050565b600067ffffffffffffffff82111561415857600080fd5b601f19601f8301169050602081019050919050565b6000602082019050919050565b6000819050919050565b60008160005260206000209050919050565b600081519050919050565b600060059050919050565b600081519050919050565b600081519050919050565b600081519050919050565b6000602082019050919050565b6000602082019050919050565b60006141f28261420f565b9050919050565b60008115159050919050565b6000819050919050565b600073ffffffffffffffffffffffffffffffffffffffff82169050919050565b6000819050919050565b600060ff82169050919050565b60006142518261420f565b9050919050565b60008115159050919050565b6000819050919050565b60007fffffffff0000000000000000000000000000000000000000000000000000000082169050919050565b6000819050919050565b60006142af826142b6565b9050919050565b60006142c1826142c8565b9050919050565b60006142d38261420f565b9050919050565b82818337600083830152505050565b60005b838110156143075780820151818401526020810190506142ec565b83811115614316576000848401525b50505050565b6000601f19601f830116905091905056fea265627a7a7230582014c84e035c389cabc771117e347ad5d19a025f2fa7bf88cc5195c8dbf12cdbaf6c6578706572696d656e74616cf50037",
					"opcodes": "PUSH1 0x80 PUSH1 0x40 MSTORE CALLER PUSH1 0x0 DUP1 PUSH2 0x100 EXP DUP2 SLOAD DUP2 PUSH20 0xFFFFFFFFFFFFFFFFFFFFFFFFFFFFFFFFFFFFFFFF MUL NOT AND SWAP1 DUP4 PUSH20 0xFFFFFFFFFFFFFFFFFFFFFFFFFFFFFFFFFFFFFFFF AND MUL OR SWAP1 SSTORE POP CALLVALUE DUP1 ISZERO PUSH3 0x51 JUMPI PUSH1 0x0 DUP1 REVERT JUMPDEST POP PUSH1 0x40 MLOAD PUSH3 0x4740 CODESIZE SUB DUP1 PUSH3 0x4740 DUP4 CODECOPY DUP2 ADD DUP1 PUSH1 0x40 MSTORE PUSH3 0x77 SWAP2 SWAP1 DUP2 ADD SWAP1 PUSH3 0x24D JUMP JUMPDEST DUP2 DUP1 PUSH1 0x0 DUP1 PUSH2 0x100 EXP DUP2 SLOAD DUP2 PUSH20 0xFFFFFFFFFFFFFFFFFFFFFFFFFFFFFFFFFFFFFFFF MUL NOT AND SWAP1 DUP4 PUSH20 0xFFFFFFFFFFFFFFFFFFFFFFFFFFFFFFFFFFFFFFFF AND MUL OR SWAP1 SSTORE POP POP DUP4 PUSH1 0x2 SWAP1 DUP1 MLOAD SWAP1 PUSH1 0x20 ADD SWAP1 PUSH3 0xD1 SWAP3 SWAP2 SWAP1 PUSH3 0x12A JUMP JUMPDEST POP DUP3 PUSH1 0x3 SWAP1 DUP1 MLOAD SWAP1 PUSH1 0x20 ADD SWAP1 PUSH3 0xEA SWAP3 SWAP2 SWAP1 PUSH3 0x12A JUMP JUMPDEST POP PUSH1 0x12 PUSH1 0x4 PUSH1 0x0 PUSH2 0x100 EXP DUP2 SLOAD DUP2 PUSH1 0xFF MUL NOT AND SWAP1 DUP4 PUSH1 0xFF AND MUL OR SWAP1 SSTORE POP DUP1 PUSH1 0x1 SWAP1 DUP1 MLOAD SWAP1 PUSH1 0x20 ADD SWAP1 PUSH3 0x11F SWAP3 SWAP2 SWAP1 PUSH3 0x12A JUMP JUMPDEST POP POP POP POP POP PUSH3 0x3C9 JUMP JUMPDEST DUP3 DUP1 SLOAD PUSH1 0x1 DUP2 PUSH1 0x1 AND ISZERO PUSH2 0x100 MUL SUB AND PUSH1 0x2 SWAP1 DIV SWAP1 PUSH1 0x0 MSTORE PUSH1 0x20 PUSH1 0x0 KECCAK256 SWAP1 PUSH1 0x1F ADD PUSH1 0x20 SWAP1 DIV DUP2 ADD SWAP3 DUP3 PUSH1 0x1F LT PUSH3 0x16D JUMPI DUP1 MLOAD PUSH1 0xFF NOT AND DUP4 DUP1 ADD OR DUP6 SSTORE PUSH3 0x19E JUMP JUMPDEST DUP3 DUP1 ADD PUSH1 0x1 ADD DUP6 SSTORE DUP3 ISZERO PUSH3 0x19E JUMPI SWAP2 DUP3 ADD JUMPDEST DUP3 DUP2 GT ISZERO PUSH3 0x19D JUMPI DUP3 MLOAD DUP3 SSTORE SWAP2 PUSH1 0x20 ADD SWAP2 SWAP1 PUSH1 0x1 ADD SWAP1 PUSH3 0x180 JUMP JUMPDEST JUMPDEST POP SWAP1 POP PUSH3 0x1AD SWAP2 SWAP1 PUSH3 0x1B1 JUMP JUMPDEST POP SWAP1 JUMP JUMPDEST PUSH3 0x1D6 SWAP2 SWAP1 JUMPDEST DUP1 DUP3 GT ISZERO PUSH3 0x1D2 JUMPI PUSH1 0x0 DUP2 PUSH1 0x0 SWAP1 SSTORE POP PUSH1 0x1 ADD PUSH3 0x1B8 JUMP JUMPDEST POP SWAP1 JUMP JUMPDEST SWAP1 JUMP JUMPDEST PUSH1 0x0 PUSH3 0x1E7 DUP3 MLOAD PUSH3 0x37F JUMP JUMPDEST SWAP1 POP SWAP3 SWAP2 POP POP JUMP JUMPDEST PUSH1 0x0 DUP3 PUSH1 0x1F DUP4 ADD SLT ISZERO ISZERO PUSH3 0x203 JUMPI PUSH1 0x0 DUP1 REVERT JUMPDEST DUP2 MLOAD PUSH3 0x21A PUSH3 0x214 DUP3 PUSH3 0x332 JUMP JUMPDEST PUSH3 0x304 JUMP JUMPDEST SWAP2 POP DUP1 DUP3 MSTORE PUSH1 0x20 DUP4 ADD PUSH1 0x20 DUP4 ADD DUP6 DUP4 DUP4 ADD GT ISZERO PUSH3 0x237 JUMPI PUSH1 0x0 DUP1 REVERT JUMPDEST PUSH3 0x244 DUP4 DUP3 DUP5 PUSH3 0x393 JUMP JUMPDEST POP POP POP SWAP3 SWAP2 POP POP JUMP JUMPDEST PUSH1 0x0 DUP1 PUSH1 0x0 DUP1 PUSH1 0x80 DUP6 DUP8 SUB SLT ISZERO PUSH3 0x264 JUMPI PUSH1 0x0 DUP1 REVERT JUMPDEST PUSH1 0x0 DUP6 ADD MLOAD PUSH8 0xFFFFFFFFFFFFFFFF DUP2 GT ISZERO PUSH3 0x27F JUMPI PUSH1 0x0 DUP1 REVERT JUMPDEST PUSH3 0x28D DUP8 DUP3 DUP9 ADD PUSH3 0x1EF JUMP JUMPDEST SWAP5 POP POP PUSH1 0x20 DUP6 ADD MLOAD PUSH8 0xFFFFFFFFFFFFFFFF DUP2 GT ISZERO PUSH3 0x2AB JUMPI PUSH1 0x0 DUP1 REVERT JUMPDEST PUSH3 0x2B9 DUP8 DUP3 DUP9 ADD PUSH3 0x1EF JUMP JUMPDEST SWAP4 POP POP PUSH1 0x40 PUSH3 0x2CC DUP8 DUP3 DUP9 ADD PUSH3 0x1D9 JUMP JUMPDEST SWAP3 POP POP PUSH1 0x60 DUP6 ADD MLOAD PUSH8 0xFFFFFFFFFFFFFFFF DUP2 GT ISZERO PUSH3 0x2EA JUMPI PUSH1 0x0 DUP1 REVERT JUMPDEST PUSH3 0x2F8 DUP8 DUP3 DUP9 ADD PUSH3 0x1EF JUMP JUMPDEST SWAP2 POP POP SWAP3 SWAP6 SWAP2 SWAP5 POP SWAP3 POP JUMP JUMPDEST PUSH1 0x0 PUSH1 0x40 MLOAD SWAP1 POP DUP2 DUP2 ADD DUP2 DUP2 LT PUSH8 0xFFFFFFFFFFFFFFFF DUP3 GT OR ISZERO PUSH3 0x328 JUMPI PUSH1 0x0 DUP1 REVERT JUMPDEST DUP1 PUSH1 0x40 MSTORE POP SWAP2 SWAP1 POP JUMP JUMPDEST PUSH1 0x0 PUSH8 0xFFFFFFFFFFFFFFFF DUP3 GT ISZERO PUSH3 0x34A JUMPI PUSH1 0x0 DUP1 REVERT JUMPDEST PUSH1 0x1F NOT PUSH1 0x1F DUP4 ADD AND SWAP1 POP PUSH1 0x20 DUP2 ADD SWAP1 POP SWAP2 SWAP1 POP JUMP JUMPDEST PUSH1 0x0 PUSH20 0xFFFFFFFFFFFFFFFFFFFFFFFFFFFFFFFFFFFFFFFF DUP3 AND SWAP1 POP SWAP2 SWAP1 POP JUMP JUMPDEST PUSH1 0x0 PUSH3 0x38C DUP3 PUSH3 0x35F JUMP JUMPDEST SWAP1 POP SWAP2 SWAP1 POP JUMP JUMPDEST PUSH1 0x0 JUMPDEST DUP4 DUP2 LT ISZERO PUSH3 0x3B3 JUMPI DUP1 DUP3 ADD MLOAD DUP2 DUP5 ADD MSTORE PUSH1 0x20 DUP2 ADD SWAP1 POP PUSH3 0x396 JUMP JUMPDEST DUP4 DUP2 GT ISZERO PUSH3 0x3C3 JUMPI PUSH1 0x0 DUP5 DUP5 ADD MSTORE JUMPDEST POP POP POP POP JUMP JUMPDEST PUSH2 0x4367 DUP1 PUSH3 0x3D9 PUSH1 0x0 CODECOPY PUSH1 0x0 RETURN INVALID PUSH1 0x80 PUSH1 0x40 MSTORE PUSH1 0x4 CALLDATASIZE LT PUSH2 0x15F JUMPI PUSH1 0x0 CALLDATALOAD PUSH29 0x100000000000000000000000000000000000000000000000000000000 SWAP1 DIV PUSH4 0xFFFFFFFF AND DUP1 PUSH4 0x6FDDE03 EQ PUSH2 0x164 JUMPI DUP1 PUSH4 0x13AF4035 EQ PUSH2 0x18F JUMPI DUP1 PUSH4 0x18160DDD EQ PUSH2 0x1B8 JUMPI DUP1 PUSH4 0x1F14DF69 EQ PUSH2 0x1E3 JUMPI DUP1 PUSH4 0x27E6186A EQ PUSH2 0x220 JUMPI DUP1 PUSH4 0x294CDF0D EQ PUSH2 0x25D JUMPI DUP1 PUSH4 0x2F745C59 EQ PUSH2 0x29A JUMPI DUP1 PUSH4 0x313CE567 EQ PUSH2 0x2D7 JUMPI DUP1 PUSH4 0x4F64B2BE EQ PUSH2 0x302 JUMPI DUP1 PUSH4 0x5944AC08 EQ PUSH2 0x33F JUMPI DUP1 PUSH4 0x5EDDD9C9 EQ PUSH2 0x37C JUMPI DUP1 PUSH4 0x6DB2FEB2 EQ PUSH2 0x3A5 JUMPI DUP1 PUSH4 0x70A08231 EQ PUSH2 0x3E2 JUMPI DUP1 PUSH4 0x72A60C7C EQ PUSH2 0x41F JUMPI DUP1 PUSH4 0x7A408454 EQ PUSH2 0x448 JUMPI DUP1 PUSH4 0x7FE68381 EQ PUSH2 0x471 JUMPI DUP1 PUSH4 0x8DA5CB5B EQ PUSH2 0x49A JUMPI DUP1 PUSH4 0x9379E5F5 EQ PUSH2 0x4C5 JUMPI DUP1 PUSH4 0x95D89B41 EQ PUSH2 0x4EE JUMPI DUP1 PUSH4 0xA22CB465 EQ PUSH2 0x519 JUMPI DUP1 PUSH4 0xA5961B4C EQ PUSH2 0x542 JUMPI DUP1 PUSH4 0xAA6CA808 EQ PUSH2 0x57F JUMPI DUP1 PUSH4 0xB8F87D09 EQ PUSH2 0x5AA JUMPI DUP1 PUSH4 0xE6863AC4 EQ PUSH2 0x5D3 JUMPI DUP1 PUSH4 0xE985E9C5 EQ PUSH2 0x5FC JUMPI DUP1 PUSH4 0xEEA268A4 EQ PUSH2 0x639 JUMPI DUP1 PUSH4 0xF86C1A78 EQ PUSH2 0x676 JUMPI JUMPDEST PUSH1 0x0 DUP1 REVERT JUMPDEST CALLVALUE DUP1 ISZERO PUSH2 0x170 JUMPI PUSH1 0x0 DUP1 REVERT JUMPDEST POP PUSH2 0x179 PUSH2 0x6A1 JUMP JUMPDEST PUSH1 0x40 MLOAD PUSH2 0x186 SWAP2 SWAP1 PUSH2 0x3E85 JUMP JUMPDEST PUSH1 0x40 MLOAD DUP1 SWAP2 SUB SWAP1 RETURN JUMPDEST CALLVALUE DUP1 ISZERO PUSH2 0x19B JUMPI PUSH1 0x0 DUP1 REVERT JUMPDEST POP PUSH2 0x1B6 PUSH1 0x4 DUP1 CALLDATASIZE SUB PUSH2 0x1B1 SWAP2 SWAP1 DUP2 ADD SWAP1 PUSH2 0x343F JUMP JUMPDEST PUSH2 0x743 JUMP JUMPDEST STOP JUMPDEST CALLVALUE DUP1 ISZERO PUSH2 0x1C4 JUMPI PUSH1 0x0 DUP1 REVERT JUMPDEST POP PUSH2 0x1CD PUSH2 0x85C JUMP JUMPDEST PUSH1 0x40 MLOAD PUSH2 0x1DA SWAP2 SWAP1 PUSH2 0x40DE JUMP JUMPDEST PUSH1 0x40 MLOAD DUP1 SWAP2 SUB SWAP1 RETURN JUMPDEST CALLVALUE DUP1 ISZERO PUSH2 0x1EF JUMPI PUSH1 0x0 DUP1 REVERT JUMPDEST POP PUSH2 0x20A PUSH1 0x4 DUP1 CALLDATASIZE SUB PUSH2 0x205 SWAP2 SWAP1 DUP2 ADD SWAP1 PUSH2 0x3673 JUMP JUMPDEST PUSH2 0x869 JUMP JUMPDEST PUSH1 0x40 MLOAD PUSH2 0x217 SWAP2 SWAP1 PUSH2 0x40DE JUMP JUMPDEST PUSH1 0x40 MLOAD DUP1 SWAP2 SUB SWAP1 RETURN JUMPDEST CALLVALUE DUP1 ISZERO PUSH2 0x22C JUMPI PUSH1 0x0 DUP1 REVERT JUMPDEST POP PUSH2 0x247 PUSH1 0x4 DUP1 CALLDATASIZE SUB PUSH2 0x242 SWAP2 SWAP1 DUP2 ADD SWAP1 PUSH2 0x3673 JUMP JUMPDEST PUSH2 0x88E JUMP JUMPDEST PUSH1 0x40 MLOAD PUSH2 0x254 SWAP2 SWAP1 PUSH2 0x40DE JUMP JUMPDEST PUSH1 0x40 MLOAD DUP1 SWAP2 SUB SWAP1 RETURN JUMPDEST CALLVALUE DUP1 ISZERO PUSH2 0x269 JUMPI PUSH1 0x0 DUP1 REVERT JUMPDEST POP PUSH2 0x284 PUSH1 0x4 DUP1 CALLDATASIZE SUB PUSH2 0x27F SWAP2 SWAP1 DUP2 ADD SWAP1 PUSH2 0x343F JUMP JUMPDEST PUSH2 0x95A JUMP JUMPDEST PUSH1 0x40 MLOAD PUSH2 0x291 SWAP2 SWAP1 PUSH2 0x3DF0 JUMP JUMPDEST PUSH1 0x40 MLOAD DUP1 SWAP2 SUB SWAP1 RETURN JUMPDEST CALLVALUE DUP1 ISZERO PUSH2 0x2A6 JUMPI PUSH1 0x0 DUP1 REVERT JUMPDEST POP PUSH2 0x2C1 PUSH1 0x4 DUP1 CALLDATASIZE SUB PUSH2 0x2BC SWAP2 SWAP1 DUP2 ADD SWAP1 PUSH2 0x36AF JUMP JUMPDEST PUSH2 0x9F1 JUMP JUMPDEST PUSH1 0x40 MLOAD PUSH2 0x2CE SWAP2 SWAP1 PUSH2 0x3E48 JUMP JUMPDEST PUSH1 0x40 MLOAD DUP1 SWAP2 SUB SWAP1 RETURN JUMPDEST CALLVALUE DUP1 ISZERO PUSH2 0x2E3 JUMPI PUSH1 0x0 DUP1 REVERT JUMPDEST POP PUSH2 0x2EC PUSH2 0xAD8 JUMP JUMPDEST PUSH1 0x40 MLOAD PUSH2 0x2F9 SWAP2 SWAP1 PUSH2 0x40F9 JUMP JUMPDEST PUSH1 0x40 MLOAD DUP1 SWAP2 SUB SWAP1 RETURN JUMPDEST CALLVALUE DUP1 ISZERO PUSH2 0x30E JUMPI PUSH1 0x0 DUP1 REVERT JUMPDEST POP PUSH2 0x329 PUSH1 0x4 DUP1 CALLDATASIZE SUB PUSH2 0x324 SWAP2 SWAP1 DUP2 ADD SWAP1 PUSH2 0x37BA JUMP JUMPDEST PUSH2 0xAEF JUMP JUMPDEST PUSH1 0x40 MLOAD PUSH2 0x336 SWAP2 SWAP1 PUSH2 0x3E48 JUMP JUMPDEST PUSH1 0x40 MLOAD DUP1 SWAP2 SUB SWAP1 RETURN JUMPDEST CALLVALUE DUP1 ISZERO PUSH2 0x34B JUMPI PUSH1 0x0 DUP1 REVERT JUMPDEST POP PUSH2 0x366 PUSH1 0x4 DUP1 CALLDATASIZE SUB PUSH2 0x361 SWAP2 SWAP1 DUP2 ADD SWAP1 PUSH2 0x34A4 JUMP JUMPDEST PUSH2 0xB12 JUMP JUMPDEST PUSH1 0x40 MLOAD PUSH2 0x373 SWAP2 SWAP1 PUSH2 0x40DE JUMP JUMPDEST PUSH1 0x40 MLOAD DUP1 SWAP2 SUB SWAP1 RETURN JUMPDEST CALLVALUE DUP1 ISZERO PUSH2 0x388 JUMPI PUSH1 0x0 DUP1 REVERT JUMPDEST POP PUSH2 0x3A3 PUSH1 0x4 DUP1 CALLDATASIZE SUB PUSH2 0x39E SWAP2 SWAP1 DUP2 ADD SWAP1 PUSH2 0x34F3 JUMP JUMPDEST PUSH2 0xBAB JUMP JUMPDEST STOP JUMPDEST CALLVALUE DUP1 ISZERO PUSH2 0x3B1 JUMPI PUSH1 0x0 DUP1 REVERT JUMPDEST POP PUSH2 0x3CC PUSH1 0x4 DUP1 CALLDATASIZE SUB PUSH2 0x3C7 SWAP2 SWAP1 DUP2 ADD SWAP1 PUSH2 0x36EB JUMP JUMPDEST PUSH2 0xF33 JUMP JUMPDEST PUSH1 0x40 MLOAD PUSH2 0x3D9 SWAP2 SWAP1 PUSH2 0x3E2D JUMP JUMPDEST PUSH1 0x40 MLOAD DUP1 SWAP2 SUB SWAP1 RETURN JUMPDEST CALLVALUE DUP1 ISZERO PUSH2 0x3EE JUMPI PUSH1 0x0 DUP1 REVERT JUMPDEST POP PUSH2 0x409 PUSH1 0x4 DUP1 CALLDATASIZE SUB PUSH2 0x404 SWAP2 SWAP1 DUP2 ADD SWAP1 PUSH2 0x343F JUMP JUMPDEST PUSH2 0xF6C JUMP JUMPDEST PUSH1 0x40 MLOAD PUSH2 0x416 SWAP2 SWAP1 PUSH2 0x40DE JUMP JUMPDEST PUSH1 0x40 MLOAD DUP1 SWAP2 SUB SWAP1 RETURN JUMPDEST CALLVALUE DUP1 ISZERO PUSH2 0x42B JUMPI PUSH1 0x0 DUP1 REVERT JUMPDEST POP PUSH2 0x446 PUSH1 0x4 DUP1 CALLDATASIZE SUB PUSH2 0x441 SWAP2 SWAP1 DUP2 ADD SWAP1 PUSH2 0x35E8 JUMP JUMPDEST PUSH2 0xFB9 JUMP JUMPDEST STOP JUMPDEST CALLVALUE DUP1 ISZERO PUSH2 0x454 JUMPI PUSH1 0x0 DUP1 REVERT JUMPDEST POP PUSH2 0x46F PUSH1 0x4 DUP1 CALLDATASIZE SUB PUSH2 0x46A SWAP2 SWAP1 DUP2 ADD SWAP1 PUSH2 0x3714 JUMP JUMPDEST PUSH2 0x11B6 JUMP JUMPDEST STOP JUMPDEST CALLVALUE DUP1 ISZERO PUSH2 0x47D JUMPI PUSH1 0x0 DUP1 REVERT JUMPDEST POP PUSH2 0x498 PUSH1 0x4 DUP1 CALLDATASIZE SUB PUSH2 0x493 SWAP2 SWAP1 DUP2 ADD SWAP1 PUSH2 0x34F3 JUMP JUMPDEST PUSH2 0x14F1 JUMP JUMPDEST STOP JUMPDEST CALLVALUE DUP1 ISZERO PUSH2 0x4A6 JUMPI PUSH1 0x0 DUP1 REVERT JUMPDEST POP PUSH2 0x4AF PUSH2 0x1823 JUMP JUMPDEST PUSH1 0x40 MLOAD PUSH2 0x4BC SWAP2 SWAP1 PUSH2 0x3D7B JUMP JUMPDEST PUSH1 0x40 MLOAD DUP1 SWAP2 SUB SWAP1 RETURN JUMPDEST CALLVALUE DUP1 ISZERO PUSH2 0x4D1 JUMPI PUSH1 0x0 DUP1 REVERT JUMPDEST POP PUSH2 0x4EC PUSH1 0x4 DUP1 CALLDATASIZE SUB PUSH2 0x4E7 SWAP2 SWAP1 DUP2 ADD SWAP1 PUSH2 0x3779 JUMP JUMPDEST PUSH2 0x1848 JUMP JUMPDEST STOP JUMPDEST CALLVALUE DUP1 ISZERO PUSH2 0x4FA JUMPI PUSH1 0x0 DUP1 REVERT JUMPDEST POP PUSH2 0x503 PUSH2 0x18F7 JUMP JUMPDEST PUSH1 0x40 MLOAD PUSH2 0x510 SWAP2 SWAP1 PUSH2 0x3E85 JUMP JUMPDEST PUSH1 0x40 MLOAD DUP1 SWAP2 SUB SWAP1 RETURN JUMPDEST CALLVALUE DUP1 ISZERO PUSH2 0x525 JUMPI PUSH1 0x0 DUP1 REVERT JUMPDEST POP PUSH2 0x540 PUSH1 0x4 DUP1 CALLDATASIZE SUB PUSH2 0x53B SWAP2 SWAP1 DUP2 ADD SWAP1 PUSH2 0x3637 JUMP JUMPDEST PUSH2 0x1999 JUMP JUMPDEST STOP JUMPDEST CALLVALUE DUP1 ISZERO PUSH2 0x54E JUMPI PUSH1 0x0 DUP1 REVERT JUMPDEST POP PUSH2 0x569 PUSH1 0x4 DUP1 CALLDATASIZE SUB PUSH2 0x564 SWAP2 SWAP1 DUP2 ADD SWAP1 PUSH2 0x36EB JUMP JUMPDEST PUSH2 0x1A96 JUMP JUMPDEST PUSH1 0x40 MLOAD PUSH2 0x576 SWAP2 SWAP1 PUSH2 0x3E12 JUMP JUMPDEST PUSH1 0x40 MLOAD DUP1 SWAP2 SUB SWAP1 RETURN JUMPDEST CALLVALUE DUP1 ISZERO PUSH2 0x58B JUMPI PUSH1 0x0 DUP1 REVERT JUMPDEST POP PUSH2 0x594 PUSH2 0x1B9A JUMP JUMPDEST PUSH1 0x40 MLOAD PUSH2 0x5A1 SWAP2 SWAP1 PUSH2 0x3DF0 JUMP JUMPDEST PUSH1 0x40 MLOAD DUP1 SWAP2 SUB SWAP1 RETURN JUMPDEST CALLVALUE DUP1 ISZERO PUSH2 0x5B6 JUMPI PUSH1 0x0 DUP1 REVERT JUMPDEST POP PUSH2 0x5D1 PUSH1 0x4 DUP1 CALLDATASIZE SUB PUSH2 0x5CC SWAP2 SWAP1 DUP2 ADD SWAP1 PUSH2 0x3556 JUMP JUMPDEST PUSH2 0x1BF2 JUMP JUMPDEST STOP JUMPDEST CALLVALUE DUP1 ISZERO PUSH2 0x5DF JUMPI PUSH1 0x0 DUP1 REVERT JUMPDEST POP PUSH2 0x5FA PUSH1 0x4 DUP1 CALLDATASIZE SUB PUSH2 0x5F5 SWAP2 SWAP1 DUP2 ADD SWAP1 PUSH2 0x3556 JUMP JUMPDEST PUSH2 0x1EB7 JUMP JUMPDEST STOP JUMPDEST CALLVALUE DUP1 ISZERO PUSH2 0x608 JUMPI PUSH1 0x0 DUP1 REVERT JUMPDEST POP PUSH2 0x623 PUSH1 0x4 DUP1 CALLDATASIZE SUB PUSH2 0x61E SWAP2 SWAP1 DUP2 ADD SWAP1 PUSH2 0x3468 JUMP JUMPDEST PUSH2 0x20CF JUMP JUMPDEST PUSH1 0x40 MLOAD PUSH2 0x630 SWAP2 SWAP1 PUSH2 0x3E2D JUMP JUMPDEST PUSH1 0x40 MLOAD DUP1 SWAP2 SUB SWAP1 RETURN JUMPDEST CALLVALUE DUP1 ISZERO PUSH2 0x645 JUMPI PUSH1 0x0 DUP1 REVERT JUMPDEST POP PUSH2 0x660 PUSH1 0x4 DUP1 CALLDATASIZE SUB PUSH2 0x65B SWAP2 SWAP1 DUP2 ADD SWAP1 PUSH2 0x36EB JUMP JUMPDEST PUSH2 0x2163 JUMP JUMPDEST PUSH1 0x40 MLOAD PUSH2 0x66D SWAP2 SWAP1 PUSH2 0x40DE JUMP JUMPDEST PUSH1 0x40 MLOAD DUP1 SWAP2 SUB SWAP1 RETURN JUMPDEST CALLVALUE DUP1 ISZERO PUSH2 0x682 JUMPI PUSH1 0x0 DUP1 REVERT JUMPDEST POP PUSH2 0x68B PUSH2 0x217B JUMP JUMPDEST PUSH1 0x40 MLOAD PUSH2 0x698 SWAP2 SWAP1 PUSH2 0x3E63 JUMP JUMPDEST PUSH1 0x40 MLOAD DUP1 SWAP2 SUB SWAP1 RETURN JUMPDEST PUSH1 0x60 PUSH1 0x2 DUP1 SLOAD PUSH1 0x1 DUP2 PUSH1 0x1 AND ISZERO PUSH2 0x100 MUL SUB AND PUSH1 0x2 SWAP1 DIV DUP1 PUSH1 0x1F ADD PUSH1 0x20 DUP1 SWAP2 DIV MUL PUSH1 0x20 ADD PUSH1 0x40 MLOAD SWAP1 DUP2 ADD PUSH1 0x40 MSTORE DUP1 SWAP3 SWAP2 SWAP1 DUP2 DUP2 MSTORE PUSH1 0x20 ADD DUP3 DUP1 SLOAD PUSH1 0x1 DUP2 PUSH1 0x1 AND ISZERO PUSH2 0x100 MUL SUB AND PUSH1 0x2 SWAP1 DIV DUP1 ISZERO PUSH2 0x739 JUMPI DUP1 PUSH1 0x1F LT PUSH2 0x70E JUMPI PUSH2 0x100 DUP1 DUP4 SLOAD DIV MUL DUP4 MSTORE SWAP2 PUSH1 0x20 ADD SWAP2 PUSH2 0x739 JUMP JUMPDEST DUP3 ADD SWAP2 SWAP1 PUSH1 0x0 MSTORE PUSH1 0x20 PUSH1 0x0 KECCAK256 SWAP1 JUMPDEST DUP2 SLOAD DUP2 MSTORE SWAP1 PUSH1 0x1 ADD SWAP1 PUSH1 0x20 ADD DUP1 DUP4 GT PUSH2 0x71C JUMPI DUP3 SWAP1 SUB PUSH1 0x1F AND DUP3 ADD SWAP2 JUMPDEST POP POP POP POP POP SWAP1 POP SWAP1 JUMP JUMPDEST PUSH1 0x0 DUP1 SWAP1 SLOAD SWAP1 PUSH2 0x100 EXP SWAP1 DIV PUSH20 0xFFFFFFFFFFFFFFFFFFFFFFFFFFFFFFFFFFFFFFFF AND PUSH20 0xFFFFFFFFFFFFFFFFFFFFFFFFFFFFFFFFFFFFFFFF AND CALLER PUSH20 0xFFFFFFFFFFFFFFFFFFFFFFFFFFFFFFFFFFFFFFFF AND EQ ISZERO ISZERO PUSH2 0x79E JUMPI PUSH1 0x0 DUP1 REVERT JUMPDEST DUP1 PUSH20 0xFFFFFFFFFFFFFFFFFFFFFFFFFFFFFFFFFFFFFFFF AND PUSH1 0x0 DUP1 SWAP1 SLOAD SWAP1 PUSH2 0x100 EXP SWAP1 DIV PUSH20 0xFFFFFFFFFFFFFFFFFFFFFFFFFFFFFFFFFFFFFFFF AND PUSH20 0xFFFFFFFFFFFFFFFFFFFFFFFFFFFFFFFFFFFFFFFF AND PUSH32 0x70AEA8D848E8A90FB7661B227DC522EB6395C3DAC71B63CB59EDD5C9899B2364 PUSH1 0x40 MLOAD PUSH1 0x40 MLOAD DUP1 SWAP2 SUB SWAP1 LOG3 DUP1 PUSH1 0x0 DUP1 PUSH2 0x100 EXP DUP2 SLOAD DUP2 PUSH20 0xFFFFFFFFFFFFFFFFFFFFFFFFFFFFFFFFFFFFFFFF MUL NOT AND SWAP1 DUP4 PUSH20 0xFFFFFFFFFFFFFFFFFFFFFFFFFFFFFFFFFFFFFFFF AND MUL OR SWAP1 SSTORE POP POP JUMP JUMPDEST PUSH1 0x0 PUSH1 0x5 DUP1 SLOAD SWAP1 POP SWAP1 POP SWAP1 JUMP JUMPDEST PUSH1 0xC PUSH1 0x20 MSTORE DUP2 PUSH1 0x0 MSTORE PUSH1 0x40 PUSH1 0x0 KECCAK256 PUSH1 0x20 MSTORE DUP1 PUSH1 0x0 MSTORE PUSH1 0x40 PUSH1 0x0 KECCAK256 PUSH1 0x0 SWAP2 POP SWAP2 POP POP SLOAD DUP2 JUMP JUMPDEST PUSH1 0x0 DUP1 PUSH20 0xFFFFFFFFFFFFFFFFFFFFFFFFFFFFFFFFFFFFFFFF AND DUP4 PUSH20 0xFFFFFFFFFFFFFFFFFFFFFFFFFFFFFFFFFFFFFFFF AND EQ ISZERO ISZERO ISZERO PUSH2 0x901 JUMPI PUSH1 0x40 MLOAD PUSH32 0x8C379A000000000000000000000000000000000000000000000000000000000 DUP2 MSTORE PUSH1 0x4 ADD PUSH2 0x8F8 SWAP1 PUSH2 0x40BE JUMP JUMPDEST PUSH1 0x40 MLOAD DUP1 SWAP2 SUB SWAP1 REVERT JUMPDEST PUSH1 0xC PUSH1 0x0 DUP5 PUSH20 0xFFFFFFFFFFFFFFFFFFFFFFFFFFFFFFFFFFFFFFFF AND PUSH20 0xFFFFFFFFFFFFFFFFFFFFFFFFFFFFFFFFFFFFFFFF AND DUP2 MSTORE PUSH1 0x20 ADD SWAP1 DUP2 MSTORE PUSH1 0x20 ADD PUSH1 0x0 KECCAK256 PUSH1 0x0 DUP4 DUP2 MSTORE PUSH1 0x20 ADD SWAP1 DUP2 MSTORE PUSH1 0x20 ADD PUSH1 0x0 KECCAK256 SLOAD SWAP1 POP SWAP3 SWAP2 POP POP JUMP JUMPDEST PUSH1 0x60 PUSH1 0xA PUSH1 0x0 DUP4 PUSH20 0xFFFFFFFFFFFFFFFFFFFFFFFFFFFFFFFFFFFFFFFF AND PUSH20 0xFFFFFFFFFFFFFFFFFFFFFFFFFFFFFFFFFFFFFFFF AND DUP2 MSTORE PUSH1 0x20 ADD SWAP1 DUP2 MSTORE PUSH1 0x20 ADD PUSH1 0x0 KECCAK256 DUP1 SLOAD DUP1 PUSH1 0x20 MUL PUSH1 0x20 ADD PUSH1 0x40 MLOAD SWAP1 DUP2 ADD PUSH1 0x40 MSTORE DUP1 SWAP3 SWAP2 SWAP1 DUP2 DUP2 MSTORE PUSH1 0x20 ADD DUP3 DUP1 SLOAD DUP1 ISZERO PUSH2 0x9E5 JUMPI PUSH1 0x20 MUL DUP3 ADD SWAP2 SWAP1 PUSH1 0x0 MSTORE PUSH1 0x20 PUSH1 0x0 KECCAK256 SWAP1 JUMPDEST DUP2 SLOAD DUP2 MSTORE PUSH1 0x20 ADD SWAP1 PUSH1 0x1 ADD SWAP1 DUP1 DUP4 GT PUSH2 0x9D1 JUMPI JUMPDEST POP POP POP POP POP SWAP1 POP SWAP2 SWAP1 POP JUMP JUMPDEST PUSH1 0x0 PUSH1 0xA PUSH1 0x0 DUP5 PUSH20 0xFFFFFFFFFFFFFFFFFFFFFFFFFFFFFFFFFFFFFFFF AND PUSH20 0xFFFFFFFFFFFFFFFFFFFFFFFFFFFFFFFFFFFFFFFF AND DUP2 MSTORE PUSH1 0x20 ADD SWAP1 DUP2 MSTORE PUSH1 0x20 ADD PUSH1 0x0 KECCAK256 DUP1 SLOAD SWAP1 POP DUP3 LT ISZERO ISZERO PUSH2 0xA79 JUMPI PUSH1 0x40 MLOAD PUSH32 0x8C379A000000000000000000000000000000000000000000000000000000000 DUP2 MSTORE PUSH1 0x4 ADD PUSH2 0xA70 SWAP1 PUSH2 0x3EDE JUMP JUMPDEST PUSH1 0x40 MLOAD DUP1 SWAP2 SUB SWAP1 REVERT JUMPDEST PUSH1 0xA PUSH1 0x0 DUP5 PUSH20 0xFFFFFFFFFFFFFFFFFFFFFFFFFFFFFFFFFFFFFFFF AND PUSH20 0xFFFFFFFFFFFFFFFFFFFFFFFFFFFFFFFFFFFFFFFF AND DUP2 MSTORE PUSH1 0x20 ADD SWAP1 DUP2 MSTORE PUSH1 0x20 ADD PUSH1 0x0 KECCAK256 DUP3 DUP2 SLOAD DUP2 LT ISZERO ISZERO PUSH2 0xAC5 JUMPI INVALID JUMPDEST SWAP1 PUSH1 0x0 MSTORE PUSH1 0x20 PUSH1 0x0 KECCAK256 ADD SLOAD SWAP1 POP SWAP3 SWAP2 POP POP JUMP JUMPDEST PUSH1 0x0 PUSH1 0x4 PUSH1 0x0 SWAP1 SLOAD SWAP1 PUSH2 0x100 EXP SWAP1 DIV PUSH1 0xFF AND SWAP1 POP SWAP1 JUMP JUMPDEST PUSH1 0x5 DUP2 DUP2 SLOAD DUP2 LT ISZERO ISZERO PUSH2 0xAFE JUMPI INVALID JUMPDEST SWAP1 PUSH1 0x0 MSTORE PUSH1 0x20 PUSH1 0x0 KECCAK256 ADD PUSH1 0x0 SWAP2 POP SWAP1 POP SLOAD DUP2 JUMP JUMPDEST PUSH1 0x0 PUSH1 0x7 PUSH1 0x0 DUP6 PUSH20 0xFFFFFFFFFFFFFFFFFFFFFFFFFFFFFFFFFFFFFFFF AND PUSH20 0xFFFFFFFFFFFFFFFFFFFFFFFFFFFFFFFFFFFFFFFF AND DUP2 MSTORE PUSH1 0x20 ADD SWAP1 DUP2 MSTORE PUSH1 0x20 ADD PUSH1 0x0 KECCAK256 PUSH1 0x0 DUP5 PUSH20 0xFFFFFFFFFFFFFFFFFFFFFFFFFFFFFFFFFFFFFFFF AND PUSH20 0xFFFFFFFFFFFFFFFFFFFFFFFFFFFFFFFFFFFFFFFF AND DUP2 MSTORE PUSH1 0x20 ADD SWAP1 DUP2 MSTORE PUSH1 0x20 ADD PUSH1 0x0 KECCAK256 PUSH1 0x0 DUP4 DUP2 MSTORE PUSH1 0x20 ADD SWAP1 DUP2 MSTORE PUSH1 0x20 ADD PUSH1 0x0 KECCAK256 SLOAD SWAP1 POP SWAP4 SWAP3 POP POP POP JUMP JUMPDEST DUP4 DUP3 DUP3 DUP3 PUSH20 0xFFFFFFFFFFFFFFFFFFFFFFFFFFFFFFFFFFFFFFFF AND CALLER PUSH20 0xFFFFFFFFFFFFFFFFFFFFFFFFFFFFFFFFFFFFFFFF AND EQ DUP1 ISZERO PUSH2 0xC39 JUMPI POP DUP1 PUSH1 0xC PUSH1 0x0 CALLER PUSH20 0xFFFFFFFFFFFFFFFFFFFFFFFFFFFFFFFFFFFFFFFF AND PUSH20 0xFFFFFFFFFFFFFFFFFFFFFFFFFFFFFFFFFFFFFFFF AND DUP2 MSTORE PUSH1 0x20 ADD SWAP1 DUP2 MSTORE PUSH1 0x20 ADD PUSH1 0x0 KECCAK256 PUSH1 0x0 DUP5 DUP2 MSTORE PUSH1 0x20 ADD SWAP1 DUP2 MSTORE PUSH1 0x20 ADD PUSH1 0x0 KECCAK256 SLOAD LT ISZERO JUMPDEST DUP1 PUSH2 0xD26 JUMPI POP PUSH1 0x9 PUSH1 0x0 DUP5 PUSH20 0xFFFFFFFFFFFFFFFFFFFFFFFFFFFFFFFFFFFFFFFF AND PUSH20 0xFFFFFFFFFFFFFFFFFFFFFFFFFFFFFFFFFFFFFFFF AND DUP2 MSTORE PUSH1 0x20 ADD SWAP1 DUP2 MSTORE PUSH1 0x20 ADD PUSH1 0x0 KECCAK256 PUSH1 0x0 CALLER PUSH20 0xFFFFFFFFFFFFFFFFFFFFFFFFFFFFFFFFFFFFFFFF AND PUSH20 0xFFFFFFFFFFFFFFFFFFFFFFFFFFFFFFFFFFFFFFFF AND DUP2 MSTORE PUSH1 0x20 ADD SWAP1 DUP2 MSTORE PUSH1 0x20 ADD PUSH1 0x0 KECCAK256 PUSH1 0x0 SWAP1 SLOAD SWAP1 PUSH2 0x100 EXP SWAP1 DIV PUSH1 0xFF AND DUP1 ISZERO PUSH2 0xD25 JUMPI POP DUP1 PUSH1 0xC PUSH1 0x0 DUP6 PUSH20 0xFFFFFFFFFFFFFFFFFFFFFFFFFFFFFFFFFFFFFFFF AND PUSH20 0xFFFFFFFFFFFFFFFFFFFFFFFFFFFFFFFFFFFFFFFF AND DUP2 MSTORE PUSH1 0x20 ADD SWAP1 DUP2 MSTORE PUSH1 0x20 ADD PUSH1 0x0 KECCAK256 PUSH1 0x0 DUP5 DUP2 MSTORE PUSH1 0x20 ADD SWAP1 DUP2 MSTORE PUSH1 0x20 ADD PUSH1 0x0 KECCAK256 SLOAD LT ISZERO JUMPDEST JUMPDEST ISZERO ISZERO PUSH2 0xD67 JUMPI PUSH1 0x40 MLOAD PUSH32 0x8C379A000000000000000000000000000000000000000000000000000000000 DUP2 MSTORE PUSH1 0x4 ADD PUSH2 0xD5E SWAP1 PUSH2 0x403E JUMP JUMPDEST PUSH1 0x40 MLOAD DUP1 SWAP2 SUB SWAP1 REVERT JUMPDEST DUP5 PUSH1 0x0 PUSH1 0xD PUSH1 0x0 DUP4 DUP2 MSTORE PUSH1 0x20 ADD SWAP1 DUP2 MSTORE PUSH1 0x20 ADD PUSH1 0x0 KECCAK256 SLOAD GT ISZERO ISZERO PUSH2 0xDC0 JUMPI PUSH1 0x40 MLOAD PUSH32 0x8C379A000000000000000000000000000000000000000000000000000000000 DUP2 MSTORE PUSH1 0x4 ADD PUSH2 0xDB7 SWAP1 PUSH2 0x3FDE JUMP JUMPDEST PUSH1 0x40 MLOAD DUP1 SWAP2 SUB SWAP1 REVERT JUMPDEST DUP8 PUSH20 0xFFFFFFFFFFFFFFFFFFFFFFFFFFFFFFFFFFFFFFFF AND DUP8 PUSH20 0xFFFFFFFFFFFFFFFFFFFFFFFFFFFFFFFFFFFFFFFF AND EQ ISZERO ISZERO ISZERO PUSH2 0xE31 JUMPI PUSH1 0x40 MLOAD PUSH32 0x8C379A000000000000000000000000000000000000000000000000000000000 DUP2 MSTORE PUSH1 0x4 ADD PUSH2 0xE28 SWAP1 PUSH2 0x407E JUMP JUMPDEST PUSH1 0x40 MLOAD DUP1 SWAP2 SUB SWAP1 REVERT JUMPDEST DUP5 PUSH1 0x7 PUSH1 0x0 DUP11 PUSH20 0xFFFFFFFFFFFFFFFFFFFFFFFFFFFFFFFFFFFFFFFF AND PUSH20 0xFFFFFFFFFFFFFFFFFFFFFFFFFFFFFFFFFFFFFFFF AND DUP2 MSTORE PUSH1 0x20 ADD SWAP1 DUP2 MSTORE PUSH1 0x20 ADD PUSH1 0x0 KECCAK256 PUSH1 0x0 DUP10 PUSH20 0xFFFFFFFFFFFFFFFFFFFFFFFFFFFFFFFFFFFFFFFF AND PUSH20 0xFFFFFFFFFFFFFFFFFFFFFFFFFFFFFFFFFFFFFFFF AND DUP2 MSTORE PUSH1 0x20 ADD SWAP1 DUP2 MSTORE PUSH1 0x20 ADD PUSH1 0x0 KECCAK256 PUSH1 0x0 DUP9 DUP2 MSTORE PUSH1 0x20 ADD SWAP1 DUP2 MSTORE PUSH1 0x20 ADD PUSH1 0x0 KECCAK256 DUP2 SWAP1 SSTORE POP DUP6 DUP8 PUSH20 0xFFFFFFFFFFFFFFFFFFFFFFFFFFFFFFFFFFFFFFFF AND DUP10 PUSH20 0xFFFFFFFFFFFFFFFFFFFFFFFFFFFFFFFFFFFFFFFF AND PUSH32 0xA1376F00CE38A02643AF0FF97DCE59C2C81B4C8AD34C717CE9A44ED623E0718D DUP9 PUSH1 0x40 MLOAD PUSH2 0xF21 SWAP2 SWAP1 PUSH2 0x40DE JUMP JUMPDEST PUSH1 0x40 MLOAD DUP1 SWAP2 SUB SWAP1 LOG4 POP POP POP POP POP POP POP POP JUMP JUMPDEST PUSH1 0x0 DUP1 PUSH1 0xE PUSH1 0x0 DUP5 DUP2 MSTORE PUSH1 0x20 ADD SWAP1 DUP2 MSTORE PUSH1 0x20 ADD PUSH1 0x0 KECCAK256 PUSH1 0x0 ADD SLOAD SWAP1 POP DUP1 TIMESTAMP LT ISZERO PUSH2 0xF61 JUMPI PUSH1 0x0 SWAP2 POP POP PUSH2 0xF67 JUMP JUMPDEST PUSH1 0x1 SWAP2 POP POP JUMPDEST SWAP2 SWAP1 POP JUMP JUMPDEST PUSH1 0x0 DUP1 PUSH20 0xFFFFFFFFFFFFFFFFFFFFFFFFFFFFFFFFFFFFFFFF AND DUP3 PUSH20 0xFFFFFFFFFFFFFFFFFFFFFFFFFFFFFFFFFFFFFFFF AND EQ ISZERO ISZERO ISZERO PUSH2 0xFA9 JUMPI PUSH1 0x0 DUP1 REVERT JUMPDEST PUSH2 0xFB2 DUP3 PUSH2 0x2219 JUMP JUMPDEST SWAP1 POP SWAP2 SWAP1 POP JUMP JUMPDEST PUSH1 0x0 DUP1 SWAP1 SLOAD SWAP1 PUSH2 0x100 EXP SWAP1 DIV PUSH20 0xFFFFFFFFFFFFFFFFFFFFFFFFFFFFFFFFFFFFFFFF AND PUSH20 0xFFFFFFFFFFFFFFFFFFFFFFFFFFFFFFFFFFFFFFFF AND CALLER PUSH20 0xFFFFFFFFFFFFFFFFFFFFFFFFFFFFFFFFFFFFFFFF AND EQ ISZERO ISZERO PUSH2 0x1014 JUMPI PUSH1 0x0 DUP1 REVERT JUMPDEST PUSH1 0x0 DUP3 PUSH1 0x0 PUSH1 0x5 DUP2 LT ISZERO ISZERO PUSH2 0x1025 JUMPI INVALID JUMPDEST PUSH1 0x20 MUL ADD CALLDATALOAD DUP4 PUSH1 0x1 PUSH1 0x5 DUP2 LT ISZERO ISZERO PUSH2 0x1039 JUMPI INVALID JUMPDEST PUSH1 0x20 MUL ADD CALLDATALOAD DUP5 PUSH1 0x2 PUSH1 0x5 DUP2 LT ISZERO ISZERO PUSH2 0x104D JUMPI INVALID JUMPDEST PUSH1 0x20 MUL ADD CALLDATALOAD DUP6 PUSH1 0x3 PUSH1 0x5 DUP2 LT ISZERO ISZERO PUSH2 0x1061 JUMPI INVALID JUMPDEST PUSH1 0x20 MUL ADD CALLDATALOAD DUP7 PUSH1 0x4 PUSH1 0x5 DUP2 LT ISZERO ISZERO PUSH2 0x1075 JUMPI INVALID JUMPDEST PUSH1 0x20 MUL ADD CALLDATALOAD PUSH1 0x40 MLOAD PUSH1 0x20 ADD DUP1 DUP7 DUP2 MSTORE PUSH1 0x20 ADD DUP6 DUP2 MSTORE PUSH1 0x20 ADD DUP5 DUP2 MSTORE PUSH1 0x20 ADD DUP4 DUP2 MSTORE PUSH1 0x20 ADD DUP3 DUP2 MSTORE PUSH1 0x20 ADD SWAP6 POP POP POP POP POP POP PUSH1 0x40 MLOAD PUSH1 0x20 DUP2 DUP4 SUB SUB DUP2 MSTORE SWAP1 PUSH1 0x40 MSTORE DUP1 MLOAD SWAP1 PUSH1 0x20 ADD KECCAK256 SWAP1 POP PUSH1 0x0 PUSH1 0xD PUSH1 0x0 DUP4 DUP2 MSTORE PUSH1 0x20 ADD SWAP1 DUP2 MSTORE PUSH1 0x20 ADD PUSH1 0x0 KECCAK256 SLOAD EQ ISZERO PUSH2 0x1168 JUMPI PUSH1 0x5 DUP2 SWAP1 DUP1 PUSH1 0x1 DUP2 SLOAD ADD DUP1 DUP3 SSTORE DUP1 SWAP2 POP POP SWAP1 PUSH1 0x1 DUP3 SUB SWAP1 PUSH1 0x0 MSTORE PUSH1 0x20 PUSH1 0x0 KECCAK256 ADD PUSH1 0x0 SWAP1 SWAP2 SWAP3 SWAP1 SWAP2 SWAP1 SWAP2 POP SSTORE POP PUSH1 0x1 PUSH1 0x5 DUP1 SLOAD SWAP1 POP SUB PUSH1 0x6 PUSH1 0x0 DUP4 DUP2 MSTORE PUSH1 0x20 ADD SWAP1 DUP2 MSTORE PUSH1 0x20 ADD PUSH1 0x0 KECCAK256 DUP2 SWAP1 SSTORE POP PUSH2 0x1167 DUP4 PUSH1 0x5 DUP1 PUSH1 0x20 MUL PUSH1 0x40 MLOAD SWAP1 DUP2 ADD PUSH1 0x40 MSTORE DUP1 SWAP3 SWAP2 SWAP1 DUP3 PUSH1 0x5 PUSH1 0x20 MUL DUP1 DUP3 DUP5 CALLDATACOPY PUSH1 0x0 DUP2 DUP5 ADD MSTORE PUSH1 0x1F NOT PUSH1 0x1F DUP3 ADD AND SWAP1 POP DUP1 DUP4 ADD SWAP3 POP POP POP POP POP POP DUP3 PUSH2 0x2262 JUMP JUMPDEST JUMPDEST PUSH2 0x1173 DUP5 DUP3 DUP5 PUSH2 0x2384 JUMP JUMPDEST PUSH2 0x1199 DUP3 PUSH1 0xD PUSH1 0x0 DUP5 DUP2 MSTORE PUSH1 0x20 ADD SWAP1 DUP2 MSTORE PUSH1 0x20 ADD PUSH1 0x0 KECCAK256 SLOAD PUSH2 0x24EB SWAP1 SWAP2 SWAP1 PUSH4 0xFFFFFFFF AND JUMP JUMPDEST PUSH1 0xD PUSH1 0x0 DUP4 DUP2 MSTORE PUSH1 0x20 ADD SWAP1 DUP2 MSTORE PUSH1 0x20 ADD PUSH1 0x0 KECCAK256 DUP2 SWAP1 SSTORE POP POP POP POP POP JUMP JUMPDEST CALLER DUP3 DUP3 DUP3 PUSH20 0xFFFFFFFFFFFFFFFFFFFFFFFFFFFFFFFFFFFFFFFF AND CALLER PUSH20 0xFFFFFFFFFFFFFFFFFFFFFFFFFFFFFFFFFFFFFFFF AND EQ DUP1 ISZERO PUSH2 0x1244 JUMPI POP DUP1 PUSH1 0xC PUSH1 0x0 CALLER PUSH20 0xFFFFFFFFFFFFFFFFFFFFFFFFFFFFFFFFFFFFFFFF AND PUSH20 0xFFFFFFFFFFFFFFFFFFFFFFFFFFFFFFFFFFFFFFFF AND DUP2 MSTORE PUSH1 0x20 ADD SWAP1 DUP2 MSTORE PUSH1 0x20 ADD PUSH1 0x0 KECCAK256 PUSH1 0x0 DUP5 DUP2 MSTORE PUSH1 0x20 ADD SWAP1 DUP2 MSTORE PUSH1 0x20 ADD PUSH1 0x0 KECCAK256 SLOAD LT ISZERO JUMPDEST DUP1 PUSH2 0x1331 JUMPI POP PUSH1 0x9 PUSH1 0x0 DUP5 PUSH20 0xFFFFFFFFFFFFFFFFFFFFFFFFFFFFFFFFFFFFFFFF AND PUSH20 0xFFFFFFFFFFFFFFFFFFFFFFFFFFFFFFFFFFFFFFFF AND DUP2 MSTORE PUSH1 0x20 ADD SWAP1 DUP2 MSTORE PUSH1 0x20 ADD PUSH1 0x0 KECCAK256 PUSH1 0x0 CALLER PUSH20 0xFFFFFFFFFFFFFFFFFFFFFFFFFFFFFFFFFFFFFFFF AND PUSH20 0xFFFFFFFFFFFFFFFFFFFFFFFFFFFFFFFFFFFFFFFF AND DUP2 MSTORE PUSH1 0x20 ADD SWAP1 DUP2 MSTORE PUSH1 0x20 ADD PUSH1 0x0 KECCAK256 PUSH1 0x0 SWAP1 SLOAD SWAP1 PUSH2 0x100 EXP SWAP1 DIV PUSH1 0xFF AND DUP1 ISZERO PUSH2 0x1330 JUMPI POP DUP1 PUSH1 0xC PUSH1 0x0 DUP6 PUSH20 0xFFFFFFFFFFFFFFFFFFFFFFFFFFFFFFFFFFFFFFFF AND PUSH20 0xFFFFFFFFFFFFFFFFFFFFFFFFFFFFFFFFFFFFFFFF AND DUP2 MSTORE PUSH1 0x20 ADD SWAP1 DUP2 MSTORE PUSH1 0x20 ADD PUSH1 0x0 KECCAK256 PUSH1 0x0 DUP5 DUP2 MSTORE PUSH1 0x20 ADD SWAP1 DUP2 MSTORE PUSH1 0x20 ADD PUSH1 0x0 KECCAK256 SLOAD LT ISZERO JUMPDEST JUMPDEST ISZERO ISZERO PUSH2 0x1372 JUMPI PUSH1 0x40 MLOAD PUSH32 0x8C379A000000000000000000000000000000000000000000000000000000000 DUP2 MSTORE PUSH1 0x4 ADD PUSH2 0x1369 SWAP1 PUSH2 0x403E JUMP JUMPDEST PUSH1 0x40 MLOAD DUP1 SWAP2 SUB SWAP1 REVERT JUMPDEST PUSH1 0x0 DUP1 SWAP1 SLOAD SWAP1 PUSH2 0x100 EXP SWAP1 DIV PUSH20 0xFFFFFFFFFFFFFFFFFFFFFFFFFFFFFFFFFFFFFFFF AND PUSH20 0xFFFFFFFFFFFFFFFFFFFFFFFFFFFFFFFFFFFFFFFF AND CALLER PUSH20 0xFFFFFFFFFFFFFFFFFFFFFFFFFFFFFFFFFFFFFFFF AND EQ ISZERO ISZERO PUSH2 0x13CD JUMPI PUSH1 0x0 DUP1 REVERT JUMPDEST PUSH2 0x13D8 CALLER DUP7 DUP7 PUSH2 0x2507 JUMP JUMPDEST PUSH2 0x13FE DUP5 PUSH1 0xD PUSH1 0x0 DUP9 DUP2 MSTORE PUSH1 0x20 ADD SWAP1 DUP2 MSTORE PUSH1 0x20 ADD PUSH1 0x0 KECCAK256 SLOAD PUSH2 0x2656 SWAP1 SWAP2 SWAP1 PUSH4 0xFFFFFFFF AND JUMP JUMPDEST PUSH1 0xD PUSH1 0x0 DUP8 DUP2 MSTORE PUSH1 0x20 ADD SWAP1 DUP2 MSTORE PUSH1 0x20 ADD PUSH1 0x0 KECCAK256 DUP2 SWAP1 SSTORE POP PUSH1 0x0 PUSH1 0xD PUSH1 0x0 DUP8 DUP2 MSTORE PUSH1 0x20 ADD SWAP1 DUP2 MSTORE PUSH1 0x20 ADD PUSH1 0x0 KECCAK256 SLOAD EQ ISZERO PUSH2 0x14EA JUMPI PUSH1 0x0 PUSH1 0x6 PUSH1 0x0 DUP8 DUP2 MSTORE PUSH1 0x20 ADD SWAP1 DUP2 MSTORE PUSH1 0x20 ADD PUSH1 0x0 KECCAK256 SLOAD SWAP1 POP PUSH1 0x0 PUSH1 0x1 PUSH1 0x5 DUP1 SLOAD SWAP1 POP SUB SWAP1 POP PUSH1 0x0 PUSH1 0x5 DUP3 DUP2 SLOAD DUP2 LT ISZERO ISZERO PUSH2 0x1467 JUMPI INVALID JUMPDEST SWAP1 PUSH1 0x0 MSTORE PUSH1 0x20 PUSH1 0x0 KECCAK256 ADD SLOAD SWAP1 POP DUP1 PUSH1 0x5 DUP5 DUP2 SLOAD DUP2 LT ISZERO ISZERO PUSH2 0x1484 JUMPI INVALID JUMPDEST SWAP1 PUSH1 0x0 MSTORE PUSH1 0x20 PUSH1 0x0 KECCAK256 ADD DUP2 SWAP1 SSTORE POP PUSH1 0x5 DUP1 SLOAD DUP1 ISZERO ISZERO PUSH2 0x149F JUMPI INVALID JUMPDEST PUSH1 0x1 SWAP1 SUB DUP2 DUP2 SWAP1 PUSH1 0x0 MSTORE PUSH1 0x20 PUSH1 0x0 KECCAK256 ADD PUSH1 0x0 SWAP1 SSTORE SWAP1 SSTORE DUP3 PUSH1 0x6 PUSH1 0x0 DUP4 DUP2 MSTORE PUSH1 0x20 ADD SWAP1 DUP2 MSTORE PUSH1 0x20 ADD PUSH1 0x0 KECCAK256 DUP2 SWAP1 SSTORE POP PUSH1 0x0 PUSH1 0x6 PUSH1 0x0 DUP11 DUP2 MSTORE PUSH1 0x20 ADD SWAP1 DUP2 MSTORE PUSH1 0x20 ADD PUSH1 0x0 KECCAK256 DUP2 SWAP1 SSTORE POP POP POP POP JUMPDEST POP POP POP POP POP JUMP JUMPDEST DUP4 DUP3 DUP3 DUP3 PUSH20 0xFFFFFFFFFFFFFFFFFFFFFFFFFFFFFFFFFFFFFFFF AND CALLER PUSH20 0xFFFFFFFFFFFFFFFFFFFFFFFFFFFFFFFFFFFFFFFF AND EQ DUP1 ISZERO PUSH2 0x157F JUMPI POP DUP1 PUSH1 0xC PUSH1 0x0 CALLER PUSH20 0xFFFFFFFFFFFFFFFFFFFFFFFFFFFFFFFFFFFFFFFF AND PUSH20 0xFFFFFFFFFFFFFFFFFFFFFFFFFFFFFFFFFFFFFFFF AND DUP2 MSTORE PUSH1 0x20 ADD SWAP1 DUP2 MSTORE PUSH1 0x20 ADD PUSH1 0x0 KECCAK256 PUSH1 0x0 DUP5 DUP2 MSTORE PUSH1 0x20 ADD SWAP1 DUP2 MSTORE PUSH1 0x20 ADD PUSH1 0x0 KECCAK256 SLOAD LT ISZERO JUMPDEST DUP1 PUSH2 0x166C JUMPI POP PUSH1 0x9 PUSH1 0x0 DUP5 PUSH20 0xFFFFFFFFFFFFFFFFFFFFFFFFFFFFFFFFFFFFFFFF AND PUSH20 0xFFFFFFFFFFFFFFFFFFFFFFFFFFFFFFFFFFFFFFFF AND DUP2 MSTORE PUSH1 0x20 ADD SWAP1 DUP2 MSTORE PUSH1 0x20 ADD PUSH1 0x0 KECCAK256 PUSH1 0x0 CALLER PUSH20 0xFFFFFFFFFFFFFFFFFFFFFFFFFFFFFFFFFFFFFFFF AND PUSH20 0xFFFFFFFFFFFFFFFFFFFFFFFFFFFFFFFFFFFFFFFF AND DUP2 MSTORE PUSH1 0x20 ADD SWAP1 DUP2 MSTORE PUSH1 0x20 ADD PUSH1 0x0 KECCAK256 PUSH1 0x0 SWAP1 SLOAD SWAP1 PUSH2 0x100 EXP SWAP1 DIV PUSH1 0xFF AND DUP1 ISZERO PUSH2 0x166B JUMPI POP DUP1 PUSH1 0xC PUSH1 0x0 DUP6 PUSH20 0xFFFFFFFFFFFFFFFFFFFFFFFFFFFFFFFFFFFFFFFF AND PUSH20 0xFFFFFFFFFFFFFFFFFFFFFFFFFFFFFFFFFFFFFFFF AND DUP2 MSTORE PUSH1 0x20 ADD SWAP1 DUP2 MSTORE PUSH1 0x20 ADD PUSH1 0x0 KECCAK256 PUSH1 0x0 DUP5 DUP2 MSTORE PUSH1 0x20 ADD SWAP1 DUP2 MSTORE PUSH1 0x20 ADD PUSH1 0x0 KECCAK256 SLOAD LT ISZERO JUMPDEST JUMPDEST ISZERO ISZERO PUSH2 0x16AD JUMPI PUSH1 0x40 MLOAD PUSH32 0x8C379A000000000000000000000000000000000000000000000000000000000 DUP2 MSTORE PUSH1 0x4 ADD PUSH2 0x16A4 SWAP1 PUSH2 0x403E JUMP JUMPDEST PUSH1 0x40 MLOAD DUP1 SWAP2 SUB SWAP1 REVERT JUMPDEST DUP5 PUSH1 0x0 PUSH1 0xD PUSH1 0x0 DUP4 DUP2 MSTORE PUSH1 0x20 ADD SWAP1 DUP2 MSTORE PUSH1 0x20 ADD PUSH1 0x0 KECCAK256 SLOAD GT ISZERO ISZERO PUSH2 0x1706 JUMPI PUSH1 0x40 MLOAD PUSH32 0x8C379A000000000000000000000000000000000000000000000000000000000 DUP2 MSTORE PUSH1 0x4 ADD PUSH2 0x16FD SWAP1 PUSH2 0x3FDE JUMP JUMPDEST PUSH1 0x40 MLOAD DUP1 SWAP2 SUB SWAP1 REVERT JUMPDEST DUP5 PUSH1 0xC PUSH1 0x0 DUP11 PUSH20 0xFFFFFFFFFFFFFFFFFFFFFFFFFFFFFFFFFFFFFFFF AND PUSH20 0xFFFFFFFFFFFFFFFFFFFFFFFFFFFFFFFFFFFFFFFF AND DUP2 MSTORE PUSH1 0x20 ADD SWAP1 DUP2 MSTORE PUSH1 0x20 ADD PUSH1 0x0 KECCAK256 PUSH1 0x0 DUP9 DUP2 MSTORE PUSH1 0x20 ADD SWAP1 DUP2 MSTORE PUSH1 0x20 ADD PUSH1 0x0 KECCAK256 SLOAD LT ISZERO ISZERO ISZERO PUSH2 0x179B JUMPI PUSH1 0x40 MLOAD PUSH32 0x8C379A000000000000000000000000000000000000000000000000000000000 DUP2 MSTORE PUSH1 0x4 ADD PUSH2 0x1792 SWAP1 PUSH2 0x3F7E JUMP JUMPDEST PUSH1 0x40 MLOAD DUP1 SWAP2 SUB SWAP1 REVERT JUMPDEST PUSH1 0x0 PUSH20 0xFFFFFFFFFFFFFFFFFFFFFFFFFFFFFFFFFFFFFFFF AND DUP8 PUSH20 0xFFFFFFFFFFFFFFFFFFFFFFFFFFFFFFFFFFFFFFFF AND EQ ISZERO ISZERO ISZERO PUSH2 0x180D JUMPI PUSH1 0x40 MLOAD PUSH32 0x8C379A000000000000000000000000000000000000000000000000000000000 DUP2 MSTORE PUSH1 0x4 ADD PUSH2 0x1804 SWAP1 PUSH2 0x3F5E JUMP JUMPDEST PUSH1 0x40 MLOAD DUP1 SWAP2 SUB SWAP1 REVERT JUMPDEST PUSH2 0x1819 DUP9 DUP9 DUP9 DUP9 PUSH2 0x266F JUMP JUMPDEST POP POP POP POP POP POP POP POP JUMP JUMPDEST PUSH1 0x0 DUP1 SWAP1 SLOAD SWAP1 PUSH2 0x100 EXP SWAP1 DIV PUSH20 0xFFFFFFFFFFFFFFFFFFFFFFFFFFFFFFFFFFFFFFFF AND DUP2 JUMP JUMPDEST PUSH1 0x0 DUP1 SWAP1 SLOAD SWAP1 PUSH2 0x100 EXP SWAP1 DIV PUSH20 0xFFFFFFFFFFFFFFFFFFFFFFFFFFFFFFFFFFFFFFFF AND PUSH20 0xFFFFFFFFFFFFFFFFFFFFFFFFFFFFFFFFFFFFFFFF AND CALLER PUSH20 0xFFFFFFFFFFFFFFFFFFFFFFFFFFFFFFFFFFFFFFFF AND EQ ISZERO ISZERO PUSH2 0x18A3 JUMPI PUSH1 0x0 DUP1 REVERT JUMPDEST PUSH32 0xCDAFBFF2BA80E62AC8CCA582598CD4C3654ED2E5EA3A2BE59EF42B9C8354E3A8 PUSH1 0x1 DUP3 PUSH1 0x40 MLOAD PUSH2 0x18D5 SWAP3 SWAP2 SWAP1 PUSH2 0x3EA7 JUMP JUMPDEST PUSH1 0x40 MLOAD DUP1 SWAP2 SUB SWAP1 LOG1 DUP1 PUSH1 0x1 SWAP1 DUP1 MLOAD SWAP1 PUSH1 0x20 ADD SWAP1 PUSH2 0x18F3 SWAP3 SWAP2 SWAP1 PUSH2 0x3253 JUMP JUMPDEST POP POP JUMP JUMPDEST PUSH1 0x60 PUSH1 0x3 DUP1 SLOAD PUSH1 0x1 DUP2 PUSH1 0x1 AND ISZERO PUSH2 0x100 MUL SUB AND PUSH1 0x2 SWAP1 DIV DUP1 PUSH1 0x1F ADD PUSH1 0x20 DUP1 SWAP2 DIV MUL PUSH1 0x20 ADD PUSH1 0x40 MLOAD SWAP1 DUP2 ADD PUSH1 0x40 MSTORE DUP1 SWAP3 SWAP2 SWAP1 DUP2 DUP2 MSTORE PUSH1 0x20 ADD DUP3 DUP1 SLOAD PUSH1 0x1 DUP2 PUSH1 0x1 AND ISZERO PUSH2 0x100 MUL SUB AND PUSH1 0x2 SWAP1 DIV DUP1 ISZERO PUSH2 0x198F JUMPI DUP1 PUSH1 0x1F LT PUSH2 0x1964 JUMPI PUSH2 0x100 DUP1 DUP4 SLOAD DIV MUL DUP4 MSTORE SWAP2 PUSH1 0x20 ADD SWAP2 PUSH2 0x198F JUMP JUMPDEST DUP3 ADD SWAP2 SWAP1 PUSH1 0x0 MSTORE PUSH1 0x20 PUSH1 0x0 KECCAK256 SWAP1 JUMPDEST DUP2 SLOAD DUP2 MSTORE SWAP1 PUSH1 0x1 ADD SWAP1 PUSH1 0x20 ADD DUP1 DUP4 GT PUSH2 0x1972 JUMPI DUP3 SWAP1 SUB PUSH1 0x1F AND DUP3 ADD SWAP2 JUMPDEST POP POP POP POP POP SWAP1 POP SWAP1 JUMP JUMPDEST DUP1 PUSH1 0x9 PUSH1 0x0 CALLER PUSH20 0xFFFFFFFFFFFFFFFFFFFFFFFFFFFFFFFFFFFFFFFF AND PUSH20 0xFFFFFFFFFFFFFFFFFFFFFFFFFFFFFFFFFFFFFFFF AND DUP2 MSTORE PUSH1 0x20 ADD SWAP1 DUP2 MSTORE PUSH1 0x20 ADD PUSH1 0x0 KECCAK256 PUSH1 0x0 DUP5 PUSH20 0xFFFFFFFFFFFFFFFFFFFFFFFFFFFFFFFFFFFFFFFF AND PUSH20 0xFFFFFFFFFFFFFFFFFFFFFFFFFFFFFFFFFFFFFFFF AND DUP2 MSTORE PUSH1 0x20 ADD SWAP1 DUP2 MSTORE PUSH1 0x20 ADD PUSH1 0x0 KECCAK256 PUSH1 0x0 PUSH2 0x100 EXP DUP2 SLOAD DUP2 PUSH1 0xFF MUL NOT AND SWAP1 DUP4 ISZERO ISZERO MUL OR SWAP1 SSTORE POP DUP2 PUSH20 0xFFFFFFFFFFFFFFFFFFFFFFFFFFFFFFFFFFFFFFFF AND CALLER PUSH20 0xFFFFFFFFFFFFFFFFFFFFFFFFFFFFFFFFFFFFFFFF AND PUSH32 0x17307EAB39AB6107E8899845AD3D59BD9653F200F220920489CA2B5937696C31 DUP4 PUSH1 0x40 MLOAD PUSH2 0x1A8A SWAP2 SWAP1 PUSH2 0x3E2D JUMP JUMPDEST PUSH1 0x40 MLOAD DUP1 SWAP2 SUB SWAP1 LOG3 POP POP JUMP JUMPDEST PUSH2 0x1A9E PUSH2 0x32D3 JUMP JUMPDEST PUSH2 0x1AA6 PUSH2 0x32D3 JUMP JUMPDEST PUSH1 0xE PUSH1 0x0 DUP5 DUP2 MSTORE PUSH1 0x20 ADD SWAP1 DUP2 MSTORE PUSH1 0x20 ADD PUSH1 0x0 KECCAK256 PUSH1 0x0 ADD SLOAD DUP2 PUSH1 0x0 PUSH1 0x5 DUP2 LT ISZERO ISZERO PUSH2 0x1ACC JUMPI INVALID JUMPDEST PUSH1 0x20 MUL ADD DUP2 DUP2 MSTORE POP POP PUSH1 0xE PUSH1 0x0 DUP5 DUP2 MSTORE PUSH1 0x20 ADD SWAP1 DUP2 MSTORE PUSH1 0x20 ADD PUSH1 0x0 KECCAK256 PUSH1 0x1 ADD SLOAD DUP2 PUSH1 0x1 PUSH1 0x5 DUP2 LT ISZERO ISZERO PUSH2 0x1AFB JUMPI INVALID JUMPDEST PUSH1 0x20 MUL ADD DUP2 DUP2 MSTORE POP POP PUSH1 0xE PUSH1 0x0 DUP5 DUP2 MSTORE PUSH1 0x20 ADD SWAP1 DUP2 MSTORE PUSH1 0x20 ADD PUSH1 0x0 KECCAK256 PUSH1 0x2 ADD SLOAD DUP2 PUSH1 0x2 PUSH1 0x5 DUP2 LT ISZERO ISZERO PUSH2 0x1B2A JUMPI INVALID JUMPDEST PUSH1 0x20 MUL ADD DUP2 DUP2 MSTORE POP POP PUSH1 0xE PUSH1 0x0 DUP5 DUP2 MSTORE PUSH1 0x20 ADD SWAP1 DUP2 MSTORE PUSH1 0x20 ADD PUSH1 0x0 KECCAK256 PUSH1 0x3 ADD SLOAD DUP2 PUSH1 0x3 PUSH1 0x5 DUP2 LT ISZERO ISZERO PUSH2 0x1B59 JUMPI INVALID JUMPDEST PUSH1 0x20 MUL ADD DUP2 DUP2 MSTORE POP POP PUSH1 0xE PUSH1 0x0 DUP5 DUP2 MSTORE PUSH1 0x20 ADD SWAP1 DUP2 MSTORE PUSH1 0x20 ADD PUSH1 0x0 KECCAK256 PUSH1 0x4 ADD SLOAD DUP2 PUSH1 0x4 PUSH1 0x5 DUP2 LT ISZERO ISZERO PUSH2 0x1B88 JUMPI INVALID JUMPDEST PUSH1 0x20 MUL ADD DUP2 DUP2 MSTORE POP POP DUP1 SWAP2 POP POP SWAP2 SWAP1 POP JUMP JUMPDEST PUSH1 0x60 PUSH1 0x5 DUP1 SLOAD DUP1 PUSH1 0x20 MUL PUSH1 0x20 ADD PUSH1 0x40 MLOAD SWAP1 DUP2 ADD PUSH1 0x40 MSTORE DUP1 SWAP3 SWAP2 SWAP1 DUP2 DUP2 MSTORE PUSH1 0x20 ADD DUP3 DUP1 SLOAD DUP1 ISZERO PUSH2 0x1BE8 JUMPI PUSH1 0x20 MUL DUP3 ADD SWAP2 SWAP1 PUSH1 0x0 MSTORE PUSH1 0x20 PUSH1 0x0 KECCAK256 SWAP1 JUMPDEST DUP2 SLOAD DUP2 MSTORE PUSH1 0x20 ADD SWAP1 PUSH1 0x1 ADD SWAP1 DUP1 DUP4 GT PUSH2 0x1BD4 JUMPI JUMPDEST POP POP POP POP POP SWAP1 POP SWAP1 JUMP JUMPDEST DUP6 DUP6 DUP6 DUP6 PUSH1 0x0 PUSH1 0x7 PUSH1 0x0 DUP7 PUSH20 0xFFFFFFFFFFFFFFFFFFFFFFFFFFFFFFFFFFFFFFFF AND PUSH20 0xFFFFFFFFFFFFFFFFFFFFFFFFFFFFFFFFFFFFFFFF AND DUP2 MSTORE PUSH1 0x20 ADD SWAP1 DUP2 MSTORE PUSH1 0x20 ADD PUSH1 0x0 KECCAK256 PUSH1 0x0 DUP6 PUSH20 0xFFFFFFFFFFFFFFFFFFFFFFFFFFFFFFFFFFFFFFFF AND PUSH20 0xFFFFFFFFFFFFFFFFFFFFFFFFFFFFFFFFFFFFFFFF AND DUP2 MSTORE PUSH1 0x20 ADD SWAP1 DUP2 MSTORE PUSH1 0x20 ADD PUSH1 0x0 KECCAK256 PUSH1 0x0 DUP5 DUP2 MSTORE PUSH1 0x20 ADD SWAP1 DUP2 MSTORE PUSH1 0x20 ADD PUSH1 0x0 KECCAK256 SLOAD SWAP1 POP DUP2 PUSH1 0xC PUSH1 0x0 DUP8 PUSH20 0xFFFFFFFFFFFFFFFFFFFFFFFFFFFFFFFFFFFFFFFF AND PUSH20 0xFFFFFFFFFFFFFFFFFFFFFFFFFFFFFFFFFFFFFFFF AND DUP2 MSTORE PUSH1 0x20 ADD SWAP1 DUP2 MSTORE PUSH1 0x20 ADD PUSH1 0x0 KECCAK256 PUSH1 0x0 DUP6 DUP2 MSTORE PUSH1 0x20 ADD SWAP1 DUP2 MSTORE PUSH1 0x20 ADD PUSH1 0x0 KECCAK256 SLOAD LT ISZERO DUP1 PUSH2 0x1CE7 JUMPI POP DUP2 DUP2 LT ISZERO JUMPDEST ISZERO ISZERO PUSH2 0x1D28 JUMPI PUSH1 0x40 MLOAD PUSH32 0x8C379A000000000000000000000000000000000000000000000000000000000 DUP2 MSTORE PUSH1 0x4 ADD PUSH2 0x1D1F SWAP1 PUSH2 0x3F9E JUMP JUMPDEST PUSH1 0x40 MLOAD DUP1 SWAP2 SUB SWAP1 REVERT JUMPDEST PUSH2 0x1DC8 DUP9 PUSH1 0x7 PUSH1 0x0 DUP15 PUSH20 0xFFFFFFFFFFFFFFFFFFFFFFFFFFFFFFFFFFFFFFFF AND PUSH20 0xFFFFFFFFFFFFFFFFFFFFFFFFFFFFFFFFFFFFFFFF AND DUP2 MSTORE PUSH1 0x20 ADD SWAP1 DUP2 MSTORE PUSH1 0x20 ADD PUSH1 0x0 KECCAK256 PUSH1 0x0 DUP14 PUSH20 0xFFFFFFFFFFFFFFFFFFFFFFFFFFFFFFFFFFFFFFFF AND PUSH20 0xFFFFFFFFFFFFFFFFFFFFFFFFFFFFFFFFFFFFFFFF AND DUP2 MSTORE PUSH1 0x20 ADD SWAP1 DUP2 MSTORE PUSH1 0x20 ADD PUSH1 0x0 KECCAK256 PUSH1 0x0 DUP13 DUP2 MSTORE PUSH1 0x20 ADD SWAP1 DUP2 MSTORE PUSH1 0x20 ADD PUSH1 0x0 KECCAK256 SLOAD PUSH2 0x2656 SWAP1 SWAP2 SWAP1 PUSH4 0xFFFFFFFF AND JUMP JUMPDEST PUSH1 0x7 PUSH1 0x0 DUP14 PUSH20 0xFFFFFFFFFFFFFFFFFFFFFFFFFFFFFFFFFFFFFFFF AND PUSH20 0xFFFFFFFFFFFFFFFFFFFFFFFFFFFFFFFFFFFFFFFF AND DUP2 MSTORE PUSH1 0x20 ADD SWAP1 DUP2 MSTORE PUSH1 0x20 ADD PUSH1 0x0 KECCAK256 PUSH1 0x0 DUP13 PUSH20 0xFFFFFFFFFFFFFFFFFFFFFFFFFFFFFFFFFFFFFFFF AND PUSH20 0xFFFFFFFFFFFFFFFFFFFFFFFFFFFFFFFFFFFFFFFF AND DUP2 MSTORE PUSH1 0x20 ADD SWAP1 DUP2 MSTORE PUSH1 0x20 ADD PUSH1 0x0 KECCAK256 PUSH1 0x0 DUP12 DUP2 MSTORE PUSH1 0x20 ADD SWAP1 DUP2 MSTORE PUSH1 0x20 ADD PUSH1 0x0 KECCAK256 DUP2 SWAP1 SSTORE POP PUSH2 0x1EAA DUP12 DUP12 DUP12 DUP12 DUP12 DUP12 DUP1 DUP1 PUSH1 0x1F ADD PUSH1 0x20 DUP1 SWAP2 DIV MUL PUSH1 0x20 ADD PUSH1 0x40 MLOAD SWAP1 DUP2 ADD PUSH1 0x40 MSTORE DUP1 SWAP4 SWAP3 SWAP2 SWAP1 DUP2 DUP2 MSTORE PUSH1 0x20 ADD DUP4 DUP4 DUP1 DUP3 DUP5 CALLDATACOPY PUSH1 0x0 DUP2 DUP5 ADD MSTORE PUSH1 0x1F NOT PUSH1 0x1F DUP3 ADD AND SWAP1 POP DUP1 DUP4 ADD SWAP3 POP POP POP POP POP POP POP PUSH2 0x27A2 JUMP JUMPDEST POP POP POP POP POP POP POP POP POP POP POP JUMP JUMPDEST DUP6 DUP5 DUP5 DUP3 PUSH20 0xFFFFFFFFFFFFFFFFFFFFFFFFFFFFFFFFFFFFFFFF AND CALLER PUSH20 0xFFFFFFFFFFFFFFFFFFFFFFFFFFFFFFFFFFFFFFFF AND EQ DUP1 ISZERO PUSH2 0x1F45 JUMPI POP DUP1 PUSH1 0xC PUSH1 0x0 CALLER PUSH20 0xFFFFFFFFFFFFFFFFFFFFFFFFFFFFFFFFFFFFFFFF AND PUSH20 0xFFFFFFFFFFFFFFFFFFFFFFFFFFFFFFFFFFFFFFFF AND DUP2 MSTORE PUSH1 0x20 ADD SWAP1 DUP2 MSTORE PUSH1 0x20 ADD PUSH1 0x0 KECCAK256 PUSH1 0x0 DUP5 DUP2 MSTORE PUSH1 0x20 ADD SWAP1 DUP2 MSTORE PUSH1 0x20 ADD PUSH1 0x0 KECCAK256 SLOAD LT ISZERO JUMPDEST DUP1 PUSH2 0x2032 JUMPI POP PUSH1 0x9 PUSH1 0x0 DUP5 PUSH20 0xFFFFFFFFFFFFFFFFFFFFFFFFFFFFFFFFFFFFFFFF AND PUSH20 0xFFFFFFFFFFFFFFFFFFFFFFFFFFFFFFFFFFFFFFFF AND DUP2 MSTORE PUSH1 0x20 ADD SWAP1 DUP2 MSTORE PUSH1 0x20 ADD PUSH1 0x0 KECCAK256 PUSH1 0x0 CALLER PUSH20 0xFFFFFFFFFFFFFFFFFFFFFFFFFFFFFFFFFFFFFFFF AND PUSH20 0xFFFFFFFFFFFFFFFFFFFFFFFFFFFFFFFFFFFFFFFF AND DUP2 MSTORE PUSH1 0x20 ADD SWAP1 DUP2 MSTORE PUSH1 0x20 ADD PUSH1 0x0 KECCAK256 PUSH1 0x0 SWAP1 SLOAD SWAP1 PUSH2 0x100 EXP SWAP1 DIV PUSH1 0xFF AND DUP1 ISZERO PUSH2 0x2031 JUMPI POP DUP1 PUSH1 0xC PUSH1 0x0 DUP6 PUSH20 0xFFFFFFFFFFFFFFFFFFFFFFFFFFFFFFFFFFFFFFFF AND PUSH20 0xFFFFFFFFFFFFFFFFFFFFFFFFFFFFFFFFFFFFFFFF AND DUP2 MSTORE PUSH1 0x20 ADD SWAP1 DUP2 MSTORE PUSH1 0x20 ADD PUSH1 0x0 KECCAK256 PUSH1 0x0 DUP5 DUP2 MSTORE PUSH1 0x20 ADD SWAP1 DUP2 MSTORE PUSH1 0x20 ADD PUSH1 0x0 KECCAK256 SLOAD LT ISZERO JUMPDEST JUMPDEST ISZERO ISZERO PUSH2 0x2073 JUMPI PUSH1 0x40 MLOAD PUSH32 0x8C379A000000000000000000000000000000000000000000000000000000000 DUP2 MSTORE PUSH1 0x4 ADD PUSH2 0x206A SWAP1 PUSH2 0x403E JUMP JUMPDEST PUSH1 0x40 MLOAD DUP1 SWAP2 SUB SWAP1 REVERT JUMPDEST PUSH2 0x20C4 DUP10 DUP10 DUP10 DUP10 DUP10 DUP10 DUP1 DUP1 PUSH1 0x1F ADD PUSH1 0x20 DUP1 SWAP2 DIV MUL PUSH1 0x20 ADD PUSH1 0x40 MLOAD SWAP1 DUP2 ADD PUSH1 0x40 MSTORE DUP1 SWAP4 SWAP3 SWAP2 SWAP1 DUP2 DUP2 MSTORE PUSH1 0x20 ADD DUP4 DUP4 DUP1 DUP3 DUP5 CALLDATACOPY PUSH1 0x0 DUP2 DUP5 ADD MSTORE PUSH1 0x1F NOT PUSH1 0x1F DUP3 ADD AND SWAP1 POP DUP1 DUP4 ADD SWAP3 POP POP POP POP POP POP POP PUSH2 0x27A2 JUMP JUMPDEST POP POP POP POP POP POP POP POP POP JUMP JUMPDEST PUSH1 0x0 PUSH1 0x9 PUSH1 0x0 DUP5 PUSH20 0xFFFFFFFFFFFFFFFFFFFFFFFFFFFFFFFFFFFFFFFF AND PUSH20 0xFFFFFFFFFFFFFFFFFFFFFFFFFFFFFFFFFFFFFFFF AND DUP2 MSTORE PUSH1 0x20 ADD SWAP1 DUP2 MSTORE PUSH1 0x20 ADD PUSH1 0x0 KECCAK256 PUSH1 0x0 DUP4 PUSH20 0xFFFFFFFFFFFFFFFFFFFFFFFFFFFFFFFFFFFFFFFF AND PUSH20 0xFFFFFFFFFFFFFFFFFFFFFFFFFFFFFFFFFFFFFFFF AND DUP2 MSTORE PUSH1 0x20 ADD SWAP1 DUP2 MSTORE PUSH1 0x20 ADD PUSH1 0x0 KECCAK256 PUSH1 0x0 SWAP1 SLOAD SWAP1 PUSH2 0x100 EXP SWAP1 DIV PUSH1 0xFF AND SWAP1 POP SWAP3 SWAP2 POP POP JUMP JUMPDEST PUSH1 0xD PUSH1 0x20 MSTORE DUP1 PUSH1 0x0 MSTORE PUSH1 0x40 PUSH1 0x0 KECCAK256 PUSH1 0x0 SWAP2 POP SWAP1 POP SLOAD DUP2 JUMP JUMPDEST PUSH1 0x1 DUP1 SLOAD PUSH1 0x1 DUP2 PUSH1 0x1 AND ISZERO PUSH2 0x100 MUL SUB AND PUSH1 0x2 SWAP1 DIV DUP1 PUSH1 0x1F ADD PUSH1 0x20 DUP1 SWAP2 DIV MUL PUSH1 0x20 ADD PUSH1 0x40 MLOAD SWAP1 DUP2 ADD PUSH1 0x40 MSTORE DUP1 SWAP3 SWAP2 SWAP1 DUP2 DUP2 MSTORE PUSH1 0x20 ADD DUP3 DUP1 SLOAD PUSH1 0x1 DUP2 PUSH1 0x1 AND ISZERO PUSH2 0x100 MUL SUB AND PUSH1 0x2 SWAP1 DIV DUP1 ISZERO PUSH2 0x2211 JUMPI DUP1 PUSH1 0x1F LT PUSH2 0x21E6 JUMPI PUSH2 0x100 DUP1 DUP4 SLOAD DIV MUL DUP4 MSTORE SWAP2 PUSH1 0x20 ADD SWAP2 PUSH2 0x2211 JUMP JUMPDEST DUP3 ADD SWAP2 SWAP1 PUSH1 0x0 MSTORE PUSH1 0x20 PUSH1 0x0 KECCAK256 SWAP1 JUMPDEST DUP2 SLOAD DUP2 MSTORE SWAP1 PUSH1 0x1 ADD SWAP1 PUSH1 0x20 ADD DUP1 DUP4 GT PUSH2 0x21F4 JUMPI DUP3 SWAP1 SUB PUSH1 0x1F AND DUP3 ADD SWAP2 JUMPDEST POP POP POP POP POP DUP2 JUMP JUMPDEST PUSH1 0x0 PUSH1 0x8 PUSH1 0x0 DUP4 PUSH20 0xFFFFFFFFFFFFFFFFFFFFFFFFFFFFFFFFFFFFFFFF AND PUSH20 0xFFFFFFFFFFFFFFFFFFFFFFFFFFFFFFFFFFFFFFFF AND DUP2 MSTORE PUSH1 0x20 ADD SWAP1 DUP2 MSTORE PUSH1 0x20 ADD PUSH1 0x0 KECCAK256 SLOAD SWAP1 POP SWAP2 SWAP1 POP JUMP JUMPDEST DUP2 PUSH1 0x0 PUSH1 0x5 DUP2 LT ISZERO ISZERO PUSH2 0x2271 JUMPI INVALID JUMPDEST PUSH1 0x20 MUL ADD MLOAD PUSH1 0xE PUSH1 0x0 DUP4 DUP2 MSTORE PUSH1 0x20 ADD SWAP1 DUP2 MSTORE PUSH1 0x20 ADD PUSH1 0x0 KECCAK256 PUSH1 0x0 ADD DUP2 SWAP1 SSTORE POP DUP2 PUSH1 0x1 PUSH1 0x5 DUP2 LT ISZERO ISZERO PUSH2 0x229F JUMPI INVALID JUMPDEST PUSH1 0x20 MUL ADD MLOAD PUSH1 0xE PUSH1 0x0 DUP4 DUP2 MSTORE PUSH1 0x20 ADD SWAP1 DUP2 MSTORE PUSH1 0x20 ADD PUSH1 0x0 KECCAK256 PUSH1 0x1 ADD DUP2 SWAP1 SSTORE POP DUP2 PUSH1 0x2 PUSH1 0x5 DUP2 LT ISZERO ISZERO PUSH2 0x22CD JUMPI INVALID JUMPDEST PUSH1 0x20 MUL ADD MLOAD PUSH1 0xE PUSH1 0x0 DUP4 DUP2 MSTORE PUSH1 0x20 ADD SWAP1 DUP2 MSTORE PUSH1 0x20 ADD PUSH1 0x0 KECCAK256 PUSH1 0x2 ADD DUP2 SWAP1 SSTORE POP DUP2 PUSH1 0x3 PUSH1 0x5 DUP2 LT ISZERO ISZERO PUSH2 0x22FB JUMPI INVALID JUMPDEST PUSH1 0x20 MUL ADD MLOAD PUSH1 0xE PUSH1 0x0 DUP4 DUP2 MSTORE PUSH1 0x20 ADD SWAP1 DUP2 MSTORE PUSH1 0x20 ADD PUSH1 0x0 KECCAK256 PUSH1 0x3 ADD DUP2 SWAP1 SSTORE POP DUP2 PUSH1 0x4 PUSH1 0x5 DUP2 LT ISZERO ISZERO PUSH2 0x2329 JUMPI INVALID JUMPDEST PUSH1 0x20 MUL ADD MLOAD PUSH1 0xE PUSH1 0x0 DUP4 DUP2 MSTORE PUSH1 0x20 ADD SWAP1 DUP2 MSTORE PUSH1 0x20 ADD PUSH1 0x0 KECCAK256 PUSH1 0x4 ADD DUP2 SWAP1 SSTORE POP DUP1 PUSH32 0xD6A9D6C14161D8C56723655977D492BA9FA8D695C08F3981BD1462B81480AF53 DUP4 PUSH1 0x40 MLOAD PUSH2 0x2378 SWAP2 SWAP1 PUSH2 0x3E12 JUMP JUMPDEST PUSH1 0x40 MLOAD DUP1 SWAP2 SUB SWAP1 LOG2 POP POP JUMP JUMPDEST PUSH1 0x0 PUSH20 0xFFFFFFFFFFFFFFFFFFFFFFFFFFFFFFFFFFFFFFFF AND DUP4 PUSH20 0xFFFFFFFFFFFFFFFFFFFFFFFFFFFFFFFFFFFFFFFF AND EQ ISZERO ISZERO ISZERO PUSH2 0x23F6 JUMPI PUSH1 0x40 MLOAD PUSH32 0x8C379A000000000000000000000000000000000000000000000000000000000 DUP2 MSTORE PUSH1 0x4 ADD PUSH2 0x23ED SWAP1 PUSH2 0x3FBE JUMP JUMPDEST PUSH1 0x40 MLOAD DUP1 SWAP2 SUB SWAP1 REVERT JUMPDEST PUSH1 0x0 PUSH2 0x242D PUSH8 0xDE0B6B3A7640000 PUSH2 0x241F PUSH8 0xDE0B6B3A7640000 DUP6 PUSH2 0x2AC7 SWAP1 SWAP2 SWAP1 PUSH4 0xFFFFFFFF AND JUMP JUMPDEST PUSH2 0x2ADD SWAP1 SWAP2 SWAP1 PUSH4 0xFFFFFFFF AND JUMP JUMPDEST SWAP1 POP DUP1 DUP3 EQ ISZERO ISZERO PUSH2 0x2473 JUMPI PUSH1 0x40 MLOAD PUSH32 0x8C379A000000000000000000000000000000000000000000000000000000000 DUP2 MSTORE PUSH1 0x4 ADD PUSH2 0x246A SWAP1 PUSH2 0x3EFE JUMP JUMPDEST PUSH1 0x40 MLOAD DUP1 SWAP2 SUB SWAP1 REVERT JUMPDEST PUSH2 0x247E DUP5 DUP5 DUP5 PUSH2 0x2B15 JUMP JUMPDEST DUP3 DUP5 PUSH20 0xFFFFFFFFFFFFFFFFFFFFFFFFFFFFFFFFFFFFFFFF AND PUSH1 0x0 PUSH20 0xFFFFFFFFFFFFFFFFFFFFFFFFFFFFFFFFFFFFFFFF AND PUSH32 0x30B1B5FBDEDAF2927859653636CB63AB6ABD50B621AF19A175F1490CB85118A3 DUP6 PUSH1 0x40 MLOAD PUSH2 0x24DD SWAP2 SWAP1 PUSH2 0x40DE JUMP JUMPDEST PUSH1 0x40 MLOAD DUP1 SWAP2 SUB SWAP1 LOG4 POP POP POP POP JUMP JUMPDEST PUSH1 0x0 DUP2 DUP4 ADD SWAP1 POP DUP3 DUP2 LT ISZERO ISZERO ISZERO PUSH2 0x24FE JUMPI INVALID JUMPDEST DUP1 SWAP1 POP SWAP3 SWAP2 POP POP JUMP JUMPDEST DUP2 PUSH1 0x0 PUSH1 0xD PUSH1 0x0 DUP4 DUP2 MSTORE PUSH1 0x20 ADD SWAP1 DUP2 MSTORE PUSH1 0x20 ADD PUSH1 0x0 KECCAK256 SLOAD GT ISZERO ISZERO PUSH2 0x2560 JUMPI PUSH1 0x40 MLOAD PUSH32 0x8C379A000000000000000000000000000000000000000000000000000000000 DUP2 MSTORE PUSH1 0x4 ADD PUSH2 0x2557 SWAP1 PUSH2 0x3FDE JUMP JUMPDEST PUSH1 0x40 MLOAD DUP1 SWAP2 SUB SWAP1 REVERT JUMPDEST PUSH1 0x0 PUSH2 0x2597 PUSH8 0xDE0B6B3A7640000 PUSH2 0x2589 PUSH8 0xDE0B6B3A7640000 DUP7 PUSH2 0x2AC7 SWAP1 SWAP2 SWAP1 PUSH4 0xFFFFFFFF AND JUMP JUMPDEST PUSH2 0x2ADD SWAP1 SWAP2 SWAP1 PUSH4 0xFFFFFFFF AND JUMP JUMPDEST SWAP1 POP DUP1 DUP4 EQ ISZERO ISZERO PUSH2 0x25DD JUMPI PUSH1 0x40 MLOAD PUSH32 0x8C379A000000000000000000000000000000000000000000000000000000000 DUP2 MSTORE PUSH1 0x4 ADD PUSH2 0x25D4 SWAP1 PUSH2 0x405E JUMP JUMPDEST PUSH1 0x40 MLOAD DUP1 SWAP2 SUB SWAP1 REVERT JUMPDEST PUSH2 0x25E8 DUP6 DUP6 DUP6 PUSH2 0x2C35 JUMP JUMPDEST DUP4 PUSH1 0x0 PUSH20 0xFFFFFFFFFFFFFFFFFFFFFFFFFFFFFFFFFFFFFFFF AND DUP7 PUSH20 0xFFFFFFFFFFFFFFFFFFFFFFFFFFFFFFFFFFFFFFFF AND PUSH32 0x30B1B5FBDEDAF2927859653636CB63AB6ABD50B621AF19A175F1490CB85118A3 DUP7 PUSH1 0x40 MLOAD PUSH2 0x2647 SWAP2 SWAP1 PUSH2 0x40DE JUMP JUMPDEST PUSH1 0x40 MLOAD DUP1 SWAP2 SUB SWAP1 LOG4 POP POP POP POP POP JUMP JUMPDEST PUSH1 0x0 DUP3 DUP3 GT ISZERO ISZERO ISZERO PUSH2 0x2664 JUMPI INVALID JUMPDEST DUP2 DUP4 SUB SWAP1 POP SWAP3 SWAP2 POP POP JUMP JUMPDEST PUSH2 0x2678 DUP3 PUSH2 0xF33 JUMP JUMPDEST ISZERO PUSH2 0x26A2 JUMPI PUSH1 0x0 DUP1 SWAP1 SLOAD SWAP1 PUSH2 0x100 EXP SWAP1 DIV PUSH20 0xFFFFFFFFFFFFFFFFFFFFFFFFFFFFFFFFFFFFFFFF AND SWAP3 POP JUMPDEST PUSH1 0x0 PUSH2 0x26D9 PUSH8 0xDE0B6B3A7640000 PUSH2 0x26CB PUSH8 0xDE0B6B3A7640000 DUP6 PUSH2 0x2AC7 SWAP1 SWAP2 SWAP1 PUSH4 0xFFFFFFFF AND JUMP JUMPDEST PUSH2 0x2ADD SWAP1 SWAP2 SWAP1 PUSH4 0xFFFFFFFF AND JUMP JUMPDEST SWAP1 POP DUP1 DUP3 EQ ISZERO ISZERO PUSH2 0x271F JUMPI PUSH1 0x40 MLOAD PUSH32 0x8C379A000000000000000000000000000000000000000000000000000000000 DUP2 MSTORE PUSH1 0x4 ADD PUSH2 0x2716 SWAP1 PUSH2 0x3FFE JUMP JUMPDEST PUSH1 0x40 MLOAD DUP1 SWAP2 SUB SWAP1 REVERT JUMPDEST PUSH2 0x272A DUP6 DUP5 DUP4 PUSH2 0x2C35 JUMP JUMPDEST PUSH2 0x2735 DUP5 DUP5 DUP4 PUSH2 0x2B15 JUMP JUMPDEST DUP3 DUP5 PUSH20 0xFFFFFFFFFFFFFFFFFFFFFFFFFFFFFFFFFFFFFFFF AND DUP7 PUSH20 0xFFFFFFFFFFFFFFFFFFFFFFFFFFFFFFFFFFFFFFFF AND PUSH32 0x30B1B5FBDEDAF2927859653636CB63AB6ABD50B621AF19A175F1490CB85118A3 DUP5 PUSH1 0x40 MLOAD PUSH2 0x2793 SWAP2 SWAP1 PUSH2 0x40DE JUMP JUMPDEST PUSH1 0x40 MLOAD DUP1 SWAP2 SUB SWAP1 LOG4 POP POP POP POP POP JUMP JUMPDEST DUP3 PUSH1 0x0 PUSH1 0xD PUSH1 0x0 DUP4 DUP2 MSTORE PUSH1 0x20 ADD SWAP1 DUP2 MSTORE PUSH1 0x20 ADD PUSH1 0x0 KECCAK256 SLOAD GT ISZERO ISZERO PUSH2 0x27FB JUMPI PUSH1 0x40 MLOAD PUSH32 0x8C379A000000000000000000000000000000000000000000000000000000000 DUP2 MSTORE PUSH1 0x4 ADD PUSH2 0x27F2 SWAP1 PUSH2 0x3FDE JUMP JUMPDEST PUSH1 0x40 MLOAD DUP1 SWAP2 SUB SWAP1 REVERT JUMPDEST DUP3 PUSH1 0xC PUSH1 0x0 DUP9 PUSH20 0xFFFFFFFFFFFFFFFFFFFFFFFFFFFFFFFFFFFFFFFF AND PUSH20 0xFFFFFFFFFFFFFFFFFFFFFFFFFFFFFFFFFFFFFFFF AND DUP2 MSTORE PUSH1 0x20 ADD SWAP1 DUP2 MSTORE PUSH1 0x20 ADD PUSH1 0x0 KECCAK256 PUSH1 0x0 DUP7 DUP2 MSTORE PUSH1 0x20 ADD SWAP1 DUP2 MSTORE PUSH1 0x20 ADD PUSH1 0x0 KECCAK256 SLOAD LT ISZERO ISZERO ISZERO PUSH2 0x2890 JUMPI PUSH1 0x40 MLOAD PUSH32 0x8C379A000000000000000000000000000000000000000000000000000000000 DUP2 MSTORE PUSH1 0x4 ADD PUSH2 0x2887 SWAP1 PUSH2 0x409E JUMP JUMPDEST PUSH1 0x40 MLOAD DUP1 SWAP2 SUB SWAP1 REVERT JUMPDEST PUSH1 0x0 PUSH20 0xFFFFFFFFFFFFFFFFFFFFFFFFFFFFFFFFFFFFFFFF AND DUP6 PUSH20 0xFFFFFFFFFFFFFFFFFFFFFFFFFFFFFFFFFFFFFFFF AND EQ ISZERO ISZERO ISZERO PUSH2 0x2902 JUMPI PUSH1 0x40 MLOAD PUSH32 0x8C379A000000000000000000000000000000000000000000000000000000000 DUP2 MSTORE PUSH1 0x4 ADD PUSH2 0x28F9 SWAP1 PUSH2 0x3F1E JUMP JUMPDEST PUSH1 0x40 MLOAD DUP1 SWAP2 SUB SWAP1 REVERT JUMPDEST PUSH2 0x290B DUP5 PUSH2 0xF33 JUMP JUMPDEST ISZERO PUSH2 0x2935 JUMPI PUSH1 0x0 DUP1 SWAP1 SLOAD SWAP1 PUSH2 0x100 EXP SWAP1 DIV PUSH20 0xFFFFFFFFFFFFFFFFFFFFFFFFFFFFFFFFFFFFFFFF AND SWAP5 POP JUMPDEST PUSH2 0x2941 DUP7 DUP7 DUP7 DUP7 PUSH2 0x266F JUMP JUMPDEST PUSH2 0x2960 DUP6 PUSH20 0xFFFFFFFFFFFFFFFFFFFFFFFFFFFFFFFFFFFFFFFF AND PUSH2 0x2DEA JUMP JUMPDEST ISZERO PUSH2 0x2ABF JUMPI PUSH1 0x0 DUP6 PUSH20 0xFFFFFFFFFFFFFFFFFFFFFFFFFFFFFFFFFFFFFFFF AND PUSH4 0x82CF5AFA CALLER DUP10 DUP9 DUP9 DUP9 PUSH1 0x40 MLOAD DUP7 PUSH4 0xFFFFFFFF AND PUSH29 0x100000000000000000000000000000000000000000000000000000000 MUL DUP2 MSTORE PUSH1 0x4 ADD PUSH2 0x29C4 SWAP6 SWAP5 SWAP4 SWAP3 SWAP2 SWAP1 PUSH2 0x3D96 JUMP JUMPDEST PUSH1 0x20 PUSH1 0x40 MLOAD DUP1 DUP4 SUB DUP2 PUSH1 0x0 DUP8 DUP1 EXTCODESIZE ISZERO DUP1 ISZERO PUSH2 0x29DE JUMPI PUSH1 0x0 DUP1 REVERT JUMPDEST POP GAS CALL ISZERO DUP1 ISZERO PUSH2 0x29F2 JUMPI RETURNDATASIZE PUSH1 0x0 DUP1 RETURNDATACOPY RETURNDATASIZE PUSH1 0x0 REVERT JUMPDEST POP POP POP POP PUSH1 0x40 MLOAD RETURNDATASIZE PUSH1 0x1F NOT PUSH1 0x1F DUP3 ADD AND DUP3 ADD DUP1 PUSH1 0x40 MSTORE POP PUSH2 0x2A16 SWAP2 SWAP1 DUP2 ADD SWAP1 PUSH2 0x3750 JUMP JUMPDEST SWAP1 POP PUSH4 0x82CF5AFA PUSH29 0x100000000000000000000000000000000000000000000000000000000 MUL PUSH28 0xFFFFFFFFFFFFFFFFFFFFFFFFFFFFFFFFFFFFFFFFFFFFFFFFFFFFFFFF NOT AND DUP2 PUSH28 0xFFFFFFFFFFFFFFFFFFFFFFFFFFFFFFFFFFFFFFFFFFFFFFFFFFFFFFFF NOT AND EQ ISZERO ISZERO PUSH2 0x2ABD JUMPI PUSH1 0x40 MLOAD PUSH32 0x8C379A000000000000000000000000000000000000000000000000000000000 DUP2 MSTORE PUSH1 0x4 ADD PUSH2 0x2AB4 SWAP1 PUSH2 0x401E JUMP JUMPDEST PUSH1 0x40 MLOAD DUP1 SWAP2 SUB SWAP1 REVERT JUMPDEST POP JUMPDEST POP POP POP POP POP POP JUMP JUMPDEST PUSH1 0x0 DUP2 DUP4 DUP2 ISZERO ISZERO PUSH2 0x2AD4 JUMPI INVALID JUMPDEST DIV SWAP1 POP SWAP3 SWAP2 POP POP JUMP JUMPDEST PUSH1 0x0 DUP1 DUP4 EQ ISZERO PUSH2 0x2AF0 JUMPI PUSH1 0x0 SWAP1 POP PUSH2 0x2B0F JUMP JUMPDEST DUP2 DUP4 MUL SWAP1 POP DUP2 DUP4 DUP3 DUP2 ISZERO ISZERO PUSH2 0x2B01 JUMPI INVALID JUMPDEST DIV EQ ISZERO ISZERO PUSH2 0x2B0B JUMPI INVALID JUMPDEST DUP1 SWAP1 POP JUMPDEST SWAP3 SWAP2 POP POP JUMP JUMPDEST PUSH1 0x0 PUSH1 0xC PUSH1 0x0 DUP6 PUSH20 0xFFFFFFFFFFFFFFFFFFFFFFFFFFFFFFFFFFFFFFFF AND PUSH20 0xFFFFFFFFFFFFFFFFFFFFFFFFFFFFFFFFFFFFFFFF AND DUP2 MSTORE PUSH1 0x20 ADD SWAP1 DUP2 MSTORE PUSH1 0x20 ADD PUSH1 0x0 KECCAK256 PUSH1 0x0 DUP5 DUP2 MSTORE PUSH1 0x20 ADD SWAP1 DUP2 MSTORE PUSH1 0x20 ADD PUSH1 0x0 KECCAK256 SLOAD EQ ISZERO PUSH2 0x2B79 JUMPI PUSH2 0x2B78 DUP4 DUP4 PUSH2 0x2E05 JUMP JUMPDEST JUMPDEST PUSH2 0x2BDC DUP2 PUSH1 0xC PUSH1 0x0 DUP7 PUSH20 0xFFFFFFFFFFFFFFFFFFFFFFFFFFFFFFFFFFFFFFFF AND PUSH20 0xFFFFFFFFFFFFFFFFFFFFFFFFFFFFFFFFFFFFFFFF AND DUP2 MSTORE PUSH1 0x20 ADD SWAP1 DUP2 MSTORE PUSH1 0x20 ADD PUSH1 0x0 KECCAK256 PUSH1 0x0 DUP6 DUP2 MSTORE PUSH1 0x20 ADD SWAP1 DUP2 MSTORE PUSH1 0x20 ADD PUSH1 0x0 KECCAK256 SLOAD PUSH2 0x24EB SWAP1 SWAP2 SWAP1 PUSH4 0xFFFFFFFF AND JUMP JUMPDEST PUSH1 0xC PUSH1 0x0 DUP6 PUSH20 0xFFFFFFFFFFFFFFFFFFFFFFFFFFFFFFFFFFFFFFFF AND PUSH20 0xFFFFFFFFFFFFFFFFFFFFFFFFFFFFFFFFFFFFFFFF AND DUP2 MSTORE PUSH1 0x20 ADD SWAP1 DUP2 MSTORE PUSH1 0x20 ADD PUSH1 0x0 KECCAK256 PUSH1 0x0 DUP5 DUP2 MSTORE PUSH1 0x20 ADD SWAP1 DUP2 MSTORE PUSH1 0x20 ADD PUSH1 0x0 KECCAK256 DUP2 SWAP1 SSTORE POP POP POP POP JUMP JUMPDEST DUP1 PUSH1 0xC PUSH1 0x0 DUP6 PUSH20 0xFFFFFFFFFFFFFFFFFFFFFFFFFFFFFFFFFFFFFFFF AND PUSH20 0xFFFFFFFFFFFFFFFFFFFFFFFFFFFFFFFFFFFFFFFF AND DUP2 MSTORE PUSH1 0x20 ADD SWAP1 DUP2 MSTORE PUSH1 0x20 ADD PUSH1 0x0 KECCAK256 PUSH1 0x0 DUP5 DUP2 MSTORE PUSH1 0x20 ADD SWAP1 DUP2 MSTORE PUSH1 0x20 ADD PUSH1 0x0 KECCAK256 SLOAD LT ISZERO ISZERO ISZERO PUSH2 0x2CCA JUMPI PUSH1 0x40 MLOAD PUSH32 0x8C379A000000000000000000000000000000000000000000000000000000000 DUP2 MSTORE PUSH1 0x4 ADD PUSH2 0x2CC1 SWAP1 PUSH2 0x3F3E JUMP JUMPDEST PUSH1 0x40 MLOAD DUP1 SWAP2 SUB SWAP1 REVERT JUMPDEST PUSH2 0x2D2D DUP2 PUSH1 0xC PUSH1 0x0 DUP7 PUSH20 0xFFFFFFFFFFFFFFFFFFFFFFFFFFFFFFFFFFFFFFFF AND PUSH20 0xFFFFFFFFFFFFFFFFFFFFFFFFFFFFFFFFFFFFFFFF AND DUP2 MSTORE PUSH1 0x20 ADD SWAP1 DUP2 MSTORE PUSH1 0x20 ADD PUSH1 0x0 KECCAK256 PUSH1 0x0 DUP6 DUP2 MSTORE PUSH1 0x20 ADD SWAP1 DUP2 MSTORE PUSH1 0x20 ADD PUSH1 0x0 KECCAK256 SLOAD PUSH2 0x2656 SWAP1 SWAP2 SWAP1 PUSH4 0xFFFFFFFF AND JUMP JUMPDEST PUSH1 0xC PUSH1 0x0 DUP6 PUSH20 0xFFFFFFFFFFFFFFFFFFFFFFFFFFFFFFFFFFFFFFFF AND PUSH20 0xFFFFFFFFFFFFFFFFFFFFFFFFFFFFFFFFFFFFFFFF AND DUP2 MSTORE PUSH1 0x20 ADD SWAP1 DUP2 MSTORE PUSH1 0x20 ADD PUSH1 0x0 KECCAK256 PUSH1 0x0 DUP5 DUP2 MSTORE PUSH1 0x20 ADD SWAP1 DUP2 MSTORE PUSH1 0x20 ADD PUSH1 0x0 KECCAK256 DUP2 SWAP1 SSTORE POP PUSH1 0x0 PUSH1 0xC PUSH1 0x0 DUP6 PUSH20 0xFFFFFFFFFFFFFFFFFFFFFFFFFFFFFFFFFFFFFFFF AND PUSH20 0xFFFFFFFFFFFFFFFFFFFFFFFFFFFFFFFFFFFFFFFF AND DUP2 MSTORE PUSH1 0x20 ADD SWAP1 DUP2 MSTORE PUSH1 0x20 ADD PUSH1 0x0 KECCAK256 PUSH1 0x0 DUP5 DUP2 MSTORE PUSH1 0x20 ADD SWAP1 DUP2 MSTORE PUSH1 0x20 ADD PUSH1 0x0 KECCAK256 SLOAD EQ ISZERO PUSH2 0x2DE5 JUMPI PUSH2 0x2DE4 DUP4 DUP4 PUSH2 0x2FA2 JUMP JUMPDEST JUMPDEST POP POP POP JUMP JUMPDEST PUSH1 0x0 DUP1 DUP3 EXTCODESIZE SWAP1 POP PUSH1 0x0 DUP2 GT ISZERO PUSH2 0x2DFF JUMPI PUSH1 0x1 SWAP2 POP JUMPDEST POP SWAP2 SWAP1 POP JUMP JUMPDEST PUSH2 0x2E58 PUSH1 0x1 PUSH1 0x8 PUSH1 0x0 DUP6 PUSH20 0xFFFFFFFFFFFFFFFFFFFFFFFFFFFFFFFFFFFFFFFF AND PUSH20 0xFFFFFFFFFFFFFFFFFFFFFFFFFFFFFFFFFFFFFFFF AND DUP2 MSTORE PUSH1 0x20 ADD SWAP1 DUP2 MSTORE PUSH1 0x20 ADD PUSH1 0x0 KECCAK256 SLOAD PUSH2 0x24EB SWAP1 SWAP2 SWAP1 PUSH4 0xFFFFFFFF AND JUMP JUMPDEST PUSH1 0x8 PUSH1 0x0 DUP5 PUSH20 0xFFFFFFFFFFFFFFFFFFFFFFFFFFFFFFFFFFFFFFFF AND PUSH20 0xFFFFFFFFFFFFFFFFFFFFFFFFFFFFFFFFFFFFFFFF AND DUP2 MSTORE PUSH1 0x20 ADD SWAP1 DUP2 MSTORE PUSH1 0x20 ADD PUSH1 0x0 KECCAK256 DUP2 SWAP1 SSTORE POP PUSH1 0xA PUSH1 0x0 DUP4 PUSH20 0xFFFFFFFFFFFFFFFFFFFFFFFFFFFFFFFFFFFFFFFF AND PUSH20 0xFFFFFFFFFFFFFFFFFFFFFFFFFFFFFFFFFFFFFFFF AND DUP2 MSTORE PUSH1 0x20 ADD SWAP1 DUP2 MSTORE PUSH1 0x20 ADD PUSH1 0x0 KECCAK256 DUP2 SWAP1 DUP1 PUSH1 0x1 DUP2 SLOAD ADD DUP1 DUP3 SSTORE DUP1 SWAP2 POP POP SWAP1 PUSH1 0x1 DUP3 SUB SWAP1 PUSH1 0x0 MSTORE PUSH1 0x20 PUSH1 0x0 KECCAK256 ADD PUSH1 0x0 SWAP1 SWAP2 SWAP3 SWAP1 SWAP2 SWAP1 SWAP2 POP SSTORE POP PUSH1 0x1 PUSH1 0xA PUSH1 0x0 DUP5 PUSH20 0xFFFFFFFFFFFFFFFFFFFFFFFFFFFFFFFFFFFFFFFF AND PUSH20 0xFFFFFFFFFFFFFFFFFFFFFFFFFFFFFFFFFFFFFFFF AND DUP2 MSTORE PUSH1 0x20 ADD SWAP1 DUP2 MSTORE PUSH1 0x20 ADD PUSH1 0x0 KECCAK256 DUP1 SLOAD SWAP1 POP SUB PUSH1 0xB PUSH1 0x0 DUP5 PUSH20 0xFFFFFFFFFFFFFFFFFFFFFFFFFFFFFFFFFFFFFFFF AND PUSH20 0xFFFFFFFFFFFFFFFFFFFFFFFFFFFFFFFFFFFFFFFF AND DUP2 MSTORE PUSH1 0x20 ADD SWAP1 DUP2 MSTORE PUSH1 0x20 ADD PUSH1 0x0 KECCAK256 PUSH1 0x0 DUP4 DUP2 MSTORE PUSH1 0x20 ADD SWAP1 DUP2 MSTORE PUSH1 0x20 ADD PUSH1 0x0 KECCAK256 DUP2 SWAP1 SSTORE POP POP POP JUMP JUMPDEST PUSH2 0x2FF5 PUSH1 0x1 PUSH1 0x8 PUSH1 0x0 DUP6 PUSH20 0xFFFFFFFFFFFFFFFFFFFFFFFFFFFFFFFFFFFFFFFF AND PUSH20 0xFFFFFFFFFFFFFFFFFFFFFFFFFFFFFFFFFFFFFFFF AND DUP2 MSTORE PUSH1 0x20 ADD SWAP1 DUP2 MSTORE PUSH1 0x20 ADD PUSH1 0x0 KECCAK256 SLOAD PUSH2 0x2656 SWAP1 SWAP2 SWAP1 PUSH4 0xFFFFFFFF AND JUMP JUMPDEST PUSH1 0x8 PUSH1 0x0 DUP5 PUSH20 0xFFFFFFFFFFFFFFFFFFFFFFFFFFFFFFFFFFFFFFFF AND PUSH20 0xFFFFFFFFFFFFFFFFFFFFFFFFFFFFFFFFFFFFFFFF AND DUP2 MSTORE PUSH1 0x20 ADD SWAP1 DUP2 MSTORE PUSH1 0x20 ADD PUSH1 0x0 KECCAK256 DUP2 SWAP1 SSTORE POP PUSH1 0x0 PUSH1 0xB PUSH1 0x0 DUP5 PUSH20 0xFFFFFFFFFFFFFFFFFFFFFFFFFFFFFFFFFFFFFFFF AND PUSH20 0xFFFFFFFFFFFFFFFFFFFFFFFFFFFFFFFFFFFFFFFF AND DUP2 MSTORE PUSH1 0x20 ADD SWAP1 DUP2 MSTORE PUSH1 0x20 ADD PUSH1 0x0 KECCAK256 PUSH1 0x0 DUP4 DUP2 MSTORE PUSH1 0x20 ADD SWAP1 DUP2 MSTORE PUSH1 0x20 ADD PUSH1 0x0 KECCAK256 SLOAD SWAP1 POP PUSH1 0x0 PUSH1 0x1 PUSH1 0xA PUSH1 0x0 DUP7 PUSH20 0xFFFFFFFFFFFFFFFFFFFFFFFFFFFFFFFFFFFFFFFF AND PUSH20 0xFFFFFFFFFFFFFFFFFFFFFFFFFFFFFFFFFFFFFFFF AND DUP2 MSTORE PUSH1 0x20 ADD SWAP1 DUP2 MSTORE PUSH1 0x20 ADD PUSH1 0x0 KECCAK256 DUP1 SLOAD SWAP1 POP SUB SWAP1 POP DUP2 DUP2 EQ ISZERO ISZERO PUSH2 0x31ED JUMPI PUSH1 0x0 PUSH1 0xA PUSH1 0x0 DUP7 PUSH20 0xFFFFFFFFFFFFFFFFFFFFFFFFFFFFFFFFFFFFFFFF AND PUSH20 0xFFFFFFFFFFFFFFFFFFFFFFFFFFFFFFFFFFFFFFFF AND DUP2 MSTORE PUSH1 0x20 ADD SWAP1 DUP2 MSTORE PUSH1 0x20 ADD PUSH1 0x0 KECCAK256 DUP3 DUP2 SLOAD DUP2 LT ISZERO ISZERO PUSH2 0x312E JUMPI INVALID JUMPDEST SWAP1 PUSH1 0x0 MSTORE PUSH1 0x20 PUSH1 0x0 KECCAK256 ADD SLOAD SWAP1 POP DUP1 PUSH1 0xA PUSH1 0x0 DUP8 PUSH20 0xFFFFFFFFFFFFFFFFFFFFFFFFFFFFFFFFFFFFFFFF AND PUSH20 0xFFFFFFFFFFFFFFFFFFFFFFFFFFFFFFFFFFFFFFFF AND DUP2 MSTORE PUSH1 0x20 ADD SWAP1 DUP2 MSTORE PUSH1 0x20 ADD PUSH1 0x0 KECCAK256 DUP5 DUP2 SLOAD DUP2 LT ISZERO ISZERO PUSH2 0x3188 JUMPI INVALID JUMPDEST SWAP1 PUSH1 0x0 MSTORE PUSH1 0x20 PUSH1 0x0 KECCAK256 ADD DUP2 SWAP1 SSTORE POP DUP3 PUSH1 0xB PUSH1 0x0 DUP8 PUSH20 0xFFFFFFFFFFFFFFFFFFFFFFFFFFFFFFFFFFFFFFFF AND PUSH20 0xFFFFFFFFFFFFFFFFFFFFFFFFFFFFFFFFFFFFFFFF AND DUP2 MSTORE PUSH1 0x20 ADD SWAP1 DUP2 MSTORE PUSH1 0x20 ADD PUSH1 0x0 KECCAK256 PUSH1 0x0 DUP7 DUP2 MSTORE PUSH1 0x20 ADD SWAP1 DUP2 MSTORE PUSH1 0x20 ADD PUSH1 0x0 KECCAK256 DUP2 SWAP1 SSTORE POP POP JUMPDEST PUSH1 0xA PUSH1 0x0 DUP6 PUSH20 0xFFFFFFFFFFFFFFFFFFFFFFFFFFFFFFFFFFFFFFFF AND PUSH20 0xFFFFFFFFFFFFFFFFFFFFFFFFFFFFFFFFFFFFFFFF AND DUP2 MSTORE PUSH1 0x20 ADD SWAP1 DUP2 MSTORE PUSH1 0x20 ADD PUSH1 0x0 KECCAK256 DUP1 SLOAD DUP1 ISZERO ISZERO PUSH2 0x3237 JUMPI INVALID JUMPDEST PUSH1 0x1 SWAP1 SUB DUP2 DUP2 SWAP1 PUSH1 0x0 MSTORE PUSH1 0x20 PUSH1 0x0 KECCAK256 ADD PUSH1 0x0 SWAP1 SSTORE SWAP1 SSTORE POP POP POP POP JUMP JUMPDEST DUP3 DUP1 SLOAD PUSH1 0x1 DUP2 PUSH1 0x1 AND ISZERO PUSH2 0x100 MUL SUB AND PUSH1 0x2 SWAP1 DIV SWAP1 PUSH1 0x0 MSTORE PUSH1 0x20 PUSH1 0x0 KECCAK256 SWAP1 PUSH1 0x1F ADD PUSH1 0x20 SWAP1 DIV DUP2 ADD SWAP3 DUP3 PUSH1 0x1F LT PUSH2 0x3294 JUMPI DUP1 MLOAD PUSH1 0xFF NOT AND DUP4 DUP1 ADD OR DUP6 SSTORE PUSH2 0x32C2 JUMP JUMPDEST DUP3 DUP1 ADD PUSH1 0x1 ADD DUP6 SSTORE DUP3 ISZERO PUSH2 0x32C2 JUMPI SWAP2 DUP3 ADD JUMPDEST DUP3 DUP2 GT ISZERO PUSH2 0x32C1 JUMPI DUP3 MLOAD DUP3 SSTORE SWAP2 PUSH1 0x20 ADD SWAP2 SWAP1 PUSH1 0x1 ADD SWAP1 PUSH2 0x32A6 JUMP JUMPDEST JUMPDEST POP SWAP1 POP PUSH2 0x32CF SWAP2 SWAP1 PUSH2 0x32F6 JUMP JUMPDEST POP SWAP1 JUMP JUMPDEST PUSH1 0xA0 PUSH1 0x40 MLOAD SWAP1 DUP2 ADD PUSH1 0x40 MSTORE DUP1 PUSH1 0x5 SWAP1 PUSH1 0x20 DUP3 MUL DUP1 CODESIZE DUP4 CODECOPY DUP1 DUP3 ADD SWAP2 POP POP SWAP1 POP POP SWAP1 JUMP JUMPDEST PUSH2 0x3318 SWAP2 SWAP1 JUMPDEST DUP1 DUP3 GT ISZERO PUSH2 0x3314 JUMPI PUSH1 0x0 DUP2 PUSH1 0x0 SWAP1 SSTORE POP PUSH1 0x1 ADD PUSH2 0x32FC JUMP JUMPDEST POP SWAP1 JUMP JUMPDEST SWAP1 JUMP JUMPDEST PUSH1 0x0 PUSH2 0x3327 DUP3 CALLDATALOAD PUSH2 0x4246 JUMP JUMPDEST SWAP1 POP SWAP3 SWAP2 POP POP JUMP JUMPDEST PUSH1 0x0 DUP2 SWAP1 POP DUP3 PUSH1 0x20 PUSH1 0x5 MUL DUP3 ADD GT ISZERO PUSH2 0x3347 JUMPI PUSH1 0x0 DUP1 REVERT JUMPDEST SWAP3 SWAP2 POP POP JUMP JUMPDEST PUSH1 0x0 PUSH2 0x3359 DUP3 CALLDATALOAD PUSH2 0x4258 JUMP JUMPDEST SWAP1 POP SWAP3 SWAP2 POP POP JUMP JUMPDEST PUSH1 0x0 PUSH2 0x336D DUP3 CALLDATALOAD PUSH2 0x4264 JUMP JUMPDEST SWAP1 POP SWAP3 SWAP2 POP POP JUMP JUMPDEST PUSH1 0x0 PUSH2 0x3381 DUP3 MLOAD PUSH2 0x426E JUMP JUMPDEST SWAP1 POP SWAP3 SWAP2 POP POP JUMP JUMPDEST PUSH1 0x0 DUP1 DUP4 PUSH1 0x1F DUP5 ADD SLT ISZERO ISZERO PUSH2 0x339D JUMPI PUSH1 0x0 DUP1 REVERT JUMPDEST DUP3 CALLDATALOAD SWAP1 POP PUSH8 0xFFFFFFFFFFFFFFFF DUP2 GT ISZERO PUSH2 0x33B6 JUMPI PUSH1 0x0 DUP1 REVERT JUMPDEST PUSH1 0x20 DUP4 ADD SWAP2 POP DUP4 PUSH1 0x1 DUP3 MUL DUP4 ADD GT ISZERO PUSH2 0x33CE JUMPI PUSH1 0x0 DUP1 REVERT JUMPDEST SWAP3 POP SWAP3 SWAP1 POP JUMP JUMPDEST PUSH1 0x0 DUP3 PUSH1 0x1F DUP4 ADD SLT ISZERO ISZERO PUSH2 0x33E8 JUMPI PUSH1 0x0 DUP1 REVERT JUMPDEST DUP2 CALLDATALOAD PUSH2 0x33FB PUSH2 0x33F6 DUP3 PUSH2 0x4141 JUMP JUMPDEST PUSH2 0x4114 JUMP JUMPDEST SWAP2 POP DUP1 DUP3 MSTORE PUSH1 0x20 DUP4 ADD PUSH1 0x20 DUP4 ADD DUP6 DUP4 DUP4 ADD GT ISZERO PUSH2 0x3417 JUMPI PUSH1 0x0 DUP1 REVERT JUMPDEST PUSH2 0x3422 DUP4 DUP3 DUP5 PUSH2 0x42DA JUMP JUMPDEST POP POP POP SWAP3 SWAP2 POP POP JUMP JUMPDEST PUSH1 0x0 PUSH2 0x3437 DUP3 CALLDATALOAD PUSH2 0x429A JUMP JUMPDEST SWAP1 POP SWAP3 SWAP2 POP POP JUMP JUMPDEST PUSH1 0x0 PUSH1 0x20 DUP3 DUP5 SUB SLT ISZERO PUSH2 0x3451 JUMPI PUSH1 0x0 DUP1 REVERT JUMPDEST PUSH1 0x0 PUSH2 0x345F DUP5 DUP3 DUP6 ADD PUSH2 0x331B JUMP JUMPDEST SWAP2 POP POP SWAP3 SWAP2 POP POP JUMP JUMPDEST PUSH1 0x0 DUP1 PUSH1 0x40 DUP4 DUP6 SUB SLT ISZERO PUSH2 0x347B JUMPI PUSH1 0x0 DUP1 REVERT JUMPDEST PUSH1 0x0 PUSH2 0x3489 DUP6 DUP3 DUP7 ADD PUSH2 0x331B JUMP JUMPDEST SWAP3 POP POP PUSH1 0x20 PUSH2 0x349A DUP6 DUP3 DUP7 ADD PUSH2 0x331B JUMP JUMPDEST SWAP2 POP POP SWAP3 POP SWAP3 SWAP1 POP JUMP JUMPDEST PUSH1 0x0 DUP1 PUSH1 0x0 PUSH1 0x60 DUP5 DUP7 SUB SLT ISZERO PUSH2 0x34B9 JUMPI PUSH1 0x0 DUP1 REVERT JUMPDEST PUSH1 0x0 PUSH2 0x34C7 DUP7 DUP3 DUP8 ADD PUSH2 0x331B JUMP JUMPDEST SWAP4 POP POP PUSH1 0x20 PUSH2 0x34D8 DUP7 DUP3 DUP8 ADD PUSH2 0x331B JUMP JUMPDEST SWAP3 POP POP PUSH1 0x40 PUSH2 0x34E9 DUP7 DUP3 DUP8 ADD PUSH2 0x3361 JUMP JUMPDEST SWAP2 POP POP SWAP3 POP SWAP3 POP SWAP3 JUMP JUMPDEST PUSH1 0x0 DUP1 PUSH1 0x0 DUP1 PUSH1 0x80 DUP6 DUP8 SUB SLT ISZERO PUSH2 0x3509 JUMPI PUSH1 0x0 DUP1 REVERT JUMPDEST PUSH1 0x0 PUSH2 0x3517 DUP8 DUP3 DUP9 ADD PUSH2 0x331B JUMP JUMPDEST SWAP5 POP POP PUSH1 0x20 PUSH2 0x3528 DUP8 DUP3 DUP9 ADD PUSH2 0x331B JUMP JUMPDEST SWAP4 POP POP PUSH1 0x40 PUSH2 0x3539 DUP8 DUP3 DUP9 ADD PUSH2 0x3361 JUMP JUMPDEST SWAP3 POP POP PUSH1 0x60 PUSH2 0x354A DUP8 DUP3 DUP9 ADD PUSH2 0x342B JUMP JUMPDEST SWAP2 POP POP SWAP3 SWAP6 SWAP2 SWAP5 POP SWAP3 POP JUMP JUMPDEST PUSH1 0x0 DUP1 PUSH1 0x0 DUP1 PUSH1 0x0 DUP1 PUSH1 0xA0 DUP8 DUP10 SUB SLT ISZERO PUSH2 0x356F JUMPI PUSH1 0x0 DUP1 REVERT JUMPDEST PUSH1 0x0 PUSH2 0x357D DUP10 DUP3 DUP11 ADD PUSH2 0x331B JUMP JUMPDEST SWAP7 POP POP PUSH1 0x20 PUSH2 0x358E DUP10 DUP3 DUP11 ADD PUSH2 0x331B JUMP JUMPDEST SWAP6 POP POP PUSH1 0x40 PUSH2 0x359F DUP10 DUP3 DUP11 ADD PUSH2 0x3361 JUMP JUMPDEST SWAP5 POP POP PUSH1 0x60 PUSH2 0x35B0 DUP10 DUP3 DUP11 ADD PUSH2 0x342B JUMP JUMPDEST SWAP4 POP POP PUSH1 0x80 DUP8 ADD CALLDATALOAD PUSH8 0xFFFFFFFFFFFFFFFF DUP2 GT ISZERO PUSH2 0x35CD JUMPI PUSH1 0x0 DUP1 REVERT JUMPDEST PUSH2 0x35D9 DUP10 DUP3 DUP11 ADD PUSH2 0x3389 JUMP JUMPDEST SWAP3 POP SWAP3 POP POP SWAP3 SWAP6 POP SWAP3 SWAP6 POP SWAP3 SWAP6 JUMP JUMPDEST PUSH1 0x0 DUP1 PUSH1 0x0 PUSH1 0xE0 DUP5 DUP7 SUB SLT ISZERO PUSH2 0x35FD JUMPI PUSH1 0x0 DUP1 REVERT JUMPDEST PUSH1 0x0 PUSH2 0x360B DUP7 DUP3 DUP8 ADD PUSH2 0x331B JUMP JUMPDEST SWAP4 POP POP PUSH1 0x20 PUSH2 0x361C DUP7 DUP3 DUP8 ADD PUSH2 0x332F JUMP JUMPDEST SWAP3 POP POP PUSH1 0xC0 PUSH2 0x362D DUP7 DUP3 DUP8 ADD PUSH2 0x342B JUMP JUMPDEST SWAP2 POP POP SWAP3 POP SWAP3 POP SWAP3 JUMP JUMPDEST PUSH1 0x0 DUP1 PUSH1 0x40 DUP4 DUP6 SUB SLT ISZERO PUSH2 0x364A JUMPI PUSH1 0x0 DUP1 REVERT JUMPDEST PUSH1 0x0 PUSH2 0x3658 DUP6 DUP3 DUP7 ADD PUSH2 0x331B JUMP JUMPDEST SWAP3 POP POP PUSH1 0x20 PUSH2 0x3669 DUP6 DUP3 DUP7 ADD PUSH2 0x334D JUMP JUMPDEST SWAP2 POP POP SWAP3 POP SWAP3 SWAP1 POP JUMP JUMPDEST PUSH1 0x0 DUP1 PUSH1 0x40 DUP4 DUP6 SUB SLT ISZERO PUSH2 0x3686 JUMPI PUSH1 0x0 DUP1 REVERT JUMPDEST PUSH1 0x0 PUSH2 0x3694 DUP6 DUP3 DUP7 ADD PUSH2 0x331B JUMP JUMPDEST SWAP3 POP POP PUSH1 0x20 PUSH2 0x36A5 DUP6 DUP3 DUP7 ADD PUSH2 0x3361 JUMP JUMPDEST SWAP2 POP POP SWAP3 POP SWAP3 SWAP1 POP JUMP JUMPDEST PUSH1 0x0 DUP1 PUSH1 0x40 DUP4 DUP6 SUB SLT ISZERO PUSH2 0x36C2 JUMPI PUSH1 0x0 DUP1 REVERT JUMPDEST PUSH1 0x0 PUSH2 0x36D0 DUP6 DUP3 DUP7 ADD PUSH2 0x331B JUMP JUMPDEST SWAP3 POP POP PUSH1 0x20 PUSH2 0x36E1 DUP6 DUP3 DUP7 ADD PUSH2 0x342B JUMP JUMPDEST SWAP2 POP POP SWAP3 POP SWAP3 SWAP1 POP JUMP JUMPDEST PUSH1 0x0 PUSH1 0x20 DUP3 DUP5 SUB SLT ISZERO PUSH2 0x36FD JUMPI PUSH1 0x0 DUP1 REVERT JUMPDEST PUSH1 0x0 PUSH2 0x370B DUP5 DUP3 DUP6 ADD PUSH2 0x3361 JUMP JUMPDEST SWAP2 POP POP SWAP3 SWAP2 POP POP JUMP JUMPDEST PUSH1 0x0 DUP1 PUSH1 0x40 DUP4 DUP6 SUB SLT ISZERO PUSH2 0x3727 JUMPI PUSH1 0x0 DUP1 REVERT JUMPDEST PUSH1 0x0 PUSH2 0x3735 DUP6 DUP3 DUP7 ADD PUSH2 0x3361 JUMP JUMPDEST SWAP3 POP POP PUSH1 0x20 PUSH2 0x3746 DUP6 DUP3 DUP7 ADD PUSH2 0x342B JUMP JUMPDEST SWAP2 POP POP SWAP3 POP SWAP3 SWAP1 POP JUMP JUMPDEST PUSH1 0x0 PUSH1 0x20 DUP3 DUP5 SUB SLT ISZERO PUSH2 0x3762 JUMPI PUSH1 0x0 DUP1 REVERT JUMPDEST PUSH1 0x0 PUSH2 0x3770 DUP5 DUP3 DUP6 ADD PUSH2 0x3375 JUMP JUMPDEST SWAP2 POP POP SWAP3 SWAP2 POP POP JUMP JUMPDEST PUSH1 0x0 PUSH1 0x20 DUP3 DUP5 SUB SLT ISZERO PUSH2 0x378B JUMPI PUSH1 0x0 DUP1 REVERT JUMPDEST PUSH1 0x0 DUP3 ADD CALLDATALOAD PUSH8 0xFFFFFFFFFFFFFFFF DUP2 GT ISZERO PUSH2 0x37A5 JUMPI PUSH1 0x0 DUP1 REVERT JUMPDEST PUSH2 0x37B1 DUP5 DUP3 DUP6 ADD PUSH2 0x33D5 JUMP JUMPDEST SWAP2 POP POP SWAP3 SWAP2 POP POP JUMP JUMPDEST PUSH1 0x0 PUSH1 0x20 DUP3 DUP5 SUB SLT ISZERO PUSH2 0x37CC JUMPI PUSH1 0x0 DUP1 REVERT JUMPDEST PUSH1 0x0 PUSH2 0x37DA DUP5 DUP3 DUP6 ADD PUSH2 0x342B JUMP JUMPDEST SWAP2 POP POP SWAP3 SWAP2 POP POP JUMP JUMPDEST PUSH2 0x37EC DUP2 PUSH2 0x42A4 JUMP JUMPDEST DUP3 MSTORE POP POP JUMP JUMPDEST PUSH2 0x37FB DUP2 PUSH2 0x41E7 JUMP JUMPDEST DUP3 MSTORE POP POP JUMP JUMPDEST PUSH1 0x0 PUSH2 0x380C DUP3 PUSH2 0x4196 JUMP JUMPDEST DUP1 DUP5 MSTORE PUSH1 0x20 DUP5 ADD SWAP4 POP PUSH2 0x381E DUP4 PUSH2 0x416D JUMP JUMPDEST PUSH1 0x0 JUMPDEST DUP3 DUP2 LT ISZERO PUSH2 0x3850 JUMPI PUSH2 0x3834 DUP7 DUP4 MLOAD PUSH2 0x38B6 JUMP JUMPDEST PUSH2 0x383D DUP3 PUSH2 0x41CD JUMP JUMPDEST SWAP2 POP PUSH1 0x20 DUP7 ADD SWAP6 POP PUSH1 0x1 DUP2 ADD SWAP1 POP PUSH2 0x3821 JUMP JUMPDEST POP DUP5 SWAP3 POP POP POP SWAP3 SWAP2 POP POP JUMP JUMPDEST PUSH2 0x3865 DUP2 PUSH2 0x41A1 JUMP JUMPDEST PUSH2 0x386E DUP3 PUSH2 0x417A JUMP JUMPDEST PUSH1 0x0 JUMPDEST DUP3 DUP2 LT ISZERO PUSH2 0x38A0 JUMPI PUSH2 0x3884 DUP6 DUP4 MLOAD PUSH2 0x3D5D JUMP JUMPDEST PUSH2 0x388D DUP3 PUSH2 0x41DA JUMP JUMPDEST SWAP2 POP PUSH1 0x20 DUP6 ADD SWAP5 POP PUSH1 0x1 DUP2 ADD SWAP1 POP PUSH2 0x3871 JUMP JUMPDEST POP POP POP POP POP JUMP JUMPDEST PUSH2 0x38B0 DUP2 PUSH2 0x41F9 JUMP JUMPDEST DUP3 MSTORE POP POP JUMP JUMPDEST PUSH2 0x38BF DUP2 PUSH2 0x4205 JUMP JUMPDEST DUP3 MSTORE POP POP JUMP JUMPDEST PUSH1 0x0 PUSH2 0x38D0 DUP3 PUSH2 0x41AC JUMP JUMPDEST DUP1 DUP5 MSTORE PUSH2 0x38E4 DUP2 PUSH1 0x20 DUP7 ADD PUSH1 0x20 DUP7 ADD PUSH2 0x42E9 JUMP JUMPDEST PUSH2 0x38ED DUP2 PUSH2 0x431C JUMP JUMPDEST PUSH1 0x20 DUP6 ADD ADD SWAP2 POP POP SWAP3 SWAP2 POP POP JUMP JUMPDEST PUSH1 0x0 PUSH2 0x3906 DUP3 PUSH2 0x41C2 JUMP JUMPDEST DUP1 DUP5 MSTORE PUSH2 0x391A DUP2 PUSH1 0x20 DUP7 ADD PUSH1 0x20 DUP7 ADD PUSH2 0x42E9 JUMP JUMPDEST PUSH2 0x3923 DUP2 PUSH2 0x431C JUMP JUMPDEST PUSH1 0x20 DUP6 ADD ADD SWAP2 POP POP SWAP3 SWAP2 POP POP JUMP JUMPDEST PUSH1 0x0 PUSH2 0x393C DUP3 PUSH2 0x41B7 JUMP JUMPDEST DUP1 DUP5 MSTORE PUSH2 0x3950 DUP2 PUSH1 0x20 DUP7 ADD PUSH1 0x20 DUP7 ADD PUSH2 0x42E9 JUMP JUMPDEST PUSH2 0x3959 DUP2 PUSH2 0x431C JUMP JUMPDEST PUSH1 0x20 DUP6 ADD ADD SWAP2 POP POP SWAP3 SWAP2 POP POP JUMP JUMPDEST PUSH1 0x0 DUP2 SLOAD PUSH1 0x1 DUP2 AND PUSH1 0x0 DUP2 EQ PUSH2 0x3984 JUMPI PUSH1 0x1 DUP2 EQ PUSH2 0x39A4 JUMPI PUSH2 0x39E5 JUMP JUMPDEST PUSH1 0x7F PUSH1 0x2 DUP4 DIV AND DUP1 DUP7 MSTORE PUSH1 0xFF NOT DUP4 AND PUSH1 0x20 DUP8 ADD MSTORE PUSH1 0x40 DUP7 ADD SWAP4 POP POP PUSH2 0x39E5 JUMP JUMPDEST PUSH1 0x2 DUP3 DIV DUP1 DUP7 MSTORE PUSH1 0x20 DUP7 ADD SWAP6 POP PUSH2 0x39BA DUP6 PUSH2 0x4184 JUMP JUMPDEST PUSH1 0x0 JUMPDEST DUP3 DUP2 LT ISZERO PUSH2 0x39DC JUMPI DUP2 SLOAD DUP2 DUP10 ADD MSTORE PUSH1 0x1 DUP3 ADD SWAP2 POP PUSH1 0x20 DUP2 ADD SWAP1 POP PUSH2 0x39BD JUMP JUMPDEST DUP1 DUP9 ADD SWAP6 POP POP POP POP JUMPDEST POP POP SWAP3 SWAP2 POP POP JUMP JUMPDEST PUSH1 0x0 PUSH1 0x3 DUP3 MSTORE PUSH32 0x3132380000000000000000000000000000000000000000000000000000000000 PUSH1 0x20 DUP4 ADD MSTORE PUSH1 0x40 DUP3 ADD SWAP1 POP SWAP2 SWAP1 POP JUMP JUMPDEST PUSH1 0x0 PUSH1 0x3 DUP3 MSTORE PUSH32 0x3133370000000000000000000000000000000000000000000000000000000000 PUSH1 0x20 DUP4 ADD MSTORE PUSH1 0x40 DUP3 ADD SWAP1 POP SWAP2 SWAP1 POP JUMP JUMPDEST PUSH1 0x0 PUSH1 0x3 DUP3 MSTORE PUSH32 0x3133330000000000000000000000000000000000000000000000000000000000 PUSH1 0x20 DUP4 ADD MSTORE PUSH1 0x40 DUP3 ADD SWAP1 POP SWAP2 SWAP1 POP JUMP JUMPDEST PUSH1 0x0 PUSH1 0x3 DUP3 MSTORE PUSH32 0x3133390000000000000000000000000000000000000000000000000000000000 PUSH1 0x20 DUP4 ADD MSTORE PUSH1 0x40 DUP3 ADD SWAP1 POP SWAP2 SWAP1 POP JUMP JUMPDEST PUSH1 0x0 PUSH1 0x3 DUP3 MSTORE PUSH32 0x3133300000000000000000000000000000000000000000000000000000000000 PUSH1 0x20 DUP4 ADD MSTORE PUSH1 0x40 DUP3 ADD SWAP1 POP SWAP2 SWAP1 POP JUMP JUMPDEST PUSH1 0x0 PUSH1 0x3 DUP3 MSTORE PUSH32 0x3132390000000000000000000000000000000000000000000000000000000000 PUSH1 0x20 DUP4 ADD MSTORE PUSH1 0x40 DUP3 ADD SWAP1 POP SWAP2 SWAP1 POP JUMP JUMPDEST PUSH1 0x0 PUSH1 0x3 DUP3 MSTORE PUSH32 0x3132350000000000000000000000000000000000000000000000000000000000 PUSH1 0x20 DUP4 ADD MSTORE PUSH1 0x40 DUP3 ADD SWAP1 POP SWAP2 SWAP1 POP JUMP JUMPDEST PUSH1 0x0 PUSH1 0x3 DUP3 MSTORE PUSH32 0x3133360000000000000000000000000000000000000000000000000000000000 PUSH1 0x20 DUP4 ADD MSTORE PUSH1 0x40 DUP3 ADD SWAP1 POP SWAP2 SWAP1 POP JUMP JUMPDEST PUSH1 0x0 PUSH1 0x3 DUP3 MSTORE PUSH32 0x3132360000000000000000000000000000000000000000000000000000000000 PUSH1 0x20 DUP4 ADD MSTORE PUSH1 0x40 DUP3 ADD SWAP1 POP SWAP2 SWAP1 POP JUMP JUMPDEST PUSH1 0x0 PUSH1 0x3 DUP3 MSTORE PUSH32 0x3133350000000000000000000000000000000000000000000000000000000000 PUSH1 0x20 DUP4 ADD MSTORE PUSH1 0x40 DUP3 ADD SWAP1 POP SWAP2 SWAP1 POP JUMP JUMPDEST PUSH1 0x0 PUSH1 0x3 DUP3 MSTORE PUSH32 0x3133340000000000000000000000000000000000000000000000000000000000 PUSH1 0x20 DUP4 ADD MSTORE PUSH1 0x40 DUP3 ADD SWAP1 POP SWAP2 SWAP1 POP JUMP JUMPDEST PUSH1 0x0 PUSH1 0x3 DUP3 MSTORE PUSH32 0x3132340000000000000000000000000000000000000000000000000000000000 PUSH1 0x20 DUP4 ADD MSTORE PUSH1 0x40 DUP3 ADD SWAP1 POP SWAP2 SWAP1 POP JUMP JUMPDEST PUSH1 0x0 PUSH1 0x3 DUP3 MSTORE PUSH32 0x3133380000000000000000000000000000000000000000000000000000000000 PUSH1 0x20 DUP4 ADD MSTORE PUSH1 0x40 DUP3 ADD SWAP1 POP SWAP2 SWAP1 POP JUMP JUMPDEST PUSH1 0x0 PUSH1 0x3 DUP3 MSTORE PUSH32 0x3133310000000000000000000000000000000000000000000000000000000000 PUSH1 0x20 DUP4 ADD MSTORE PUSH1 0x40 DUP3 ADD SWAP1 POP SWAP2 SWAP1 POP JUMP JUMPDEST PUSH1 0x0 PUSH1 0x3 DUP3 MSTORE PUSH32 0x3133320000000000000000000000000000000000000000000000000000000000 PUSH1 0x20 DUP4 ADD MSTORE PUSH1 0x40 DUP3 ADD SWAP1 POP SWAP2 SWAP1 POP JUMP JUMPDEST PUSH1 0x0 PUSH1 0x3 DUP3 MSTORE PUSH32 0x3132370000000000000000000000000000000000000000000000000000000000 PUSH1 0x20 DUP4 ADD MSTORE PUSH1 0x40 DUP3 ADD SWAP1 POP SWAP2 SWAP1 POP JUMP JUMPDEST PUSH2 0x3D66 DUP2 PUSH2 0x422F JUMP JUMPDEST DUP3 MSTORE POP POP JUMP JUMPDEST PUSH2 0x3D75 DUP2 PUSH2 0x4239 JUMP JUMPDEST DUP3 MSTORE POP POP JUMP JUMPDEST PUSH1 0x0 PUSH1 0x20 DUP3 ADD SWAP1 POP PUSH2 0x3D90 PUSH1 0x0 DUP4 ADD DUP5 PUSH2 0x37F2 JUMP JUMPDEST SWAP3 SWAP2 POP POP JUMP JUMPDEST PUSH1 0x0 PUSH1 0xA0 DUP3 ADD SWAP1 POP PUSH2 0x3DAB PUSH1 0x0 DUP4 ADD DUP9 PUSH2 0x37E3 JUMP JUMPDEST PUSH2 0x3DB8 PUSH1 0x20 DUP4 ADD DUP8 PUSH2 0x37F2 JUMP JUMPDEST PUSH2 0x3DC5 PUSH1 0x40 DUP4 ADD DUP7 PUSH2 0x38B6 JUMP JUMPDEST PUSH2 0x3DD2 PUSH1 0x60 DUP4 ADD DUP6 PUSH2 0x3D5D JUMP JUMPDEST DUP2 DUP2 SUB PUSH1 0x80 DUP4 ADD MSTORE PUSH2 0x3DE4 DUP2 DUP5 PUSH2 0x38C5 JUMP JUMPDEST SWAP1 POP SWAP7 SWAP6 POP POP POP POP POP POP JUMP JUMPDEST PUSH1 0x0 PUSH1 0x20 DUP3 ADD SWAP1 POP DUP2 DUP2 SUB PUSH1 0x0 DUP4 ADD MSTORE PUSH2 0x3E0A DUP2 DUP5 PUSH2 0x3801 JUMP JUMPDEST SWAP1 POP SWAP3 SWAP2 POP POP JUMP JUMPDEST PUSH1 0x0 PUSH1 0xA0 DUP3 ADD SWAP1 POP PUSH2 0x3E27 PUSH1 0x0 DUP4 ADD DUP5 PUSH2 0x385C JUMP JUMPDEST SWAP3 SWAP2 POP POP JUMP JUMPDEST PUSH1 0x0 PUSH1 0x20 DUP3 ADD SWAP1 POP PUSH2 0x3E42 PUSH1 0x0 DUP4 ADD DUP5 PUSH2 0x38A7 JUMP JUMPDEST SWAP3 SWAP2 POP POP JUMP JUMPDEST PUSH1 0x0 PUSH1 0x20 DUP3 ADD SWAP1 POP PUSH2 0x3E5D PUSH1 0x0 DUP4 ADD DUP5 PUSH2 0x38B6 JUMP JUMPDEST SWAP3 SWAP2 POP POP JUMP JUMPDEST PUSH1 0x0 PUSH1 0x20 DUP3 ADD SWAP1 POP DUP2 DUP2 SUB PUSH1 0x0 DUP4 ADD MSTORE PUSH2 0x3E7D DUP2 DUP5 PUSH2 0x3931 JUMP JUMPDEST SWAP1 POP SWAP3 SWAP2 POP POP JUMP JUMPDEST PUSH1 0x0 PUSH1 0x20 DUP3 ADD SWAP1 POP DUP2 DUP2 SUB PUSH1 0x0 DUP4 ADD MSTORE PUSH2 0x3E9F DUP2 DUP5 PUSH2 0x38FB JUMP JUMPDEST SWAP1 POP SWAP3 SWAP2 POP POP JUMP JUMPDEST PUSH1 0x0 PUSH1 0x40 DUP3 ADD SWAP1 POP DUP2 DUP2 SUB PUSH1 0x0 DUP4 ADD MSTORE PUSH2 0x3EC1 DUP2 DUP6 PUSH2 0x3967 JUMP JUMPDEST SWAP1 POP DUP2 DUP2 SUB PUSH1 0x20 DUP4 ADD MSTORE PUSH2 0x3ED5 DUP2 DUP5 PUSH2 0x38FB JUMP JUMPDEST SWAP1 POP SWAP4 SWAP3 POP POP POP JUMP JUMPDEST PUSH1 0x0 PUSH1 0x20 DUP3 ADD SWAP1 POP DUP2 DUP2 SUB PUSH1 0x0 DUP4 ADD MSTORE PUSH2 0x3EF7 DUP2 PUSH2 0x39ED JUMP JUMPDEST SWAP1 POP SWAP2 SWAP1 POP JUMP JUMPDEST PUSH1 0x0 PUSH1 0x20 DUP3 ADD SWAP1 POP DUP2 DUP2 SUB PUSH1 0x0 DUP4 ADD MSTORE PUSH2 0x3F17 DUP2 PUSH2 0x3A24 JUMP JUMPDEST SWAP1 POP SWAP2 SWAP1 POP JUMP JUMPDEST PUSH1 0x0 PUSH1 0x20 DUP3 ADD SWAP1 POP DUP2 DUP2 SUB PUSH1 0x0 DUP4 ADD MSTORE PUSH2 0x3F37 DUP2 PUSH2 0x3A5B JUMP JUMPDEST SWAP1 POP SWAP2 SWAP1 POP JUMP JUMPDEST PUSH1 0x0 PUSH1 0x20 DUP3 ADD SWAP1 POP DUP2 DUP2 SUB PUSH1 0x0 DUP4 ADD MSTORE PUSH2 0x3F57 DUP2 PUSH2 0x3A92 JUMP JUMPDEST SWAP1 POP SWAP2 SWAP1 POP JUMP JUMPDEST PUSH1 0x0 PUSH1 0x20 DUP3 ADD SWAP1 POP DUP2 DUP2 SUB PUSH1 0x0 DUP4 ADD MSTORE PUSH2 0x3F77 DUP2 PUSH2 0x3AC9 JUMP JUMPDEST SWAP1 POP SWAP2 SWAP1 POP JUMP JUMPDEST PUSH1 0x0 PUSH1 0x20 DUP3 ADD SWAP1 POP DUP2 DUP2 SUB PUSH1 0x0 DUP4 ADD MSTORE PUSH2 0x3F97 DUP2 PUSH2 0x3B00 JUMP JUMPDEST SWAP1 POP SWAP2 SWAP1 POP JUMP JUMPDEST PUSH1 0x0 PUSH1 0x20 DUP3 ADD SWAP1 POP DUP2 DUP2 SUB PUSH1 0x0 DUP4 ADD MSTORE PUSH2 0x3FB7 DUP2 PUSH2 0x3B37 JUMP JUMPDEST SWAP1 POP SWAP2 SWAP1 POP JUMP JUMPDEST PUSH1 0x0 PUSH1 0x20 DUP3 ADD SWAP1 POP DUP2 DUP2 SUB PUSH1 0x0 DUP4 ADD MSTORE PUSH2 0x3FD7 DUP2 PUSH2 0x3B6E JUMP JUMPDEST SWAP1 POP SWAP2 SWAP1 POP JUMP JUMPDEST PUSH1 0x0 PUSH1 0x20 DUP3 ADD SWAP1 POP DUP2 DUP2 SUB PUSH1 0x0 DUP4 ADD MSTORE PUSH2 0x3FF7 DUP2 PUSH2 0x3BA5 JUMP JUMPDEST SWAP1 POP SWAP2 SWAP1 POP JUMP JUMPDEST PUSH1 0x0 PUSH1 0x20 DUP3 ADD SWAP1 POP DUP2 DUP2 SUB PUSH1 0x0 DUP4 ADD MSTORE PUSH2 0x4017 DUP2 PUSH2 0x3BDC JUMP JUMPDEST SWAP1 POP SWAP2 SWAP1 POP JUMP JUMPDEST PUSH1 0x0 PUSH1 0x20 DUP3 ADD SWAP1 POP DUP2 DUP2 SUB PUSH1 0x0 DUP4 ADD MSTORE PUSH2 0x4037 DUP2 PUSH2 0x3C13 JUMP JUMPDEST SWAP1 POP SWAP2 SWAP1 POP JUMP JUMPDEST PUSH1 0x0 PUSH1 0x20 DUP3 ADD SWAP1 POP DUP2 DUP2 SUB PUSH1 0x0 DUP4 ADD MSTORE PUSH2 0x4057 DUP2 PUSH2 0x3C4A JUMP JUMPDEST SWAP1 POP SWAP2 SWAP1 POP JUMP JUMPDEST PUSH1 0x0 PUSH1 0x20 DUP3 ADD SWAP1 POP DUP2 DUP2 SUB PUSH1 0x0 DUP4 ADD MSTORE PUSH2 0x4077 DUP2 PUSH2 0x3C81 JUMP JUMPDEST SWAP1 POP SWAP2 SWAP1 POP JUMP JUMPDEST PUSH1 0x0 PUSH1 0x20 DUP3 ADD SWAP1 POP DUP2 DUP2 SUB PUSH1 0x0 DUP4 ADD MSTORE PUSH2 0x4097 DUP2 PUSH2 0x3CB8 JUMP JUMPDEST SWAP1 POP SWAP2 SWAP1 POP JUMP JUMPDEST PUSH1 0x0 PUSH1 0x20 DUP3 ADD SWAP1 POP DUP2 DUP2 SUB PUSH1 0x0 DUP4 ADD MSTORE PUSH2 0x40B7 DUP2 PUSH2 0x3CEF JUMP JUMPDEST SWAP1 POP SWAP2 SWAP1 POP JUMP JUMPDEST PUSH1 0x0 PUSH1 0x20 DUP3 ADD SWAP1 POP DUP2 DUP2 SUB PUSH1 0x0 DUP4 ADD MSTORE PUSH2 0x40D7 DUP2 PUSH2 0x3D26 JUMP JUMPDEST SWAP1 POP SWAP2 SWAP1 POP JUMP JUMPDEST PUSH1 0x0 PUSH1 0x20 DUP3 ADD SWAP1 POP PUSH2 0x40F3 PUSH1 0x0 DUP4 ADD DUP5 PUSH2 0x3D5D JUMP JUMPDEST SWAP3 SWAP2 POP POP JUMP JUMPDEST PUSH1 0x0 PUSH1 0x20 DUP3 ADD SWAP1 POP PUSH2 0x410E PUSH1 0x0 DUP4 ADD DUP5 PUSH2 0x3D6C JUMP JUMPDEST SWAP3 SWAP2 POP POP JUMP JUMPDEST PUSH1 0x0 PUSH1 0x40 MLOAD SWAP1 POP DUP2 DUP2 ADD DUP2 DUP2 LT PUSH8 0xFFFFFFFFFFFFFFFF DUP3 GT OR ISZERO PUSH2 0x4137 JUMPI PUSH1 0x0 DUP1 REVERT JUMPDEST DUP1 PUSH1 0x40 MSTORE POP SWAP2 SWAP1 POP JUMP JUMPDEST PUSH1 0x0 PUSH8 0xFFFFFFFFFFFFFFFF DUP3 GT ISZERO PUSH2 0x4158 JUMPI PUSH1 0x0 DUP1 REVERT JUMPDEST PUSH1 0x1F NOT PUSH1 0x1F DUP4 ADD AND SWAP1 POP PUSH1 0x20 DUP2 ADD SWAP1 POP SWAP2 SWAP1 POP JUMP JUMPDEST PUSH1 0x0 PUSH1 0x20 DUP3 ADD SWAP1 POP SWAP2 SWAP1 POP JUMP JUMPDEST PUSH1 0x0 DUP2 SWAP1 POP SWAP2 SWAP1 POP JUMP JUMPDEST PUSH1 0x0 DUP2 PUSH1 0x0 MSTORE PUSH1 0x20 PUSH1 0x0 KECCAK256 SWAP1 POP SWAP2 SWAP1 POP JUMP JUMPDEST PUSH1 0x0 DUP2 MLOAD SWAP1 POP SWAP2 SWAP1 POP JUMP JUMPDEST PUSH1 0x0 PUSH1 0x5 SWAP1 POP SWAP2 SWAP1 POP JUMP JUMPDEST PUSH1 0x0 DUP2 MLOAD SWAP1 POP SWAP2 SWAP1 POP JUMP JUMPDEST PUSH1 0x0 DUP2 MLOAD SWAP1 POP SWAP2 SWAP1 POP JUMP JUMPDEST PUSH1 0x0 DUP2 MLOAD SWAP1 POP SWAP2 SWAP1 POP JUMP JUMPDEST PUSH1 0x0 PUSH1 0x20 DUP3 ADD SWAP1 POP SWAP2 SWAP1 POP JUMP JUMPDEST PUSH1 0x0 PUSH1 0x20 DUP3 ADD SWAP1 POP SWAP2 SWAP1 POP JUMP JUMPDEST PUSH1 0x0 PUSH2 0x41F2 DUP3 PUSH2 0x420F JUMP JUMPDEST SWAP1 POP SWAP2 SWAP1 POP JUMP JUMPDEST PUSH1 0x0 DUP2 ISZERO ISZERO SWAP1 POP SWAP2 SWAP1 POP JUMP JUMPDEST PUSH1 0x0 DUP2 SWAP1 POP SWAP2 SWAP1 POP JUMP JUMPDEST PUSH1 0x0 PUSH20 0xFFFFFFFFFFFFFFFFFFFFFFFFFFFFFFFFFFFFFFFF DUP3 AND SWAP1 POP SWAP2 SWAP1 POP JUMP JUMPDEST PUSH1 0x0 DUP2 SWAP1 POP SWAP2 SWAP1 POP JUMP JUMPDEST PUSH1 0x0 PUSH1 0xFF DUP3 AND SWAP1 POP SWAP2 SWAP1 POP JUMP JUMPDEST PUSH1 0x0 PUSH2 0x4251 DUP3 PUSH2 0x420F JUMP JUMPDEST SWAP1 POP SWAP2 SWAP1 POP JUMP JUMPDEST PUSH1 0x0 DUP2 ISZERO ISZERO SWAP1 POP SWAP2 SWAP1 POP JUMP JUMPDEST PUSH1 0x0 DUP2 SWAP1 POP SWAP2 SWAP1 POP JUMP JUMPDEST PUSH1 0x0 PUSH32 0xFFFFFFFF00000000000000000000000000000000000000000000000000000000 DUP3 AND SWAP1 POP SWAP2 SWAP1 POP JUMP JUMPDEST PUSH1 0x0 DUP2 SWAP1 POP SWAP2 SWAP1 POP JUMP JUMPDEST PUSH1 0x0 PUSH2 0x42AF DUP3 PUSH2 0x42B6 JUMP JUMPDEST SWAP1 POP SWAP2 SWAP1 POP JUMP JUMPDEST PUSH1 0x0 PUSH2 0x42C1 DUP3 PUSH2 0x42C8 JUMP JUMPDEST SWAP1 POP SWAP2 SWAP1 POP JUMP JUMPDEST PUSH1 0x0 PUSH2 0x42D3 DUP3 PUSH2 0x420F JUMP JUMPDEST SWAP1 POP SWAP2 SWAP1 POP JUMP JUMPDEST DUP3 DUP2 DUP4 CALLDATACOPY PUSH1 0x0 DUP4 DUP4 ADD MSTORE POP POP POP JUMP JUMPDEST PUSH1 0x0 JUMPDEST DUP4 DUP2 LT ISZERO PUSH2 0x4307 JUMPI DUP1 DUP3 ADD MLOAD DUP2 DUP5 ADD MSTORE PUSH1 0x20 DUP2 ADD SWAP1 POP PUSH2 0x42EC JUMP JUMPDEST DUP4 DUP2 GT ISZERO PUSH2 0x4316 JUMPI PUSH1 0x0 DUP5 DUP5 ADD MSTORE JUMPDEST POP POP POP POP JUMP JUMPDEST PUSH1 0x0 PUSH1 0x1F NOT PUSH1 0x1F DUP4 ADD AND SWAP1 POP SWAP2 SWAP1 POP JUMP INVALID LOG2 PUSH6 0x627A7A723058 KECCAK256 EQ 0xc8 0x4e SUB 0x5c CODESIZE SWAP13 0xab 0xc7 PUSH18 0x117E347AD5D19A025F2FA7BF88CC5195C8DB CALL 0x2c 0xdb 0xaf PUSH13 0x6578706572696D656E74616CF5 STOP CALLDATACOPY "
				},
				"gasEstimates": {
					"creation": {
						"codeDepositCost": "3451000",
						"executionCost": "infinite",
						"totalCost": "infinite"
					},
					"external": {
						"approve(address,address,bytes32,uint256)": "infinite",
						"balanceById(address,bytes32)": "1209",
						"balanceOf(address)": "1229",
						"balances(address,bytes32)": "1101",
						"burn(bytes32,uint256)": "infinite",
						"decimals()": "722",
						"getApproved(address,address,bytes32)": "infinite",
						"getMetadata(bytes32)": "infinite",
						"getTokens()": "infinite",
						"isApprovedForAll(address,address)": "infinite",
						"isExpired(bytes32)": "1120",
						"jsonReference()": "infinite",
						"mint(address,uint256[5],uint256)": "infinite",
						"name()": "infinite",
						"owner()": "955",
						"safeTransferFrom(address,address,bytes32,uint256,bytes)": "infinite",
						"safeTransferFromApproved(address,address,bytes32,uint256,bytes)": "infinite",
						"setApprovalForAll(address,bool)": "23347",
						"setJsonReference(string)": "infinite",
						"setOwner(address)": "22738",
						"supplyByCategory(bytes32)": "1352",
						"symbol()": "infinite",
						"tokenOfOwner(address)": "infinite",
						"tokenOfOwnerByIndex(address,uint256)": "1744",
						"tokens(uint256)": "1201",
						"totalSupply()": "578",
						"transferFrom(address,address,bytes32,uint256)": "infinite"
					},
					"internal": {
						"_addNFToken(address,bytes32)": "infinite",
						"_burn(address,bytes32,uint256)": "infinite",
						"_decreaseBalance(address,bytes32,uint256)": "infinite",
						"_getOwnerNFTCount(address)": "324",
						"_increaseBalance(address,bytes32,uint256)": "infinite",
						"_mint(address,bytes32,uint256)": "infinite",
						"_removeNFToken(address,bytes32)": "infinite",
						"_safeTransferFrom(address,address,bytes32,uint256,bytes memory)": "infinite",
						"_setJson(uint256[5] memory,bytes32)": "infinite",
						"_transfer(address,address,bytes32,uint256)": "infinite"
					}
				},
				"methodIdentifiers": {
					"approve(address,address,bytes32,uint256)": "5eddd9c9",
					"balanceById(address,bytes32)": "27e6186a",
					"balanceOf(address)": "70a08231",
					"balances(address,bytes32)": "1f14df69",
					"burn(bytes32,uint256)": "7a408454",
					"decimals()": "313ce567",
					"getApproved(address,address,bytes32)": "5944ac08",
					"getMetadata(bytes32)": "a5961b4c",
					"getTokens()": "aa6ca808",
					"isApprovedForAll(address,address)": "e985e9c5",
					"isExpired(bytes32)": "6db2feb2",
					"jsonReference()": "f86c1a78",
					"mint(address,uint256[5],uint256)": "72a60c7c",
					"name()": "06fdde03",
					"owner()": "8da5cb5b",
					"safeTransferFrom(address,address,bytes32,uint256,bytes)": "e6863ac4",
					"safeTransferFromApproved(address,address,bytes32,uint256,bytes)": "b8f87d09",
					"setApprovalForAll(address,bool)": "a22cb465",
					"setJsonReference(string)": "9379e5f5",
					"setOwner(address)": "13af4035",
					"supplyByCategory(bytes32)": "eea268a4",
					"symbol()": "95d89b41",
					"tokenOfOwner(address)": "294cdf0d",
					"tokenOfOwnerByIndex(address,uint256)": "2f745c59",
					"tokens(uint256)": "4f64b2be",
					"totalSupply()": "18160ddd",
					"transferFrom(address,address,bytes32,uint256)": "7fe68381"
				}
			},
			"userdoc": {
				"methods": {
					"approve(address,address,bytes32,uint256)": {
						"notice": "The zero address indicates there is no approved address. Throws unless `msg.sender` is the current NFT owner, or an authorized operator of the current owner."
					},
					"getApproved(address,address,bytes32)": {
						"notice": "Throws if `_tokenId` is not a valid NFT."
					},
					"mint(address,uint256[5],uint256)": {
						"notice": "*********************************** "
					},
					"safeTransferFrom(address,address,bytes32,uint256,bytes)": {
						"notice": "Throws unless `msg.sender` is the current owner, an authorized operator, or the approved address for this NFT. Throws if `_from` is not the current owner. Throws if `_to` is the zero address. Throws if `_tokenId` is not a valid NFT. When transfer is complete, this function checks if `_to` is a smart contract (code size > 0). If so, it calls `onERC721Received` on `_to` and throws if the return value is not `bytes4(keccak256(\"onERC721Received(address,uint256,bytes)\"))`."
					},
					"setApprovalForAll(address,bool)": {
						"notice": "This works even if sender doesn't own any tokens at the time."
					},
					"transferFrom(address,address,bytes32,uint256)": {
						"notice": "The caller is responsible to confirm that `_to` is capable of receiving NFTs or else they maybe be permanently lost."
					}
				}
			}
		}
	}
}